:020000040000FA
:0600000020EFC8F0120021
:020006000000F8
:0600080095EF16F0120056
:02000E001200DE
:060018004FEF0CF0120096
:02001E00D9CF38
:10002000E6FFE1CFD9FF090EE12607EC17F060ECFF
:1000300017F0C00EF2120F013985BA94B9843DEC65
:10004000A4F043ECA4F03FECABF04BECA4F0DBEC01
:10005000A4F085C7E6FF320EE66EE66A39ECC6F01C
:10006000E552E552E5520401030E146F0401010E3E
:10007000156F8D80A7EC88F000090AE10501290EB3
:10008000446F0601010E126F0601010E136F0DD0B1
:1000900001EC89F0000909E10501280E446F060111
:1000A000010E126F0601010E136F07019051010836
:1000B00006E2020E0701905D0901816F03D009017C
:1000C000010E816F09018151000817E204010351FB
:1000D00014E1060E0401025D10E109019A0505E133
:1000E0005DEC35F009019A6B07D009019B0504E12D
:1000F0005AEC38F009019B6BE5D70401010E036F40
:100100000401060E026F85C7E6FF320EE66EE66A50
:1001100039ECC6F0E552E552E5523FECABF0060192
:10012000130547E10401006B8FC7E6FFE1EC4BF0DC
:10013000E5520701010E8F6F00C452F60601AD694A
:100140000401020E036F020E0401035D0CE0030EB6
:100150000401035D08E0040E0401035D04E0050EE4
:100160000401035D25E144C5E6FFF1ECA5F0E5528D
:1001700007018551E66EE66A0C0EE66EE66A85ECCE
:10018000C6F0E552E552E552E5520401036B040165
:10019000035101E1FCD785C7E6FF320EE66EE66A41
:1001A00039ECC6F0E552E552E5520401010E036F49
:1001B000B6D705013B5101E0FBD10401006B8FC7AD
:1001C000E6FFE1EC4BF0E5520701010E8F6F00C432
:1001D00052F60601AD690401005101E007D1050E98
:1001E0000401035D3CE185C7E6FF640EE66EE66A46
:1001F00039ECC6F0E552E552E552010EE66E640EAA
:10020000E66EE66AEBEC3AF0E552E552E55285C758
:10021000E6FF320EE66EE66A39ECC6F0E552E552CC
:10022000E5521F0E0801005D16E00801B46B0D01D8
:10023000E051006E016AFF0E001801E1015006E175
:10024000010EE66EE1EC4BF0E55205D0060EE66ECF
:10025000E1EC4BF0E5520401010E036F1ED0020EDB
:100260000401035D08E0030E0401035D04E0040ED5
:100270000401035D12E185C7E6FF320EE66EE66A11
:1002800039ECC6F0E552E552E55203C4E6FF1AEC3C
:1002900059F0E5520401010E036F070E0401025DDF
:1002A00009E1070EE66E1AEC59F0E5520401060E5C
:1002B000026F0CD0080E0401025D08E1080EE66E24
:1002C0001AEC59F0E5520401060E026F06014D05C5
:1002D0000AE106014D6B010EE66EE1EC4BF0E552D2
:1002E0000401010E036F0501360504E126EC1FF041
:1002F0000501366B0601120541E10801B451EA6AB5
:10030000AA0FE96E080EEA2200C8EFFF0801B451F7
:10031000EA6AAF0FE96E080EEA2294C8EFFF44C5FF
:10032000E6FFF1ECA5F0E55207018551E66EE66ABD
:100330000C0EE66EE66A85ECC6F0E552E552E55233
:10034000E552030E0401035D01E0FBD785C7E6FF1C
:10035000320EE66EE66A39ECC6F0E552E552E55239
:100360000601126B0501446B0401006B010EE66E81
:10037000E1EC4BF0E5520401010E036F09019A050F
:1003800005E15DEC35F009019A6B07D009019B0589
:1003900004E15AEC38F009019B6B110E0401005D79
:1003A00010E10501635104E0A3EC25F00501636B46
:1003B0000701CE5106E052EC9AF00701CD6F07011C
:1003C000CE6B0701CF5111E009019C0503E0090143
:1003D0009D050BE1010EE66E640EE66EE66AEBEC3F
:1003E0003AF0E552E552E552FF00F5D6110E040150
:1003F000005D01E079D03FECABF009019A0504E122
:100400005DEC35F009019A6B0501610504E1B1EC81
:1004100020F00501616B060112052CE1140EE66E59
:10042000E66A020EE66EAC0EE66E8B0EE66E010E0E
:10043000E66E2EECA8F0006E060EE15E005044C59C
:10044000E6FF1FEC7FF0E552E76E020EE7CFDBFF21
:10045000020EE66E060EE66E020EE66E180EE66EF2
:10046000040EE66E1EECA9F0006E050EE15E005073
:100470000601126B0501630504E1A3EC25F00501FB
:10048000636B0701CE0506E152EC9AF00701CD6FD0
:100490000701CE6B0701CF0511E109019C0503E0BF
:1004A00009019D050BE1010EE66E0A0EE66EE66A95
:1004B000EBEC3AF0E552E552E552FF000501360556
:1004C00012E126EC1FF0E5C7E6FF20ECA5F0E552AF
:1004D000080E0701E55D03E20701E52B02D00701E5
:1004E000E56B0501366B89D770EC19F065EC2BF0E4
:1004F0000501036F010EE66E0EEC98F0E552050162
:1005000003511CE10501445106E1130EE66EF1ECC6
:10051000A5F0E55205D044C5E6FFF1ECA5F0E552A3
:1005200007018551E66EE66A0C0EE66EE66A85EC1A
:10053000C6F0E552E552E552E5520FD0040EE66EE4
:10054000F1ECA5F0E55285C7E6FF320EE66EE66AED
:1005500039ECC6F0E552E552E55206010A0E4B6F42
:1005600006014C6B0401035101E0FCD70501035166
:1005700007E10401035101E1FCD706014C6B12D0E5
:100580000401035104E106014C5101E1F9D7030EC6
:100590000401035D04E0050E0401035D03E10601AF
:1005A000010E406F0601010E146F03C5A5F694D12C
:1005B000DF6A07018651DF5C16E285C7E6FF320E6F
:1005C000E66EE66A39ECC6F0E552E552E552E66AB7
:1005D000F40EE66E010EE66EEBEC3AF0E552E552F3
:1005E000E552DF2AE6D70701B051B11101E1F2D09F
:1005F000B0C716F6B1C717F60601186BE66AB0C7A2
:10060000E6FFB1C7E6FFFDEC84F0E552E552E552A6
:100610000901010E706F9A0EE66EE40EE66E010E91
:10062000E66EA4EC9BF0E552E552E552E76E020E51
:10063000E7CFDBFF020EDB50070805E2070EF36E83
:10064000020EF3CFDBFF070EE66E1E0EE66E010E06
:10065000E66E6F0EE66E8B0EE66E010EE66E2EEC0B
:10066000A8F0006E060EE15E0050020EDBCFE6FF42
:100670001E0EE66E010EE66E9A0EE66EE40EE66E55
:10068000010EE66E2EECA8F0006E060EE15E005044
:100690000901010E846F090170056EE1050E040168
:1006A000035D6AE0050162050BE101C4E6FF3BEC76
:1006B00023F0E552F3CFBDF6F4CFBEF60501626B31
:1006C000050136051BE126EC1FF0F5C4E6FFF6C474
:1006D000E6FFB4C9E6FFB5C9E6FF0AEC26F0E5522D
:1006E000E552E552E55210C6E6FF01C4E6FF07EC0D
:1006F000AEF0E552E5520501366B2ED0070E04012F
:10070000025D14E1060111510601105D03E20601CC
:10071000102B02D00601106B0901010E826F05013A
:10072000010E366F0401060E026F16D0080E04018A
:10073000025D12E106011051000803E206011007F4
:1007400002D011C610F60901010E826F0501010EDB
:10075000366F0401060E026F09019A0505E15DEC92
:1007600035F009019A6B07D009019B0504E15AECA9
:1007700038F009019B6B8FD70901846B050E0401CA
:10078000035D16E105013B6B0501516B0901706BBF
:100790000601030E406F85C7E6FF320EE66EE66A7D
:1007A00039ECC6F0E552E552E5520401010E036F43
:1007B000070EE66E1E0EE66E010EE66E6F0EE66E1C
:1007C0008B0EE66E010EE66E2EECA8F0006E060EA5
:1007D000E15E0050030E0601405D01E17BD00401A3
:1007E00001510E0A67E0010A65E0020A52E0070AB9
:1007F0004CE0010A4AE0020A37E00F0A31E0010A40
:100800002FE0020A1CE0070A16E0010A14E0020ABF
:1008100001E054D00701805106E007018A5103E04E
:100820000701D35104E10401020E006F03D004015B
:10083000030E006F48D00401010E006F44D0070181
:10084000805106E007018A5103E00701D35104E11A
:100850000401060E006F03D00401070E006F33D0B1
:100860000401050E006F2FD00701805106E007013B
:100870008A5103E00701D35104E104010A0E006F1D
:1008800003D004010B0E006F1ED00401090E006F8F
:100890001AD00701805106E007018A5103E00701E1
:1008A000D35104E104010E0E006F03D004010F0EBA
:1008B000006F09D004010D0E006F05D00401006B1C
:1008C00005013B6B00D070EC19F0010EE66E0EECEA
:1008D00098F0E5520601146B030E0601405D02E13B
:1008E0004FEF0AF00601400506E00501035103E061
:1008F00006014C0529E106014C050EE10701855171
:10090000E66EE66A0C0EE66EE66A85ECC6F0E55227
:10091000E552E552E5520AD085C7E6FF320EE66E93
:10092000E66A39ECC6F0E552E552E5520601010EE1
:10093000406F0401006B05013B6B06014C6B040129
:10094000010E036F4FEF0AF085C7E6FF320EE66E29
:10095000E66A39ECC6F0E552E552E5520401010EB3
:10096000036F81EC87F00601140502E13FECABF068
:1009700000C4E6FFDEECABF0E552010EE66E000EC1
:10098000E66EE66AFDEC84F0E552E552E5520401BC
:1009900000050CE0020E0401005D08E0040E0401F5
:1009A000005D04E0030E0401005D0FE105016251EA
:1009B00001E1FCD700C4E6FF3BEC23F0E552F3CFA6
:1009C000BDF6F4CFBEF60501626B26EC1FF010C633
:1009D000E6FF00C4E6FF07ECAEF0E552E55200C4C6
:1009E000E6FF48EC1AF0E55200C4E6FFDEECABF09F
:1009F000E55226EC1FF0040100511EE0040E040134
:100A0000005D1AE0080E0401005D16E00C0E040102
:100A1000005D12E0100E0401005D0EE0070192512E
:100A20000D01955D070193510D01965905E30401F0
:100A3000146B0401156B8D8000C452F60601536BD4
:100A4000D18010C6E6FF00C4E6FF07ECAEF0E55229
:100A5000E55200C4E6FFB4EC39F0E55204000901A8
:100A6000010E846F0401005102E14CEF0AF0040012
:100A700005013F0504E1D9EC29F005013F6B0501B3
:100A8000460504E11DEC30F00501466B0701D40575
:100A900001E07DD000C401F40401006BE66A020E9F
:100AA000E66EE66AAAEC1EF0E552E552E55201C494
:100AB000E6FFDEECABF0E55210C6E6FF01C4E6FF50
:100AC00007ECAEF0E552E5520F0EE66EF1ECA5F044
:100AD000E55285C7E6FF320EE66EE66A39ECC6F0EF
:100AE000E552E552E552030E0401015D04E1040103
:100AF000020E006F1AD0070E0401015D04E104012B
:100B0000060E006F12D00B0E0401015D04E104011A
:100B10000A0E006F0AD00F0E0401015D04E104010A
:100B20000E0E006F02D00401006B00C452F670EC90
:100B300019F0010EE66E0EEC98F0E5529BC799F79E
:100B40009CC79AF70400E66AB80EE66E0B0EE66ED6
:100B5000EBEC3AF0E552E552E552040081EC87F007
:100B60003FECABF000C4E6FFDEECABF0E55210C6A4
:100B7000E6FF00C4E6FF07ECAEF0E552E5520400E4
:100B800000C4E6FF48EC1AF0E5520701D46B0501FA
:100B9000500541E100C401F40401006BE66A020E55
:100BA000E66EE66AAAEC1EF0E552E552E55201C493
:100BB000E6FFDEECABF0E55210C6E6FF01C4E6FF4F
:100BC00007ECAEF0E552E552030E06013A5D19E27C
:100BD00006013A2B0400E66AB80EE66E0B0EE66ECE
:100BE000EBEC3AF0E552E552E552040001C400F4A2
:100BF0000401035105E100C4E6FF48EC1AF0E55298
:100C000008D006013A6B0501180E446F0601010E6B
:100C1000126F0501506B0601120539E100C401F4A1
:100C20000401006BE66AE66AE66AAAEC1EF0E55289
:100C3000E552E55201C4E6FFDEECABF0E55210C62A
:100C4000E6FF01C4E6FF07ECAEF0E552E55285C7CA
:100C5000E6FF320EE66EE66A39ECC6F0E552E55282
:100C6000E552010EE66E640EE66EE66AEBEC3AF0D3
:100C7000E552E552E55285C7E6FF320EE66EE66ABA
:100C800039ECC6F0E552E552E55205013B6B050132
:100C900051051AE100C401F40401006B020EE66E76
:100CA000E66AE66AAAEC1EF0E552E552E55201C496
:100CB000E6FFDEECABF0E55210C6E6FF01C4E6FF4E
:100CC00007ECAEF0E552E5520901900501E0A8D02D
:100CD000010EE66EE66AE66AAAEC1EF0E552E552FF
:100CE000E55200C4E6FFDEECABF0E55210C6E6FFCD
:100CF00000C4E6FF07ECAEF0E552E552070185516E
:100D000005E0D1904FECC6F0D180040006011C6BC9
:100D10001D6B0501006B26EC1FF0F5C4E6FFF6C461
:100D2000E6FFB4C9E6FFB5C9E6FF0AEC26F0E552D6
:100D3000E552E552E55200C4E6FFDEECABF0E552C9
:100D400010C6E6FF00C4E6FF07ECAEF0E552E55240
:100D50000901010E916F040000C4E6FF48EC1AF08F
:100D6000E552B00EE66EE40EE66E010EE66EA4EC01
:100D70009BF0E552E552E552E76E020EE7CFDBFF4E
:100D8000020EDB50070805E2070EF36E020EF3CFEA
:100D9000DBFF070EE66E1E0EE66E010EE66E6F0EB0
:100DA000E66E8B0EE66E010EE66E2EECA8F0006E7F
:100DB000060EE15E0050020EDBCFE6FF1E0EE66E71
:100DC000010EE66EB00EE66EE40EE66E010EE66E05
:100DD0002EECA8F0006E060EE15E0050010EE66EED
:100DE000AAC7E6FFABC7E6FF05EC82F0E552E55285
:100DF000E552E76E020EE7CFDBFF060EE66E360E1B
:100E0000E66EE66A180EE66E040EE66E1EECA9F0BB
:100E1000006E050EE15E00500901906B06015497CB
:100E20000501610504E1B1EC20F00501616B0501EC
:100E3000620518E100C4E6FF3BEC23F0E552F3CF76
:100E4000BDF6F4CFBEF609017D510AE1BDC66CF6D0
:100E5000BEC600F0016A00C06DF60901010E7D6F8B
:100E60000501626B0501A10504E118EC2AF00501FA
:100E7000A16B0601240504E1BFEC85F00601246B9B
:100E8000090172050EE10701965106011A5D09E19B
:100E90007ACAE6FFFCEC33F0E5520701C86F09019E
:100EA000726B0501360501E0D7D00901830504E125
:100EB000F8EC86F00901836B26EC1FF0F5C4E6FF21
:100EC000F6C4E6FFB4C9E6FFB5C9E6FF0AEC26F0B2
:100ED000E552E552E552E552040113050BE13DEC04
:100EE000A4F043ECA4F000C4E6FFDEECABF0E55266
:100EF0000401136B0901B80509E00901BA0506E010
:100F00000901BB0503E00901BC0539E10901B6513E
:100F100035E10901B80504E109011A0EB76F1BD0CC
:100F20000901BA0504E10901230EB76F14D00901C4
:100F3000BB0504E10901240EB76F0DD00901BC0502
:100F40000AE10701D25104E109012F0EB76F03D066
:100F50000901300EB76F0901B75105E10901B66B00
:100F60000901BD6B0BD00901010EB66F09010A0E14
:100F7000BD6FB7C9E6FFF1ECA5F0E55202D009015B
:100F8000B66B0901B60511E10901BD5100080CE27B
:100F900085C7E6FF320EE66EE66A39ECC6F0E5522A
:100FA000E552E5520901BD0708D010C6E6FF00C4AE
:100FB000E6FF07ECAEF0E552E5520D01EE0ED880EB
:100FC0009555020E96550EE2030E0D019D5D03E24E
:100FD0000D019D2B06D00501210E446F0601010E67
:100FE000126F37D0070192510D01955D07019351A2
:100FF0000D01965906E20401B40EF75D000EF85992
:1010000007E30D019D6B04013C0E166F8D8021D00E
:101010000701640ED8809255000E935518E2040122
:10102000155115E10D019D6B92C700F093C701F0BA
:10103000140E005E000E015A0D010050955D015026
:10104000965904E20401165101E18D9002D00D0180
:101050009D6B0501366BA5D0070E0401025D50E1C2
:101060000901B6514DE10501450536E10701C151C0
:101070000701BF5D0701C2510701C05905E2070121
:10108000BF2B000EC02303D00701BF6BC06BC5C7C9
:10109000E6FFC6C7E6FFBFC7E6FFC0C7E6FF3FECF7
:1010A00092F0E552E552E552E552050EF3CFDBFF33
:1010B000060EF4CFDBFF010EE66E050EDBCFE6FF7A
:1010C000060EDBCFE6FF23EC65F0E552E552E55274
:1010D0000401060E026F13D0060111510601105DC6
:1010E00003E20601102B02D00601106B0901010E6C
:1010F000826F0501010E366F0401060E026F51D09A
:10110000080E0401025D4DE10901B6514AE10501F5
:10111000450535E10701000ED880BF55000EC055CA
:1011200005E20701BF07000EC05B04D0C1C7BFF7CF
:10113000C2C7C0F7C5C7E6FFC6C7E6FFBFC7E6FF21
:10114000C0C7E6FF3FEC92F0E552E552E552E552AA
:10115000050EF3CFDBFF060EF4CFDBFF010EE66ECC
:10116000050EDBCFE6FF060EDBCFE6FF23EC65F0D6
:10117000E552E552E5520401060E026F12D0060157
:101180001051000803E20601100702D011C610F644
:101190000901010E826F0501010E366F0401060E72
:1011A000026F030E0401035D72E10501450523E1B1
:1011B0000501456BC5C7E6FFC6C7E6FFC3C7E6FF27
:1011C000C4C7E6FF3FEC92F0E552E552E552E55226
:1011D000050EF3CFDBFF060EF4CFDBFFE66A050E4C
:1011E000DBCFE6FF060EDBCFE6FF23EC65F0E55232
:1011F000E552E5523ED00901B7513BE000C4E6FF9D
:10120000DEECABF0E55210C6E6FF00C4E6FF07ECEB
:10121000AEF0E552E5520901B7512F0A21E01F0A4D
:101220001FE0140A15E0070A0BE0390A01E020D09C
:101230000901020EB86F0901B76B0901B66B19D02D
:101240000901020EBA6F0901B76B0901B66B11D023
:101250000901020EBB6F0901B76B0901B66B09D01A
:101260000901020EBC6F0901B76B0901B66B01D011
:1012700000D085C7E6FF320EE66EE66A39ECC6F0AE
:10128000E552E552E5520401010E036FF4D0050E5C
:101290000401035D37E100C401F40401006B020E98
:1012A000E66EE66AE66AAAEC1EF0E552E552E55201
:1012B00001C4E6FFDEECABF0E55210C6E6FF01C468
:1012C000E6FF07ECAEF0E552E55285C7E6FF320EC9
:1012D000E66EE66A39ECC6F0E552E552E552010EDB
:1012E000E66E640EE66EE66AEBEC3AF0E552E55225
:1012F000E55205013B6B0401010E036F0601020E6E
:10130000406FB9D0020E0401035D05E0040E040134
:10131000035D01E0B0D085C7E6FF320EE66EE66AF7
:1013200039ECC6F0E552E552E5520401005101E105
:101330009FD0040E0401005D01E19AD0080E040163
:10134000005D01E195D00C0E0401005D01E190D03B
:10135000100E0401005D01E18BD0050145055DE142
:10136000C5C7E6FFC6C7E6FFC3C7E6FFC4C7E6FFBB
:101370003FEC92F0E552E552E552E552070EF3CF0D
:10138000DBFF080EF4CFDBFFC5C7E6FFC6C7E6FFED
:10139000BFC7E6FFC0C7E6FF3FEC92F0E552E5525B
:1013A000E552E552050EF3CFDBFF060EF4CFDBFF6F
:1013B000E66A050EDBCFE6FF060EDBCFE6FF23EC89
:1013C00065F0E552E552E552BFC7E6FFC5C7E6FF47
:1013D000C6C7E6FF84EC89F0E552E552E5520A0102
:1013E0007A512C0DF3CF00F0F4CF01F0000E00265F
:1013F0000C0E01220701C7510F010024E96E000EF7
:101400000120EA6EBFC7EFFFE66A0EEC98F0E552E6
:10141000C3EC28F00501456B2BD00901915128E15F
:101420000501010E456FBFC7C3F7C0C7C4F7C5C7E5
:10143000E6FFC6C7E6FFBFC7E6FFC0C7E6FF3FEC53
:1014400092F0E552E552E552E552050EF3CFDBFF8F
:10145000060EF4CFDBFF010EE66E050EDBCFE6FFD6
:10146000060EDBCFE6FF23EC65F0E552E552E552D0
:101470000401010E036F09019A0505E15DEC35F0E9
:1014800009019A6B07D009019B0504E15AEC38F079
:1014900009019B6B32EF05F00901846BD1900701C4
:1014A000AE5142E0030E0601405D3EE005013B51B6
:1014B00000083AE20701AF5112E1040101050CE016
:1014C000050E0401015D08E0090E0401015D04E060
:1014D0000D0E0401015D03E105013B0725D0070165
:1014E000AF0522E1020E0401015D1CE0060E0401BD
:1014F000015D18E00A0E0401015D14E00E0E040106
:10150000015D10E0030E0401015D0CE0070E040113
:10151000015D08E00B0E0401015D04E00F0E040103
:10152000015D02E105013B07020E0601405D08E096
:101530000601125101E049D10601400501E145D102
:1015400005013B5101E040D101C4E6FF87EC33F0D7
:10155000E55209016F6F050EE66E600EE66EE66AF3
:10156000620EE66E8B0EE66E010EE66E2EECA8F0B5
:10157000006E060EE15E00500501510538E16E0E69
:10158000E66EE40EE66E010EE66EA4EC9BF0E5520C
:10159000E552E552E76E020EE7CFDBFF020EDB50AD
:1015A000040805E2040EF36E020EF3CFDBFF020E19
:1015B000DBCFE6FF7E0E006E020EDB50060DF35011
:1015C000005CE66EE66A6E0EE66EE40EE66E010EF6
:1015D000E66E2EECA8F0016E060EE15E01500701EA
:1015E000855102E04FECC6F00501516B30D0840EFE
:1015F000E66EE40EE66E010EE66EA4EC9BF0E5529C
:10160000E552E552E76E020EE7CFDBFF020EDB503C
:10161000040805E2040EF36E020EF3CFDBFF020EA8
:10162000DBCFE6FF7E0E006E020EDB50060DF350A0
:10163000005CE66EE66A840EE66EE40EE66E010E6F
:10164000E66E2EECA8F0016E060EE15E0150090177
:10165000010E846F0401035101E0FCD70401035122
:1016600001E07CD009016F5101E078D005016105EE
:1016700004E1B1EC20F00501616B050162050BE1AD
:1016800001C4E6FF3BEC23F0E552F3CFBDF6F4CF07
:10169000BEF60501626B0501360522E101C4E6FFD5
:1016A00087EC33F0E55209016F6F26EC1FF0F5C4AB
:1016B000E6FFF6C4E6FFB4C9E6FFB5C9E6FF0AECEB
:1016C00026F0E552E552E552E55210C6E6FF01C4A8
:1016D000E6FF07ECAEF0E552E5520501366B2ED081
:1016E000070E0401025D14E1060111510601105DAF
:1016F00003E20601102B02D00601106B0901010E56
:10170000826F0501010E366F0401060E026F16D0BE
:10171000080E0401025D12E106011051000803E207
:101720000601100702D011C610F60901010E826FE2
:101730000501010E366F0401060E026F09019A05BC
:1017400005E15DEC35F009019A6B07D009019B05B5
:1017500004E15AEC38F009019B6B80D70901846BD6
:10176000E66AE66AE66AAAEC1EF0E552E552E55240
:101770000401010E036F85C7E6FF320EE66EE66ACE
:1017800039ECC6F0E552E552E55209016F511CE013
:10179000050EE66EF1ECA5F0E552E66AD00EE66EB7
:1017A000070EE66EEBEC3AF0E552E552E552060123
:1017B000120508E1200E0501445D04E10501446BBA
:1017C0000601126B09016F6B46D00601120543E159
:1017D000E66AE66AE66AAAEC1EF0E552E552E552D0
:1017E00005013B6B44C5E6FFF1ECA5F0E5520701AE
:1017F0008551E66EE66A0C0EE66EE66A85ECC6F08A
:10180000E552E552E552E55244C553F6030E040194
:10181000035D10E009019A0505E15DEC35F0090171
:101820009A6B07D009019B0504E15AEC38F00901D5
:101830009B6BECD70401010E036F85C7E6FF640EB6
:10184000E66EE66A39ECC6F0E552E552E55206016D
:10185000126B0501446B05013B5109E1E66AE66A3A
:10186000E66AAAEC1EF0E552E552E5520AD0020EF5
:10187000E66E020EE66EE66AAAEC1EF0E552E5524E
:10188000E5520601406BD9EF00F0090EE15C02E27F
:10189000E16AE552E16EE552E7CFD9FF1200D8CFF9
:1018A000E4FFE0CFE4FFE46EDACFE4FFE2CFDAFF5B
:1018B000E9CFE4FFEACFE4FFF6CFE4FFF7CFE4FFA0
:1018C000F8CFE4FFF5CFE4FFF3CFE4FFF4CFE4FF7C
:1018D000FACFE4FFFBCFE4FF00EE18F0140EE804AB
:1018E00003E3EECFE4FFFBD700EE00F0180EE804B0
:1018F00003E3EECFE4FFFBD7E65215EC3DF0030E19
:10190000E126B950040B02E1E2EF15F0BA50040BE6
:1019100002E1E2EF15F0BA940501045101E0D5D0DF
:101920001D0EBBEC46F0F3CF41F6F4CF42F63D0E70
:10193000BBEC46F0F3CF43F6F4CF44F6150EBBEC08
:1019400046F0F3CF45F6F4CF46F6250EBBEC46F055
:10195000F3CFAEF9F4CFAFF90501A05166E10DEC7C
:101960004BF0A2EC47F0E3EC42F00401000506E086
:10197000020E005D03E0030E005D2AE10501035144
:10198000015D27E2015195EC3DF0A2EC47F0A6EC99
:1019900048F0015195EC3DF0E20EE926050E8AEC87
:1019A00047F02C502E5C2D502F5813E27BEC40F06A
:1019B000EFCF2CF0140E2C5C04E27BEC40F0EF2A0D
:1019C0000BD07BEC40F0EF6A260EE9EC3EF004D041
:1019D00005017BEC40F0EF6A070E0501015D2FE188
:1019E0000401005117E0000515E0020E005D12E051
:1019F000030E005D0FE0040E005D0CE00D0E005DB7
:101A000009E00E0E005D06E00F0E005D03E0100E13
:101A1000005D03E10501010E626F110E0401005D1E
:101A20000EE10501010E636F0AD02D0EBBEC46F0EE
:101A3000D6EC47F0D20EE926050EE3EC42F00401A5
:101A400000513BE0060139510EE19350100B0BE1C0
:101A500027510901AE5D060128510901AF5903E282
:101A60000501170E22D0060141513D5D42513E59FC
:101A700008E2140E3F5D02E23F2B1FD03F6B0501D1
:101A800013D0415105014B5D0601425105014C59EE
:101A90000FE2140E4D5D000E4E5904E24D2B000E68
:101AA0004E230BD04D6B4E6B1B0EE9EC3EF005D078
:101AB00006013F6B05014D6B4E6BAEC9A2F6AFC977
:101AC0002CF02D6AAFC9A3F668D0A0510AE12D0E03
:101AD00046EC3DF004013F27F45040232E504123B3
:101AE0000AD0280E045D07E10DEC4BF0B20EE9269A
:101AF000050EE3EC42F01D0E46EC3DF004014227DA
:101B0000F45043232E5044233D0E46EC3DF0040197
:101B10004527F45046232E504723150E46EC3DF042
:101B200004014E27F4504F232E505023250E46EC2F
:101B30003DF004015127F45052232E505323290E17
:101B400046EC3DF004014827F45049232E504A2327
:101B5000390E46EC3DF004014B27F4504C232E5037
:101B60004D2390EC3AF005EC49F004015427F45071
:101B700055232E505623050104050FE10901BE052A
:101B80000CE10401010E076F0F01320E376F060ED4
:101B9000366FBA98B9880901BE6B320E0501045D33
:101BA00042E2042B0701B2053AE10501A05137E1F9
:101BB0001B51D880045502E2919801D091881C51A4
:101BC000D880045502E2919A01D0918A1D51D880A3
:101BD000045502E2919C01D0918C1E51D88004558D
:101BE00002E2919E01D0918E1F51D880045502E2ED
:101BF0008B9201D08B822051D880045502E28E92C4
:101C000001D08E822151D880045502E2909801D0F3
:101C100090882251D880045504E3908A05D25AEC6A
:101C200043F0909A01D2046B060506E0030E065DB0
:101C300003E0020E065D0EE108050AE1280E055DCF
:101C400002E2052B07D0320E056F010E076F02D09E
:101C5000010E086F01C502F50151070A45E0010AAE
:101C60003AE0030A2FE0010A25E0070A1BE0010A17
:101C700012E0030A09E0010A3DE1010E016F8A92B8
:101C80008A948A868A901CD0020E016F8A928A8476
:101C90008A968A901DD0030E016F8A928A848A8662
:101CA0008A901FD0040E016F8A828A948A968A8055
:101CB00091960FD0050E016F8A828A948A868A8057
:101CC000919610D0060E016F8A828A848A968A8045
:101CD000918691940FD0070E016F8A828A848A863A
:101CE0008A809186918406D0016BF2EC43F0010E5C
:101CF000436F466F060139051CE105015D6B5E6BA4
:101D000009015A6BDF6A210EDF5C08E25BEC45F0EB
:101D100080EC4BF038EC4BF0DF2AF5D70901B06BC3
:101D2000B16B166B176B136B146B156B100E5B6F2F
:101D30005C6B090154EC47F0AE51EE26AF51ED2239
:101D4000060141510901B027060142510901B123A1
:101D500005010F0E5D5D000E5E5904E25D2B000E65
:101D60005E233CD05D6B5E6B090154EC47F0EECF17
:101D700016F9EDCF17F95A5195EC3DF091EC41F081
:101D800013272D5014232E5015230701010EE86F41
:101D9000100E09015A5D02E25A2B01D05A6B5A51BA
:101DA00095EC3DF091EC41F0135F2D50145B2E50FB
:101DB000155B54EC47F0EE6AED6AB0C9B2F9B1C9EF
:101DC000B3F9B06BB16B5C5105E15B515A5D02E157
:101DD000010E5C6F0501010E616F646FA00509E1E2
:101DE000025195EC3DF05EEC49F0AEC9EEFFAFC993
:101DF000EDFF020E1F0B42C42CF043C42DF044C46F
:101E00002EF003E066EC3EF0FDE12CC031F42DC075
:101E100032F4020E1F0B45C42CF046C42DF047C40B
:101E20002EF003E066EC3EF0FDE12CC033F42DC053
:101E300034F4020E1F0B48C42CF049C42DF04AC4E0
:101E40002EF003E066EC3EF0FDE12CC035F42DC031
:101E500036F4020E1F0B4BC42CF04CC42DF04DC4B5
:101E60002EF003E066EC3EF0FDE12CC037F42DC00F
:101E700038F4020E1F0B4EC42CF04FC42DF050C48A
:101E80002EF003E066EC3EF0FDE12CC039F42DC0ED
:101E90003AF4040154510D019E27040155510D01DE
:101EA0009F23040156510D01A023140E9B5D000ECB
:101EB0009C5904E29B2B000E9C2321D0010E9B6FAA
:101EC0009C6B050E1F0B9ECDA1FD9FCDA2FDA0CD4D
:101ED000A3FD07E00D01D890A333A233A133E80698
:101EE000FAE10D019E6B9F6BA06B995108E1A1CDAA
:101EF000A4FDA2CDA5FDA3CDA6FD010E996F040101
:101F000071EC3EF0000512E1050101510FE10051B5
:101F10000DE19F0503E1A06B010EA16F320E9F5DE5
:101F200002E29F2B03D0010E9F6FA06F5AEC43F08B
:101F3000909A0D018C510401395D0D018D51040100
:101F40003A5904E239C48CFD3AC48DFD005109E1CF
:101F500062EC43F004E2050E2D5D1CE31DD02D6BF9
:101F60003CD0110E005D39E09350100B0CE00901DC
:101F7000AE510601255D0901AF510601265903E264
:101F80000501160E24D0040162EC43F009E2050EAF
:101F90002D5D02E22D2B21D02D6B0501190E17D0DE
:101FA0006AEC43F017E2000515E0050E005D12E053
:101FB000090E005D0FE00D0E005D0CE0040E060141
:101FC0002F5D02E22F2B09D02F6B05011A0EE9ECD1
:101FD0003EF003D006012D6B2F6B110E0401005D46
:101FE00015E09350100B12E0050107050FE172ECAC
:101FF00043F00CE2280E0601305D02E2302B08D0DF
:10200000306B0501140EE9EC3EF002D00601306B96
:1020100012050AE19D928D829190786A726A779A90
:102020007798719A71988B880501065101E1ECD07F
:10203000080501E0E9D0045104E00551D8800455B9
:1020400019E29D928B8A786A726A6F6A0C0E776EBB
:10205000716E6E6E060503E191908D820BD0030EBA
:10206000065D03E18D92918005D0020E065D02E1CE
:1020700091908D92045101E092D006053FE142EC2F
:1020800042F01CE207EC43F0050E2FEC40F0FDE1BE
:102090002CC073F907EC43F0030E2FEC40F0FDE188
:1020A0004BEC42F005E27529766F73C974F903D0E1
:1020B000766B7329746F09C52CF069D01DEC3EF066
:1020C0002D6E050E2FEC40F0FDE12CC077F90501D7
:1020D0001DEC3EF02D6E030E2FEC40F0FDE154ECB4
:1020E00042F005E279297A6F77C978F903D07A6BE3
:1020F0007729786F05011DEC3EF022D0030E065DB6
:1021000001E082D042EC42F023E207EC43F0050EFE
:102110002FEC40F0FDE12CC077F907EC43F0030E03
:102120002FEC40F0FDE154EC42F005E279297A6FA2
:1021300077C978F903D07A6B7729786F09C52CF0C5
:10214000F1EC41F073697469030E756F766F5CD0C2
:102150001DEC3EF02D6E050E2FEC40F0FDE12CC085
:1021600073F905011DEC3EF02D6E030E2FEC40F0CF
:10217000FDE14BEC42F005E27529766F73C974F905
:1021800003D0766B7329746F05011DEC3EF0F1EC02
:1021900041F077697869030E796F7A6F35D004055D
:1021A00033E1060503E0030E065D0CE18D829180AC
:1021B000020EE66E00ECC8F0E552CC6A040ECA6E60
:1021C0009D8222D08B9A0DC52CF00EC52DF0D89093
:1021D0002D322C32D8902D322C322CC073F90DC5F3
:1021E0002CF000012D6A030E2C162CC075F973C952
:1021F0006FFF090175A302D06E8A01D06E9A75A196
:1022000002D06E8801D06E980501045101E084D09F
:10221000070501E085D30901AE510501475D0901BC
:10222000AF510501485903E372EC43F003E20501A5
:10223000010E506F0501005101E072D304010051FD
:10224000070A5DE00C0A51E0040A4FE0050A46E087
:10225000040A44E0070A3BE0040A39E00E0A25E0DC
:10226000010A15E0030A51E1DF6ACBEC40F04DE2D0
:1022700039EC3DF0020E2E26000E2F222C502E5C43
:102280002D502F5802E2010E006FDF2AEED7070112
:10229000A6053BE1DF6ACBEC40F037E20CEC49F0FD
:1022A00002E2010E006FDF2AF6D70701A6050BE157
:1022B000DF6ACBEC40F007E20CEC49F002E2010EE1
:1022C000006FDF2AF6D7C3EC3FF01FE21BD00601F8
:1022D0004151EF5D4251F05918E214D073EC41F0D6
:1022E00014E20701A60511E10DD073EC41F003E201
:1022F0000701A60507E0C3EC3FF007E203D0C3ECFB
:102300003FF003E20501010E006F0501000501E049
:1023100007D30601548704D3320E045D01E000D3D5
:10232000070501E0F7D2110E0401005D08E1A7CD19
:1023300009F5A8CD0AF5A9CD0DF5AACD0EF5050133
:10234000065101E11BD1640501E018D1005101E003
:1023500015D104010051030A01E1CED0040A01E1C4
:10236000CBD00C0A01E1C8D0040A01E1C5D00D0AA6
:1023700070E0040A6EE00C0A6CE0040A6AE00F0ADE
:1023800007E0040A05E00C0A03E0040A01E0F3D0C8
:102390000901910510E10AEC3FF004E20501092B67
:1023A000000E2CD07AEC43F04FE230EC3FF04CE2E0
:1023B0000907000E48D00AEC3FF022E21651050151
:1023C000115D0901856F1751050112590901DCECF6
:1023D00047F004E2100E856F866B0ED01F0E34ECB2
:1023E00040F007E2050E0F0B07E019EC41F0FDE1AC
:1023F00003D0010E856F866B82EC43F00A2324D054
:10240000050111510901165D856F05011251090180
:102410001759DCEC47F004E2200E856F866B0ED076
:102420000F0E34EC40F007E2040E0F0B07E019EC3E
:1024300041F0FDE103D0010E856F866B5DEC42F04B
:1024400003E38AEC43F00A5B39EC40F001E393D0FC
:1024500090D00601395101E08ED013EC3FF01EE21E
:102460002EEC47F004E2080E856F866B0ED01F0E2F
:1024700034EC40F007E2050E0F0B07E019EC41F0D9
:10248000FDE103D0010E856F866B090185510501C1
:102490000D270901865105010E2326D0CFEC3FF010
:1024A00004E2200E856F866B0ED00F0E34EC40F0E8
:1024B00007E2040E0F0B07E019EC41F0FDE103D039
:1024C000010E856F866B0901855105010D5D0901BE
:1024D000865105010E5908E30901855105010D5F7B
:1024E0000901865105010E5B83EC44F044E20FC5FF
:1024F0000DF510C50EF53FD0060139513CE113EC46
:102500003FF019E22EEC47F004E2100E856F866B67
:102510000ED00F0E34EC40F007E2040E0F0B07E074
:1025200019EC41F0FDE103D0010E856F866B82EC62
:1025300043F00A231BD0CFEC3FF004E2200E856F5E
:10254000866B0ED00F0E34EC40F007E2040E0F0B3A
:1025500007E019EC41F0FDE103D0010E856F866BB9
:102560005DEC42F003E38AEC43F00A5B39EC40F0A7
:1025700002E20CEC43F00501646BCCD1065101E1A1
:10258000C9D1000501E0C6D104010051070A01E1EB
:10259000B1D10C0A01E19FD1040A01E19CD1050AE5
:1025A00001E16BD1040A01E168D1070A01E111D10F
:1025B000040A01E10ED10E0A01E1BED0010A60E079
:1025C000030A01E0A3D1070E0501015D01E09ED1E0
:1025D000FEEC3EF00351DF5C11E2EDEC3DF00BEC64
:1025E00041F0E8AE02D02D3402D088EC44F004E291
:1025F000EDEC3DF0E9EC42F0DF2AECD753EC48F08B
:102600001CE2C5EC41F019E253EC48F007E28DEC16
:1026100044F004E20A0E7BEC3FF002D06FEC4BF08A
:1026200013EC49F001E372D19D35000E9D1902E6CD
:10263000E1EC3EF001E36AD1B2D052EC3DF0000192
:10264000800E2D1401E162D10AEC3FF001E35ED16E
:10265000050E05013E5D01E230D1B7EC4AF006E21D
:10266000C5EC41F003E2020E7BEC3FF0ABEC3FF037
:10267000092721500A2339EC40F001E347D1FAD071
:10268000070E0501015D01E041D1FEEC3EF0035172
:10269000DF5C11E29CEC3CF00BEC41F0E8AE02D0C8
:1026A0002D3402D088EC44F004E29CEC3CF0E9ECE0
:1026B00042F0DF2AECD753EC48F01CE2C5EC41F0C5
:1026C00019E253EC48F007E28DEC44F004E20A0E04
:1026D0007BEC3FF002D06FEC4BF052EC3DF00D5133
:1026E0002C5C0E512D5801E311D1ABEC3FF00D5F86
:1026F0002150CFD052EC3DF00001800E2D1401E1AD
:1027000005D113EC3FF001E301D1050E3E5D01E27E
:10271000D4D0B7EC4AF006E2C5EC41F003E2020E79
:102720007BEC3FF0ABEC3FF00D2721500E2383EC08
:1027300044F001E3EBD0CAD00501800E9D1501E104
:10274000E5D0070E015D3CE1FEEC3EF00351DF5C9D
:1027500011E29CEC3CF00BEC41F0E8AE02D02D34E1
:1027600002D088EC44F004E29CEC3CF0E9EC42F04E
:10277000DF2AECD753EC48F01AE2C5EC41F017E23F
:1027800053EC48F007E28DEC44F004E20A0E7BECD7
:102790003FF002D06FEC4BF013EC49F005E2ABECEC
:1027A0003FF0095F2150B1D0096B0A6BAFD0C3EC89
:1027B0003FF001E3ABD0A8EC49F001E3A7D0A3D0F0
:1027C000C3EC3FF001E3A2D0A8EC49F001E39ED0B6
:1027D0009AD00901910529E1AE510501155D090164
:1027E000AF51050116590BE230EC3FF008E29D3580
:1027F000000E9D1902E6E1EC3EF001E284D0CFEC40
:1028000040F001E383D0050115510901AE5D0501DA
:1028100016510901AF5901E379D00501092B000ECA
:102820000A2339EC40F072E225D006014151EF5DF8
:102830004251F05904E309017AEC43F00AE2A8ECB2
:1028400049F007E29D35000E9D1902E6E1EC3EF0ED
:102850005AE3CFEC40F05AE20AEC3FF057E2050EA3
:1028600005013E5D2AE33E6B092B000E0A2339EC7D
:1028700040F04CE20CEC43F049D073EC41F00BE239
:102880000501000ED8800D55000E0E5504E20D070F
:10289000000E0E5B3BD0010E06012D6AEF252C6E5B
:1028A000F0512D2241512C5C42512D582FE213EC56
:1028B0003FF02CE2050E3E5D02E23E2B27D03E6B40
:1028C0000D2B000E0E2383EC44F020E20FC50DF516
:1028D00010C50EF51BD073EC41F005E34551F15DD9
:1028E0004651F25913E2A8EC49F010E2800E9D1512
:1028F0000DE009D0C3EC3FF009E2A8EC49F006E294
:10290000800E9D1503E00907000E0A5B05016405B2
:1029100001E1646B09C59CF697EC44F00EC59FF687
:102920000401040E0E03F3CF0EF480CF0FF4030E58
:102930000F150E13740E2C6E8D0E2D6E010E2E6E55
:102940000F0E0E152F6E306A316A2C502F24F36E45
:102950002D503020F46E2E503120F86EF4CFF7FF5A
:10296000F3CFF6FF0800F5CF11F4115111E0040E7A
:102970001003F3CF10F411511013AA0E105D02E1F1
:10298000070E04D0550E105D03E1080E026F106BA8
:102990000A0E05013A5D02E23A2B41D0010E3A6F70
:1029A0000401035126E180B609D0056B640E045D75
:1029B00002E2042B2BD0046B050E16D080B409D094
:1029C000046B640E055D02E2052B20D0056B040E3E
:1029D0000BD00451050803E2046B030E05D005512A
:1029E000050804E2056B020E036F10D0046B056B43
:1029F0000DD08050080B0AE08050040B07E0140E45
:102A0000065D02E2062B02D0066B036B0A0E09017B
:102A1000AC5D01E2AC2B0A0EAD5D01E2AD2B050110
:102A2000E80E385D030E395904E2382B000E3923C5
:102A3000B6D0010E386F396B366F0401150507E10A
:102A40001451000802E2140702D08D90156B165144
:102A5000000801E21607070189510EE0090184050B
:102A60000BE1070189510901825D02E2822B06D048
:102A7000010E826F836F02D00901836B07019051B1
:102A8000000805E209018151000801E28107040103
:102A9000005137E00601162B000E172318233B0EBA
:102AA000195D02E2192B16D0196B3B0E1A5D02E27A
:102AB0001A2B02D01A6B1B2B0901910504E10601A8
:102AC0001C2B000E1D230501000504E106011E2B31
:102AD000000E1F230601010E246F16C660F6080EB5
:102AE000B3EC3FF003E066EC3EF0FDE12CC061F694
:102AF000100EB3EC3FF003E066EC3EF0FDE12CC0BD
:102B000062F606014B51000805E24B074B5102E10A
:102B1000010E4C6F0901700536E10601D880000EE8
:102B20001655000E1755000E18552BE21607000E0D
:102B3000175B185B1951000802E219070DD03B0E14
:102B4000196F1A51000802E21A0706D03B0E1A6FDD
:102B50001B51000801E21B0716C660F6080EB3EC15
:102B60003FF003E066EC3EF0FDE12CC061F6100E94
:102B7000B3EC3FF003E066EC3EF0FDE12CC062F602
:102B800002D00901706B110E0401005D08E007011D
:102B9000D151000802E2D10702D0010ED06F090125
:102BA000000ED8807F55000E805504E27F07000E8E
:102BB000805B02D0010E7E6F04011251000803E217
:102BC000120701D0BA949D50200B22E09E50200B9A
:102BD0001FE00A0E0901AC5D03E1966B9CEC44F02A
:102BE000965190EC47F0AECFEFFFABA202D0AB987E
:102BF000AB8896512C6E2D6AD8902D5004E6860E27
:102C00002C5C000E2D5801E2962BAC6B010E9A6FD6
:102C10009D50100B15E09E50100B12E009019851C9
:102C2000945D07E29451ACEC48F0EF50AD6E942BFC
:102C300007D0966B9CEC44F0010E9C6F9D989D8A8A
:102C4000A350200B24E0A450200B21E00A0E090120
:102C5000AD5D03E1976BA1EC44F0975196EC47F022
:102C60001DCFEFFF0F0122A302D022992289090173
:102C700097512C6E2D6AD8902D5004E6860E2C5C50
:102C8000000E2D5801E2972BAD6B010E9B6FA350E8
:102C9000100B15E0A450100B12E009019951955D3D
:102CA00007E295519CEC47F0EFCF1CFF952B07D026
:102CB000976BA1EC44F0010E9D6FA398A38A030EBD
:102CC000E15C02E2E16AE552E16EE552E7CFD9FF4D
:102CD000E55200EE17F0180EE80403E3E5CFEDFF30
:102CE000FBD700EE2BF0140EE80403E3E5CFEDFF75
:102CF000FBD7E5CFFBFFE5CFFAFFE5CFF4FFE5CF4C
:102D0000F3FFE5CFF5FFE5CFF8FFE5CFF7FFE5CF20
:102D1000F6FFE5CFEAFFE5CFE9FFE5CFDAFFE550C3
:102D2000E5CFE0FFE5CFD8FF1000DACFE4FFE652B1
:102D30009D50020B26E09E50020B23E09E92070E50
:102D400009017C5D02E27C2B01D07C6B7B51D88039
:102D50007C550AE274C978FF78C972FF7639F00BA6
:102D60000C09776E7A3909D073C978FF77C972FF79
:102D70007539F00B0C09776E7939F00B0C09716E0F
:102D800001D09E92B950100B3DE0BA50100B3AE0C2
:102D9000BA980F0E04010B5D06E20B2B0A510B5D76
:102DA00008E38D9806D00B6B0B51D8800A5501E2D1
:102DB0008D88070507E10F0E0B5D25E1085100081E
:102DC0000AE31BD0020E075D1EE10F0E0B5D1BE137
:102DD0000851000802E2080716D0320E086F0F01F2
:102DE000375D03E14B0E376F0ED0320E376F0401A3
:102DF0000951000802E2090706D0076B0F0136955A
:102E0000B99801D0BA98E552E5CFDAFF1100700EFB
:102E1000D36E9B8CD1909268896AF00E936E8A6A09
:102E2000850E946E300E8B6E8B88956A8C6A800E40
:102E3000966E8D6AFC0E976E8E6A340E986E8F6A4F
:102E4000C00E996E906A9A6A020E916E0F01A00EE2
:102E5000256FCF0E246F236B1D0EC26EC16ABE0E8E
:102E6000C06ED08EFA0E3A6F1E0E396FD294BA949D
:102E7000B994010EE66E24EC35F0E5520F01190EFF
:102E8000376F020E366FD288BA98B998556B579F34
:102E900056916596330EAF6E220EAC6E900EAB6EF1
:102EA0009F989D989F9A9D8A2097330E1E6F220EA1
:102EB000216F900E226FA598A398A59AA38A12005D
:102EC00015EC3DF0040EE1260801B46B0401006B23
:102ED000016B060E026F036B046B056B066B076BD1
:102EE000086B096B0A6B0B6B66EC42F0146B156B8D
:102EF000166B176BDE6ADD6A6FEC42F005E214ECCC
:102F00004BF0FAE3DB2AF8D70401316B326B336BF9
:102F1000346B356B366B376B386B396B3A6B71ECE6
:102F20003EF052EC9AF00701CD6F28EC46F0CDEC64
:102F300046F00401E76BE86BE96BEA6BEB6BEC6B5B
:102F4000ED6BEE6BEF6BF06BF16BF26BF36BF46BA5
:102F5000F56BF66BF76BF86BF96BFA6BF5EC3DF014
:102F6000CDEC3CF005E21BEC4BF0FAE3DB2AF8D7A2
:102F700025EC3EF03B6B92EC43F0436B38EC4AF0AF
:102F8000CDEC3CF005E222EC4BF0FAE3DB2AF8D77B
:102F9000DCEC40F0DE6ADD6ACDEC3CF01CE2D2EC09
:102FA0003CF059EC3DF0FDE1A2EC47F0A7EC46F017
:102FB00059EC3DF0FDE1750EE926050EA7EC46F053
:102FC00059EC3DF0FDE1850EE926050EA8EC3DF03B
:102FD000E3E3DB2AE1D70501DBEC3FF0CDEC3CF08D
:102FE0003BE2D2EC3CF059EC3DF0FDE1A3EC41F0CA
:102FF000D2EC3CF059EC3DF0FDE1A8EC41F0D2EC14
:103000003CF059EC3DF0FDE1C20EE926050EA7ECBF
:1030100046F059EC3DF0FDE1ADEC41F0D2EC3CF076
:1030200059EC3DF0FDE1E20EE926050E38EC4BF0DF
:1030300023EC46F0F20EE926050EEA22EF6AD2EC06
:103040003CF059EC3DF0FDE1000EE926060EA8EC3F
:103050003DF0C4E3DB2AC2D70601106B116B126B83
:10306000136B010E146F156BE66E000EE66EE66ACA
:10307000FDEC84F027EC47F00601A9EC4BF0D9EC0D
:1030800045F020C03DF621C03EF606013F6B406B87
:10309000416B426B436B446B456B466B476B486BB4
:1030A000496B4A6B4B6B4C6B4D6BDE6ADD6A3BECDC
:1030B00046F0690E57EC48F00AE223EC46F0520E57
:1030C000E926060E8FEC3FF0F2E3DB2AF0D706018B
:1030D000BD6BBE6BDE6ADD6A3BEC46F00B0E57EC57
:1030E00048F00DE2D2EC3CF059EC3DF0FDE1BF0EB2
:1030F000E926060EA8EC3DF0EFE3DB2AEDD706014A
:10310000E9EC40F0CDEC3CF00CE2D2EC3CF059ECB8
:103110003DF0FDE1D2EC48F0A8EC3DF0F3E3DB2A12
:10312000F1D73BEC41F0CDEC3CF015E2D2EC3CF0B9
:1031300059EC3DF0FDE1030EE926090EA7EC46F03F
:1031400059EC3DF0FDE1AE0EE9260D0EA8EC3DF088
:10315000EAE3DB2AE8D7AFEC40F07CEC42F00CE28B
:10316000D2EC3CF059EC3DF0FDE180EC4BF0A8ECEA
:103170003DF0F3E3DB2AF1D7F9EC43F0CDEC3CF082
:103180000DE2D2EC3CF059EC3DF0FDE15D0EE9269C
:10319000090EA8EC3DF0F2E3DB2AF0D709016D6BD4
:1031A0006E6B6F6B706B716B726B99EC3FF0836B36
:1031B000846BF6EC40F0916B926B936B946B956B18
:1031C000966B976B986B996B9A6B9B6B9C6F9D6FD3
:1031D0009E6B9F6BA06BA16BA26BA36B9CEC44F0EE
:1031E000A1EC44F0AC6BAD6BECEC3FF0BE6B47EC8C
:1031F00041F0956B966B976B986B996B9A6BFBECA8
:1032000041F0A46BA56BA66B9AEC43F00701C86B69
:1032100000EC44F0D06B0A0ED16FD26BD36BD46B41
:10322000E56BE66BE76BE86BDE6ADD6A3BEC46F06C
:10323000000E005C010E015818E223EC46F0000E6F
:10324000E926020EEA22EF6A23EC46F0000EE92698
:10325000010EEA22EF6A23EC46F0000EE926030E87
:103260008FEC3FF0E3E3DB2AE1D7DE6ADD6A3BEC7B
:1032700046F0870E57EC48F00AE223EC46F0600E69
:10328000E926000E8FEC3FF0F2E3DB2AF0D74DEC9D
:103290008DF0B5EC8DF095EC8EF0FDEC8CF0A6EC9D
:1032A00047F0800EE66E030EE66E5DEC89F0E552A7
:1032B000E5520A01786F8D908B888B8A918291906C
:1032C0008D8293888B96F2EC43F080EC42F0AD69EE
:1032D000040EE15C02E2E16AE552E16E1EEF3DF0B0
:1032E0000DEC48F00401046B056B066B66EC42F0D4
:1032F000176BDE6ADD6A6FEC42F005E214EC4BF00E
:10330000FAE3DB2AF8D7F5EC3DF0CDEC3CF005E232
:103310001BEC4BF0FAE3DB2AF8D725EC3EF092ECFD
:1033200043F038EC4AF0CDEC3CF005E222EC4BF0F7
:10333000FAE3DB2AF8D7DCEC40F0DBEC3FF0CDEC35
:103340003CF02AE2D2EC3CF059EC3DF0FDE1A3EC7C
:1033500041F0D2EC3CF059EC3DF0FDE1A8EC41F03D
:10336000D2EC3CF059EC3DF0FDE1C20EE926050E31
:10337000A7EC46F059EC3DF0FDE1ADEC41F0D2ECAC
:103380003CF059EC3DF0FDE1000EE926060EA8ECFC
:103390003DF0D5E3DB2AD3D70601106B116B126B1E
:1033A000A9EC4BF04B6B4C6B4D6BE9EC40F0CDEC6A
:1033B0003CF00CE2D2EC3CF059EC3DF0FDE1D2ECFB
:1033C00048F0A8EC3DF0F3E3DB2AF1D73BEC41F009
:1033D000CDEC3CF015E2D2EC3CF059EC3DF0FDE1D7
:1033E000030EE926090EA7EC46F059EC3DF0FDE18D
:1033F000AE0EE9260D0EA8EC3DF0EAE3DB2AE8D795
:10340000AFEC40F07CEC42F00CE2D2EC3CF059EC3A
:103410003DF0FDE180EC4BF0A8EC3DF0F3E3DB2A5E
:10342000F1D7F9EC43F0CDEC3CF00DE2D2EC3CF0FE
:1034300059EC3DF0FDE15D0EE926090EA8EC3DF0EA
:10344000F2E3DB2AF0D709016D6B6E6B6F6B99ECC1
:103450003FF0F6EC40F0ECEC3FF047EC41F0FBECD9
:1034600041F09AEC43F0070100EC44F0D46BE86BB8
:10347000E56BC2CDE6FF2FEC90F0E55280EC42F018
:10348000020EE15C02E2E16AE552E16E1EEF3DF000
:1034900015EC3DF00B0EE126010EE66E020EA2ECDD
:1034A00043F0010E4AEC3DF0010EDB6A1EEC41F0E8
:1034B000040EDB6A050EDB6A060EDB6ADF6A080EA5
:1034C000DF5C1BE2010EE66EC80E13EC41F026EC49
:1034D0001FF047C600F048C601F0026A9DEC46F0B6
:1034E00007EC44F049C600F04AC601F0026A40EC1D
:1034F00046F007EC44F0DF2AE2D79DEC46F0030EDD
:10350000E76EA8EC43F0FDE140EC46F0030EE76EF9
:10351000A8EC43F0FDE1030E0401005D09E0070E95
:10352000005D06E00B0E005D03E00F0E005D0AE19A
:103530000EEC44F000C4E6FF2BEC34F027EC47F02F
:103540000401006F080E16EC43F0010EE66E24EC49
:1035500035F0E55299C704F09AC705F0066A076A84
:1035600017EC40F005EC42F099C723F09AC724F01D
:1035700015EC44F01AC0C9F71BC0CAF71CC0CBF742
:103580001DC0CCF7D880400E07011A54D70E1B542B
:10359000D20E1C54470E1D5408E2400EC96FD70EC0
:1035A000CA6FD20ECB6F470ECC6F0EEC44F0010EFB
:1035B000DBCFE6FF020EDBCFE6FF0AEC26F027ECBE
:1035C00047F0E552A6EC47F00D01990507E19DECA7
:1035D00039F0F3CF97FDF4CF98FD03D0FA0E976F33
:1035E000986B0D019A6B04010051040A01E183D329
:1035F0000C0A01E180D3040A01E17DD31C0A01E138
:103600007AD3130A01E16CD2040A01E169D20C0AEF
:1036100001E166D2040A01E163D20D0A01E1D3D1CE
:10362000040A01E1D0D10C0A01E1CDD1040A01E183
:10363000CAD10B0A01E1B9D00C0A01E1B6D0040AE3
:1036400001E1B3D00C0A01E056D30701940511E162
:103650008FEC3EF04AEC46F0BBEC3FF003E279EC35
:1036600041F009D0080EDBCF29F5090EDBCF2AF592
:1036700002D01BEC43F089EC42F002E69BEC3DF0FB
:1036800002E279EC41F006EC47F0C76FCAEC3EF07D
:1036900002E220EC43F06EEC40F004E25BEC48F018
:1036A000450E0AD025EC43F004E25BEC48F0460EF0
:1036B00003D0ADEC3DF0470EF0EC49F0086A300E57
:1036C000096E8E0E0A6E450E0B6E03C521F03CECA2
:1036D0004BF023EC3CF0AEEC4BF01BEC44F033E24F
:1036E0009D51BC5D9E51BD592EE2010EBA1907E1F4
:1036F000BB5105E10D010A0EDEEC43F016E30701B4
:10370000020EBA1907E1BB5105E10D013C0EDEECDA
:1037100043F00BE30701030EBA1915E1BB5113E1A6
:103720000D016E0EDEEC43F00EE20701BC519D5D13
:103730000501326F0701BD519E590501336F0D011F
:10374000010E9A6F04D09DC732F59EC733F5DF6A2C
:10375000CBEC40F00CE296EC3BF0010ED8EC44F0E0
:10376000AFEC4AF0EA2228EC41F0DF2AF1D707015A
:10377000915103E1926B936B02D06CEC3FF004EC3F
:103780003DF0ABEC44F0016A33C5A9F6CFEC41F053
:10379000C0EC4AF003E286EC45F002D084EC4BF03A
:1037A0007CEC4AF001E30BD108D1090191052DE130
:1037B0000701AA51AB1124E11BEC43F0140E256E56
:1037C000266A97C720F098C721F0EAECC7F020C01E
:1037D00029F521C02AF50501140E205C000E2158A0
:1037E00004E2140E296F2A6B2AD0F40ED8802955D2
:1037F000010E2A5524E2F40E296F010E2A6F1FD004
:10380000AAC729F5ABC72AF51AD01BEC43F00D0E59
:103810000401005D11E1020E0701955D0DE167EC09
:103820003CF0210E2CEC3BF0210EADEC3BF0210ED8
:1038300009EC4BF0210E02D006EC47F0C76FCAEC42
:103840003EF002E220EC43F06EEC40F004E25BEC70
:1038500048F0450E11D025EC43F003E213EC3EF0A6
:1038600005D0E2EC43F005E12DEC41F0066E460E8A
:1038700003D0ADEC3DF0470EF0EC49F0E2EC43F044
:1038800005E1046A400E056E030E0ED0090E005DC0
:1038900005E1086A400E096E1C0E0ED0090E0701E4
:1038A000955D06E111EC43F0066E470E076E0BD0F6
:1038B000086A300E096E8E0E0A6E450E0B6E95C7A5
:1038C00021F03CEC4BF023EC3CF026EC4AF0AEEC63
:1038D0004BF0090E0401005D03E00D0E005D58E1A0
:1038E000090E005D06E1090191053EE13BEC3FF068
:1038F00044D01BEC44F039E29D51BC5D9E51BD5952
:1039000034E2010EBA1907E1BB5105E10D010A0EBF
:10391000DEEC43F016E30701020EBA1907E1BB51D2
:1039200005E10D013C0EDEEC43F00BE30701030E55
:10393000BA191AE1BB5118E10D016E0EDEEC43F02D
:1039400013E20701BC519D5D026E9E51BD55036E91
:10395000D6EC48F002C025F003C026F0E3EC47F0B7
:103960000D01010E9A6F09D00701D6EC48F09DC7F2
:1039700025F09EC726F0E3EC47F034C520F042EC7A
:103980004BF034C5A8F635C500F0016A35C5A9F677
:103990000701915103E1926B936B02D06CEC3FF005
:1039A00063EC49F0C0EC4AF003E286EC45F002D04B
:1039B00084EC4BF07CEC4AF002E20CEC43F00D6B33
:1039C0000E6B010E96D1020E005D11E10701940508
:1039D0000EE1E9EC3CF04AEC46F0B0EC43F004E2D6
:1039E00005012FEC43F005D022EC44F002D034EC7A
:1039F00043F029EC44F002E22FEC43F00E0E0401F8
:103A0000005D11E10701955101080DE267EC3CF002
:103A1000220E2CEC3BF0220EADEC3BF0220E09EC1A
:103A20004BF0220E0CD067EC3CF0070E2CEC3BF078
:103A3000070EADEC3BF0070E09EC4BF0070EC76F1D
:103A4000D3EC3EF002E294EC3FF08AEC3EF0C1ECA5
:103A500049F0B0EC44F003E2EAEC47F002D018EC95
:103A600046F0276E26EC4AF073EC4BF037EC45F04D
:103A700072EC4AF012EC48F0020E0401005D10E115
:103A80009FC732F5A0C733F5DF6ACBEC40F005E203
:103A900096EC3BF04FEC40F0F8D7ABEC44F008D09C
:103AA000060E005D03E15FEC48F005D045EC4AF0FE
:103AB000016A00C0A9F60701926B936BC5EC48F050
:103AC000016A26C5A7F60501E80E0F6F030E106FF9
:103AD0008B9A9192ADEC47F053EC40F0020E09D175
:103AE000030E005D10E1070194050DE1E9EC3CF0E7
:103AF0004AEC46F0BBEC3FF003E27FEC41F005D02E
:103B000022EC44F002D034EC43F098EC42F002E6B0
:103B10009BEC3DF002E27FEC41F00F0E0401005DF2
:103B20000DE167EC3CF0260E2CEC3BF0260EADECE4
:103B30003BF0260E09EC4BF0260E0CD067EC3CF067
:103B4000250E2CEC3BF0250EADEC3BF0250E09ECE0
:103B50004BF0250EC76FD3EC3EF002E294EC3FF041
:103B60008AEC3EF0C1EC49F0B5EC44F004E25BECC9
:103B700048F0C50E12D0BAEC44F003E213EC3EF06C
:103B800006D0070E0401005D05E12DEC41F0066E44
:103B9000C60E03D0ADEC3DF0C70E1CEC46F073EC46
:103BA0004BF03DC64BF53EC64CF586EC4AF0E9ECD1
:103BB0004AF0E80E0026030E0122000E022200C089
:103BC00090FD01C091FD0D01010E926F030E0401E5
:103BD000005D10E19FC732F5A0C733F5DF6ACBEC7B
:103BE00040F005E296EC3BF04FEC40F0F8D7ABEC40
:103BF00044F008D0070E005D03E15FEC48F005D00B
:103C000045EC4AF0016A00C0A9F68BC720F08CC7CA
:103C100021F01AEC49F056EC4AF020C0F1F621C030
:103C2000F2F6010E0601F127000EF2230701915171
:103C300003E1926B936B02D06CEC3FF0C5EC48F063
:103C4000016A26C5A7F6E9EC4AF09DEC46F0B2EC15
:103C500041F013E2040EDBCF04F0050EDBCF05F0DC
:103C6000060ED0EC4AF0010EDBCF0BF0020EDBCFDC
:103C70000CF0030EDCEC49F014D0EFEC42F0010E36
:103C8000DBCF0CF0020EDBCF0DF0030E8DEC46F017
:103C9000040EDBCF13F0050EDBCF14F0060EABECF9
:103CA00049F072EC40F0AAEC45F020C009F521C0C3
:103CB0000AF5070EDB50006E016A05012050005C1A
:103CC0002150015809E2070EDB50006E016AE850EE
:103CD000095F01500A5B02D0096B0A6B39EC40F0B6
:103CE00002E20CEC43F0ADEC47F005010D6B0E6BFE
:103CF000030E066F0FD00601986B996B0701E80E53
:103D0000926F030E936F8B8A918293888B9653ECFC
:103D100040F0066B076B056B09015A5102E05A052A
:103D200001D0100E5B6F5C6B0501616B09C59CF6E1
:103D30000AC500F0016A97EC44F00EC500F0016A74
:103D40000EC59FF60B0EE15C02E2E16AE552E16E00
:103D50001EEF3DF015EC3DF0EEEC3EF0FE0EDB50BC
:103D60000DE13F6BDF6A080EDF5C05E2B9EC3DF068
:103D7000EF6ADF2AF8D706EC40F005D0FE0EDB0430
:103D800002E1010E3F6F8B8A918293888B96FD0E24
:103D9000DB5008E1040114510CE1780E146F010EA0
:103DA000156F07D0FD0EDB0404E10401146B156BE5
:103DB0008D80FC0EDB5002E18B8804D0FC0EDB040E
:103DC00001E18B986CEC49F00901B66BB76BB86BED
:103DD000BA6BBB6BBC6BBD6BEDEC47F003E02BEC3F
:103DE00047F0FDE1F3EC47F003E02BEC47F0FDE199
:103DF00000C05FF609C59CF6016A97EC44F0016AC1
:103E00000EC59FF6E5521EEF3DF015EC3DF0EEECD1
:103E10003EF03F6BDF6A080EDF5C05E2B9EC3DF077
:103E2000EF6ADF2AF8D76CEC49F0EDEC47F003E0DD
:103E30002BEC47F0FDE1F3EC47F003E02BEC47F00F
:103E4000FDE100C05FF6E5521EEF3DF071EC49F078
:103E500031C420F032C421F0F0ECBEF023EC3BF092
:103E60005FC424F060C425F061C426F062C427F06A
:103E700034EC4AF023EC3CF039ECBFF0060E1FC0E6
:103E8000DBFF070E20C0DBFF080E21C0DBFF090EA1
:103E900022C0DBFFD8EC3EF0246A256A266A276A36
:103EA000FDEC44F0BBECC1F0010A11E1060EDBCFE2
:103EB0001FF0070EDBCF20F0080EDBCF21F0090E3C
:103EC00076EC49F020C0E7F421C0E8F403D0040107
:103ED000E76BE86B33C420F034C421F0C5EC46F046
:103EE00020C0E9F421C0EAF435C420F036C421F042
:103EF00004EC4AF0300E246E9E0E256E710EEFEC2F
:103F00004AF020C0EBF421C0ECF437C420F038C4F0
:103F100021F0C5EC46F020C0EDF421C0EEF4040120
:103F2000E751EB5DE851EC5906E2EB51E75DEF6FCD
:103F3000EC51E85905D0E751EB5DEF6FE851EC59D2
:103F4000F06FE951ED5DEA51EE5906E2ED51E95DA0
:103F5000F16FEE51EA5905D0E951ED5DF16FEA518B
:103F6000EE59F26FE7C4F3F4E8C4F4F4040E8CC91C
:103F7000DBFF050E8DC9DBFF47C603F048C604F022
:103F8000056A8CC906F08DC907F0086A0650035C03
:103F9000006E07500458016E08500558026E080E56
:103FA000246E256A266A97EC4AF08FECC0F01DEC6F
:103FB00049F0010E1FC0DBFF020E20C0DBFF030E25
:103FC00021C0DBFF8CC903F08DC904F0056A9DECAC
:103FD00046F00350EE24006E0450EE20016E0550B2
:103FE000EE20026E00C08CF901C08DF96FEC47F035
:103FF00007E6D880B80E0054880E0154000E025413
:1040000006E2040EDBCF8CF9050EDBCF8DF909013A
:104010008C518E5D8D518F5904E28CC98EF98DC9FA
:104020008FF939C420F03AC421F0B3EC4BF020C032
:10403000F5F421C0F6F48CCD20F08DCD21F0B3EC59
:104040004BF020C03BF621C03CF69EEC4AF020C06D
:1040500047F621C048F6B2C908F0B3C909F0040E0A
:10406000D89009320832E804FBE108C020F009C00A
:1040700021F061EC45F020C0B4F921C0B5F945C686
:1040800020F046C621F01AEC49F0E9EC3DF020C0E2
:1040900049F621C04AF686EC39F0F3CF95FDF4CF0E
:1040A00096FD0D01580EF35C020EF45805E207016F
:1040B000600EE66FEA0E22D08A0E955D020E9659CA
:1040C00019E295CDE6F796CDE7F70701940ED88073
:1040D000E657020EE757E80EE703F3CFE7F7030EC4
:1040E000E603F350E727E80EE603F3CFE6F7F450D4
:1040F000E72705D00701100EE66F270EE76FEFC424
:10410000AEF6F0C400F0016AF0C4AFF6F1C4B0F648
:10411000F2C400F0016AF2C4B1F6B4C959F6B5C9E7
:1041200000F0016AB5C95AF6F5C455F6F6C400F0B8
:10413000016AF6C456F649C657F64AC600F0016A47
:104140004AC658F695CDA0F696CD00F0016A96CDF8
:10415000A1F60A0EE15C02E2E16AE552E16E1EEFB1
:104160003DF015EC3DF0100EE1260401005103E195
:104170006CEC49F0C5D093A829D082EC3FF0A4ECB8
:104180003BF077EC3FF023EC3BF024EC49F071EC92
:104190003CF053EC41F0800E211403E09B6B9C6BD0
:1041A0009D6B09015C0510E1B8EC47F077EC3FF03E
:1041B00023EC3BF029EC48F071EC3CF05DEC41F075
:1041C000800E21143BE037D0050135D082EC3FF062
:1041D000A4EC3BF064EC46F060EC46F024EC49F0D3
:1041E0002AEC3DF053EC41F02134000E211802E698
:1041F000E1EC3EF003E29B6B9C6B9D6B09015C055F
:1042000019E1B8EC47F064EC46F060EC46F029ECBC
:1042100048F02AEC3DF05DEC41F02134000E21180D
:1042200007E6D880000E9855000E9955000E9A5555
:1042300005E201D00501986B996B9A6B980EE96EB7
:10424000050EEA6EEE509B5D006EEE509C59016EBD
:10425000EE509D59026E070E00C0DBFF080E01C034
:10426000DBFF090E02C0DBFF9E5123E198EC41F019
:10427000FF0E021807E6D880EC0E0054FF0E015422
:10428000FF0E025413E2D950070F78EC3DF0020EF6
:10429000D890EB50000A06E6140EEE5C000EEE58C5
:1042A000000EEF5803E2010E9E6F24D030EC44F074
:1042B00027D0D950070F78EC3DF0020ED880EB5094
:1042C000FF0A06E6380EEE5CFF0EEE58FF0EEF58C2
:1042D0000DE398EC41F0000E021807E6D880C80EF6
:1042E0000054000E0154000E025404E230EC44F07D
:1042F0009E6B06D098C595F599C596F59AC597F524
:1043000095519611971104E10401F76BF86B5FD09A
:104310009735FF0E971907E6D880380E9555500E41
:104320009655FF0E975553E2D8909751000A06E62E
:10433000C80E955DAF0E9659000E975948E2800E53
:10434000971510E0E2EC3DF024682568266827EC1C
:1043500049F0DAECC0F00E0E1CC0DBFF0F0E1DC0E2
:10436000DBFF06D00E0E95C5DBFF0F0E96C5DBFFFB
:10437000B4C904F0B5C905F0066A076A0E0EDBCFB2
:1043800000F00F0EDBCF01F0026A05EC42F0B4C979
:1043900023F0B5C924F015EC44F01AC01EF01BC080
:1043A0001FF01CC020F01DC021F0400E236E420EF5
:1043B000246E0F0E256E266AA9ECC7F01EC0F7F416
:1043C0001FC0F8F4010E0401F727000EF8230401C2
:1043D000000ED880F555000EF65565E20701D205AE
:1043E00017E137EC44F0A4EC3BF01CEC3FF0A4ECFC
:1043F00045F060EC46F0FBEC49F034EC4AF0F5C4D3
:1044000020F0F6C421F002EC4BF049EC3EF016D05F
:1044100037EC44F023EC3BF0F5C420F0F6C421F077
:10442000F0ECBEF02BEC4AF098EC45F01CEC3FF0C1
:1044300067EC48F0CFEC4BF022ECC0F00A0E1FC046
:10444000DBFF0B0E20C0DBFF0C0E21C0DBFF0D0ECF
:1044500022C0DBFF3DEC44F00C0EDBCF02F00D0E72
:10446000DBCF03F0246AE80E256E7D0E266E470E24
:10447000276EFDEC44F0C4ECC1F0010A14E10A0E11
:10448000DBCF1FF00B0EDBCF20F00C0EDBCF21F0CB
:104490000D0EDBCF22F052ECC1F01FC0ABFD20C0EF
:1044A000ACFD21C0ADFD70EC48F084ECC1F01EC045
:1044B000DEFF1FC0DEFF36EC3FF0DD52DD5293A879
:1044C00052D09BC5AAF6080E1F0B82EC40F003E009
:1044D0002BEC47F0FDE100C0ABF6100E1F0B82EC99
:1044E00040F003E02BEC47F0FDE100C0ACF6EDEC52
:1044F00047F003E02BEC47F0FDE1F3EC47F003E07D
:104500002BEC47F0FDE100C05FF605019735000E8A
:10451000971907E6D880000E9555000E9655000EA7
:10452000975505E22EEC49F0450E2EEC48F0000EB2
:10453000DFCF64F633EC3DF0080E74EC47F0FDE19C
:1045400000C065F633EC3DF0100E74EC47F0FDE171
:1045500000C066F633EC3DF0180E74EC47F0FDE158
:1045600000C067F680D097C502F0006A016A800E2D
:10457000021600500AE1015008E1800E021805E120
:10458000E2EC3DF03AEC47F009D0040E95C5DBFFB4
:10459000050E96C5DBFF060E97C5DBFF040EDBCFCD
:1045A0005DF6080E77EC4AF003E02BEC47F0FDE1F6
:1045B00000C05EF6100E77EC4AF003E02BEC47F0FB
:1045C000FDE100C05FF69DC502F0006A016A800E41
:1045D000021600500AE1015008E1800E021805E1C0
:1045E00082EC40F03AEC47F005D04BEC44F0060E7C
:1045F0009DC5DBFF040EDBCFAAF6080E77EC4AF070
:1046000003E02BEC47F0FDE100C0ABF6100E77ECB9
:104610004AF003E02BEC47F0FDE100C0ACF60501E9
:10462000800E971505E02EEC49F0C50E2EEC48F0F3
:10463000000EDFCF68F633EC3DF0080E74EC47F067
:10464000FDE100C069F633EC3DF0100E74EC47F06C
:10465000FDE100C06AF633EC3DF0180E74EC47F053
:10466000FDE100C06BF6100EE15C02E2E16AE5528A
:10467000E16E1EEF3DF015EC3DF00E0EE126060159
:10468000880ED76F130ED86FD96BDA6BDB6BDC6BD0
:10469000FE0EDB500D080CE0FE0EDB500E0808E0AD
:1046A000FE0EDB500F0804E0FE0EDB50100824E184
:1046B0000701955100080CE29551006E016AB4C9DA
:1046C00020F0B5C921F095C725F0A7EC42F004D041
:1046D000B4C9D5F6B5C9D6F6D5C6D7F6D6C6D8F676
:1046E000D5C6D9F6D6C6DAF6D5C6DBF6D6C6DCF61A
:1046F0000401F96BFA6BFCD0DF6ACBEC40F069E2A5
:104700000601050E165D000E1759000E185907E236
:104710002CEC3CF020C000F021C001F011D015ECD1
:1047200042F0EECF14F0EFCF15F02CEC3CF020501F
:104730001424006E21501520016ED89001320032F1
:104740007AEC3CF028EC41F07AEC3CF089EC40F05B
:1047500004E27AEC3CF0EE6AED6A78EC47F015EC96
:1047600042F028EC41F07AEC3CF00501EE50325D6D
:10477000006EEE503359016E21EC40F028EC41F010
:1047800078EC47F00601D751005CD85101580CE293
:104790007AEC3CF0EECFD7F6EDCFD8F6B9EC3DF0A1
:1047A000EF5002E1DFCF00F978EC47F00050D95D1F
:1047B0000150DA5906E27AEC3CF0EECFD9F6EDCFB3
:1047C000DAF67AEC3CF0EE50DB27EE50DC23DF2A01
:1047D00094D70351006E016ADBC620F0DCC621F0DD
:1047E00003C525F0A7EC42F00601D951D75DDA5197
:1047F000D8590AE2D751D95D0401F96F0601D851A1
:10480000DA590401FA6F03D00401F96BFA6BFE0E5A
:10481000DB040CE0FE0EDB50020808E0FE0EDB506D
:10482000030804E0FE0EDB5004082EE10901B45138
:104830000601DB5D0901B5510601DC590AE2DB51D5
:104840000901B45D0601DD6FDC510901B5590601AE
:1048500009D00901B4510601DB5DDD6F0901B551D5
:104860000601DC59DE6FF40ED880DD55010EDE55F1
:104870000BE2040E0901025D02E2022B07D00501E2
:10488000200EE9EC3EF002D00901026B0D01880E0A
:10489000BE6F130EBF6FC06BC16BDF6ACBEC40F015
:1048A00027E278EC47F0DBEC3DF028EC41F0DBEC64
:1048B0003DF018EC3EF00D01BE51005CBF510158B7
:1048C00006E2DBEC3DF0EECFBEFDEDCFBFFDDBEC55
:1048D0003DF018EC3EF00050C05D0150C15906E2B9
:1048E000DBEC3DF0EECFC0FDEDCFC1FDDF2AD6D72A
:1048F0000601D551BF5DD651C05905E30A0EDB6AEA
:104900000B0EDB6AA6D0D551D35DD651D4590BE23C
:10491000E80EF36E0A0EF3CFDBFF030EF36E0B0E01
:10492000F3CFDBFF96D0010EDF6E0A0EDB6A0B0EB3
:10493000DB6A010EDB6A010EDB5014E10B0EDF5C5B
:1049400011E228EC40F018EC3EF0D551005CD65155
:10495000015804E279EC48F0DF2AEDD7DE52010E6F
:10496000DD6EE9D70B0EDF5C74E2DF5072E079ECAC
:1049700048F028EC40F0C0EC46F0DF0495EC3DF048
:10498000BF0EE926060EEA22EE50025C006EEE50E3
:104990000358B8EC43F028EC40F018EC3EF00A0E57
:1049A000EDEC41F00002F3CF00F0F4500126060ECA
:1049B000F3CFDBFF070E01C0DBFF0A0E206E216A7A
:1049C000D5C625F0D6C626F0BCECC0F0080E1EC039
:1049D000DBFF090E1FC0DBFFD8EC3EF0AAEC40F075
:1049E00015E2D9500A0F78EC3DF00A0EEE5E000E8B
:1049F000ED5A020EDBCF00F0030E39EC43F078ECF9
:104A00003DF00050EE5E0150ED5AE6D70A0E006E02
:104A1000016A020EDBCF20F0030EB0EC42F0D8ECBE
:104A20004AF0EE50ED1015E0D8EC3EF07AEC49F08B
:104A300010E20A0EDB2A0B0E01E3DB2A040EDBCFA9
:104A400000F0050E39EC43F078EC3DF0BFEC44F09B
:104A5000EBD7050107053BE10701B20538E1050188
:104A6000030535E0FE0EDB0410E140512EE10601A6
:104A7000D9510701B35D0601DA510701B45922E2A9
:104A8000040E0501415D18E319D0FE0EDB5002084B
:104A900004E0FE0EDB5003081AE1405116E1070165
:104AA000B3510601D75D0701B4510601D8590AE296
:104AB000040E0501415D02E2412B09D0416B010E5C
:104AC000406F05D00501416B02D0010E3F6FAECDA6
:104AD00070F6016AAFCD71F6B0CD72F6016AB1CD54
:104AE00073F6B2CD74F6016AB3CD75F6B4CD76F631
:104AF000016AB5CD77F6B6CD78F6016AB7CD79F60D
:104B0000B8CD7AF6016AB9CD7BF6BACD7CF6016AEA
:104B1000BBCD7DF6BCCD7EF6016ABDCD7FF60A0E1B
:104B2000DBCF6EF60B0EB3EC3DF000C06FF63DEC44
:104B300044F07FEC49F00E0EE15C02E2E16AE552DE
:104B4000E16E1EEF3DF015EC3DF0110EE126DF6A3F
:104B5000080EDF5C15E2B8EC4BF0010FEEEC46F00E
:104B60008BEC41F0010FD0EC45F089EC40F006E20F
:104B7000D950010FD0EC45F0EE6AED6ADF2AE8D794
:104B8000010EDBCF70F6020EB3EC3DF000C071F603
:104B9000030EDBCF72F6040EB3EC3DF000C073F6EB
:104BA000050EDBCF74F6060EB3EC3DF000C075F6D3
:104BB000070EDBCF76F6080EB3EC3DF000C077F6BB
:104BC000090EDBCF78F60A0EB3EC3DF000C079F6A3
:104BD0000B0EDBCF7AF60C0EB3EC3DF000C07BF68B
:104BE0000D0EDBCF7CF60E0EB3EC3DF000C07DF673
:104BF0000F0EDBCF7EF6100EDBCF01F001C000F010
:104C000001C07FF6110EE15C02E2E16AE552E16E5D
:104C10001EEF3DF015EC3DF0080EE12604010051B9
:104C2000030A01E180D1040A01E17DD10C0A01E10E
:104C30007AD1040A01E177D10D0A01E13ED1040ADB
:104C400001E13BD10C0A01E138D1040A01E135D17F
:104C50000F0A07E0040A05E00C0A03E0040A01E079
:104C600001D200056BE10A017A5106E0020E7A5D7D
:104C700003E0030E7A5D0CE10401960EF95D000E6F
:104C8000FA5924E30601D80ED95D0E0EDA591EE357
:104C90000A017A050CE10401FA0EF95D000EFA59D9
:104CA00015E30601E40ED95D0C0EDA590FE352EC60
:104CB00043F022E10401960EF95D000EFA5906E375
:104CC0000601A40ED95D060EDA5916E20901BA51A1
:104CD00013E102EC45F003E1F5EC42F002D084EC84
:104CE00049F0FAEC46F005E20901BB5102E1010E80
:104CF000BB6F0901B96B32D0050E0901B95D13E232
:104D000002EC45F003E1F5EC42F002D084EC49F00E
:104D1000FAEC46F005E20901BB5102E1010EBB6F5E
:104D20000901B92B1BD00501E80E2B6F030E2C6F68
:104D30000901BA5113E1010EBA6F10D002EC45F02F
:104D400003E1F5EC42F002D084EC49F0FAEC46F0D5
:104D500005E20901BB5102E1010EBB6F0D0E04011A
:104D6000005D30E152EC43F00BE10501700ED8809C
:104D70002B55170E2C5504E2700E2B6F170E3ED0DC
:104D80000A017A5106E0020E7A5D03E0030E7A5DB5
:104D90000BE10501D00ED8802B55070E2C5504E2EF
:104DA000D00E2B6F070E2AD00A017A0528E10501E3
:104DB000100ED8802B55270E2C5521E2100E2B6F8C
:104DC000270E1CD0050E005D0BE10501200ED880DA
:104DD0002B554E0E2C5504E2200E2B6F4E0E0ED08E
:104DE0002BC500F02CC501F06FEC47F002E69BEC00
:104DF0003DF005E20501400E2B6F9C0E2C6F67EC19
:104E000041F017E25EEC3DF002E69BEC3DF002E281
:104E10004DEC3EF0D5EC49F005012B51005C2C51D6
:104E2000015809E2020EDBCF2BF5030EDBCF2CF588
:104E300002D04DEC3EF0FAEC46F002E220EC43F0FA
:104E40003EEC43F002E217EC48F0CBEC49F050ECBA
:104E50004AF082EC48F09CEC4BF006E10501C80EEC
:104E6000276FAF0E286F02D034EC49F005012351B3
:104E7000275D245128590AE2010E316FF9EC47F001
:104E80000901BC5106E1010EBC6F03D0316B04EC8B
:104E90003DF012EC47F0BCEC4BF01AEC3DF0246A0C
:104EA000400E256E1C0E266E470E276E12EC4AF041
:104EB00001E0D2D0CFEC41F0D1D0FD0EDBCF00F03D
:104EC000FE0EDBCF01F0100E005C270E015806E24B
:104ED0000501400E2F6F1F0E306F0ED088EC48F08A
:104EE000006AB40E016EC40E026E040E6DEC46F044
:104EF0001EC02FF51FC030F59EEC3EF02D51F35C27
:104F00002E5130590DE294EC3FF0D9EC41F008E21B
:104F10008AEC3EF02DC5E6FF2EC5E6FF91EC48F089
:104F200037EC45F096D0CBEC49F048EC4BF08DC710
:104F300020F08EC721F002EC4BF0FDEC44F066EC63
:104F40003BF006E10501C80E2F6FAF0E306F06D0A3
:104F5000F8EC3CF020C02FF521C030F59EEC3EF07F
:104F6000F3CF00F030C501F06FEC47F002E69BECA8
:104F70003DF004E2400E2F6F9C0E306F67EC41F065
:104F800017E25EEC3DF002E69BEC3DF002E24DECF8
:104F90003EF0D5EC49F005012F51005C305101582D
:104FA00009E2020EDBCF2FF5030EDBCF30F502D086
:104FB0004DEC3EF088EC49F002E294EC3FF0D9EC85
:104FC00041F002E28AEC3EF0CBEC49F048EC4BF0C9
:104FD00082EC48F0FDEC44F066EC3BF006E10501A4
:104FE000C80E276FAF0E286F02D034EC49F00501D0
:104FF0002551275D265128590AE2010E316F00EC38
:1050000048F00901BC5106E1010EBC6F03D0316BC1
:105010000FEC3DF012EC47F0106A116AFA0E126EB6
:10502000430E136ECBEC49F01FC014F020C015F0F6
:1050300021C016F022C017F05DEC3BF010C01FF04D
:1050400011C020F012C021F013C022F012EC4AF07F
:1050500003E1D4EC41F002D0C9EC44F0016A00C095
:10506000A7F605D005010B6B0C6B0F6B106B080ED0
:10507000E15C02E2E16AE552E16E1EEF3DF015EC03
:105080003DF0060EE12604010051020A34E0040A54
:1050900032E00C0A30E0040A2EE00D0A2CE0040A8B
:1050A0002AE00C0A28E0040A26E00E0A06E0040AB8
:1050B00004E00C0A02E0040A5CE1D5EC46F023ECC3
:1050C0003BF071EC3CF098EC4BF0DDEC46F07CEC06
:1050D0003DF003E1C2EC47F022E0100E206E216AA1
:1050E0003BC425F03CC426F059EC44F03BC415F514
:1050F0003CC416F53ED0D5EC46F0A4EC3BF0A4EC55
:105100004AF060EC46F02AEC3DF098EC4BF064EC91
:1051100046F07CEC3DF020E1C2EC47F01DE1D5EC1F
:1051200049F0A8EC4AF0C0EC41F0FDEC44F0E9ECA9
:105130003DF036EC3FF0020EDBCF1FF0030EDBCF6D
:1051400020F0040EDBCF21F0050E76EC49F020C0F4
:1051500015F521C016F50DD0100E206E216A3DC444
:1051600025F03EC426F059EC44F03DC415F53EC48C
:1051700016F5B8EC42F0060EE15C02E2E16AE55297
:10518000E16E1EEF3DF015EC3DF0050EE126040149
:105190000051030A01E1A8D0040A01E1A5D00C0ADC
:1051A00001E1A2D0040A01E19FD00D0A64E0040AE3
:1051B00062E00C0A60E0040A5EE00F0A07E0040AFD
:1051C00005E00C0A03E0040A01E0E4D0000514E164
:1051D0000701940511E18FEC3EF055EC46F0BBEC75
:1051E0003FF003E279EC41F009D0020EDBCF29F564
:1051F000030EDBCF2AF502D01BEC43F089EC42F022
:1052000002E69BEC3DF002E279EC41F0CAEC3EF0A4
:1052100002E220EC43F06EEC40F004E25BEC48F07C
:10522000450E11D025EC43F003E213EC3EF005D01F
:10523000E2EC43F005E12DEC41F0066E460E03D0A2
:10524000ADEC3DF0470EF3EC44F036EC3FF03BECB8
:1052500046F005010050475D0150485904E2DECF99
:1052600047F5DDCF48F5315103E163EC49F08FD0CC
:10527000F9EC47F08AD0020E005D11E107019405B8
:105280000EE1E9EC3CF055EC46F0B0EC43F004E202
:1052900005012FEC43F005D060EC44F002D034EC73
:1052A00043F029EC44F002E22FEC43F0DEEC48F04E
:1052B00088EC49F002E294EC3FF08AEC3EF0B0EC6E
:1052C00044F003E2EAEC47F002D018EC46F0276E17
:1052D00026EC4AF04EEC4BF004E2DECF49F5DDCF90
:1052E0004AF537EC45F04CD0030E005D10E10701A4
:1052F00094050DE1E9EC3CF055EC46F0BBEC3FF0D9
:1053000003E27FEC41F005D060EC44F002D034ECD5
:1053100043F098EC42F002E69BEC3DF002E27FECB9
:1053200041F0D3EC3EF002E294EC3FF08AEC3EF028
:10533000B5EC44F004E25BEC48F0C50E12D0BAECD8
:1053400044F003E213EC3EF006D0070E0401005DCA
:1053500005E12DEC41F0066EC60E03D0ADEC3DF03C
:10536000C70E1CEC46F04EEC4BF004E2DECF49F5E4
:10537000DDCF4AF50D01010E926F0501315103E1B8
:10538000C5EC48F004D000EC48F0C9EC44F0016AE8
:1053900000C0A7F60501000504E1006B06011E6BC5
:1053A0001F6B050EE15C02E2E16AE552E16E1EEF61
:1053B0003DF015EC3DF0E652DF6ACBEC40F033E215
:1053C00009010051DF5C04E1B9EC3DF0EF6A29D03E
:1053D00037EC48F001500318E8AE02D0033402D095
:1053E0007AEC49F00BE2B9EC3DF0EFCF00F0320E71
:1053F000005C17E2B9EC3DF0EF2A13D037EC48F02F
:1054000003500118E8AE02D0013402D0AAEC40F0FB
:1054100008E2B9EC3DF0EF50000803E2B9EC3DF0D2
:10542000EF06DF2ACAD706EC40F0E5521EEF3DF04A
:1054300015EC3DF0510EE126DF6ACBEC40F001E3C4
:105440000AD15BEC45F05EEC49F0EECF0DF0EFCF0A
:105450000EF02AEC43F0F0ECBEF01FC009F020C0C3
:105460000AF021C00BF022C00CF077EC3FF01FC017
:1054700005F020C006F021C007F022C008F071EC52
:105480003CF08DEC49F0F3EC46F0D950010F73EC91
:105490003DF0030D0050C1EC3BF01FC0EEFF03C018
:1054A000EEFF04C0EEFF5BEC45F0B20EE926050E00
:1054B0000BEC4AF0B2EC48F0190FD0EC45F020C0EC
:1054C000EEFF03C0EDFF5BEC45F0D20EE926050EC2
:1054D0000BEC4AF0DF50CBEC3BF021C003F0D9508D
:1054E000290FEEEC46F08BEC41F0290FEEEC46F084
:1054F00089EC40F006E2D950290FEEEC46F0EE6A56
:10550000ED6AD950190F026EDACF03F0DF50020DA9
:105510003BEC49F0290F066EDACF07F0DF50020DA1
:105520000650C1EC3BF0EECF04F0EFCF05F0005099
:10553000045C0150055801E38CD0D950190F076E57
:10554000DACF08F0DF50020D0750C1EC3BF0EECF90
:1055500005F0EFCF06F0D950290F096EDACF0AF027
:10556000DF50020D0950C1EC3BF0EE50055C026EBD
:10557000EE500658036E046A100E246E270E256E38
:10558000266A67EC44F0DAECC0F01DC003F01EC0E0
:1055900004F0D950390F006EDF50030D0050C1ECFC
:1055A0003BF01CC0EEFF03C0EEFF04C0EEFFD9507D
:1055B000010F036EDACF04F0DF50030D0350C1EC8E
:1055C0003BF091EC49F0EFCF02F00234000E0218EC
:1055D00007E6D880000E0054000E0154000E02545D
:1055E00038E2D950010F0A6EDACF0BF0DF50030D0D
:1055F0000A50C1EC3BF0EECF07F0EECF08F0EFCF52
:1056000009F0D950390F056EDACF06F0DF50030DDF
:105610000550C1EC3BF0EECF02F0EECF03F0EFCF40
:1056200004F067EC44F007C024F008C025F009C07E
:1056300026F0CDECC7F01FC000F020C001F05BECFD
:1056400045F0000EE926060EEA221FC0EEFF01C05B
:10565000EDFFDF2AF2D600C680F601C681F602C64B
:1056600082F603C683F604C684F605C685F606C62A
:1056700086F607C687F608C688F609C689F60AC6FA
:105680008AF60BC68BF60CC68CF60DC68DF60EC6CA
:105690008EF60FC68FF6DF6A080EDF5C0EE25BEC5B
:1056A00045F0A3EC41F05BEC45F0A8EC41F05BEC7D
:1056B00045F0ADEC41F0DF2AEFD7510EE15C02E29C
:1056C000E16AE552E16E1EEF3DF015EC3DF0270E6C
:1056D000E1260901715103E1030ECEEC44F00A0109
:1056E0007A51080A6BE00F0A67E0010A54E0030AE6
:1056F0004DE0010A49E0070A38E0010A28E0030A00
:1057000012E0010A61E1800EDEEC41F0250EDB6A59
:10571000E66AE3EC87F0E552DF6A080EDF5C54E2EC
:10572000E6EC46F0FAD7C00EDEEC41F0250EDB6A5F
:10573000010EFBEC42F0080EDF5C46E2066A200E2A
:10574000076E800E086E450E0FEC3BF0F4D7240E6A
:10575000DB6A010E43EC43F0020EFBEC42F0080E54
:10576000DF5C32E2E6EC46F0FAD7400EDEEC41F0C8
:10577000010E43EC43F0030EFBEC42F0080EDF5C3D
:1057800023E2E6EC46F0FAD7800E01D0C00EDEEC44
:1057900041F0010E17D0240EDB6A020E43EC43F0F9
:1057A000DF6A080EDF5C10E2066A076AFA0E086E0E
:1057B000440E0FEC3BF0F5D7400E01D0800EDEEC2E
:1057C00041F0020E43EC43F0020EDB6A010EF36E71
:1057D000260EF3CFDBFF140EF36E020E48EC43F0FF
:1057E0000AE2260EDB0407E1A4EC34F0E76E260E95
:1057F000E6EC48F0F0D7260EDB5001E07BD28B9828
:10580000010E4AEC3DF00501436B4351FEE0230ECF
:10581000DB6ADF6A030EDF5C01E37DD20501436BC7
:105820004351FEE09EEC4AF054EC4BF06CEC3EF041
:105830000F0144EC46F0EF6A010EDB6A080EF36ECE
:10584000010E48EC43F001E387D0010EEA6ADB3435
:10585000FE0BEA36E96EA2EC47F0C5EC45F0010E0E
:10586000DB50E0EC44F060EC46F0010EDB50CBEC9A
:105870003BF085EC41F063EC47F08BEC41F063ECDE
:1058800047F089EC40F005E2D95063EC47F0EE6A4E
:10589000ED6A97EC48F05DE152EC43F012E106EC62
:1058A00046F0C9EC3FF055E2ABEC46F0C0EC46F0F8
:1058B000D00E025C070E03584CE268EC47F041E062
:1058C00044D07A5106E0020E7A5D03E0030E7A5D61
:1058D0001DE106EC46F095EC40F03BE2ABEC46F007
:1058E000C1EC42F036E2D950050F016EDACF02F07A
:1058F000DF500F010124E96E000EDA20EA6EEFCFCF
:1059000000F0010EDB50005C20E11BD07A050EE1B7
:1059100006EC46F0C9EC3FF01CE2ABEC46F0C8ECFC
:1059200042F017E268EC47F010E10BD006EC46F0CD
:10593000140ED880EE54050EED540BE268EC47F0DF
:1059400004E107EC48F0EF2A04D077EC4BF0130E9B
:10595000EF6E010EDB2A72D704010051090A01E142
:1059600018D1030A01E115D1060A01E112D1070A93
:1059700001E10FD1060A01E10CD1030A01E109D1CD
:10598000010A01E106D10A0A01E1C7D0030A01E1D7
:10599000C4D00E0A01E1C1D00F0A01E1BED0060A4F
:1059A00007E0030A05E0060A03E0070A01E0A0D1C8
:1059B00097EC48F001E09CD16CEC3EF0D6EC3CF06A
:1059C000EF505DE152EC43F01DE11CEC48F0C9ECF6
:1059D0003FF007E25FEC3EF0D00E005C070E01588E
:1059E0001DE3040E0401005D44E11CEC48F0C9EC29
:1059F0003FF03FE25FEC3EF0800E005C3E0E01584F
:105A000038E226D01CEC48F095EC40F00AE25FEC5E
:105A10003EF0C60E005C110E015803E20701010EB4
:105A200019D0040E0401005D24E11CEC48F095EC53
:105A300040F01FE25FEC3EF0026AD8900250000A8C
:105A400006E6B80E005C880E0158000E025811E2FE
:105A50000701090E956FD950050F73EC3DF00F014A
:105A6000D6EC3CF0010EEF6EF36E230EF3CFDBFFAE
:105A70003FD1D9501C0F73EC3DF00F0135D1180EFA
:105A8000DB6A190EDB6A010EDB6A6CEC3EF0D6ECC9
:105A90003CF0EF50F36E010E48EC43F00FE2D950AA
:105AA000080F026E37EC41F03BEC49F0180F78EC30
:105AB0003DF0BFEC44F0010EDB2AE7D75FEC3EF08F
:105AC0006EEC44F0AAEC40F00CE2030EDBCF02F0E7
