:020000040000FA
:0600000039EFC2F012000E
:020006000000F8
:0600080056EF16F0120095
:02000E001200DE
:0600180014EF0CF01200D1
:02001E00D9CF38
:10002000E6FFE1CFD9FF090EE126C8EC16F021EC7E
:1000300017F0C00EF2120F013985BA94B984BBECE7
:100040009EF0C1EC9EF0BBECA5F0C9EC9EF059EC23
:100050009FF085C7E6FF320EE66EE66A52ECC0F00E
:10006000E552E552E5520501030E146F0501010E3C
:10007000156F8D805EEC83F000090AE10401290E02
:10008000446F0601010E126F0601010E136F0DD0B1
:10009000B8EC83F0000909E10401280E446F060161
:1000A000010E126F0601010E136F07019051010836
:1000B00006E2020E0701905D0901816F03D009017C
:1000C000010E816F09018151000817E205010351FA
:1000D00014E1060E0501025D10E109019A0505E132
:1000E00050EC34F009019A6B07D009019B0504E13B
:1000F0004DEC37F009019B6BE5D70501010E036F4D
:100100000501060E026F85C7E6FF320EE66EE66A4F
:1001100052ECC0F0E552E552E552BBECA5F0060109
:10012000130547E10501006B8FC7E6FF4EEC4AF06F
:10013000E5520701010E8F6F00C552F60601AD6949
:100140000501020E036F020E0501035D0CE0030EB4
:100150000501035D08E0040E0501035D04E0050EE2
:100160000501035D25E144C4E6FF6FECA0F0E55214
:1001700007018551E66EE66A0C0EE66EE66A9EECB5
:10018000C0F0E552E552E552E5520501036B050169
:10019000035101E1FCD785C7E6FF320EE66EE66A41
:1001A00052ECC0F0E552E552E5520501010E036F35
:1001B000B6D704013B5101E0FBD10501006B8FC7AD
:1001C000E6FF4EEC4AF0E5520701010E8F6F00C5C5
:1001D00052F60601AD690501005101E007D1050E97
:1001E0000501035D3CE185C7E6FF640EE66EE66A45
:1001F00052ECC0F0E552E552E552010EE66E640E97
:10020000E66EE66ADAEC39F0E552E552E55285C76A
:10021000E6FF320EE66EE66A52ECC0F0E552E552B9
:10022000E5521F0E0801005D16E00801B36B0D01D9
:10023000DE51006E016AFF0E001801E1015006E177
:10024000010EE66E4EEC4AF0E55205D0060EE66E63
:100250004EEC4AF0E5520501010E036F1ED0020E6E
:100260000501035D08E0030E0501035D04E0040ED3
:100270000501035D12E185C7E6FF320EE66EE66A10
:1002800052ECC0F0E552E552E55203C5E6FFF3EC4F
:1002900056F0E5520501010E036F070E0501025DE0
:1002A00009E1070EE66EF3EC56F0E5520501060E85
:1002B000026F0CD0080E0501025D08E1080EE66E23
:1002C000F3EC56F0E5520501060E026F06014D05EE
:1002D0000AE106014D6B010EE66E4EEC4AF0E55266
:1002E0000501010E036F0401360504E170EC1EF0F8
:1002F0000401366B0601120541E10801B351EA6AB7
:10030000A90FE96E080EEA2200C8EFFF0801B351F9
:10031000EA6AAE0FE96E080EEA22A6C8EFFF44C4EF
:10032000E6FF6FECA0F0E55207018551E66EE66A44
:100330000C0EE66EE66A9EECC0F0E552E552E55220
:10034000E552030E0501035D01E0FBD785C7E6FF1B
:10035000320EE66EE66A52ECC0F0E552E552E55226
:100360000601126B0401446B0501006B010EE66E81
:100370004EEC4AF0E5520501010E036F09019A05A2
:1003800005E150EC34F009019A6B07D009019B0597
:1003900004E14DEC37F009019B6B110E0501005D86
:1003A00010E10401635104E0EDEC24F00401636BFF
:1003B0000701C95106E0D1EC94F00701C86F0701AD
:1003C000C96B0701CA5111E009019C0503E009014D
:1003D0009D050BE1010EE66E640EE66EE66ADAEC50
:1003E00039F0E552E552E552FF00F5D6110E050150
:1003F000005D01E079D0BBECA5F009019A0504E1AC
:1004000050EC34F009019A6B0401610504E1FBEC46
:100410001FF00401616B060112052CE1140EE66E5B
:10042000E66A020EE66EE00EE66E7F0EE66E010EE6
:10043000E66EAAECA2F0006E060EE15E005044C427
:10044000E6FFD6EC79F0E552E76E020EE7CFDBFF70
:10045000020EE66E060EE66E020EE66E170EE66EF3
:10046000050EE66E9AECA3F0006E050EE15E0050FC
:100470000601126B0401630504E1EDEC24F00401B4
:10048000636B0701C90506E1D1EC94F00701C86F61
:100490000701C96B0701CA0511E109019C0503E0C9
:1004A00009019D050BE1010EE66E0A0EE66EE66A95
:1004B000DAEC39F0E552E552E552FF000401360569
:1004C00012E170EC1EF0E0C7E6FF9EEC9FF0E552F3
:1004D000080E0701E05D03E20701E02B02D00701EF
:1004E000E06B0401366B89D730EC19F058EC2AF038
:1004F0000401036F010EE66E8DEC92F0E5520401EB
:1005000003511CE10401445106E1130EE66E6FEC49
:10051000A0F0E55205D044C4E6FF6FECA0F0E55230
:1005200007018551E66EE66A0C0EE66EE66A9EEC01
:10053000C0F0E552E552E552E5520FD0040EE66EEA
:100540006FECA0F0E55285C7E6FF320EE66EE66A74
:1005500052ECC0F0E552E552E55206010A0E4B6F2F
:1005600006014C6B0501035101E0FCD70401035166
:1005700007E10501035101E1FCD706014C6B12D0E4
:100580000501035104E106014C5101E1F9D7030EC5
:100590000501035D04E0050E0501035D03E10601AD
:1005A000010E406F0601010E146F03C4A5F694D12D
:1005B000DF6A07018651DF5C16E285C7E6FF320E6F
:1005C000E66EE66A52ECC0F0E552E552E552E66AA4
:1005D000F40EE66E010EE66EDAEC39F0E552E55205
:1005E000E552DF2AE6D70701AC51AD1101E1F2D0A7
:1005F000ACC716F6ADC717F60601186BE66AACC7AE
:10060000E6FFADC7E6FFB4EC7FF0E552E552E552F8
:100610000901010E706F9A0EE66EE40EE66E010E91
:10062000E66E23EC96F0E552E552E552E76E020ED7
:10063000E7CFDBFF020EDB50070805E2070EF36E83
:10064000020EF3CFDBFF070EE66E1E0EE66E010E06
:10065000E66EA30EE66E7F0EE66E010EE66EAAEC67
:10066000A2F0006E060EE15E0050020EDBCFE6FF48
:100670001E0EE66E010EE66E9A0EE66EE40EE66E55
:10068000010EE66EAAECA2F0006E060EE15E0050CE
:100690000901010E846F090170056EE1050E050167
:1006A000035D6AE0040162050BE101C5E6FF85EC2C
:1006B00022F0E552F3CFBDF6F4CFBEF60401626B33
:1006C000040136051BE170EC1EF0F4C5E6FFF5C52C
:1006D000E6FFB4C9E6FFB5C9E6FF54EC25F0E552E4
:1006E000E552E552E55210C6E6FF01C5E6FF69ECAA
:1006F000A8F0E552E5520401366B2ED0070E050135
:10070000025D14E1060111510601105D03E20601CC
:10071000102B02D00601106B0901010E826F04013B
:10072000010E366F0501060E026F16D0080E050188
:10073000025D12E106011051000803E206011007F4
:1007400002D011C610F60901010E826F0401010EDC
:10075000366F0501060E026F09019A0505E150EC9E
:1007600034F009019A6B07D009019B0504E14DECB7
:1007700037F009019B6B8FD70901846B050E0501CA
:10078000035D16E104013B6B0401516B0901706BC1
:100790000601030E406F85C7E6FF320EE66EE66A7D
:1007A00052ECC0F0E552E552E5520501010E036F2F
:1007B000070EE66E1E0EE66E010EE66EA30EE66EE8
:1007C0007F0EE66E010EE66EAAECA2F0006E060E3B
:1007D000E15E0050030E0601405D01E17BD00501A2
:1007E00001510E0A67E0010A65E0020A52E0070AB9
:1007F0004CE0010A4AE0020A37E00F0A31E0010A40
:100800002FE0020A1CE0070A16E0010A14E0020ABF
:1008100001E054D00701805106E007018A5103E04E
:100820000701CE5104E10501020E006F03D005015E
:10083000030E006F48D00501010E006F44D0070180
:10084000805106E007018A5103E00701CE5104E11F
:100850000501060E006F03D00501070E006F33D0AF
:100860000501050E006F2FD00701805106E007013A
:100870008A5103E00701CE5104E105010A0E006F21
:1008800003D005010B0E006F1ED00501090E006F8D
:100890001AD00701805106E007018A5103E00701E1
:1008A000CE5104E105010E0E006F03D005010F0EBD
:1008B000006F09D005010D0E006F05D00501006B1A
:1008C00004013B6B00D030EC19F0010EE66E8DECAC
:1008D00092F0E5520601146B030E0601405D02E141
:1008E00014EF0AF00601400506E00401035103E09D
:1008F00006014C0529E106014C050EE10701855171
:10090000E66EE66A0C0EE66EE66A9EECC0F0E55214
:10091000E552E552E5520AD085C7E6FF320EE66E93
:10092000E66A52ECC0F0E552E552E5520601010ECE
:10093000406F0501006B04013B6B06014C6B050128
:10094000010E036F14EF0AF085C7E6FF320EE66E64
:10095000E66A52ECC0F0E552E552E5520501010E9F
:10096000036F38EC82F00601140502E1BBECA5F040
:1009700000C5E6FF5AECA6F0E552010EE66E000E49
:10098000E66EE66AB4EC7FF0E552E552E552050109
:1009900000050CE0020E0501005D08E0040E0501F3
:1009A000005D04E0030E0501005D0FE104016251EA
:1009B00001E1FCD700C5E6FF85EC22F0E552F3CF5C
:1009C000BDF6F4CFBEF60401626B70EC1EF010C6EB
:1009D000E6FF00C5E6FF69ECA8F0E552E55200C568
:1009E000E6FF08EC1AF0E55200C5E6FF5AECA6F067
:1009F000E55270EC1EF00501005118E0040E0501EF
:100A0000005D14E0080E0501005D10E00C0E05010C
:100A1000005D0CE0100E0501005D08E00901910584
:100A200005E00501146B0501156B8D8000C552F6BC
:100A30000601536BD18010C6E6FF00C5E6FF69ECE6
:100A4000A8F0E552E55200C5E6FFA5EC38F0E55206
:100A500004000901010E846F0501005102E111EF4C
:100A60000AF0040004013F0504E1CCEC28F0040185
:100A70003F6B0401460504E110EC2FF00401466BC6
:100A80000701CF0501E07DD000C501F50501006B30
:100A9000E66A020EE66EE66AF4EC1DF0E552E552F7
:100AA000E55201C5E6FF5AECA6F0E55210C6E6FF96
:100AB00001C5E6FF69ECA8F0E552E5520F0EE66EBF
:100AC0006FECA0F0E55285C7E6FF320EE66EE66AEF
:100AD00052ECC0F0E552E552E552030E0501015D0E
:100AE00004E10501020E006F1AD0070E0501015D39
:100AF00004E10501060E006F12D00B0E0501015D29
:100B000004E105010A0E006F0AD00F0E0501015D18
:100B100004E105010E0E006F02D00501006B00C557
:100B200052F630EC19F0010EE66E8DEC92F0E552C3
:100B300097C795F798C796F70400E66AB80EE66E71
:100B40000B0EE66EDAEC39F0E552E552E5520400A0
:100B500038EC82F0BBECA5F000C5E6FF5AECA6F03D
:100B6000E55210C6E6FF00C5E6FF69ECA8F0E552C5
:100B7000E552040000C5E6FF08EC1AF0E552070153
:100B8000CF6B0401500541E100C501F50501006B83
:100B9000E66A020EE66EE66AF4EC1DF0E552E552F6
:100BA000E55201C5E6FF5AECA6F0E55210C6E6FF95
:100BB00001C5E6FF69ECA8F0E552E552030E060117
:100BC0003A5D19E206013A2B0400E66AB80EE66EB9
:100BD0000B0EE66EDAEC39F0E552E552E552040010
:100BE00001C500F50501035105E100C5E6FF08EC6C
:100BF0001AF0E55208D006013A6B0401180E446F52
:100C00000601010E126F0401506B0601120539E155
:100C100000C501F50501006BE66AE66AE66AF4ECD8
:100C20001DF0E552E552E55201C5E6FF5AECA6F08B
:100C3000E55210C6E6FF01C5E6FF69ECA8F0E552F3
:100C4000E55285C7E6FF320EE66EE66A52ECC0F06A
:100C5000E552E552E552010EE66E640EE66EE66A76
:100C6000DAEC39F0E552E552E55285C7E6FF320E7F
:100C7000E66EE66A52ECC0F0E552E552E552040138
:100C80003B6B040151051AE100C501F50501006B3C
:100C9000020EE66EE66AE66AF4EC1DF0E552E552F5
:100CA000E55201C5E6FF5AECA6F0E55210C6E6FF94
:100CB00001C5E6FF69ECA8F0E552E552090190058F
:100CC00001E0A8D0010EE66EE66AE66AF4EC1DF0DB
:100CD000E552E552E55200C5E6FF5AECA6F0E552B2
:100CE00010C6E6FF00C5E6FF69ECA8F0E552E55244
:100CF0000701855105E0D19068ECC0F0D180040077
:100D000006011C6B1D6B0401006B70EC1EF0F4C53A
:100D1000E6FFF5C5E6FFB4C9E6FFB5C9E6FF54EC4A
:100D200025F0E552E552E552E55200C5E6FF5AECE2
:100D3000A6F0E55210C6E6FF00C5E6FF69ECA8F094
:100D4000E552E5520901010E916F040000C5E6FF6E
:100D500008EC1AF0E552B00EE66EE40EE66E010EF7
:100D6000E66E23EC96F0E552E552E552E76E020E90
:100D7000E7CFDBFF020EDB50070805E2070EF36E3C
:100D8000020EF3CFDBFF070EE66E1E0EE66E010EBF
:100D9000E66EA30EE66E7F0EE66E010EE66EAAEC20
:100DA000A2F0006E060EE15E0050020EDBCFE6FF01
:100DB0001E0EE66E010EE66EB00EE66EE40EE66EF8
:100DC000010EE66EAAECA2F0006E060EE15E005087
:100DD000010EE66EA6C7E6FFA7C7E6FFBCEC7CF0F7
:100DE000E552E552E552E76E020EE7CFDBFF060E55
:100DF000E66E360EE66EE66A170EE66E050EE66ED7
:100E00009AECA3F0006E050EE15E00500901906BB4
:100E1000060154970401610504E1FBEC1FF0040195
:100E2000616B0401620518E100C5E6FF85EC22F064
:100E3000E552F3CFBDF6F4CFBEF609017D510AE1CC
:100E4000BDC66CF6BEC600F0016A00C06DF60901B1
:100E5000010E7D6F0401626B0401A10504E10BEC3E
:100E600029F00401A16B0601240504E176EC80F071
:100E70000601246B090172050EE10701925106017A
:100E80001A5D09E17ACAE6FFEFEC32F0E55207019C
:100E9000C36F0901726B0401360501E0A2D009019C
:100EA000830504E1AFEC81F00901836B70EC1EF067
:100EB000F4C5E6FFF5C5E6FFB4C9E6FFB5C9E6FF30
:100EC00054EC25F0E552E552E552E55205011305D3
:100ED0000BE1BBEC9EF0C1EC9EF000C5E6FF5AECC6
:100EE000A6F0E5520501136B0901B80509E00901F7
:100EF000BA0506E00901BB0503E00901BC0539E1BB
:100F00000901B65135E10901B80504E109011A0EDC
:100F1000B76F1BD00901BA0504E10901230EB76FB1
:100F200014D00901BB0504E10901240EB76F0DD0EF
:100F30000901BC050AE10701CD5104E109012F0EA9
:100F4000B76F03D00901300EB76F0901B75105E142
:100F50000901B66B0901BD6B0BD00901010EB66F1B
:100F600009010A0EBD6FB7C9E6FF6FECA0F0E552AC
:100F700002D00901B66B0901B60511E10901BD51A5
:100F800000080CE285C7E6FF320EE66EE66A52EC18
:100F9000C0F0E552E552E5520901BD0708D010C680
:100FA000E6FF00C5E6FF69ECA8F0E552E5520D0149
:100FB000EE0ED8809555020E96550EE2030E0D01E9
:100FC0009D5D03E20D019D2B06D00401210E446FAF
:100FD0000601010E126F02D00D019D6B0401366BEC
:100FE000A5D0070E0501025D50E10901B6514DE1A2
:100FF0000401450536E10701BC510701BA5D07014F
:10100000BD510701BB5905E20701BA2B000EBB23F6
:1010100003D00701BA6BBB6BC0C7E6FFC1C7E6FFD1
:10102000BAC7E6FFBBC7E6FFDCEC8CF0E552E55241
:10103000E552E552050EF3CFDBFF060EF4CFDBFFE2
:10104000010EE66E050EDBCFE6FF060EDBCFE6FFF8
:10105000E4EC61F0E552E552E5520501060E026F3F
:1010600013D0060111510601105D03E20601102B99
:1010700002D00601106B0901010E826F0401010EFE
:10108000366F0501060E026F51D0080E0501025D94
:101090004DE10901B6514AE10401450535E1070179
:1010A000000ED880BA55000EBB5505E20701BA07FD
:1010B000000EBB5B04D0BCC7BAF7BDC7BBF7C0C747
:1010C000E6FFC1C7E6FFBAC7E6FFBBC7E6FFDCEC39
:1010D0008CF0E552E552E552E552050EF3CFDBFF09
:1010E000060EF4CFDBFF010EE66E050EDBCFE6FF4A
:1010F000060EDBCFE6FFE4EC61F0E552E552E55287
:101100000501060E026F12D006011051000803E21D
:101110000601100702D011C610F60901010E826FF8
:101120000401010E366F0501060E026F030E050164
:10113000035D72E10401450523E10401456BC0C76D
:10114000E6FFC1C7E6FFBEC7E6FFBFC7E6FFDCECB0
:101150008CF0E552E552E552E552050EF3CFDBFF88
:10116000060EF4CFDBFFE66A050EDBCFE6FF060EC8
:10117000DBCFE6FFE4EC61F0E552E552E5523ED00C
:101180000901B7513BE000C5E6FF5AECA6F0E55275
:1011900010C6E6FF00C5E6FF69ECA8F0E552E5528F
:1011A0000901B7512F0A21E01F0A1FE0140A15E0B8
:1011B000070A0BE0390A01E020D00901020EB86FDE
:1011C0000901B76B0901B66B19D00901020EBA6F9C
:1011D0000901B76B0901B66B11D00901020EBB6F93
:1011E0000901B76B0901B66B09D00901020EBC6F8A
:1011F0000901B76B0901B66B01D000D085C7E6FFC6
:10120000320EE66EE66A52ECC0F0E552E552E55267
:101210000501010E036FF4D0050E0501035D37E1F2
:1012200000C501F50501006B020EE66EE66AE66A8E
:10123000F4EC1DF0E552E552E55201C5E6FF5AEC2B
:10124000A6F0E55210C6E6FF01C5E6FF69ECA8F07E
:10125000E552E55285C7E6FF320EE66EE66A52ECCD
:10126000C0F0E552E552E552010EE66E640EE66E00
:10127000E66ADAEC39F0E552E552E55204013B6BDF
:101280000501010E036F0601020E406FB9D0020E78
:101290000501035D05E0040E0501035D01E0B0D02A
:1012A00085C7E6FF320EE66EE66A52ECC0F0E55204
:1012B000E552E5520501005101E19FD0040E050100
:1012C000005D01E19AD0080E0501005D01E195D0B5
:1012D0000C0E0501005D01E190D0100E0501005DCE
:1012E00001E18BD0040145055DE1C0C7E6FFC1C740
:1012F000E6FFBEC7E6FFBFC7E6FFDCEC8CF0E552B9
:10130000E552E552E552070EF3CFDBFF080EF4CFAE
:10131000DBFFC0C7E6FFC1C7E6FFBAC7E6FFBBC732
:10132000E6FFDCEC8CF0E552E552E552E552050EA5
:10133000F3CFDBFF060EF4CFDBFFE66A050EDBCF53
:10134000E6FF060EDBCFE6FFE4EC61F0E552E55286
:10135000E552BAC7E6FFC0C7E6FFC1C7E6FF3BECF0
:1013600084F0E552E552E5520A017A512C0DF3CF93
:1013700000F0F4CF01F0000E00260C0E0122070150
:10138000C2510F010024E96E000E0120EA6EBAC7B7
:10139000EFFFE66A8DEC92F0E5520DEC28F00401C7
:1013A000456B2BD00901915128E10401010E456FD5
:1013B000BAC7BEF7BBC7BFF7C0C7E6FFC1C7E6FFE6
:1013C000BAC7E6FFBBC7E6FFDCEC8CF0E552E5529E
:1013D000E552E552050EF3CFDBFF060EF4CFDBFF3F
:1013E000010EE66E050EDBCFE6FF060EDBCFE6FF55
:1013F000E4EC61F0E552E552E5520501010E036FA0
:1014000009019A0505E150EC34F009019A6B07D007
:1014100009019B0504E14DEC37F009019B6B2CEFB2
:1014200005F00901846BD1900701AA5142E0030E37
:101430000601405D3EE004013B5100083AE207012D
:10144000AB5112E1050101050CE0050E0501015D3E
:1014500008E0090E0501015D04E00D0E0501015DC6
:1014600003E104013B0725D00701AB0522E1020E91
:101470000501015D1CE0060E0501015D18E00A0E84
:101480000501015D14E00E0E0501015D10E0030E83
:101490000501015D0CE0070E0501015D08E00B0E82
:1014A0000501015D04E00F0E0501015D02E104018B
:1014B0003B07020E0601405D08E00601125101E003
:1014C00049D10601400501E145D104013B5101E04C
:1014D00040D101C5E6FF7AEC32F0E55209016F6FA9
:1014E000050EE66E600EE66EE66A960EE66E7F0EFE
:1014F000E66E010EE66EAAECA2F0006E060EE15E4C
:1015000000500401510538E16E0EE66EE40EE66E01
:10151000010EE66E23EC96F0E552E552E552E76ED9
:10152000020EE7CFDBFF020EDB50040805E2040EDB
:10153000F36E020EF3CFDBFF020EDBCFE6FF7E0E73
:10154000006E020EDB50060DF350005CE66EE66A9C
:101550006E0EE66EE40EE66E010EE66EAAECA2F0EA
:10156000016E060EE15E01500701855102E068EC54
:10157000C0F00401516B30D0840EE66EE40EE66ECE
:10158000010EE66E23EC96F0E552E552E552E76E69
:10159000020EE7CFDBFF020EDB50040805E2040E6B
:1015A000F36E020EF3CFDBFF020EDBCFE6FF7E0E03
:1015B000006E020EDB50060DF350005CE66EE66A2C
:1015C000840EE66EE40EE66E010EE66EAAECA2F064
:1015D000016E060EE15E01500901010E846F0501E6
:1015E000035101E0FCD70501035101E07CD0090162
:1015F0006F5101E078D00401610504E1FBEC1FF0BC
:101600000401616B040162050BE101C5E6FF85EC95
:1016100022F0E552F3CFBDF6F4CFBEF60401626BC3
:101620000401360522E101C5E6FF7AEC32F0E5520D
:1016300009016F6F70EC1EF0F4C5E6FFF5C5E6FF1B
:10164000B4C9E6FFB5C9E6FF54EC25F0E552E55212
:10165000E552E55210C6E6FF01C5E6FF69ECA8F0C9
:10166000E552E5520401366B2ED0070E0501025DEE
:1016700014E1060111510601105D03E20601102B71
:1016800002D00601106B0901010E826F0401010EE8
:10169000366F0501060E026F16D0080E0501025DB9
:1016A00012E106011051000803E20601100702D002
:1016B00011C610F60901010E826F0401010E366F8A
:1016C0000501060E026F09019A0505E150EC34F0A0
:1016D00009019A6B07D009019B0504E14DEC37F035
:1016E00009019B6B80D70901846BE66AE66AE66AAA
:1016F000F4EC1DF0E552E552E5520501010E036FD1
:1017000085C7E6FF320EE66EE66A52ECC0F0E5529F
:10171000E552E55209016F511CE0050EE66E6FECD3
:10172000A0F0E552E66AD00EE66E070EE66EDAEC41
:1017300039F0E552E552E5520601120508E1200EA6
:101740000401445D04E10401446B0601126B0901CC
:101750006F6B46D00601120543E1E66AE66AE66A67
:10176000F4EC1DF0E552E552E55204013B6B44C434
:10177000E6FF6FECA0F0E55207018551E66EE66AE0
:101780000C0EE66EE66A9EECC0F0E552E552E552BC
:10179000E55244C453F6030E0501035D10E0090150
:1017A0009A0505E150EC34F009019A6B07D0090164
:1017B0009B0504E14DEC37F009019B6BECD705016B
:1017C000010E036F85C7E6FF640EE66EE66A52EC13
:1017D000C0F0E552E552E5520601126B0401446B7C
:1017E00004013B5109E1E66AE66AE66AF4EC1DF0A1
:1017F000E552E552E5520AD0020EE66E020EE66EA2
:10180000E66AF4EC1DF0E552E552E5520601406B44
:10181000D9EF00F0090EE15C02E2E16AE552E16E07
:10182000E552E7CFD9FF1200D8CFE4FFE0CFE4FFC5
:10183000E46EDACFE4FFE2CFDAFFE9CFE4FFEACFEC
:10184000E4FFF6CFE4FFF7CFE4FFF8CFE4FFF5CFF6
:10185000E4FFF3CFE4FFF4CFE4FFFACFE4FFFBCFE4
:10186000E4FF00EE18F0140EE80403E3EECFE4FF0B
:10187000FBD700EE00F0180EE80403E3EECFE4FF20
:10188000FBD7E652F5EC3BF0030EE126B950040B12
:1018900002E1A3EF15F0BA50040B02E1A3EF15F03B
:1018A000BA940401045101E0D5D01D0E2AEC45F094
:1018B000F3CF41F6F4CF42F63D0E2AEC45F0F3CFDC
:1018C00043F6F4CF44F6150E2AEC45F0F3CF45F677
:1018D000F4CF46F6250E2AEC45F0F3CFAEF9F4CF5F
:1018E000AFF90401A05166E17AEC49F002EC46F050
:1018F00094EC41F00501000506E0020E005D03E0F6
:10190000030E005D2AE104010351015D27E201514C
:1019100071EC3CF002EC46F00BEC47F0015171EC3D
:101920003CF0E20EE926040EEAEC45F02C502E5C69
:101930002D502F5813E23CEC3FF0EFCF2CF0140E5B
:101940002C5C04E23CEC3FF0EF2A0BD03CEC3FF087
:10195000EF6A260EA4EC3DF004D004013CEC3FF00D
:10196000EF6A070E0401015D2FE10501005117E048
:10197000000515E0020E005D12E0030E005D0FE0B1
:10198000040E005D0CE00D0E005D09E00E0E005D22
:1019900006E00F0E005D03E0100E005D03E10401A0
:1019A000010E626F110E0501005D0EE10401010ED2
:1019B000636F0AD02D0E2AEC45F036EC46F0D20EBD
:1019C000E926040E94EC41F0050100513BE00601CC
:1019D00039510EE19350100B0BE127510901AE5D17
:1019E000060128510901AF5903E20401170E22D064
:1019F000060141513D5D42513E5908E2140E3F5DE2
:101A000002E23F2B1FD03F6B040113D04151040170
:101A10004B5D0601425104014C590FE2140E4D5D1D
:101A2000000E4E5904E24D2B000E4E230BD04D6B91
:101A30004E6B1B0EA4EC3DF005D006013F6B04017C
:101A40004D6B4E6BAEC9A2F6AFC92CF02D6AAFC973
:101A5000A3F668D0A0510AE12D0E26EC3CF005015A
:101A60003E27F4503F232E5040230AD0280E045D19
:101A700007E17AEC49F0B20EE926040E94EC41F04D
:101A80001D0E26EC3CF005014127F45042232E5058
:101A900043233D0E26EC3CF005014427F45045233A
:101AA0002E504623150E26EC3CF005014D27F45030
:101AB0004E232E504F23250E26EC3CF005015027D7
:101AC000F45051232E505223290E26EC3CF00501F0
:101AD0004727F45048232E504923390E26EC3CF07A
:101AE00005014A27F4504B232E504C2380EC39F04B
:101AF00067EC47F005015327F45054232E5055232B
:101B0000040104050FE10901BE050CE10501010E08
:101B1000076F0F01320E376F060E366FBA98B9880D
:101B20000901BE6B320E0401045D42E2042B070181
:101B3000AE053AE10401A05137E11B51D8800455AC
:101B400002E2919801D091881C51D880045502E29C
:101B5000919A01D0918A1D51D880045502E2919C3E
:101B600001D0918C1E51D880045502E2919E01D083
:101B7000918E1F51D880045502E28B9201D08B8246
:101B80002051D880045502E28E9201D08E822151DC
:101B9000D880045502E2909801D090882251D880D4
:101BA000045504E3908A05D201EC42F0909A01D2E8
:101BB000046B060506E0030E065D03E0020E065DFB
:101BC0000EE108050AE1280E055D02E2052B07D0AB
:101BD000320E056F010E076F02D0010E086F01C4AF
:101BE00002F40151070A45E0010A3AE0030A2FE036
:101BF000010A25E0070A1BE0010A12E0030A09E0D6
:101C0000010A3DE1010E016F8A928A948A868A90C8
:101C10001CD0020E016F8A928A848A968A901DD007
:101C2000030E016F8A928A848A868A901FD0040EDE
:101C3000016F8A828A948A968A8091960FD0050EC7
:101C4000016F8A828A948A868A80919610D0060EC5
:101C5000016F8A828A848A968A80918691940FD0B5
:101C6000070E016F8A828A848A868A80918691848F
:101C700006D0016B8DEC42F0010E436F466F0601FA
:101C800039051CE104015D6B5E6B09015A6BDF6A6B
:101C9000210EDF5C08E2E1EC43F0EDEC49F0A5EC4D
:101CA00049F0DF2AF5D70901B06BB16B166B176BE2
:101CB000136B146B156B100E5B6F5C6B0901BEEC44
:101CC00045F0AE51EE26AF51ED220601415109011A
:101CD000B027060142510901B12304010F0E5D5DD9
:101CE000000E5E5904E25D2B000E5E233CD05D6B5E
:101CF0005E6B0901BEEC45F0EECF16F9EDCF17F99A
:101D00005A5171EC3CF050EC40F013272D50142345
:101D10002E5015230701010EE36F100E09015A5DC5
:101D200002E25A2B01D05A6B5A5171EC3CF050EC44
:101D300040F0135F2D50145B2E50155BBEEC45F048
:101D4000EE6AED6AB0C9B2F9B1C9B3F9B06BB16B63
:101D50005C5105E15B515A5D02E1010E5C6F0401CB
:101D6000010E616F646FA00509E1025171EC3CF056
:101D7000C6EC47F0AEC9EEFFAFC9EDFF020E1F0B78
:101D800041C52CF042C52DF043C52EF003E03EECDA
:101D90003DF0FDE12CC030F52DC031F5020E1F0BDA
:101DA00044C52CF045C52DF046C52EF003E03EECB1
:101DB0003DF0FDE12CC032F52DC033F5020E1F0BB6
:101DC00047C52CF048C52DF049C52EF003E03EEC88
:101DD0003DF0FDE12CC034F52DC035F5020E1F0B92
:101DE0004AC52CF04BC52DF04CC52EF003E03EEC5F
:101DF0003DF0FDE12CC036F52DC037F5020E1F0B6E
:101E00004DC52CF04EC52DF04FC52EF003E03EEC35
:101E10003DF0FDE12CC038F52DC039F505015351D9
:101E20000D019E27050154510D019F2305015551B8
:101E30000D01A023140E9B5D000E9C5904E29B2B08
:101E4000000E9C2321D0010E9B6F9C6B050E1F0B77
:101E50009ECDA1FD9FCDA2FDA0CDA3FD07E00D016C
:101E6000D890A333A233A133E806FAE10D019E6BAB
:101E70009F6BA06B995108E1A1CDA4FDA2CDA5FD5A
:101E8000A3CDA6FD010E996F050149EC3DF00005BB
:101E900012E1040101510FE100510DE19F0503E141
:101EA000A06B010EA16F320E9F5D02E29F2B03D04B
:101EB000010E9F6FA06F01EC42F0909A0D018C51C2
:101EC0000501385D0D018D510501395904E238C510
:101ED0008CFD39C58DFD005109E109EC42F004E2A9
:101EE000050E2D5D1CE31DD02D6B3CD0110E005D49
:101EF00039E09350100B0CE00901AE510601255D4D
:101F00000901AF510601265903E20401160E24D03F
:101F1000050109EC42F009E2050E2D5D02E22D2BD0
:101F200021D02D6B0401190E17D011EC42F017E2ED
:101F3000000515E0050E005D12E0090E005D0FE0E2
:101F40000D0E005D0CE0040E06012F5D02E22F2B4A
:101F500009D02F6B04011A0EA4EC3DF003D006014A
:101F60002D6B2F6B110E0501005D15E09350100BCA
:101F700012E0040107050FE119EC42F00CE2280E13
:101F80000601305D02E2302B08D0306B0401140EE4
:101F9000A4EC3DF002D00601306B12050AE19D92DF
:101FA0008D829190786A726A779A7798719A71980F
:101FB0008B880401065101E1ECD0080501E0E9D06D
:101FC000045104E00551D880045519E29D928B8A92
:101FD000786A726A6F6A0C0E776E716E6E6E0605A5
:101FE00003E191908D820BD0030E065D03E18D928B
:101FF000918005D0020E065D02E191908D92045110
:1020000001E092D006053FE100EC41F01CE2B8ECA3
:1020100041F0050EF0EC3EF0FDE12CC073F9B8EC98
:1020200041F0030EF0EC3EF0FDE109EC41F005E279
:102030007529766F73C974F903D0766B7329746F41
:1020400009C42CF069D0F5EC3CF02D6E050EF0ECD7
:102050003EF0FDE12CC077F90401F5EC3CF02D6E6B
:10206000030EF0EC3EF0FDE112EC41F005E27929BF
:102070007A6F77C978F903D07A6B7729786F040182
:10208000F5EC3CF022D0030E065D01E082D000ECBE
:1020900041F023E2B8EC41F0050EF0EC3EF0FDE13A
:1020A0002CC077F9B8EC41F0030EF0EC3EF0FDE106
:1020B00012EC41F005E279297A6F77C978F903D0FB
:1020C0007A6B7729786F09C42CF0B0EC40F0736913
:1020D0007469030E756F766F5CD0F5EC3CF02D6E75
:1020E000050EF0EC3EF0FDE12CC073F90401F5ECB7
:1020F0003CF02D6E030EF0EC3EF0FDE109EC41F0FA
:1021000005E27529766F73C974F903D0766B73296C
:10211000746F0401F5EC3CF0B0EC40F0776978693D
:10212000030E796F7A6F35D0040533E1060503E0BD
:10213000030E065D0CE18D829180020EE66E19ECB5
:10214000C2F0E552CC6A040ECA6E9D8222D08B9AF0
:102150000DC42CF00EC42DF0D8902D322C32D89016
:102160002D322C322CC073F90DC42CF000012D6AD5
:10217000030E2C162CC075F973C96FFF090175A3E6
:1021800002D06E8A01D06E9A75A102D06E8801D0FD
:102190006E980401045101E084D0070501E085D365
:1021A0000901AE510401475D0901AF5104014859CD
:1021B00003E319EC42F003E20401010E506F040145
:1021C000005101E072D305010051070A5DE00C0ADD
:1021D00051E0040A4FE0050A46E0040A44E0070A19
:1021E0003BE0040A39E00E0A25E0010A15E0030A83
:1021F00051E1DF6A96EC3FF04DE219EC3CF0020E43
:102200002E26000E2F222C502E5C2D502F5802E22D
:10221000010E006FDF2AEED70701A2053BE1DF6A5E
:1022200096EC3FF037E26EEC47F002E2010E006FF1
:10223000DF2AF6D70701A2050BE1DF6A96EC3FF033
:1022400007E26EEC47F002E2010E006FDF2AF6D7DC
:1022500079EC3EF01FE21BD006014151EF5D425187
:10226000F05918E214D03EEC40F014E20701A20548
:1022700011E10DD03EEC40F003E20701A20507E0BA
:1022800079EC3EF007E203D079EC3EF003E2040182
:10229000010E006F0401000501E007D30601548719
:1022A00004D3320E045D01E000D3070501E0F7D24C
:1022B000110E0501005D08E1A7CD09F4A8CD0AF4CF
:1022C000A9CD0DF4AACD0EF40401065101E11BD1F4
:1022D000640501E018D1005101E015D1050100515C
:1022E000030A01E1CED0040A01E1CBD00C0A01E1DE
:1022F000C8D0040A01E1C5D00D0A70E0040A6EE0FE
:102300000C0A6CE0040A6AE00F0A07E0040A05E020
:102310000C0A03E0040A01E0F3D00901910510E181
:10232000C5EC3DF004E20401092B000E2CD021EC99
:1023300042F04FE2EBEC3DF04CE20907000E48D0D2
:10234000C5EC3DF022E216510401115D0901856FD3
:1023500017510401125909013CEC46F004E2100E39
:10236000856F866B0ED01F0EF5EC3EF007E2050E72
:102370000F0B07E0E4EC3FF0FDE103D0010E856FA9
:10238000866B29EC42F00A2324D004011151090183
:10239000165D856F04011251090117593CEC46F096
:1023A00004E2200E856F866B0ED00F0EF5EC3EF02A
:1023B00007E2040E0F0B07E0E4EC3FF0FDE103D071
:1023C000010E856F866B1BEC41F003E331EC42F0AC
:1023D0000A5BFAEC3EF001E393D090D0060139514C
:1023E00001E08ED0CEEC3DF01EE298EC45F004E228
:1023F000080E856F866B0ED01F0EF5EC3EF007E2DF
:10240000050E0F0B07E0E4EC3FF0FDE103D0010EF9
:10241000856F866B0901855104010D2709018651DD
:1024200004010E2326D085EC3EF004E2200E856FD9
:10243000866B0ED00F0EF5EC3EF007E2040E0F0B8C
:1024400007E0E4EC3FF0FDE103D0010E856F866B01
:102450000901855104010D5D0901865104010E59E0
:1024600008E30901855104010D5F0901865104014A
:102470000E5B09EC43F044E20FC40DF410C40EF4FB
:102480003FD0060139513CE1CEEC3DF019E298EC29
:1024900045F004E2100E856F866B0ED00F0EF5EC42
:1024A0003EF007E2040E0F0B07E0E4EC3FF0FDE125
:1024B00003D0010E856F866B29EC42F00A231BD0F6
:1024C00085EC3EF004E2200E856F866B0ED00F0E79
:1024D000F5EC3EF007E2040E0F0B07E0E4EC3FF0F2
:1024E000FDE103D0010E856F866B1BEC41F003E329
:1024F00031EC42F00A5BFAEC3EF002E2BDEC41F056
:102500000401646BCCD1065101E1C9D1000501E0A1
:10251000C6D105010051070A01E1B1D10C0A01E160
:102520009FD1040A01E19CD1050A01E16BD1040AA3
:1025300001E168D1070A01E111D1040A01E10ED1DC
:102540000E0A01E1BED0010A60E0030A01E0A3D156
:10255000070E0401015D01E09ED1B9EC3DF003518D
:10256000DF5C11E2C5EC3CF0D6EC3FF0E8AE02D007
:102570002D3402D00EEC43F004E2C5EC3CF09AECB2
:1025800041F0DF2AECD7B8EC46F01CE284EC40F0D6
:1025900019E2B8EC46F007E213EC43F004E20A0E4D
:1025A00031EC3EF002D0DCEC49F075EC47F001E391
:1025B00072D19D35000E9D1902E69CEC3DF001E3C1
:1025C0006AD1B2D032EC3CF00001800E2D1401E152
:1025D00062D1C5EC3DF001E35ED1050E04013E5D24
:1025E00001E230D124EC49F006E284EC40F003E251
:1025F000020E31EC3EF061EC3EF0092721500A2337
:10260000FAEC3EF001E347D1FAD0070E0401015D78
:1026100001E041D1B9EC3DF00351DF5C11E28BECFC
:102620003BF0D6EC3FF0E8AE02D02D3402D00EECF9
:1026300043F004E28BEC3BF09AEC41F0DF2AECD75C
:10264000B8EC46F01CE284EC40F019E2B8EC46F03D
:1026500007E213EC43F004E20A0E31EC3EF002D044
:10266000DCEC49F032EC3CF00D512C5C0E512D5855
:1026700001E311D161EC3EF00D5F2150CFD032EC7F
:102680003CF00001800E2D1401E105D1CEEC3DF0AF
:1026900001E301D1050E3E5D01E2D4D024EC49F006
:1026A00006E284EC40F003E2020E31EC3EF061EC15
:1026B0003EF00D2721500E2309EC43F001E3EBD04F
:1026C000CAD00401800E9D1501E1E5D0070E015D21
:1026D0003CE1B9EC3DF00351DF5C11E28BEC3BF0E7
:1026E000D6EC3FF0E8AE02D02D3402D00EEC43F031
:1026F00004E28BEC3BF09AEC41F0DF2AECD7B8EC2B
:1027000046F01AE284EC40F017E2B8EC46F007E23B
:1027100013EC43F004E20A0E31EC3EF002D0DCECA4
:1027200049F075EC47F005E261EC3EF0095F21509D
:10273000B1D0096B0A6BAFD079EC3EF001E3ABD0BE
:1027400015EC48F001E3A7D0A3D079EC3EF001E30B
:10275000A2D015EC48F001E39ED09AD00901910572
:1027600029E1AE510401155D0901AF51040116596B
:102770000BE2EBEC3DF008E29D35000E9D1902E600
:102780009CEC3DF001E284D09AEC3FF001E383D071
:10279000040115510901AE5D040116510901AF593B
:1027A00001E379D00401092B000E0A23FAEC3EF074
:1027B00072E225D006014151EF5D4251F05904E328
:1027C000090121EC42F00AE215EC48F007E29D35E0
:1027D000000E9D1902E69CEC3DF05AE39AEC3FF0A6
:1027E0005AE2C5EC3DF057E2050E04013E5D2AE3D6
:1027F0003E6B092B000E0A23FAEC3EF04CE2BDECD6
:1028000041F049D03EEC40F00BE20401000ED880CC
:102810000D55000E0E5504E20D07000E0E5B3BD069
:10282000010E06012D6AEF252C6EF0512D2241512B
:102830002C5C42512D582FE2CEEC3DF02CE2050EDF
:102840003E5D02E23E2B27D03E6B0D2B000E0E2389
:1028500009EC43F020E20FC40DF410C40EF41BD0B9
:102860003EEC40F005E34551F15D4651F25913E26B
:1028700015EC48F010E2800E9D150DE009D079ECC2
:102880003EF009E215EC48F006E2800E9D1503E0EB
:102890000907000E0A5B0401640501E1646B09C4C9
:1028A0009CF61DEC43F00EC49FF60501040E0E03CA
:1028B000F3CF0EF580CF0FF5030E0F150E13A60EF6
:1028C0002C6E810E2D6E010E2E6E0F0E0E152F6EBC
:1028D000306A316A2C502F24F36E2D503020F46E64
:1028E0002E503120F86EF4CFF7FFF3CFF6FF08003B
:1028F000F5CF11F5115111E0040E1003F3CF10F5CF
:1029000011511013AA0E105D02E1070E04D0550EEE
:10291000105D03E1080E026F106B0A0E04013A5DB0
:1029200002E23A2B41D0010E3A6F0501035126E134
:1029300080B609D0056B640E045D02E2042B2BD037
:10294000046B050E16D080B409D0046B640E055DCF
:1029500002E2052B20D0056B040E0BD004510508B4
:1029600003E2046B030E05D00551050804E2056B74
:10297000020E036F10D0046B056B0DD08050080B56
:102980000AE08050040B07E0140E065D02E2062BFD
:1029900002D0066B036B0A0E0901AC5D01E2AC2BA1
:1029A0000A0EAD5D01E2AD2B0401E80E385D030EA9
:1029B000395904E2382B000E3923B2D0010E386F9A
:1029C000396B366F0501150507E11451000802E265
:1029D000140702D08D90156B070189510EE0090193
:1029E00084050BE1070189510901825D02E2822B16
:1029F00006D0010E826F836F02D00901836B07013D
:102A00009051000805E209018151000801E28107A7
:102A10000501005137E00601162B000E172318237D
:102A20003B0E195D02E2192B16D0196B3B0E1A5D95
:102A300002E21A2B02D01A6B1B2B0901910504E14B
:102A400006011C2B000E1D230401000504E10601F4
:102A50001E2B000E1F230601010E246F16C660F602
:102A6000080E69EC3EF003E03EEC3DF0FDE12CC0C9
:102A700061F6100E69EC3EF003E03EEC3DF0FDE146
:102A80002CC062F606014B51000805E24B074B5182
:102A900002E1010E4C6F0901700536E10601D88094
:102AA000000E1655000E1755000E18552BE216078E
:102AB000000E175B185B1951000802E219070DD0D0
:102AC0003B0E196F1A51000802E21A0706D03B0E9E
:102AD0001A6F1B51000801E21B0716C660F6080EAC
:102AE00069EC3EF003E03EEC3DF0FDE12CC061F608
:102AF000100E69EC3EF003E03EEC3DF0FDE12CC031
:102B000062F602D00901706B110E0501005D08E04C
:102B10000701CC51000802E2CC0702D0010ECB6FB6
:102B20000901000ED8807F55000E805504E27F0712
:102B3000000E805B02D0010E7E6F0501125100086D
:102B400003E2120701D0BA949D50200B22E09E5060
:102B5000200B1FE00A0E0901AC5D03E1966B22EC2D
:102B600043F09651F0EC45F0AECFEFFFABA202D0B0
:102B7000AB98AB8896512C6E2D6AD8902D5004E6F8
:102B8000860E2C5C000E2D5801E2962BAC6B010ECC
:102B90009A6F9D50100B15E09E50100B12E009012A
:102BA0009851945D07E2945111EC47F0EF50AD6EEF
:102BB000942B07D0966B22EC43F0010E9C6F9D98EE
:102BC0009D8AA350200B24E0A450200B21E00A0E84
:102BD0000901AD5D03E1976B27EC43F09751F6ECEB
:102BE00045F01DCFEFFF0F0122A302D022992289C9
:102BF000090197512C6E2D6AD8902D5004E6860E4F
:102C00002C5C000E2D5801E2972BAD6B010E9B6FD3
:102C1000A350100B15E0A450100B12E009019951BC
:102C2000955D07E29551FCEC45F0EFCF1CFF952B2D
:102C300007D0976B27EC43F0010E9D6FA398A38AF2
:102C4000030EE15C02E2E16AE552E16EE552E7CF94
:102C5000D9FFE55200EE17F0180EE80403E3E5CFC4
:102C6000EDFFFBD700EE2BF0140EE80403E3E5CFF5
:102C7000EDFFFBD7E5CFFBFFE5CFFAFFE5CFF4FF94
:102C8000E5CFF3FFE5CFF5FFE5CFF8FFE5CFF7FFA1
:102C9000E5CFF6FFE5CFEAFFE5CFE9FFE5CFDAFFC5
:102CA000E550E5CFE0FFE5CFD8FF1000DACFE4FF35
:102CB000E6529D50020B26E09E50020B23E09E92AE
:102CC000070E09017C5D02E27C2B01D07C6B7B51FD
:102CD000D8807C550AE274C978FF78C972FF7639CA
:102CE000F00B0C09776E7A3909D073C978FF77C970
:102CF00072FF7539F00B0C09776E7939F00B0C09FE
:102D0000716E01D09E92B950100B3DE0BA50100B7D
:102D10003AE0BA980F0E05010B5D06E20B2B0A5143
:102D20000B5D08E38D9806D00B6B0B51D8800A55CC
:102D300001E28D88070507E10F0E0B5D25E10851C3
:102D400000080AE31BD0020E075D1EE10F0E0B5DAB
:102D50001BE10851000802E2080716D0320E086F86
:102D60000F01375D03E14B0E376F0ED0320E376F18
:102D700005010951000802E2090706D0076B0F019F
:102D80003695B99801D0BA98E552E5CFDAFF11002F
:102D9000700ED36E9B8CD1909268896AF00E936E00
:102DA0008A6A850E946E300E8B6E8B88956A8C6A5B
:102DB000800E966E8D6AFC0E976E8E6A340E986E3B
:102DC0008F6AC00E996E906A9A6A020E916E0F0118
:102DD000A00E256FCF0E246F236B1D0EC26EC16A2D
:102DE000BE0EC06ED08EFA0E3A6F1E0E396FD294A0
:102DF000BA94B994010EE66E17EC34F0E5520F0167
:102E0000190E376F020E366FD288BA98B998556B83
:102E1000579F56916596330EAF6E220EAC6E900E94
:102E2000AB6E9F989D989F9A9D8A2097330E1E6F38
:102E3000220E216F900E226FA598A398A59AA38ABF
:102E40001200F5EC3BF0040EE1260801B36B05011E
:102E5000006B016B060E026F036B046B056B066B58
:102E6000076B086B096B0A6B0B6B24EC41F0146B5E
:102E7000156B166BDE6ADD6A2DEC41F005E281EC24
:102E800049F0FAE3DB2AF8D70501306B316B326B7E
:102E9000336B346B356B366B376B386B396B49EC96
:102EA0003DF0D1EC94F00701C86FAEEC44F03CEC7F
:102EB00045F00501E66BE76BE86BE96BEA6BEB6BE2
:102EC000EC6BED6BEE6BEF6BF06BF16BF26BF36B2E
:102ED000F46BF56BF66BF76BF86BF96BCDEC3CF0C4
:102EE000BCEC3BF005E288EC49F0FAE3DB2AF8D7CA
:102EF000FDEC3CF03B6B39EC42F0436BA5EC48F049
:102F0000BCEC3BF005E28FEC49F0FAE3DB2AF8D7A2
:102F1000A7EC3FF0DE6ADD6ABCEC3BF01CE2C1ECE2
:102F20003BF039EC3CF0FDE102EC46F016EC45F0EC
:102F300039EC3CF0FDE1750EE926040E16EC45F087
:102F400039EC3CF0FDE1850EE926040E80EC3CF006
:102F5000E3E3DB2AE1D7040191EC3EF0BCEC3BF06B
:102F60003BE2C1EC3BF039EC3CF0FDE162EC40F0BF
:102F7000C1EC3BF039EC3CF0FDE167EC40F0C1EC1A
:102F80003BF039EC3CF0FDE1C20EE926040E16ECF4
:102F900045F039EC3CF0FDE16CEC40F0C1EC3BF06D
:102FA00039EC3CF0FDE1E20EE926040EA5EC49F017
:102FB000A9EC44F0F20EE926040EEA22EF6AC1EC15
:102FC0003BF039EC3CF0FDE1000EE926060E80EC0A
:102FD0003CF0C4E3DB2AC2D70601106B116B126B05
:102FE000136B010E146F156BE66E000EE66EE66A4B
:102FF000B4EC7FF091EC45F0060116EC4AF05FEC82
:1030000044F020C03DF621C03EF606013F6B406B08
:10301000416B426B436B446B456B466B476B486B34
:10302000496B4A6B4B6B4C6B4D6BDE6ADD6AC0ECD7
:1030300044F0690EBCEC46F00AE2A9EC44F0520EF2
:10304000E926060E45EC3EF0F2E3DB2AF0D7060156
:10305000BD6BBE6BDE6ADD6AC0EC44F00B0EBCECEF
:1030600046F00DE2C1EC3BF039EC3CF0FDE1BF0E67
:10307000E926060E80EC3CF0EFE3DB2AEDD70601F3
:10308000B4EC3FF0BCEC3BF00CE2C1EC3BF039ECB3
:103090003CF0FDE13CEC47F080EC3CF0F3E3DB2A54
:1030A000F1D706EC40F0BCEC3BF015E2C1EC3BF094
:1030B00039EC3CF0FDE1030EE926090E16EC45F073
:1030C00039EC3CF0FDE1AE0EE9260D0E80EC3CF053
:1030D000EAE3DB2AE8D770EC3FF03AEC41F00CE28F
:1030E000C1EC3BF039EC3CF0FDE1EDEC49F080EC5B
:1030F0003CF0F3E3DB2AF1D794EC42F0BCEC3BF07C
:103100000DE2C1EC3BF039EC3CF0FDE15D0EE9264F
:10311000090E80EC3CF0F2E3DB2AF0D709016D6B7D
:103120006E6B6F6B706B716B726B4FEC3EF0836B01
:10313000846BC1EC3FF0916B926B936B946B956BCE
:10314000966B976B986B996B9A6B9B6B9C6F9D6F53
:103150009E6B9F6BA06BA16BA26BA36B22EC43F0E9
:1031600027EC43F0AC6BAD6BA2EC3EF0BE6B12EC07
:1031700040F0956B966B976B986B996B9A6BBAEC6A
:1031800040F0A46BA56BA66B41EC42F00701C36B4A
:103190009BEC42F0CB6B0A0ECC6FCD6BCE6BCF6B42
:1031A000E06BE16BE26BE36BDE6ADD6AC0EC44F07E
:1031B000000E005C010E015818E2A9EC44F0000E6C
:1031C000E926020EEA22EF6AA9EC44F0000EE92695
:1031D000010EEA22EF6AA9EC44F0000EE926030E84
:1031E00045EC3EF0E3E3DB2AE1D7DE6ADD6AC0ECC2
:1031F00044F0870EBCEC46F00AE2A9EC44F0600E05
:10320000E926000E45EC3EF0F2E3DB2AF0D7EDECC8
:1032100087F055EC88F035EC89F0B1EC87F006ECDE
:1032200046F0800EE66E030EE66E14EC84F0E55276
:10323000E5520A01786F8D908B888B8A91829190EC
:103240008D8293888B968DEC42F03EEC41F0AD6917
:10325000040EE15C02E2E16AE552E16EFEEF3BF052
:10326000D9EC45F00501046B056B066B24EC41F0CD
:10327000166BDE6ADD6A2DEC41F005E281EC49F067
:10328000FAE3DB2AF8D7CDEC3CF0BCEC3BF005E2EE
:1032900088EC49F0FAE3DB2AF8D7FDEC3CF039EC96
:1032A00042F0A5EC48F0BCEC3BF005E28FEC49F0B5
:1032B000FAE3DB2AF8D7A7EC3FF091EC3EF0BCEC48
:1032C0003BF02AE2C1EC3BF039EC3CF0FDE162EC72
:1032D00040F0C1EC3BF039EC3CF0FDE167EC40F034
:1032E000C1EC3BF039EC3CF0FDE1C20EE926040EE6
:1032F00016EC45F039EC3CF0FDE16CEC40F0C1EC33
:103300003BF039EC3CF0FDE1000EE926060E80ECC6
:103310003CF0D5E3DB2AD3D70601106B116B126B9F
:1033200016EC4AF04B6B4C6B4D6BB4EC3FF0BCECC5
:103330003BF00CE2C1EC3BF039EC3CF0FDE13CEC45
:1033400047F080EC3CF0F3E3DB2AF1D706EC40F0E9
:10335000BCEC3BF015E2C1EC3BF039EC3CF0FDE19C
:10336000030EE926090E16EC45F039EC3CF0FDE1C0
:10337000AE0EE9260D0E80EC3CF0EAE3DB2AE8D73E
:1033800070EC3FF03AEC41F00CE2C1EC3BF039EC70
:103390003CF0FDE1EDEC49F080EC3CF0F3E3DB2A9E
:1033A000F1D794EC42F0BCEC3BF00DE2C1EC3BF009
:1033B00039EC3CF0FDE15D0EE926090E80EC3CF0B5
:1033C000F2E3DB2AF0D709016D6B6E6B6F6B4FEC8C
:1033D0003EF0C1EC3FF0A2EC3EF012EC40F0BAEC53
:1033E00040F041EC42F007019BEC42F0CF6BE36B05
:1033F000E06BC2CDE6FFCFEC8AF0E5523EEC41F047
:10340000020EE15C02E2E16AE552E16EFEEF3BF0A2
:10341000CBEC47F0010EE66E020E49EC42F0010ED5
:103420002AEC3CF0010EDB6AE9EC3FF0040EDB6AAB
:10343000050EDB6A060EDB6ADF6A080EDF5C1BE244
:10344000010EE66EC80EDEEC3FF070EC1EF047C6D3
:1034500000F048C601F0026A0CEC45F0A2EC42F024
:1034600049C600F04AC601F0026AC5EC44F0A2EC7D
:1034700042F0DF2AE2D70CEC45F0030EE76E4FEC8A
:1034800042F0FDE1C5EC44F0030EE76E4FEC42F074
:10349000FDE1030E0501005D09E0070E005D06E099
:1034A0000B0E005D03E00F0E005D0AE1A9EC42F097
:1034B00000C5E6FF1EEC33F091EC45F00501006F0E
:1034C000080EC7EC41F0010EE66E17EC34F0E55241
:1034D00095C704F096C705F0066A076AD8EC3EF077
:1034E000C4EC40F095C723F096C724F0B0EC42F04E
:1034F0001AC0C4F71BC0C5F71CC0C6F71DC0C7F76C
:10350000D880400E07011A54D70E1B54D20E1C54FB
:10351000470E1D5408E2400EC46FD70EC56FD20E81
:10352000C66F470EC76FA9EC42F0010EDBCFE6FF76
:10353000020EDBCFE6FF54EC25F091EC45F0E552AE
:1035400006EC46F00D01990507E18EEC38F0F3CF5B
:1035500097FDF4CF98FD03D0FA0E976F986B0D018D
:103560009A6B05010051040A01E114D30C0A01E130
:1035700011D3040A01E10ED31C0A01E10BD3130A93
:1035800001E122D2040A01E11FD20C0A01E11CD29E
:10359000040A01E119D20D0A01E1A7D1040A01E1EF
:1035A000A4D10C0A01E1A1D1040A01E19ED10B0AC8
:1035B00001E195D00C0A01E192D0040A01E18FD01B
:1035C0000C0A01E0E7D2CCEC41F06FEC45F0C26FA1
:1035D0007CEC46F002E2D1EC41F02FEC3FF004E24B
:1035E000C0EC46F0450E0AD0D6EC41F004E2C0EC47
:1035F00046F0460E03D085EC3CF0470E5DEC48F0FB
:10360000086A300E096E8E0E0A6E450E0B6E03C4EC
:1036100021F0A9EC49F012EC3BF01BEC4AF0B6ECBF
:1036200042F033E29951B85D9A51B9592EE2010E38
:10363000B61907E1B75105E10D010A0E79EC42F028
:1036400016E30701020EB61907E1B75105E10D01B6
:103650003C0E79EC42F00BE30701030EB61915E1BD
:10366000B75113E10D016E0E79EC42F00EE2070145
:10367000B851995D0401326F0701B9519A5904019B
:10368000336F0D01010E9A6F04D099C732F49AC7B7
:1036900033F4DF6A96EC3FF00CE285EC3AF0010E71
:1036A0005EEC43F01CEC49F0EA22F3EC3FF0DF2A39
:1036B000F1D7E4EC3BF031EC43F0016A33C4A9F6F6
:1036C0008EEC40F02DEC49F003E20CEC44F002D01B
:1036D000F1EC49F0E9EC48F001E303D100D1090134
:1036E00091052DE10701A651A71124E1CCEC41F091
:1036F000140E256E266A93C720F094C721F003ECC0
:10370000C2F020C029F421C02AF40401140E205C68
:10371000000E215804E2140E296F2A6B2AD0F40EF1
:10372000D8802955010E2A5524E2F40E296F010E86
:103730002A6F1FD0A6C729F4A7C72AF41AD0CCEC49
:1037400041F00D0E0501005D11E1020E0701915DD2
:103750000DE156EC3BF0210E1BEC3AF0210E9CECF7
:103760003AF0210E76EC49F0210E02D06FEC45F0D4
:10377000C26F7CEC46F002E2D1EC41F02FEC3FF05E
:1037800004E2C0EC46F0450E11D0D6EC41F003E265
:10379000EBEC3CF005D07DEC42F005E1F8EC3FF0BD
:1037A000066E460E03D085EC3CF0470E5DEC48F00B
:1037B0007DEC42F005E1046A400E056E030E0ED06A
:1037C000090E005D05E1086A400E096E1C0E0ED060
:1037D000090E0701915D06E1C2EC41F0066E470E4D
:1037E000076E0BD0086A300E096E8E0E0A6E450EFB
:1037F0000B6E91C721F0A9EC49F012EC3BF093EC71
:1038000048F01BEC4AF0090E0501005D03E00D0EC7
:10381000005D58E1090E005D06E1090191053EE1F8
:10382000FCEC3DF044D0B6EC42F039E29951B85D81
:103830009A51B95934E2010EB61907E1B75105E1C1
:103840000D010A0E79EC42F016E30701020EB619DB
:1038500007E1B75105E10D013C0E79EC42F00BE3B5
:103860000701030EB6191AE1B75118E10D016E0EEA
:1038700079EC42F013E20701B851995D026E9A515A
:10388000B955036E40EC47F002C025F003C026F0A6
:1038900043EC46F00D01010E9A6F09D0070140EC90
:1038A00047F099C725F09AC726F043EC46F034C498
:1038B00020F0AFEC49F034C4A8F635C400F0016A3A
:1038C00035C4A9F6D0EC47F02DEC49F003E20CEC3E
:1038D00044F002D0F1EC49F0E9EC48F002E2BDEC32
:1038E00041F00D6B0E6B010E53D1D4EC47F00E0E70
:1038F000005D11E10701915101080DE256EC3BF02A
:10390000220E1BEC3AF0220E9CEC3AF0220E76ECE2
:1039100049F0220E0CD056EC3BF0070E1BEC3AF0AF
:10392000070E9CEC3AF0070E76EC49F0070E7EECA1
:103930003FF002E24AEC3EF062EC3DF02EEC48F043
:1039400036EC43F003E24AEC46F002D09EEC44F041
:10395000276E93EC48F0E0EC49F0BDEC43F0DFEC6F
:1039600048F06EEC46F0020E0501005D10E19BC7C9
:1039700032F49CC733F4DF6A96EC3FF005E285EC45
:103980003AF010EC3FF0F8D731EC43F008D0060ED7
:10399000005D03E1C4EC46F005D0B2EC48F0016AEA
:1039A00000C0A9F62AEC47F0016A26C4A7F6040174
:1039B000E80E0F6F030E106F8B9A91920DEC46F08C
:1039C00014EC3FF0020EE4D0D4EC47F00F0E005D93
:1039D0000DE156EC3BF0260E1BEC3AF0260E9CEC6B
:1039E0003AF0260E76EC49F0260E0CD056EC3BF061
:1039F000250E1BEC3AF0250E9CEC3AF0250E76ECE9
:103A000049F0250E7EEC3FF002E24AEC3EF062EC1B
:103A10003DF02EEC48F03BEC43F004E2C0EC46F005
:103A2000C50E12D040EC43F003E2EBEC3CF006D0C4
:103A3000070E0501005D05E1F8EC3FF0066EC60ECD
:103A400003D085EC3CF0C70EA2EC44F0E0EC49F06A
:103A50003DC64BF43EC64CF4F3EC48F056EC49F04E
:103A6000E80E0026030E0122000E022200C090FD87
:103A700001C091FD0D01010E926F030E0501005D65
:103A800010E19BC732F49CC733F4DF6A96EC3FF039
:103A900005E285EC3AF010EC3FF0F8D731EC43F05A
:103AA00008D0070E005D03E1C4EC46F005D0B2EC8F
:103AB00048F0016A00C0A9F68BC720F08CC721F03E
:103AC0007CEC47F0C3EC48F020C0F1F621C0F2F6E0
:103AD000010E0601F127000EF2232AEC47F0016ADD
:103AE00026C4A7F656EC49F00CEC45F071EC40F01A
:103AF00013E2040EDBCF04F0050EDBCF05F0060E5B
:103B00003DEC49F0010EDBCF0BF0020EDBCF0CF0E9
:103B1000030E49EC48F014D0A0EC41F0010EDBCFCD
:103B20000CF0020EDBCF0DF0030EFCEC44F0040EA3
:103B3000DBCF13F0050EDBCF14F0060E18EC48F0C7
:103B400033EC3FF030EC44F020C009F421C00AF41B
:103B5000070EDB50006E016A04012050005C21500A
:103B6000015809E2070EDB50006E016AE850095F58
:103B700001500A5B02D0096B0A6BFAEC3EF002E2DC
:103B8000BDEC41F00DEC46F004010D6B0E6B030E25
:103B9000066F0AD00601986B996B8B8A9182938885
:103BA0008B9614EC3FF0066B076B056B09015A51BD
:103BB00002E05A0501D0100E5B6F5C6B0401616B73
:103BC00009C49CF60AC400F0016A1DEC43F00EC45F
:103BD00000F0016A0EC49FF6080EE15C02E2E16AA1
:103BE000E552E16EFEEF3BF0F5EC3BF0A9EC3DF069
:103BF000FE0EDB500DE13F6BDF6A080EDF5C05E275
:103C000091EC3CF0EF6ADF2AF8D7BCEC3EF005D02F
:103C1000FE0EDB0402E1010E3F6F8B8A91829388D6
:103C20008B96FD0EDB5008E1050114510CE1780E76
:103C3000146F010E156F07D0FD0EDB0404E10501C2
:103C4000146B156B8D80FC0EDB5002E18B8804D069
:103C5000FC0EDB0401E18B98DEEC47F00901B66B4A
:103C6000B76BB86BBA6BBB6BBC6BBD6B4EEC46F005
:103C700003E095EC45F0FDE154EC46F003E095ECF3
:103C800045F0FDE100C05FF609C49CF6016A1DEC39
:103C900043F0016A0EC49FF6E552FEEF3BF0F5ECEF
:103CA0003BF0A9EC3DF03F6BDF6A080EDF5C05E2FC
:103CB00091EC3CF0EF6ADF2AF8D7DEEC47F04EECEF
:103CC00046F003E095EC45F0FDE154EC46F003E0EE
:103CD00095EC45F0FDE100C05FF6E552FEEF3BF0EC
:103CE000E3EC47F030C520F031C521F00EECB9F01F
:103CF00012EC3AF05EC524F05FC525F060C526F0F1
:103D000061C527F0A1EC48F012EC3BF057ECB9F09C
:103D1000060E1FC0DBFF070E20C0DBFF080E21C010
:103D2000DBFF090E22C0DBFF93EC3DF0246A256A1D
:103D3000266A276A83EC43F0D9ECBBF0010A11E153
:103D4000060EDBCF1FF0070EDBCF20F0080EDBCF17
:103D500021F0090EE8EC47F020C0E6F521C0E7F5B8
:103D600003D00501E66BE76B32C520F033C521F0C7
:103D700034EC45F020C0E8F521C0E9F534C520F069
:103D800035C521F071EC48F0300E246E9E0E256E84
:103D9000710E5CEC49F020C0EAF521C0EBF536C5A8
:103DA00020F037C521F034EC45F020C0ECF521C0FF
:103DB000EDF50501E651EA5DE751EB5906E2EA51FE
:103DC000E65DEE6FEB51E75905D0E651EA5DEE6F27
:103DD000E751EB59EF6FE851EC5DE951ED5906E21F
:103DE000EC51E85DF06FED51E95905D0E851EC5D1B
:103DF000F06FE951ED59F16FE6C5F2F5E7C5F3F55E
:103E0000040E8CC9DBFF050E8DC9DBFF47C603F02E
:103E100048C604F0056A8CC906F08DC907F0086A27
:103E20000650035C006E07500458016E0850055898
:103E3000026E080E246E256A266A04EC49F0ADEC89
:103E4000BAF07FEC47F0010E1FC0DBFF020E20C06E
:103E5000DBFF030E21C0DBFF8CC903F08DC904F02A
:103E6000056A0CEC45F00350EE24006E0450EE2081
:103E7000016E0550EE20026E00C08CF901C08DF974
:103E80002EEC47F007E6D880B80E0054880E015497
:103E9000000E025406E2040EDBCF8CF9050EDBCFD8
:103EA0008DF909018C518E5D8D518F5904E28CC9B9
:103EB0008EF98DC98FF938C520F039C521F020EC75
:103EC0004AF020C0F4F521C0F5F58CCD20F08DCD61
:103ED00021F020EC4AF020C03BF621C03CF60BEC70
:103EE00049F020C047F621C048F6B2C908F0B3C96E
:103EF00009F0040ED89009320832E804FBE108C04A
:103F000020F009C021F0E7EC43F020C0B4F921C053
:103F1000B5F945C620F046C621F07CEC47F0C1EC6F
:103F20003CF020C049F621C04AF677EC38F0F3CFD8
:103F300095FDF4CF96FD0D01580EF35C020EF4587A
:103F400005E20701600EE16FEA0E22D08A0E955D50
:103F5000020E965919E295CDE1F796CDE2F70701E9
:103F6000940ED880E157020EE257E80EE203F3CF39
:103F7000E2F7030EE103F350E227E80EE103F3CF8B
:103F8000E1F7F450E22705D00701100EE16F270E8C
:103F9000E26FEEC5AEF6EFC500F0016AEFC5AFF611
:103FA000F0C5B0F6F1C500F0016AF1C5B1F6B4C9CB
:103FB00059F6B5C900F0016AB5C95AF6F4C555F607
:103FC000F5C500F0016AF5C556F649C657F64AC66A
:103FD00000F0016A4AC658F695CDA0F696CD00F0DD
:103FE000016A96CDA1F60A0EE15C02E2E16AE552B1
:103FF000E16EFEEF3BF0F5EC3BF0100EE126050123
:10400000005103E1DEEC47F0C5D093A829D038EC8D
:104010003EF093EC3AF02DEC3EF012EC3AF086ECE8
:1040200047F060EC3BF01EEC40F0800E211403E002
:104030009B6B9C6B9D6B09015C0510E118EC46F0D5
:104040002DEC3EF012EC3AF08EEC46F060EC3BF0DA
:1040500028EC40F0800E21143BE037D0040135D02D
:1040600038EC3EF093EC3AF0D3EC44F0CFEC44F073
:1040700086EC47F00AEC3CF01EEC40F02134000ED8
:10408000211802E69CEC3DF003E29B6B9C6B9D6B60
:1040900009015C0519E118EC46F0D3EC44F0CFECD3
:1040A00044F08EEC46F00AEC3CF028EC40F0213471
:1040B000000E211807E6D880000E9855000E99557D
:1040C000000E9A5505E201D00401986B996B9A6B2A
:1040D000980EE96E040EEA6EEE509B5D006EEE5097
:1040E0009C59016EEE509D59026E070E00C0DBFF19
:1040F000080E01C0DBFF090E02C0DBFF9E5123E169
:1041000057EC40F0FF0E021807E6D880EC0E005482
:10411000FF0E0154FF0E025413E2D950070F77EC43
:104120003CF0020ED890EB50000A06E6140EEE5C4E
:10413000000EEE58000EEF5803E2010E9E6F24D0E1
:10414000BDEC42F027D0D950070F77EC3CF0020EBF
:10415000D880EB50FF0A06E6380EEE5CFF0EEE58F4
:10416000FF0EEF580DE357EC40F0000E021807E683
:10417000D880C80E0054000E0154000E025404E210
:10418000BDEC42F09E6B06D098C495F499C496F4A9
:104190009AC497F495519611971104E10501F66BB5
:1041A000F76B5FD09735FF0E971907E6D880380E6A
:1041B0009555500E9655FF0E975553E2D89097514E
:1041C000000A06E6C80E955DAF0E9659000E975987
:1041D00048E2800E971510E0BAEC3CF024682568A0
:1041E000266889EC47F0F8ECBAF00E0E1CC0DBFF35
:1041F0000F0E1DC0DBFF06D00E0E95C4DBFF0F0EA9
:1042000096C4DBFFB4C904F0B5C905F0066A076AB5
:104210000E0EDBCF00F00F0EDBCF01F0026AC4EC14
:1042200040F0B4C923F0B5C924F0B0EC42F01AC094
:104230001EF01BC01FF01CC020F01DC021F0400E5E
:10424000236E420E246E0F0E256E266AC2ECC1F05C
:104250001EC0F6F51FC0F7F5010E0501F627000E8A
:10426000F7230501000ED880F455000EF55565E2E0
:104270000701CD0517E1C4EC42F093EC3AF0D7EC1E
:104280003DF02AEC44F0CFEC44F068EC48F0A1ECAF
:1042900048F0F4C520F0F5C521F06FEC49F021ECB1
:1042A0003DF016D0C4EC42F012EC3AF0F4C520F028
:1042B000F5C521F00EECB9F098EC48F01EEC44F096
:1042C000D7EC3DF0CCEC46F03CEC4AF040ECBAF0D8
:1042D0000A0E1FC0DBFF0B0E20C0DBFF0C0E21C03F
:1042E000DBFF0D0E22C0DBFFCAEC42F00C0EDBCF71
:1042F00002F00D0EDBCF03F0246AE80E256E7D0E72
:10430000266E470E276E83EC43F0E2ECBBF0010A09
:1043100014E10A0EDBCF1FF00B0EDBCF20F00C0EEA
:10432000DBCF21F00D0EDBCF22F070ECBBF01FC015
:10433000ABFD20C0ACFD21C0ADFDD5EC46F0A2EC3C
:10434000BBF01EC0DEFF1FC0DEFFF7EC3DF0DD520C
:10435000DD5293A852D09BC4AAF6080E1F0B43EC63
:104360003FF003E095EC45F0FDE100C0ABF6100E28
:104370001F0B43EC3FF003E095EC45F0FDE100C07E
:10438000ACF64EEC46F003E095EC45F0FDE154EC64
:1043900046F003E095EC45F0FDE100C05FF6040156
:1043A0009735000E971907E6D880000E9555000E38
:1043B0009655000E975505E290EC47F0450E93ECAC
:1043C00046F0000EDFCF64F613EC3CF0080EDEEC96
:1043D00045F0FDE100C065F613EC3CF0100EDEEC9C
:1043E00045F0FDE100C066F613EC3CF0180EDEEC83
:1043F00045F0FDE100C067F680D097C402F0006A86
:10440000016A800E021600500AE1015008E1800E98
:10441000021805E1BAEC3CF0A4EC45F009D0040E1A
:1044200095C4DBFF050E96C4DBFF060E97C4DBFFC9
:10443000040EDBCF5DF6080EE4EC48F003E095ECEB
:1044400045F0FDE100C05EF6100EE4EC48F003E03C
:1044500095EC45F0FDE100C05FF69DC402F0006AF6
:10446000016A800E021600500AE1015008E1800E38
:10447000021805E143EC3FF0A4EC45F005D0D8EC80
:1044800042F0060E9DC4DBFF040EDBCFAAF6080E39
:10449000E4EC48F003E095EC45F0FDE100C0ABF63C
:1044A000100EE4EC48F003E095EC45F0FDE100C0AF
:1044B000ACF60401800E971505E090EC47F0C50EB0
:1044C00093EC46F0000EDFCF68F613EC3CF0080EDC
:1044D000DEEC45F0FDE100C069F613EC3CF0100E97
:1044E000DEEC45F0FDE100C06AF613EC3CF0180E7E
:1044F000DEEC45F0FDE100C06BF6100EE15C02E27F
:10450000E16AE552E16EFEEF3BF0F5EC3BF00E0E9A
:10451000E1260601880ED76F130ED86FD96BDA6BC0
:10452000DB6BDC6BFE0EDB500D080CE0FE0EDB508F
:104530000E0808E0FE0EDB500F0804E0FE0EDB5014
:10454000100824E10701915100080CE29151006E1E
:10455000016AB4C920F0B5C921F091C725F059EC22
:1045600041F004D0B4C9D5F6B5C9D6F6D5C6D7F64C
:10457000D6C6D8F6D5C6D9F6D6C6DAF6D5C6DBF68F
:10458000D6C6DCF60501F86BF96BFCD0DF6A96EC59
:104590003FF069E20601050E165D000E1759000E88
:1045A000185907E21BEC3BF020C000F021C001F0DD
:1045B00011D0D4EC40F0EECF14F0EFCF15F01BEC9F
:1045C0003BF020501424006E21501520016ED8902D
:1045D0000132003269EC3BF0F3EC3FF069EC3BF068
:1045E0004AEC3FF004E269EC3BF0EE6AED6AE2EC83
:1045F00045F0D4EC40F0F3EC3FF069EC3BF0040103
:10460000EE50325D006EEE503359016EE2EC3EF03A
:10461000F3EC3FF0E2EC45F00601D751005CD851D5
:1046200001580CE269EC3BF0EECFD7F6EDCFD8F6AF
:1046300091EC3CF0EF5002E1DFCF00F9E2EC45F005
:104640000050D95D0150DA5906E269EC3BF0EECF3B
:10465000D9F6EDCFDAF669EC3BF0EE50DB27EE5001
:10466000DC23DF2A94D70351006E016ADBC620F0F9
:10467000DCC621F003C425F059EC41F00601D95104
:10468000D75DDA51D8590AE2D751D95D0501F86FE3
:104690000601D851DA590501F96F03D00501F86B0D
:1046A000F96BFE0EDB040CE0FE0EDB50020808E0A6
:1046B000FE0EDB50030804E0FE0EDB5004082EE182
:1046C0000901B4510601DB5D0901B5510601DC5950
:1046D0000AE2DB510901B45D0601DD6FDC5109011D
:1046E000B559060109D00901B4510601DB5DDD6F42
:1046F0000901B5510601DC59DE6FF40ED880DD5595
:10470000010EDE550BE2040E0901025D02E2022BEE
:1047100007D00401200EA4EC3DF002D00901026B89
:104720000D01880EBE6F130EBF6FC06BC16BDF6AC9
:1047300096EC3FF027E2E2EC45F0B3EC3CF0F3EC12
:104740003FF0B3EC3CF0F0EC3CF00D01BE51005CEE
:10475000BF51015806E2B3EC3CF0EECFBEFDEDCF09
:10476000BFFDB3EC3CF0F0EC3CF00050C05D0150FC
:10477000C15906E2B3EC3CF0EECFC0FDEDCFC1FD78
:10478000DF2AD6D70601D551BF5DD651C05905E302
:104790000A0EDB6A0B0EDB6AA6D0D551D35DD6516B
:1047A000D4590BE2E80EF36E0A0EF3CFDBFF030ED3
:1047B000F36E0B0EF3CFDBFF96D0010EDF6E0A0E09
:1047C000DB6A0B0EDB6A010EDB6A010EDB5014E1C3
:1047D0000B0EDF5C11E2E9EC3EF0F0EC3CF0D55161
:1047E000005CD651015804E2DEEC46F0DF2AEDD73A
:1047F000DE52010EDD6EE9D70B0EDF5C74E2DF5096
:1048000072E0DEEC46F0E9EC3EF02FEC45F0DF0420
:1048100071EC3CF0BF0EE926060EEA22EE50025C77
:10482000006EEE50035857EC42F0E9EC3EF0F0EC2D
:104830003CF00A0EACEC40F00002F3CF00F0F45074
:104840000126060EF3CFDBFF070E01C0DBFF0A0EC9
:10485000206E216AD5C625F0D6C626F0DAECBAF06D
:10486000080E1EC0DBFF090E1FC0DBFF93EC3DF0FE
:104870006BEC3FF015E2D9500A0F77EC3CF00A0ED2
:10488000EE5E000EED5A020EDBCF00F0030EE0EC00
:1048900041F077EC3CF00050EE5E0150ED5AE6D767
:1048A0000A0E006E016A020EDBCF20F0030E62ECEE
:1048B00041F045EC49F0EE50ED1015E093EC3DF081
:1048C000ECEC47F010E20A0EDB2A0B0E01E3DB2AC8
:1048D000040EDBCF00F0050EE0EC41F077EC3CF08D
:1048E00045EC43F0EBD7040107053BE10701AE05BA
:1048F00038E10401030535E0FE0EDB0410E1405110
:104900002EE10601D9510701AF5D0601DA51070119
:10491000B05922E2040E0401415D18E319D0FE0EE5
:10492000DB50020804E0FE0EDB5003081AE14051A0
:1049300016E10701AF510601D75D0701B05106012D
:10494000D8590AE2040E0401415D02E2412B09D06C
:10495000416B010E406F05D00401416B02D0010E86
:104960003F6FAECD70F6016AAFCD71F6B0CD72F685
:10497000016AB1CD73F6B2CD74F6016AB3CD75F6A6
:10498000B4CD76F6016AB5CD77F6B6CD78F6016A84
:10499000B7CD79F6B8CD7AF6016AB9CD7BF6BACD46
:1049A0007CF6016ABBCD7DF6BCCD7EF6016ABDCD3D
:1049B0007FF60A0EDBCF6EF60B0E8BEC3CF000C0E0
:1049C0006FF6CAEC42F0F1EC47F00E0EE15C02E249
:1049D000E16AE552E16EFEEF3BF0F5EC3BF0110EC3
:1049E000E126DF6A080EDF5C15E225EC4AF0010FD4
:1049F0005DEC45F04AEC40F0010F56EC44F04AEC17
:104A00003FF006E2D950010F56EC44F0EE6AED6A31
:104A1000DF2AE8D7010EDBCF70F6020E8BEC3CF0FC
:104A200000C071F6030EDBCF72F6040E8BEC3CF087
:104A300000C073F6050EDBCF74F6060E8BEC3CF06F
:104A400000C075F6070EDBCF76F6080E8BEC3CF057
:104A500000C077F6090EDBCF78F60A0E8BEC3CF03F
:104A600000C079F60B0EDBCF7AF60C0E8BEC3CF027
:104A700000C07BF60D0EDBCF7CF60E0E8BEC3CF00F
:104A800000C07DF60F0EDBCF7EF6100EDBCF01F0FF
:104A900001C000F001C07FF6110EE15C02E2E16AA4
:104AA000E552E16EFEEF3BF0CBEC47F00501005123
:104AB000030A01E180D1040A01E17DD10C0A01E180
:104AC0007AD1040A01E177D10D0A01E13ED1040A4D
:104AD00001E13BD10C0A01E138D1040A01E135D1F1
:104AE0000F0A07E0040A05E00C0A03E0040A01E0EB
:104AF00003D200056BE10A017A5106E0020E7A5DED
:104B000003E0030E7A5D0CE10501960EF85D000EE0
:104B1000F95924E30601D80ED95D0E0EDA591EE3C9
:104B20000A017A050CE10501FA0EF85D000EF9594B
:104B300015E30601E40ED95D0C0EDA590FE3F9EC2A
:104B400041F022E10501960EF85D000EF95906E3E9
:104B50000601A40ED95D060EDA5916E20901BA5112
:104B600013E188EC43F003E1A6EC41F002D0F6EC4F
:104B700047F0F1EC3DF005E20901BB5102E1010E05
:104B8000BB6F0901B96B32D0050E0901B95D13E2A3
:104B900088EC43F003E1A6EC41F002D0F6EC47F0DC
:104BA000F1EC3DF005E20901BB5102E1010EBB6FE2
:104BB0000901B92B1BD00401E80E2B6F030E2C6FDB
:104BC0000901BA5113E1010EBA6F10D088EC43F01D
:104BD00003E1A6EC41F002D0F6EC47F0F1EC3DF039
:104BE00005E20901BB5102E1010EBB6F0D0E05018B
:104BF000005D30E1F9EC41F00BE10401700ED8806A
:104C00002B55170E2C5504E2700E2B6F170E3ED04D
:104C10000A017A5106E0020E7A5D03E0030E7A5D26
:104C20000BE10401D00ED8802B55070E2C5504E261
:104C3000D00E2B6F070E2AD00A017A0528E1040155
:104C4000100ED8802B55270E2C5521E2100E2B6FFD
:104C5000270E1CD0050E005D0BE10401200ED8804C
:104C60002B554E0E2C5504E2200E2B6F4E0E0ED0FF
:104C70002BC400F02CC401F02EEC47F002E671ECDE
:104C80003EF005E20401400E2B6F9C0E2C6F32ECBF
:104C900040F017E23EEC3CF002E671EC3EF002E23E
:104CA00025EC3DF042EC48F004012B51005C2C5106
:104CB000015809E2020EDBCF2BF4030EDBCF2CF4FC
:104CC00002D025EC3DF0F1EC3DF002E2D1EC41F0F8
:104CD000E5EC41F002E273EC46F038EC48F0BDEC54
:104CE00048F0E7EC46F009EC4AF006E10401C80E92
:104CF000276FAF0E286F02D096EC47F004012351C6
:104D0000275D245128590AE2010E316F5AEC46F012
:104D10000901BC5106E1010EBC6F03D0316BE4EC1C
:104D20003BF07CEC45F029EC4AF0FAEC3BF0246ACD
:104D3000400E256E1C0E266E470E276E7FEC48F047
:104D400001E0D4D08EEC40F0D3D0FD0EDBCF00F0EC
:104D5000FE0EDBCF01F0100E005C270E015806E2BC
:104D60000401400E2F6F1F0E306F0ED0EDEC46F099
:104D7000006AB40E016EC40E026E040EDCEC44F048
:104D80001EC02FF41FC030F467EC3DF02D51F35CD2
:104D90002E5130590DE24AEC3EF098EC40F008E21A
:104DA00062EC3DF02DC4E6FF2EC4E6FFF6EC46F0C3
:104DB000BDEC43F098D038EC48F0B5EC49F08DC725
:104DC00020F08EC721F06FEC49F083EC43F055ECF6
:104DD0003AF006E10401C80E2F6FAF0E306F06D017
:104DE000D8EC3BF020C02FF421C030F467EC3DF04C
:104DF000F3CF00F030C401F02EEC47F002E671EC86
:104E00003EF004E2400E2F6F9C0E306F32EC40F00B
:104E100017E23EEC3CF002E671EC3EF002E225ECDB
:104E20003DF042EC48F004012F51005C3051015834
:104E300009E2020EDBCF2FF4030EDBCF30F402D0F9
:104E400025EC3DF02D512F5D2E51305902E24AECF8
:104E50003EF098EC40F002E262EC3DF038EC48F0B5
:104E6000B5EC49F0E7EC46F083EC43F055EC3AF052
:104E700006E10401C80E276FAF0E286F02D096EC32
:104E800047F004012551275D265128590AE2010EF9
:104E9000316F61EC46F00901BC5106E1010EBC6FB7
:104EA00003D0316BEFEC3BF07CEC45F0106A116AFB
:104EB000FA0E126E430E136E38EC48F01FC014F059
:104EC00020C015F021C016F022C017F04CEC3AF0CB
:104ED00010C01FF011C020F012C021F013C022F04A
:104EE0007FEC48F003E193EC40F002D04FEC43F04C
:104EF000016A00C0A7F605D004010B6B0C6B0F6BA9
:104F0000106B080EE15C02E2E16AE552E16EFEEF31
:104F10003BF0F5EC3BF0060EE12605010051020ADC
:104F200034E0040A32E00C0A30E0040A2EE00D0AF4
:104F30002CE0040A2AE00C0A28E0040A26E00E0A03
:104F400006E0040A04E00C0A02E0040A5CE144EC16
:104F500045F012EC3AF060EC3BF005EC4AF04CEC1A
:104F600045F058EC3CF003E122EC46F022E0100E54
:104F7000206E216A3AC525F03BC526F0E6EC42F0EA
:104F80003AC515F43BC516F43ED044EC45F093EC1D
:104F90003AF011EC49F0CFEC44F00AEC3CF005ECAF
:104FA0004AF0D3EC44F058EC3CF020E122EC46F01F
:104FB0001DE142EC48F015EC49F07FEC40F083EC49
:104FC00043F0C1EC3CF0F7EC3DF0020EDBCF1FF0FC
:104FD000030EDBCF20F0040EDBCF21F0050EE8EC52
:104FE00047F020C015F421C016F40DD0100E206E2D
:104FF000216A3CC525F03DC526F0E6EC42F03CC5F3
:1050000015F43DC516F46AEC41F0060EE15C02E2CF
:10501000E16AE552E16EFEEF3BF0D9EC45F00501A7
:105020000051030A71E0040A6FE00C0A6DE0040A03
:105030006BE00D0A4DE0040A4BE00C0A49E0040A5B
:1050400047E00F0A07E0040A05E00C0A03E0040A3F
:1050500001E093D0CCEC41F093C798F694C700F0F0
:10506000016A94C799F6F1EC3DF002E2D1EC41F00F
:105070002FEC3FF004E2C0EC46F0450E11D0D6EC28
:1050800041F003E2EBEC3CF005D07DEC42F005E1B1
:10509000F8EC3FF0066E460E03D085EC3CF0470E70
:1050A00079EC43F0F7EC3DF0C0EC44F00401005023
:1050B000475D0150485904E2DECF47F4DDCF48F4A4
:1050C000315103E1D0EC47F055D05AEC46F050D0C6
:1050D000CDEC3EF002E24AEC3EF062EC3DF036EC04
:1050E00043F003E24AEC46F002D09EEC44F0276E17
:1050F00093EC48F0BBEC49F004E2DECF49F4DDCF9D
:105100004AF4BDEC43F02FD0CDEC3EF002E24AEC85
:105110003EF062EC3DF03BEC43F004E2C0EC46F0C4
:10512000C50E12D040EC43F003E2EBEC3CF006D0AD
:10513000070E0501005D05E1F8EC3FF0066EC60EB6
:1051400003D085EC3CF0C70EA2EC44F0BBEC49F078
:1051500004E2DECF49F4DDCF4AF40D01010E926F77
:105160000401315103E12AEC47F004D061EC46F030
:105170004FEC43F0016A00C0A7F60401000504E10A
:10518000006B06011E6B1F6B020EE15C02E2E16A1E
:10519000E552E16EFEEF3BF0F5EC3BF0E652DF6AE4
:1051A00096EC3FF033E209010051DF5C04E191EC41
:1051B0003CF0EF6A29D09CEC46F001500318E8AEB1
:1051C00002D0033402D0ECEC47F00BE291EC3CF05F
:1051D000EFCF00F0320E005C17E291EC3CF0EF2ACA
:1051E00013D09CEC46F003500118E8AE02D0013415
:1051F00002D06BEC3FF008E291EC3CF0EF5000087D
:1052000003E291EC3CF0EF06DF2ACAD7BCEC3EF09B
:10521000E552FEEF3BF0F5EC3BF0510EE126DF6A84
:1052200096EC3FF001E30AD1E1EC43F0C6EC47F025
:10523000EECF0DF0EFCF0EF0DBEC41F00EECB9F05D
:105240001FC009F020C00AF021C00BF022C00CF0F2
:105250002DEC3EF01FC005F020C006F021C007F085
:1052600022C008F060EC3BF0FAEC47F062EC45F04D
:10527000D950010F53EC3CF0030D0050B0EC3AF064
:105280001FC0EEFF03C0EEFF04C0EEFFE1EC43F0F1
:10529000B20EE926040E78EC48F017EC47F0190F2F
:1052A00056EC44F020C0EEFF03C0EDFFE1EC43F00C
:1052B000D20EE926040E78EC48F0DF50BAEC3AF052
:1052C00021C003F0D950290F5DEC45F04AEC40F0C5
:1052D000290F5DEC45F04AEC3FF006E2D950290F6A
:1052E0005DEC45F0EE6AED6AD950190F026EDACF27
:1052F00003F0DF50020D9DEC47F0290F066EDACF68
:1053000007F0DF50020D0650B0EC3AF0EECF04F09B
:10531000EFCF05F00050045C0150055801E38CD03C
:10532000D950190F076EDACF08F0DF50020D075081
:10533000B0EC3AF0EECF05F0EFCF06F0D950290FE0
:10534000096EDACF0AF0DF50020D0950B0EC3AF0E6
:10535000EE50055C026EEE500658036E046A100EA5
:10536000246E270E256E266AEDEC42F0F8ECBAF0BA
:105370001DC003F01EC004F0D950390F006EDF507D
:10538000030D0050B0EC3AF01CC0EEFF03C0EEFF7E
:1053900004C0EEFFD950010F036EDACF04F0DF50E6
:1053A000030D0350B0EC3AF0FEEC47F0EFCF02F003
:1053B0000234000E021807E6D880000E0054000EDA
:1053C0000154000E025438E2D950010F0A6EDACFB0
:1053D0000BF0DF50030D0A50B0EC3AF0EECF07F0BF
:1053E000EECF08F0EFCF09F0D950390F056EDACFC4
:1053F00006F0DF50030D0550B0EC3AF0EECF02F0AE
:10540000EECF03F0EFCF04F0EDEC42F007C024F054
:1054100008C025F009C026F0E6ECC1F01FC000F07E
:1054200020C001F0E1EC43F0000EE926060EEA226E
:105430001FC0EEFF01C0EDFFDF2AF2D600C680F6E6
:1054400001C681F602C682F603C683F604C684F658
:1054500005C685F606C686F607C687F608C688F628
:1054600009C689F60AC68AF60BC68BF60CC68CF6F8
:105470000DC68DF60EC68EF60FC68FF6DF6A080EC5
:10548000DF5C0EE2E1EC43F062EC40F0E1EC43F073
:1054900067EC40F0E1EC43F06CEC40F0DF2AEFD732
:1054A000510EE15C02E2E16AE552E16EFEEF3BF093
:1054B000F5EC3BF0270EE1260901715103E1030EE3
:1054C00054EC43F00A017A51080A6BE00F0A67E0D6
:1054D000010A54E0030A4DE0010A49E0070A38E0F6
:1054E000010A28E0030A12E0010A61E1800E9DEC46
:1054F00040F0250EDB6AE66A9AEC82F0E552DF6A3C
:10550000080EDF5C54E255EC45F0FAD7C00E9DEC76
:1055100040F0250EDB6A010EACEC41F0080EDF5CBA
:1055200046E2066A200E076E800E086E450EFEECFF
:1055300039F0F4D7240EDB6A010EEAEC41F0020EDA
:10554000ACEC41F0080EDF5C32E255EC45F0FAD7E6
:10555000400E9DEC40F0010EEAEC41F0030EACEC85
:1055600041F0080EDF5C23E255EC45F0FAD7800EDF
:1055700001D0C00E9DEC40F0010E17D0240EDB6A66
:10558000020EEAEC41F0DF6A080EDF5C10E2066A08
:10559000076AFA0E086E440EFEEC39F0F5D7400E9D
:1055A00001D0800E9DEC40F0020EEAEC41F0020EBC
:1055B000DB6A010EF36E260EF3CFDBFF140EF36EE3
:1055C000020EEFEC41F00AE2260EDB0407E197EC55
:1055D00033F0E76E260E48EC47F0F0D7260EDB508E
:1055E00001E07BD28B98010E2AEC3CF00401436B66
:1055F0004351FEE0230EDB6ADF6A030EDF5C01E34A
:105600007DD20401436B4351FEE00BEC49F0C1EC49
:1056100049F044EC3DF00F01C9EC44F0EF6A010E93
:10562000DB6A080EF36E010EEFEC41F001E387D068
:10563000010EEA6ADB34FE0BEA36E96E02EC46F054
:105640004BEC44F0010EDB5066EC43F0CFEC44F041
:10565000010EDB50BAEC3AF044EC40F0CDEC45F0F2
:105660004AEC40F0CDEC45F04AEC3FF005E2D95071
:10567000CDEC45F0EE6AED6AFCEC46F05DE1F9EC4C
:1056800041F012E18CEC44F07FEC3EF055E21AEC74
:1056900045F02FEC45F0D00E025C070E03584CE2AB
:1056A000D2EC45F041E044D07A5106E0020E7A5D3A
:1056B00003E0030E7A5D1DE18CEC44F056EC3FF004
:1056C0003BE21AEC45F073EC41F036E2D950050F9D
:1056D000016EDACF02F0DF500F010124E96E000EF7
:1056E000DA20EA6EEFCF00F0010EDB50005C20E123
:1056F0001BD07A050EE18CEC44F07FEC3EF01CE20E
:105700001AEC45F079EC41F017E2D2EC45F010E1EB
:105710000BD08CEC44F0140ED880EE54050EED54F2
:105720000BE2D2EC45F004E168EC46F0EF2A04D03D
:10573000E4EC49F0130EEF6E010EDB2A72D705017F
:105740000051090A01E118D1030A01E115D1060A45
:1057500001E112D1070A01E10FD1060A01E10CD1E2
:10576000030A01E109D1010A01E106D10A0A01E1B6
:10577000C7D0030A01E1C4D00E0A01E1C1D00F0A6B
:1057800001E1BED0060A07E0030A05E0060A03E0CD
:10579000070A01E0A0D1FCEC46F001E09CD144EC0A
:1057A0003DF0C5EC3BF0EF505DE1F9EC41F01DE15F
:1057B00078EC46F07FEC3EF007E237EC3DF0D00E9F
:1057C000005C070E01581DE3040E0501005D44E175
:1057D00078EC46F07FEC3EF03FE237EC3DF0800E97
:1057E000005C3E0E015838E226D078EC46F056ECCC
:1057F0003FF00AE237EC3DF0C60E005C110E015896
:1058000003E20701010E19D0040E0501005D24E139
:1058100078EC46F056EC3FF01FE237EC3DF0026AC0
:10582000D8900250000A06E6B80E005C880E0158B7
:10583000000E025811E20701090E916FD950050FB1
:1058400053EC3CF00F01C5EC3BF0010EEF6EF36E34
:10585000230EF3CFDBFF3FD1D9501C0F53EC3CF0AC
:105860000F0135D1180EDB6A190EDB6A010EDB6AF7
:1058700044EC3DF0C5EC3BF0EF50F36E010EEFEC65
:1058800041F00FE2D950080F026E02EC40F09DEC9F
:1058900047F0180F77EC3CF045EC43F0010EDB2AA3
:1058A000E7D737EC3DF0F4EC42F06BEC3FF00CE264
:1058B000030EDBCF02F0040EDBCF03F0180EDB503B
:1058C000025C006E190E07D0F4EC42F0030EDB50C0
:1058D000025C006E040EDB500358016E1A0E00C00D
:1058E000DBFF1B0E01C0DBFFD9501A0F77EC3CF039
:1058F0007FEC3EF001E3EFD0E4EC49F0200EEAD07B
:10590000C8EC49F01DEC3FF0A4EC47F001E0D9D021
:1059100037EC3DF0640EBCEC46F001E2CED078EC02
:1059200046F00C0ED880EE547B0EED5401E2C5D04B
:1059300068EC46F0010EEF6E070191511AE17DEC23
:1059400042F004E1780E006E050E03D0E20E006E08
:10595000040E016E030EDBCF20F0040E62EC41F06A
:1059600020C0C3F70701205001E0B5D0010EC36F7E
:10597000B2D091C7C3F7AFD00D0E005D07E1230E83
:10598000E76E240E3EEC44F0230E0ED00E0E005DAA
:1059900003E00F0E005D06E1240EE76E3EEC44F0DE
:1059A000240E02D0C8EC49F01DEC3FF00D0E0501AD
:1059B000005D06E00E0E005D03E00F0E005D28E1C5
:1059C000F9EC41F005E12CEC46F050EC47F04AD000
:1059D0007A5106E0020E7A5D03E0030E7A5D0EE175
:1059E000FDEC3FF050EC47F0A0EC3CF0C60EACEC08
:1059F00040F0110E81EC42F0C60E34D02CEC46F093
:105A0000040EACEC40F0100E81EC42F0040E2AD0F3
:105A10000C0E005D15E1DC0EF36E1F0EF3CFDBFF05
:105A2000050EF36E200EF3CFDBFFD80EF36E210EC2
:105A3000F3CFDBFF720EF36E220EF3CFDBFF1BD032
:105A4000FDEC3FF0DC0EACEC40F0050E81EC42F0DA
:105A5000DC0EA0EC3CF0C40EACEC40F0090E81EC86
:105A600042F0C40E0002F4500126210EF3CFDBFFFA
:105A7000220E01C0DBFFA4EC47F023E137EC3DF040
:105A80001F0EDBCF02F0200E03EC48F016E2030EEF
:105A9000DBCF04F0040EDBCF05F0210EDBCF06F0E8
:105AA000220EDBCF07F00650045C0750055805E2D4
:105AB00068EC46F091C7EFFF0ED0E4EC49F0140E0D
:105AC00009D044EC3DF061EC49F053EC3CF0C5ECFE
