:020000040000FA
:060000005FEFC2F01200E8
:020006000000F8
:0600080056EF16F0120095
:02000E001200DE
:0600180014EF0CF01200D1
:02001E00D9CF38
:10002000E6FFE1CFD9FF090EE126C8EC16F021EC7E
:1000300017F0C00EF2120F013985BA94B984E1ECC1
:100040009EF0E7EC9EF0E1ECA5F0EFEC9EF07FEC8B
:100050009FF085C7E6FF320EE66EE66A78ECC0F0E8
:10006000E552E552E5520501030E146F0501010E3C
:10007000156F8D8084EC83F000090AE10401290EDC
:10008000456F0601010E126F0601010E136F0DD0B0
:10009000DEEC83F0000909E10401280E456F06013A
:1000A000010E126F0601010E136F07019051010836
:1000B00006E2020E0701905D0901816F03D009017C
:1000C000010E816F09018151000817E205010351FA
:1000D00014E1060E0501025D10E109019A0505E132
:1000E0006CEC34F009019A6B07D009019B0504E11F
:1000F00069EC37F009019B6BE5D70501010E036F31
:100100000501060E026F85C7E6FF320EE66EE66A4F
:1001100078ECC0F0E552E552E552E1ECA5F00601BD
:10012000130547E10501006B8FC7E6FF74EC4AF049
:10013000E5520701010E8F6F00C552F60601AD6949
:100140000501020E036F020E0501035D0CE0030EB4
:100150000501035D08E0040E0501035D04E0050EE2
:100160000501035D25E145C4E6FF95ECA0F0E552ED
:1001700007018551E66EE66A0C0EE66EE66AC4EC8F
:10018000C0F0E552E552E552E5520501036B050169
:10019000035101E1FCD785C7E6FF320EE66EE66A41
:1001A00078ECC0F0E552E552E5520501010E036F0F
:1001B000B6D704013B5101E0FBD10501006B8FC7AD
:1001C000E6FF74EC4AF0E5520701010E8F6F00C59F
:1001D00052F60601AD690501005101E007D1050E97
:1001E0000501035D3CE185C7E6FF640EE66EE66A45
:1001F00078ECC0F0E552E552E552010EE66E640E71
:10020000E66EE66AF6EC39F0E552E552E55285C74E
:10021000E6FF320EE66EE66A78ECC0F0E552E55293
:10022000E5521F0E0801005D16E00801B36B0D01D9
:10023000DE51006E016AFF0E001801E1015006E177
:10024000010EE66E74EC4AF0E55205D0060EE66E3D
:1002500074EC4AF0E5520501010E036F1ED0020E48
:100260000501035D08E0030E0501035D04E0040ED3
:100270000501035D12E185C7E6FF320EE66EE66A10
:1002800078ECC0F0E552E552E55203C5E6FF19EC03
:1002900057F0E5520501010E036F070E0501025DDF
:1002A00009E1070EE66E19EC57F0E5520501060E5E
:1002B000026F0CD0080E0501025D08E1080EE66E23
:1002C00019EC57F0E5520501060E026F06014D05C7
:1002D0000AE106014D6B010EE66E74EC4AF0E55240
:1002E0000501010E036F0401360504E170EC1EF0F8
:1002F0000401366B0601120541E10801B351EA6AB7
:10030000A90FE96E080EEA2200C8EFFF0801B351F9
:10031000EA6AAE0FE96E080EEA22A6C8EFFF45C4EE
:10032000E6FF95ECA0F0E55207018551E66EE66A1E
:100330000C0EE66EE66AC4ECC0F0E552E552E552FA
:10034000E552030E0501035D01E0FBD785C7E6FF1B
:10035000320EE66EE66A78ECC0F0E552E552E55200
:100360000601126B0401456B0501006B010EE66E80
:1003700074EC4AF0E5520501010E036F09019A057C
:1003800005E16CEC34F009019A6B07D009019B057B
:1003900004E169EC37F009019B6B110E0501005D6A
:1003A00010E10401645104E009EC25F00401646BE0
:1003B0000701C95106E0F7EC94F00701C86F070187
:1003C000C96B0701CA5111E009019C0503E009014D
:1003D0009D050BE1010EE66E640EE66EE66AF6EC34
:1003E00039F0E552E552E552FF00F5D6110E050150
:1003F000005D01E079D0E1ECA5F009019A0504E186
:100400006CEC34F009019A6B0401620504E1FBEC29
:100410001FF00401626B060112052CE1140EE66E5A
:10042000E66A020EE66E2C0EE66E800EE66E010E99
:10043000E66ED0ECA2F0006E060EE15E005045C400
:10044000E6FFFCEC79F0E552E76E020EE7CFDBFF4A
:10045000020EE66E060EE66E020EE66E170EE66EF3
:10046000050EE66EC0ECA3F0006E050EE15E0050D6
:100470000601126B0401640504E109EC25F0040196
:10048000646B0701C90506E1F7EC94F00701C86F3A
:100490000701C96B0701CA0511E109019C0503E0C9
:1004A00009019D050BE1010EE66E0A0EE66EE66A95
:1004B000F6EC39F0E552E552E552FF00040136054D
:1004C00012E170EC1EF0E0C7E6FFC4EC9FF0E552CD
:1004D000080E0701E05D03E20701E02B02D00701EF
:1004E000E06B0401366B89D730EC19F074EC2AF01C
:1004F0000401036F010EE66EB3EC92F0E5520401C5
:1005000003511CE10401455106E1130EE66E95EC22
:10051000A0F0E55205D045C4E6FF95ECA0F0E55209
:1005200007018551E66EE66A0C0EE66EE66AC4ECDB
:10053000C0F0E552E552E552E5520FD0040EE66EEA
:1005400095ECA0F0E55285C7E6FF320EE66EE66A4E
:1005500078ECC0F0E552E552E55206010A0E4B6F09
:1005600006014C6B0501035101E0FCD70401035166
:1005700007E10501035101E1FCD706014C6B12D0E4
:100580000501035104E106014C5101E1F9D7030EC5
:100590000501035D04E0050E0501035D03E10601AD
:1005A000010E406F0601010E146F03C4A5F694D12D
:1005B000DF6A07018651DF5C16E285C7E6FF320E6F
:1005C000E66EE66A78ECC0F0E552E552E552E66A7E
:1005D000F40EE66E010EE66EF6EC39F0E552E552E9
:1005E000E552DF2AE6D70701AC51AD1101E1F2D0A7
:1005F000ACC716F6ADC717F60601186BE66AACC7AE
:10060000E6FFADC7E6FFDAEC7FF0E552E552E552D2
:100610000901010E706F9A0EE66EE40EE66E010E91
:10062000E66E49EC96F0E552E552E552E76E020EB1
:10063000E7CFDBFF020EDB50070805E2070EF36E83
:10064000020EF3CFDBFF070EE66E1E0EE66E010E06
:10065000E66EEF0EE66E7F0EE66E010EE66ED0ECF5
:10066000A2F0006E060EE15E0050020EDBCFE6FF48
:100670001E0EE66E010EE66E9A0EE66EE40EE66E55
:10068000010EE66ED0ECA2F0006E060EE15E0050A8
:100690000901010E846F090170056EE1050E050167
:1006A000035D6AE0040163050BE101C5E6FF85EC2B
:1006B00022F0E552F3CFBDF6F4CFBEF60401636B32
:1006C000040136051BE170EC1EF0F4C5E6FFF5C52C
:1006D000E6FFB4C9E6FFB5C9E6FF70EC25F0E552C8
:1006E000E552E552E55210C6E6FF01C5E6FF8FEC84
:1006F000A8F0E552E5520401366B2ED0070E050135
:10070000025D14E1060111510601105D03E20601CC
:10071000102B02D00601106B0901010E826F04013B
:10072000010E366F0501060E026F16D0080E050188
:10073000025D12E106011051000803E206011007F4
:1007400002D011C610F60901010E826F0401010EDC
:10075000366F0501060E026F09019A0505E16CEC82
:1007600034F009019A6B07D009019B0504E169EC9B
:1007700037F009019B6B8FD70901846B050E0501CA
:10078000035D16E104013B6B0401526B0901706BC0
:100790000601030E406F85C7E6FF320EE66EE66A7D
:1007A00078ECC0F0E552E552E5520501010E036F09
:1007B000070EE66E1E0EE66E010EE66EEF0EE66E9C
:1007C0007F0EE66E010EE66ED0ECA2F0006E060E15
:1007D000E15E0050030E0601405D01E17BD00501A2
:1007E00001510E0A67E0010A65E0020A52E0070AB9
:1007F0004CE0010A4AE0020A37E00F0A31E0010A40
:100800002FE0020A1CE0070A16E0010A14E0020ABF
:1008100001E054D00701805106E007018A5103E04E
:100820000701CE5104E10501020E006F03D005015E
:10083000030E006F48D00501010E006F44D0070180
:10084000805106E007018A5103E00701CE5104E11F
:100850000501060E006F03D00501070E006F33D0AF
:100860000501050E006F2FD00701805106E007013A
:100870008A5103E00701CE5104E105010A0E006F21
:1008800003D005010B0E006F1ED00501090E006F8D
:100890001AD00701805106E007018A5103E00701E1
:1008A000CE5104E105010E0E006F03D005010F0EBD
:1008B000006F09D005010D0E006F05D00501006B1A
:1008C00004013B6B00D030EC19F0010EE66EB3EC86
:1008D00092F0E5520601146B030E0601405D02E141
:1008E00014EF0AF00601400506E00401035103E09D
:1008F00006014C0529E106014C050EE10701855171
:10090000E66EE66A0C0EE66EE66AC4ECC0F0E552EE
:10091000E552E552E5520AD085C7E6FF320EE66E93
:10092000E66A78ECC0F0E552E552E5520601010EA8
:10093000406F0501006B04013B6B06014C6B050128
:10094000010E036F14EF0AF085C7E6FF320EE66E64
:10095000E66A78ECC0F0E552E552E5520501010E79
:10096000036F5EEC82F00601140502E1E1ECA5F0F4
:1009700000C5E6FF80ECA6F0E552010EE66E000E23
:10098000E66EE66ADAEC7FF0E552E552E5520501E3
:1009900000050CE0020E0501005D08E0040E0501F3
:1009A000005D04E0030E0501005D0FE104016351E9
:1009B00001E1FCD700C5E6FF85EC22F0E552F3CF5C
:1009C000BDF6F4CFBEF60401636B70EC1EF010C6EA
:1009D000E6FF00C5E6FF8FECA8F0E552E55200C542
:1009E000E6FF08EC1AF0E55200C5E6FF80ECA6F041
:1009F000E55270EC1EF00501005118E0040E0501EF
:100A0000005D14E0080E0501005D10E00C0E05010C
:100A1000005D0CE0100E0501005D08E00901910584
:100A200005E00501146B0501156B8D8000C552F6BC
:100A30000601536BD18010C6E6FF00C5E6FF8FECC0
:100A4000A8F0E552E55200C5E6FFC1EC38F0E552EA
:100A500004000901010E846F0501005102E111EF4C
:100A60000AF0040004013F0504E1E8EC28F0040169
:100A70003F6B0401470504E12CEC2FF00401476BA8
:100A80000701CF0501E07DD000C501F50501006B30
:100A9000E66A020EE66EE66AF4EC1DF0E552E552F7
:100AA000E55201C5E6FF80ECA6F0E55210C6E6FF70
:100AB00001C5E6FF8FECA8F0E552E5520F0EE66E99
:100AC00095ECA0F0E55285C7E6FF320EE66EE66AC9
:100AD00078ECC0F0E552E552E552030E0501015DE8
:100AE00004E10501020E006F1AD0070E0501015D39
:100AF00004E10501060E006F12D00B0E0501015D29
:100B000004E105010A0E006F0AD00F0E0501015D18
:100B100004E105010E0E006F02D00501006B00C557
:100B200052F630EC19F0010EE66EB3EC92F0E5529D
:100B300097C795F798C796F70400E66AB80EE66E71
:100B40000B0EE66EF6EC39F0E552E552E552040084
:100B50005EEC82F0E1ECA5F000C5E6FF80ECA6F0CB
:100B6000E55210C6E6FF00C5E6FF8FECA8F0E5529F
:100B7000E552040000C5E6FF08EC1AF0E552070153
:100B8000CF6B0401510541E100C501F50501006B82
:100B9000E66A020EE66EE66AF4EC1DF0E552E552F6
:100BA000E55201C5E6FF80ECA6F0E55210C6E6FF6F
:100BB00001C5E6FF8FECA8F0E552E552030E0601F1
:100BC0003A5D19E206013A2B0400E66AB80EE66EB9
:100BD0000B0EE66EF6EC39F0E552E552E5520400F4
:100BE00001C500F50501035105E100C5E6FF08EC6C
:100BF0001AF0E55208D006013A6B0401180E456F51
:100C00000601010E126F0401516B0601120539E154
:100C100000C501F50501006BE66AE66AE66AF4ECD8
:100C20001DF0E552E552E55201C5E6FF80ECA6F065
:100C3000E55210C6E6FF01C5E6FF8FECA8F0E552CD
:100C4000E55285C7E6FF320EE66EE66A78ECC0F044
:100C5000E552E552E552010EE66E640EE66EE66A76
:100C6000F6EC39F0E552E552E55285C7E6FF320E63
:100C7000E66EE66A78ECC0F0E552E552E552040112
:100C80003B6B040152051AE100C501F50501006B3B
:100C9000020EE66EE66AE66AF4EC1DF0E552E552F5
:100CA000E55201C5E6FF80ECA6F0E55210C6E6FF6E
:100CB00001C5E6FF8FECA8F0E552E5520901900569
:100CC00001E0A8D0010EE66EE66AE66AF4EC1DF0DB
:100CD000E552E552E55200C5E6FF80ECA6F0E5528C
:100CE00010C6E6FF00C5E6FF8FECA8F0E552E5521E
:100CF0000701855105E0D1908EECC0F0D180040051
:100D000006011C6B1D6B0401006B70EC1EF0F4C53A
:100D1000E6FFF5C5E6FFB4C9E6FFB5C9E6FF70EC2E
:100D200025F0E552E552E552E55200C5E6FF80ECBC
:100D3000A6F0E55210C6E6FF00C5E6FF8FECA8F06E
:100D4000E552E5520901010E916F040000C5E6FF6E
:100D500008EC1AF0E552B00EE66EE40EE66E010EF7
:100D6000E66E49EC96F0E552E552E552E76E020E6A
:100D7000E7CFDBFF020EDB50070805E2070EF36E3C
:100D8000020EF3CFDBFF070EE66E1E0EE66E010EBF
:100D9000E66EEF0EE66E7F0EE66E010EE66ED0ECAE
:100DA000A2F0006E060EE15E0050020EDBCFE6FF01
:100DB0001E0EE66E010EE66EB00EE66EE40EE66EF8
:100DC000010EE66ED0ECA2F0006E060EE15E005061
:100DD000010EE66EA6C7E6FFA7C7E6FFE2EC7CF0D1
:100DE000E552E552E552E76E020EE7CFDBFF060E55
:100DF000E66E360EE66EE66A170EE66E050EE66ED7
:100E0000C0ECA3F0006E050EE15E00500901906B8E
:100E1000060154970401620504E1FBEC1FF0040194
:100E2000626B0401630518E100C5E6FF85EC22F062
:100E3000E552F3CFBDF6F4CFBEF609017D510AE1CC
:100E4000BDC66CF6BEC600F0016A00C06DF60901B1
:100E5000010E7D6F0401636B0401A20504E127EC20
:100E600029F00401A26B0601240504E19CEC80F04A
:100E70000601246B090172050EE10701925106017A
:100E80001A5D09E17ACAE6FF0BEC33F0E55207017F
:100E9000C36F0901726B0401360501E0A2D009019C
:100EA000830504E1D5EC81F00901836B70EC1EF041
:100EB000F4C5E6FFF5C5E6FFB4C9E6FFB5C9E6FF30
:100EC00070EC25F0E552E552E552E55205011305B7
:100ED0000BE1E1EC9EF0E7EC9EF000C5E6FF80EC54
:100EE000A6F0E5520501136B0901B80509E00901F7
:100EF000BA0506E00901BB0503E00901BC0539E1BB
:100F00000901B65135E10901B80504E109011A0EDC
:100F1000B76F1BD00901BA0504E10901230EB76FB1
:100F200014D00901BB0504E10901240EB76F0DD0EF
:100F30000901BC050AE10701CD5104E109012F0EA9
:100F4000B76F03D00901300EB76F0901B75105E142
:100F50000901B66B0901BD6B0BD00901010EB66F1B
:100F600009010A0EBD6FB7C9E6FF95ECA0F0E55286
:100F700002D00901B66B0901B60511E10901BD51A5
:100F800000080CE285C7E6FF320EE66EE66A78ECF2
:100F9000C0F0E552E552E5520901BD0708D010C680
:100FA000E6FF00C5E6FF8FECA8F0E552E5520D0123
:100FB000EE0ED8809555020E96550EE2030E0D01E9
:100FC0009D5D03E20D019D2B06D00401210E456FAE
:100FD0000601010E126F02D00D019D6B0401366BEC
:100FE000A5D0070E0501025D50E10901B6514DE1A2
:100FF0000401460536E10701BC510701BA5D07014E
:10100000BD510701BB5905E20701BA2B000EBB23F6
:1010100003D00701BA6BBB6BC0C7E6FFC1C7E6FFD1
:10102000BAC7E6FFBBC7E6FF02EC8DF0E552E5521A
:10103000E552E552050EF3CFDBFF060EF4CFDBFFE2
:10104000010EE66E050EDBCFE6FF060EDBCFE6FFF8
:101050000AEC62F0E552E552E5520501060E026F18
:1010600013D0060111510601105D03E20601102B99
:1010700002D00601106B0901010E826F0401010EFE
:10108000366F0501060E026F51D0080E0501025D94
:101090004DE10901B6514AE10401460535E1070178
:1010A000000ED880BA55000EBB5505E20701BA07FD
:1010B000000EBB5B04D0BCC7BAF7BDC7BBF7C0C747
:1010C000E6FFC1C7E6FFBAC7E6FFBBC7E6FF02EC13
:1010D0008DF0E552E552E552E552050EF3CFDBFF08
:1010E000060EF4CFDBFF010EE66E050EDBCFE6FF4A
:1010F000060EDBCFE6FF0AEC62F0E552E552E55260
:101100000501060E026F12D006011051000803E21D
:101110000601100702D011C610F60901010E826FF8
:101120000401010E366F0501060E026F030E050164
:10113000035D72E10401460523E10401466BC0C76B
:10114000E6FFC1C7E6FFBEC7E6FFBFC7E6FF02EC8A
:101150008DF0E552E552E552E552050EF3CFDBFF87
:10116000060EF4CFDBFFE66A050EDBCFE6FF060EC8
:10117000DBCFE6FF0AEC62F0E552E552E5523ED0E5
:101180000901B7513BE000C5E6FF80ECA6F0E5524F
:1011900010C6E6FF00C5E6FF8FECA8F0E552E55269
:1011A0000901B7512F0A21E01F0A1FE0140A15E0B8
:1011B000070A0BE0390A01E020D00901020EB86FDE
:1011C0000901B76B0901B66B19D00901020EBA6F9C
:1011D0000901B76B0901B66B11D00901020EBB6F93
:1011E0000901B76B0901B66B09D00901020EBC6F8A
:1011F0000901B76B0901B66B01D000D085C7E6FFC6
:10120000320EE66EE66A78ECC0F0E552E552E55241
:101210000501010E036FF4D0050E0501035D37E1F2
:1012200000C501F50501006B020EE66EE66AE66A8E
:10123000F4EC1DF0E552E552E55201C5E6FF80EC05
:10124000A6F0E55210C6E6FF01C5E6FF8FECA8F058
:10125000E552E55285C7E6FF320EE66EE66A78ECA7
:10126000C0F0E552E552E552010EE66E640EE66E00
:10127000E66AF6EC39F0E552E552E55204013B6BC3
:101280000501010E036F0601020E406FB9D0020E78
:101290000501035D05E0040E0501035D01E0B0D02A
:1012A00085C7E6FF320EE66EE66A78ECC0F0E552DE
:1012B000E552E5520501005101E19FD0040E050100
:1012C000005D01E19AD0080E0501005D01E195D0B5
:1012D0000C0E0501005D01E190D0100E0501005DCE
:1012E00001E18BD0040146055DE1C0C7E6FFC1C73F
:1012F000E6FFBEC7E6FFBFC7E6FF02EC8DF0E55292
:10130000E552E552E552070EF3CFDBFF080EF4CFAE
:10131000DBFFC0C7E6FFC1C7E6FFBAC7E6FFBBC732
:10132000E6FF02EC8DF0E552E552E552E552050E7E
:10133000F3CFDBFF060EF4CFDBFFE66A050EDBCF53
:10134000E6FF060EDBCFE6FF0AEC62F0E552E5525F
:10135000E552BAC7E6FFC0C7E6FFC1C7E6FF61ECCA
:1013600084F0E552E552E5520A017A512C0DF3CF93
:1013700000F0F4CF01F0000E00260C0E0122070150
:10138000C2510F010024E96E000E0120EA6EBAC7B7
:10139000EFFFE66AB3EC92F0E55229EC28F0040185
:1013A000466B2BD00901915128E10401010E466FD3
:1013B000BAC7BEF7BBC7BFF7C0C7E6FFC1C7E6FFE6
:1013C000BAC7E6FFBBC7E6FF02EC8DF0E552E55277
:1013D000E552E552050EF3CFDBFF060EF4CFDBFF3F
:1013E000010EE66E050EDBCFE6FF060EDBCFE6FF55
:1013F0000AEC62F0E552E552E5520501010E036F79
:1014000009019A0505E16CEC34F009019A6B07D0EB
:1014100009019B0504E169EC37F009019B6B2CEF96
:1014200005F00901846BD1900701AA5142E0030E37
:101430000601405D3EE004013B5100083AE207012D
:10144000AB5112E1050101050CE0050E0501015D3E
:1014500008E0090E0501015D04E00D0E0501015DC6
:1014600003E104013B0725D00701AB0522E1020E91
:101470000501015D1CE0060E0501015D18E00A0E84
:101480000501015D14E00E0E0501015D10E0030E83
:101490000501015D0CE0070E0501015D08E00B0E82
:1014A0000501015D04E00F0E0501015D02E104018B
:1014B0003B07020E0601405D08E00601125101E003
:1014C00049D10601400501E145D104013B5101E04C
:1014D00040D101C5E6FF96EC32F0E55209016F6F8D
:1014E000050EE66E600EE66EE66AE20EE66E7F0EB2
:1014F000E66E010EE66ED0ECA2F0006E060EE15E26
:1015000000500401520538E16E0EE66EE40EE66E00
:10151000010EE66E49EC96F0E552E552E552E76EB3
:10152000020EE7CFDBFF020EDB50040805E2040EDB
:10153000F36E020EF3CFDBFF020EDBCFE6FF7E0E73
:10154000006E020EDB50060DF350005CE66EE66A9C
:101550006E0EE66EE40EE66E010EE66ED0ECA2F0C4
:10156000016E060EE15E01500701855102E08EEC2E
:10157000C0F00401526B30D0840EE66EE40EE66ECD
:10158000010EE66E49EC96F0E552E552E552E76E43
:10159000020EE7CFDBFF020EDB50040805E2040E6B
:1015A000F36E020EF3CFDBFF020EDBCFE6FF7E0E03
:1015B000006E020EDB50060DF350005CE66EE66A2C
:1015C000840EE66EE40EE66E010EE66ED0ECA2F03E
:1015D000016E060EE15E01500901010E846F0501E6
:1015E000035101E0FCD70501035101E07CD0090162
:1015F0006F5101E078D00401620504E1FBEC1FF0BB
:101600000401626B040163050BE101C5E6FF85EC93
:1016100022F0E552F3CFBDF6F4CFBEF60401636BC2
:101620000401360522E101C5E6FF96EC32F0E552F1
:1016300009016F6F70EC1EF0F4C5E6FFF5C5E6FF1B
:10164000B4C9E6FFB5C9E6FF70EC25F0E552E552F6
:10165000E552E55210C6E6FF01C5E6FF8FECA8F0A3
:10166000E552E5520401366B2ED0070E0501025DEE
:1016700014E1060111510601105D03E20601102B71
:1016800002D00601106B0901010E826F0401010EE8
:10169000366F0501060E026F16D0080E0501025DB9
:1016A00012E106011051000803E20601100702D002
:1016B00011C610F60901010E826F0401010E366F8A
:1016C0000501060E026F09019A0505E16CEC34F084
:1016D00009019A6B07D009019B0504E169EC37F019
:1016E00009019B6B80D70901846BE66AE66AE66AAA
:1016F000F4EC1DF0E552E552E5520501010E036FD1
:1017000085C7E6FF320EE66EE66A78ECC0F0E55279
:10171000E552E55209016F511CE0050EE66E95ECAD
:10172000A0F0E552E66AD00EE66E070EE66EF6EC25
:1017300039F0E552E552E5520601120508E1200EA6
:101740000401455D04E10401456B0601126B0901CA
:101750006F6B46D00601120543E1E66AE66AE66A67
:10176000F4EC1DF0E552E552E55204013B6B45C433
:10177000E6FF95ECA0F0E55207018551E66EE66ABA
:101780000C0EE66EE66AC4ECC0F0E552E552E55296
:10179000E55245C453F6030E0501035D10E009014F
:1017A0009A0505E16CEC34F009019A6B07D0090148
:1017B0009B0504E169EC37F009019B6BECD705014F
:1017C000010E036F85C7E6FF640EE66EE66A78ECED
:1017D000C0F0E552E552E5520601126B0401456B7B
:1017E00004013B5109E1E66AE66AE66AF4EC1DF0A1
:1017F000E552E552E5520AD0020EE66E020EE66EA2
:10180000E66AF4EC1DF0E552E552E5520601406B44
:10181000D9EF00F0090EE15C02E2E16AE552E16E07
:10182000E552E7CFD9FF1200D8CFE4FFE0CFE4FFC5
:10183000E46EDACFE4FFE2CFDAFFE9CFE4FFEACFEC
:10184000E4FFF6CFE4FFF7CFE4FFF8CFE4FFF5CFF6
:10185000E4FFF3CFE4FFF4CFE4FFFACFE4FFFBCFE4
:10186000E4FF00EE18F0140EE80403E3EECFE4FF0B
:10187000FBD700EE00F0180EE80403E3EECFE4FF20
:10188000FBD7E65211EC3CF0030EE126B950040BF5
:1018900002E1A3EF15F0BA50040B02E1A3EF15F03B
:1018A000BA940401045101E0D5D01D0E50EC45F06E
:1018B000F3CF41F6F4CF42F63D0E50EC45F0F3CFB6
:1018C00043F6F4CF44F6150E50EC45F0F3CF45F651
:1018D000F4CF46F6250E50EC45F0F3CFAEF9F4CF39
:1018E000AFF90401A15166E1A0EC49F028EC46F003
:1018F000C2EC41F00501000506E0020E005D03E0C8
:10190000030E005D2AE104010351015D27E201514C
:101910008DEC3CF028EC46F031EC47F001518DECB9
:101920003CF0E30EE926040E10EC46F02C502E5C41
:101930002D502F5813E258EC3FF0EFCF2CF0140E3F
:101940002C5C04E258EC3FF0EF2A0BD058EC3FF04F
:10195000EF6A260EC0EC3DF004D0040158EC3FF0D5
:10196000EF6A070E0401015D2FE10501005117E048
:10197000000515E0020E005D12E0030E005D0FE0B1
:10198000040E005D0CE00D0E005D09E00E0E005D22
:1019900006E00F0E005D03E0100E005D03E10401A0
:1019A000010E636F110E0501005D0EE10401010ED1
:1019B000646F0AD02D0E50EC45F05CEC46F0D30E6F
:1019C000E926040EC2EC41F0050100513BE006019E
:1019D00039510EE19350100B0BE127510901AE5D17
:1019E000060128510901AF5903E20401170E22D064
:1019F000060141513D5D42513E5908E2140E3F5DE2
:101A000002E23F2B1FD03F6B040113D04151040170
:101A10004C5D0601425104014D590FE2140E4E5D1A
:101A2000000E4F5904E24E2B000E4F230BD04E6B8D
:101A30004F6B1B0EC0EC3DF005D006013F6B04015F
:101A40004E6B4F6BAEC9A2F6AFC92CF02D6AAFC971
:101A5000A3F668D0A1510AE12D0E42EC3CF005013D
:101A60003E27F4503F232E5040230AD0280E045D19
:101A700007E1A0EC49F0B30EE926040EC2EC41F0F8
:101A80001D0E42EC3CF005014127F45042232E503C
:101A900043233D0E42EC3CF005014427F45045231E
:101AA0002E504623150E42EC3CF005014D27F45014
:101AB0004E232E504F23250E42EC3CF005015027BB
:101AC000F45051232E505223290E42EC3CF00501D4
:101AD0004727F45048232E504923390E42EC3CF05E
:101AE00005014A27F4504B232E504C239CEC39F02F
:101AF0008DEC47F005015327F45054232E50552305
:101B0000040104050FE10901BE050CE10501010E08
:101B1000076F0F01320E376F060E366FBA98B9880D
:101B20000901BE6B320E0401045D42E2042B070181
:101B3000AE053AE10401A15137E11B51D8800455AB
:101B400002E2919801D091881C51D880045502E29C
:101B5000919A01D0918A1D51D880045502E2919C3E
:101B600001D0918C1E51D880045502E2919E01D083
:101B7000918E1F51D880045502E28B9201D08B8246
:101B80002051D880045502E28E9201D08E822151DC
:101B9000D880045502E2909801D090882251D880D4
:101BA000045504E3908A05D22FEC42F0909A01D2BA
:101BB000046B060506E0030E065D03E0020E065DFB
:101BC0000EE108050AE1280E055D02E2052B07D0AB
:101BD000320E056F010E076F02D0010E086F01C4AF
:101BE00002F40151070A45E0010A3AE0030A2FE036
:101BF000010A25E0070A1BE0010A12E0030A09E0D6
:101C0000010A3DE1010E016F8A928A948A868A90C8
:101C10001CD0020E016F8A928A848A968A901DD007
:101C2000030E016F8A928A848A868A901FD0040EDE
:101C3000016F8A828A948A968A8091960FD0050EC7
:101C4000016F8A828A948A868A80919610D0060EC5
:101C5000016F8A828A848A968A80918691940FD0B5
:101C6000070E016F8A828A848A868A80918691848F
:101C700006D0016BB3EC42F0010E446F476F0601D2
:101C800039051CE104015E6B5F6B09015A6BDF6A69
:101C9000210EDF5C08E207EC44F013EC4AF0CBECD9
:101CA00049F0DF2AF5D70901B06BB16B166B176BE2
:101CB000136B146B156B100E5B6F5C6B0901E4EC1E
:101CC00045F0AE51EE26AF51ED220601415109011A
:101CD000B027060142510901B12304010F0E5E5DD8
:101CE000000E5F5904E25E2B000E5F233CD05E6B5A
:101CF0005F6B0901E4EC45F0EECF16F9EDCF17F973
:101D00005A518DEC3CF06CEC40F013272D5014230D
:101D10002E5015230701010EE36F100E09015A5DC5
:101D200002E25A2B01D05A6B5A518DEC3CF06CEC0C
:101D300040F0135F2D50145B2E50155BE4EC45F022
:101D4000EE6AED6AB0C9B2F9B1C9B3F9B06BB16B63
:101D50005C5105E15B515A5D02E1010E5C6F0401CB
:101D6000010E626F656FA10509E102518DEC3CF037
:101D7000ECEC47F0AEC9EEFFAFC9EDFF020E1F0B52
:101D800041C52CF042C52DF043C52EF003E05AECBE
:101D90003DF0FDE12CC030F52DC031F5020E1F0BDA
:101DA00044C52CF045C52DF046C52EF003E05AEC95
:101DB0003DF0FDE12CC032F52DC033F5020E1F0BB6
:101DC00047C52CF048C52DF049C52EF003E05AEC6C
:101DD0003DF0FDE12CC034F52DC035F5020E1F0B92
:101DE0004AC52CF04BC52DF04CC52EF003E05AEC43
:101DF0003DF0FDE12CC036F52DC037F5020E1F0B6E
:101E00004DC52CF04EC52DF04FC52EF003E05AEC19
:101E10003DF0FDE12CC038F52DC039F505015351D9
:101E20000D019E27050154510D019F2305015551B8
:101E30000D01A023140E9B5D000E9C5904E29B2B08
:101E4000000E9C2321D0010E9B6F9C6B050E1F0B77
:101E50009ECDA1FD9FCDA2FDA0CDA3FD07E00D016C
:101E6000D890A333A233A133E806FAE10D019E6BAB
:101E70009F6BA06B995108E1A1CDA4FDA2CDA5FD5A
:101E8000A3CDA6FD010E996F050165EC3DF000059F
:101E900012E1040101510FE100510DE1A00503E140
:101EA000A16B010EA26F320EA05D02E2A02B03D047
:101EB000010EA06FA16F2FEC42F0909A0D018C5192
:101EC0000501385D0D018D510501395904E238C510
:101ED0008CFD39C58DFD005109E137EC42F004E27B
:101EE000050E2D5D1CE31DD02D6B3CD0110E005D49
:101EF00039E09350100B0CE00901AE510601255D4D
:101F00000901AF510601265903E20401160E24D03F
:101F1000050137EC42F009E2050E2D5D02E22D2BA2
:101F200021D02D6B0401190E17D03FEC42F017E2BF
:101F3000000515E0050E005D12E0090E005D0FE0E2
:101F40000D0E005D0CE0040E06012F5D02E22F2B4A
:101F500009D02F6B04011A0EC0EC3DF003D006012E
:101F60002D6B2F6B110E0501005D15E09350100BCA
:101F700012E0040107050FE147EC42F00CE2280EE5
:101F80000601305D02E2302B08D0306B0401140EE4
:101F9000C0EC3DF002D00601306B12050AE19D92C3
:101FA0008D829190786A726A779A7798719A71980F
:101FB0008B880401065101E1ECD0080501E0E9D06D
:101FC000045104E00551D880045519E29D928B8A92
:101FD000786A726A6F6A0C0E776E716E6E6E0605A5
:101FE00003E191908D820BD0030E065D03E18D928B
:101FF000918005D0020E065D02E191908D92045110
:1020000001E092D006053FE11CEC41F01CE2E6EC59
:1020100041F0050E0CEC3FF0FDE12CC073F9E6EC4D
:1020200041F0030E0CEC3FF0FDE125EC41F005E240
:102030007529766F73C974F903D0766B7329746F41
:1020400009C42CF069D011EC3DF02D6E050E0CEC9E
:102050003FF0FDE12CC077F9040111EC3DF02D6E4D
:10206000030E0CEC3FF0FDE12EEC41F005E2792986
:102070007A6F77C978F903D07A6B7729786F040182
:1020800011EC3DF022D0030E065D01E082D01CEC85
:1020900041F023E2E6EC41F0050E0CEC3FF0FDE1EF
:1020A0002CC077F9E6EC41F0030E0CEC3FF0FDE1BB
:1020B0002EEC41F005E279297A6F77C978F903D0DF
:1020C0007A6B7729786F09C42CF0CCEC40F07369F7
:1020D0007469030E756F766F5CD011EC3DF02D6E58
:1020E000050E0CEC3FF0FDE12CC073F9040111EC7E
:1020F0003DF02D6E030E0CEC3FF0FDE125EC41F0C0
:1021000005E27529766F73C974F903D0766B73296C
:10211000746F040111EC3DF0CCEC40F07769786904
:10212000030E796F7A6F35D0040533E1060503E0BD
:10213000030E065D0CE18D829180020EE66E3FEC8F
:10214000C2F0E552CC6A040ECA6E9D8222D08B9AF0
:102150000DC42CF00EC42DF0D8902D322C32D89016
:102160002D322C322CC073F90DC42CF000012D6AD5
:10217000030E2C162CC075F973C96FFF090175A3E6
:1021800002D06E8A01D06E9A75A102D06E8801D0FD
:102190006E980401045101E084D0070501E085D365
:1021A0000901AE510401485D0901AF5104014959CB
:1021B00003E347EC42F003E20401010E516F040116
:1021C000005101E072D305010051070A5DE00C0ADD
:1021D00051E0040A4FE0050A46E0040A44E0070A19
:1021E0003BE0040A39E00E0A25E0010A15E0030A83
:1021F00051E1DF6AB2EC3FF04DE235EC3CF0020E0B
:102200002E26000E2F222C502E5C2D502F5802E22D
:10221000010E006FDF2AEED70701A2053BE1DF6A5E
:10222000B2EC3FF037E294EC47F002E2010E006FAF
:10223000DF2AF6D70701A2050BE1DF6AB2EC3FF017
:1022400007E294EC47F002E2010E006FDF2AF6D7B6
:1022500095EC3EF01FE21BD006014151EF5D42516B
:10226000F05918E214D05AEC40F014E20701A2052C
:1022700011E10DD05AEC40F003E20701A20507E09E
:1022800095EC3EF007E203D095EC3EF003E204014A
:10229000010E006F0401000501E007D30601548719
:1022A00004D3320E045D01E000D3070501E0F7D24C
:1022B000110E0501005D08E1A7CD09F4A8CD0AF4CF
:1022C000A9CD0DF4AACD0EF40401065101E11BD1F4
:1022D000650501E018D1005101E015D1050100515B
:1022E000030A01E1CED0040A01E1CBD00C0A01E1DE
:1022F000C8D0040A01E1C5D00D0A70E0040A6EE0FE
:102300000C0A6CE0040A6AE00F0A07E0040A05E020
:102310000C0A03E0040A01E0F3D00901910510E181
:10232000E1EC3DF004E20401092B000E2CD04FEC4F
:1023300042F04FE207EC3EF04CE20907000E48D0B5
:10234000E1EC3DF022E216510401115D0901856FB7
:10235000175104011259090162EC46F004E2100E13
:10236000856F866B0ED01F0E11EC3FF007E2050E55
:102370000F0B07E000EC40F0FDE103D0010E856F8C
:10238000866B57EC42F00A2324D004011151090155
:10239000165D856F040112510901175962EC46F070
:1023A00004E2200E856F866B0ED00F0E11EC3FF00D
:1023B00007E2040E0F0B07E000EC40F0FDE103D054
:1023C000010E856F866B37EC41F003E35FEC42F062
:1023D0000A5B16EC3FF001E393D090D0060139512F
:1023E00001E08ED0EAEC3DF01EE2BEEC45F004E2E6
:1023F000080E856F866B0ED01F0E11EC3FF007E2C2
:10240000050E0F0B07E000EC40F0FDE103D0010EDC
:10241000856F866B0901855104010D2709018651DD
:1024200004010E2326D0A1EC3EF004E2200E856FBD
:10243000866B0ED00F0E11EC3FF007E2040E0F0B6F
:1024400007E000EC40F0FDE103D0010E856F866BE4
:102450000901855104010D5D0901865104010E59E0
:1024600008E30901855104010D5F0901865104014A
:102470000E5B2FEC43F044E20FC40DF410C40EF4D5
:102480003FD0060139513CE1EAEC3DF019E2BEECE7
:1024900045F004E2100E856F866B0ED00F0E11EC26
:1024A0003FF007E2040E0F0B07E000EC40F0FDE107
:1024B00003D0010E856F866B57EC42F00A231BD0C8
:1024C000A1EC3EF004E2200E856F866B0ED00F0E5D
:1024D00011EC3FF007E2040E0F0B07E000EC40F0B8
:1024E000FDE103D0010E856F866B37EC41F003E30D
:1024F0005FEC42F00A5B16EC3FF002E2EBEC41F0DD
:102500000401656BCCD1065101E1C9D1000501E0A0
:10251000C6D105010051070A01E1B1D10C0A01E160
:102520009FD1040A01E19CD1050A01E16BD1040AA3
:1025300001E168D1070A01E111D1040A01E10ED1DC
:102540000E0A01E1BED0010A60E0030A01E0A3D156
:10255000070E0401015D01E09ED1D5EC3DF0035171
:10256000DF5C11E2E1EC3CF0F2EC3FF0E8AE02D0CF
:102570002D3402D034EC43F004E2E1EC3CF0C8EC42
:1025800041F0DF2AECD7DEEC46F01CE2A0EC40F094
:1025900019E2DEEC46F007E239EC43F004E20A0E01
:1025A0004DEC3EF002D002EC4AF09BEC47F001E328
:1025B00072D19E35000E9E1902E6B8EC3DF001E3A3
:1025C0006AD1B2D04EEC3CF00001800E2D1401E136
:1025D00062D1E1EC3DF001E35ED1050E04013E5D08
:1025E00001E230D14AEC49F006E2A0EC40F003E20F
:1025F000020E4DEC3EF07DEC3EF0092721500A23FF
:1026000016EC3FF001E347D1FAD0070E0401015D5B
:1026100001E041D1D5EC3DF00351DF5C11E2A7ECC4
:102620003BF0F2EC3FF0E8AE02D02D3402D034ECB7
:1026300043F004E2A7EC3BF0C8EC41F0DF2AECD712
:10264000DEEC46F01CE2A0EC40F019E2DEEC46F0D5
:1026500007E239EC43F004E20A0E4DEC3EF002D002
:1026600002EC4AF04EEC3CF00D512C5C0E512D5812
:1026700001E311D17DEC3EF00D5F2150CFD04EEC47
:102680003CF00001800E2D1401E105D1EAEC3DF093
:1026900001E301D1050E3E5D01E2D4D04AEC49F0E0
:1026A00006E2A0EC40F003E2020E4DEC3EF07DECC1
:1026B0003EF00D2721500E232FEC43F001E3EBD029
:1026C000CAD00401800E9E1501E1E5D0070E015D20
:1026D0003CE1D5EC3DF00351DF5C11E2A7EC3BF0AF
:1026E000F2EC3FF0E8AE02D02D3402D034EC43F0EF
:1026F00004E2A7EC3BF0C8EC41F0DF2AECD7DEECBB
:1027000046F01AE2A0EC40F017E2DEEC46F007E2F9
:1027100039EC43F004E20A0E4DEC3EF002D002EC3C
:102720004AF09BEC47F005E27DEC3EF0095F21505A
:10273000B1D0096B0A6BAFD095EC3EF001E3ABD0A2
:102740003BEC48F001E3A7D0A3D095EC3EF001E3C9
:10275000A2D03BEC48F001E39ED09AD0090191054C
:1027600029E1AE510401155D0901AF51040116596B
:102770000BE207EC3EF008E29E35000E9E1902E6E1
:10278000B8EC3DF001E284D0B6EC3FF001E383D039
:10279000040115510901AE5D040116510901AF593B
:1027A00001E379D00401092B000E0A2316EC3FF057
:1027B00072E225D006014151EF5D4251F05904E328
:1027C00009014FEC42F00AE23BEC48F007E29E358B
:1027D000000E9E1902E6B8EC3DF05AE3B6EC3FF06D
:1027E0005AE2E1EC3DF057E2050E04013E5D2AE3BA
:1027F0003E6B092B000E0A2316EC3FF04CE2EBEC8B
:1028000041F049D05AEC40F00BE20401000ED880B0
:102810000D55000E0E5504E20D07000E0E5B3BD069
:10282000010E06012D6AEF252C6EF0512D2241512B
:102830002C5C42512D582FE2EAEC3DF02CE2050EC3
:102840003E5D02E23E2B27D03E6B0D2B000E0E2389
:102850002FEC43F020E20FC40DF410C40EF41BD093
:102860005AEC40F005E34551F15D4651F25913E24F
:102870003BEC48F010E2800E9E150DE009D095EC7F
:102880003EF009E23BEC48F006E2800E9E1503E0C4
:102890000907000E0A5B0401650501E1656B09C4C7
:1028A0009CF643EC43F00EC49FF60501040E0E03A4
:1028B000F3CF0EF580CF0FF5030E0F150E13F20EAA
:1028C0002C6E810E2D6E010E2E6E0F0E0E152F6EBC
:1028D000306A316A2C502F24F36E2D503020F46E64
:1028E0002E503120F86EF4CFF7FFF3CFF6FF08003B
:1028F000F5CF11F5115111E0040E1003F3CF10F5CF
:1029000011511013AA0E105D02E1070E04D0550EEE
:10291000105D03E1080E026F106B0A0E04013A5DB0
:1029200002E23A2B41D0010E3A6F0501035126E134
:1029300080B609D0056B640E045D02E2042B2BD037
:10294000046B050E16D080B409D0046B640E055DCF
:1029500002E2052B20D0056B040E0BD004510508B4
:1029600003E2046B030E05D00551050804E2056B74
:10297000020E036F10D0046B056B0DD08050080B56
:102980000AE08050040B07E0140E065D02E2062BFD
:1029900002D0066B036B0A0E0901AC5D01E2AC2BA1
:1029A0000A0EAD5D01E2AD2B0401E80E385D030EA9
:1029B000395904E2382B000E3923B2D0010E386F9A
:1029C000396B366F0501150507E11451000802E265
:1029D000140702D08D90156B070189510EE0090193
:1029E00084050BE1070189510901825D02E2822B16
:1029F00006D0010E826F836F02D00901836B07013D
:102A00009051000805E209018151000801E28107A7
:102A10000501005137E00601162B000E172318237D
:102A20003B0E195D02E2192B16D0196B3B0E1A5D95
:102A300002E21A2B02D01A6B1B2B0901910504E14B
:102A400006011C2B000E1D230401000504E10601F4
:102A50001E2B000E1F230601010E246F16C660F602
:102A6000080E85EC3EF003E05AEC3DF0FDE12CC091
:102A700061F6100E85EC3EF003E05AEC3DF0FDE10E
:102A80002CC062F606014B51000805E24B074B5182
:102A900002E1010E4C6F0901700536E10601D88094
:102AA000000E1655000E1755000E18552BE216078E
:102AB000000E175B185B1951000802E219070DD0D0
:102AC0003B0E196F1A51000802E21A0706D03B0E9E
:102AD0001A6F1B51000801E21B0716C660F6080EAC
:102AE00085EC3EF003E05AEC3DF0FDE12CC061F6D0
:102AF000100E85EC3EF003E05AEC3DF0FDE12CC0F9
:102B000062F602D00901706B110E0501005D08E04C
:102B10000701CC51000802E2CC0702D0010ECB6FB6
:102B20000901000ED8807F55000E805504E27F0712
:102B3000000E805B02D0010E7E6F0501125100086D
:102B400003E2120701D0BA949D50200B22E09E5060
:102B5000200B1FE00A0E0901AC5D03E1966B48EC07
:102B600043F0965116EC46F0AECFEFFFABA202D089
:102B7000AB98AB8896512C6E2D6AD8902D5004E6F8
:102B8000860E2C5C000E2D5801E2962BAC6B010ECC
:102B90009A6F9D50100B15E09E50100B12E009012A
:102BA0009851945D07E2945137EC47F0EF50AD6EC9
:102BB000942B07D0966B48EC43F0010E9C6F9D98C8
:102BC0009D8AA350200B24E0A450200B21E00A0E84
:102BD0000901AD5D03E1976B4DEC43F097511CEC9F
:102BE00046F01DCFEFFF0F0122A302D022992289C8
:102BF000090197512C6E2D6AD8902D5004E6860E4F
:102C00002C5C000E2D5801E2972BAD6B010E9B6FD3
:102C1000A350100B15E0A450100B12E009019951BC
:102C2000955D07E2955122EC46F0EFCF1CFF952B06
:102C300007D0976B4DEC43F0010E9D6FA398A38ACC
:102C4000030EE15C02E2E16AE552E16EE552E7CF94
:102C5000D9FFE55200EE17F0180EE80403E3E5CFC4
:102C6000EDFFFBD700EE2BF0140EE80403E3E5CFF5
:102C7000EDFFFBD7E5CFFBFFE5CFFAFFE5CFF4FF94
:102C8000E5CFF3FFE5CFF5FFE5CFF8FFE5CFF7FFA1
:102C9000E5CFF6FFE5CFEAFFE5CFE9FFE5CFDAFFC5
:102CA000E550E5CFE0FFE5CFD8FF1000DACFE4FF35
:102CB000E6529D50020B26E09E50020B23E09E92AE
:102CC000070E09017C5D02E27C2B01D07C6B7B51FD
:102CD000D8807C550AE274C978FF78C972FF7639CA
:102CE000F00B0C09776E7A3909D073C978FF77C970
:102CF00072FF7539F00B0C09776E7939F00B0C09FE
:102D0000716E01D09E92B950100B3DE0BA50100B7D
:102D10003AE0BA980F0E05010B5D06E20B2B0A5143
:102D20000B5D08E38D9806D00B6B0B51D8800A55CC
:102D300001E28D88070507E10F0E0B5D25E10851C3
:102D400000080AE31BD0020E075D1EE10F0E0B5DAB
:102D50001BE10851000802E2080716D0320E086F86
:102D60000F01375D03E14B0E376F0ED0320E376F18
:102D700005010951000802E2090706D0076B0F019F
:102D80003695B99801D0BA98E552E5CFDAFF11002F
:102D9000700ED36E9B8CD1909268896AF00E936E00
:102DA0008A6A850E946E300E8B6E8B88956A8C6A5B
:102DB000800E966E8D6AFC0E976E8E6A340E986E3B
:102DC0008F6AC00E996E906A9A6A020E916E0F0118
:102DD000A00E256FCF0E246F236B1D0EC26EC16A2D
:102DE000BE0EC06ED08EFA0E3A6F1E0E396FD294A0
:102DF000BA94B994010EE66E33EC34F0E5520F014B
:102E0000190E376F020E366FD288BA98B998556B83
:102E1000579F56916596330EAF6E220EAC6E900E94
:102E2000AB6E9F989D989F9A9D8A2097330E1E6F38
:102E3000220E216F900E226FA598A398A59AA38ABF
:102E4000120011EC3CF0040EE1260801B36B050101
:102E5000006B016B060E026F036B046B056B066B58
:102E6000076B086B096B0A6B0B6B40EC41F0146B42
:102E7000156B166BDE6ADD6A49EC41F005E2A7ECE2
:102E800049F0FAE3DB2AF8D70501306B316B326B7E
:102E9000336B346B356B366B376B386B396B65EC7A
:102EA0003DF0F7EC94F00701C86FD4EC44F062EC0D
:102EB00045F00501E66BE76BE86BE96BEA6BEB6BE2
:102EC000EC6BED6BEE6BEF6BF06BF16BF26BF36B2E
:102ED000F46BF56BF66BF76BF86BF96BE9EC3CF0A8
:102EE000D8EC3BF005E2AEEC49F0FAE3DB2AF8D788
:102EF00019EC3DF03B6B4DEC41F0446BCBEC48F0F2
:102F0000D8EC3BF005E2B5EC49F0FAE3DB2AF8D760
:102F1000C3EC3FF0DE6ADD6AD8EC3BF01CE2DDEC8E
:102F20003BF055EC3CF0FDE128EC46F03CEC45F084
:102F300055EC3CF0FDE1760EE926040E3CEC45F044
:102F400055EC3CF0FDE1860EE926040EA3EC3CF0C6
:102F5000E3E3DB2AE1D70401ADEC3EF0D8EC3BF033
:102F60003BE2DDEC3BF055EC3CF0FDE17EEC40F06B
:102F7000DDEC3BF055EC3CF0FDE183EC40F0DDECAA
:102F80003BF055EC3CF0FDE1C30EE926040E3CECB1
:102F900045F055EC3CF0FDE188EC40F0DDEC3BF019
:102FA00055EC3CF0FDE1E30EE926040ECBEC49F0D4
:102FB000CFEC44F0F30EE926040EEA22EF6ADDECD2
:102FC0003BF055EC3CF0FDE1000EE926060EA3ECCB
:102FD0003CF0C4E3DB2AC2D70601106B116B126B05
:102FE000136B010E146F156BE66E000EE66EE66A4B
:102FF000DAEC7FF0B7EC45F006013CEC4AF085ECEA
:1030000044F020C03DF621C03EF606013F6B406B08
:10301000416B426B436B446B456B466B476B486B34
:10302000496B4A6B4B6B4C6B4D6BDE6ADD6AE6ECB1
:1030300044F0690EE2EC46F00AE2CFEC44F0520EA6
:10304000E926060E61EC3EF0F2E3DB2AF0D706013A
:10305000BD6BBE6BDE6ADD6AE6EC44F00B0EE2ECA3
:1030600046F00DE2DDEC3BF055EC3CF0FDE1BF0E2F
:10307000E926060EA3EC3CF0EFE3DB2AEDD70601D0
:10308000D0EC3FF0D8EC3BF00CE2DDEC3BF055EC43
:103090003CF0FDE162EC47F0A3EC3CF0F3E3DB2A0B
:1030A000F1D722EC40F0D8EC3BF015E2DDEC3BF040
:1030B00055EC3CF0FDE1030EE926090E3CEC45F031
:1030C00055EC3CF0FDE1AE0EE9260D0EA3EC3CF014
:1030D000EAE3DB2AE8D78CEC3FF05FEC41F00CE24E
:1030E000DDEC3BF055EC3CF0FDE113EC4AF0A3ECD9
:1030F0003CF0F3E3DB2AF1D7BAEC42F0D8EC3BF03A
:103100000DE2DDEC3BF055EC3CF0FDE15D0EE92617
:10311000090EA3EC3CF0F2E3DB2AF0D709016D6B5A
:103120006E6B6F6B706B716B726B6BEC3EF0836BE5
:10313000846BDDEC3FF0916B926B936B946B956BB2
:10314000966B976B986B996B9A6B9B6B9C6F9D6F53
:103150009E6B9F6BA06BA16BA26BA36B48EC43F0C3
:103160004DEC43F0AC6BAD6BBEEC3EF0BE6B2EECA9
:1031700040F0956B966B976B986B996B9A6BD6EC4E
:1031800040F0A46BA56BA66B67EC42F00701C36B24
:10319000C1EC42F0CB6B0A0ECC6FCD6BCE6BCF6B1C
:1031A000E06BE16BE26BE36BDE6ADD6AE6EC44F058
:1031B000000E005C010E015818E2CFEC44F0000E46
:1031C000E926020EEA22EF6ACFEC44F0000EE9266F
:1031D000010EEA22EF6ACFEC44F0000EE926030E5E
:1031E00061EC3EF0E3E3DB2AE1D7DE6ADD6AE6EC80
:1031F00044F0870EE2EC46F00AE2CFEC44F0600EB9
:10320000E926000E61EC3EF0F2E3DB2AF0D713EC86
:1032100088F07BEC88F05BEC89F0D7EC87F02CEC45
:1032200046F0800EE66E030EE66E3AEC84F0E55250
:10323000E5520A01786F8D908B888B8A91829190EC
:103240008D8293888B96B3EC42F063EC41F0AD69CC
:10325000040EE15C02E2E16AE552E16E1AEF3CF035
:10326000FFEC45F00501046B056B066B40EC41F08B
:10327000166BDE6ADD6A49EC41F005E2A7EC49F025
:10328000FAE3DB2AF8D7E9EC3CF0D8EC3BF005E2B6
:10329000AEEC49F0FAE3DB2AF8D719EC3DF04DEC3F
:1032A00041F0CBEC48F0D8EC3BF005E2B5EC49F04E
:1032B000FAE3DB2AF8D7C3EC3FF0ADEC3EF0D8ECF4
:1032C0003BF02AE2DDEC3BF055EC3CF0FDE17EEC1E
:1032D00040F0DDEC3BF055EC3CF0FDE183EC40F0E0
:1032E000DDEC3BF055EC3CF0FDE1C30EE926040EAD
:1032F0003CEC45F055EC3CF0FDE188EC40F0DDECB9
:103300003BF055EC3CF0FDE1000EE926060EA3EC87
:103310003CF0D5E3DB2AD3D70601106B116B126B9F
:103320003CEC4AF04B6B4C6B4D6BD0EC3FF0D8EC67
:103330003BF00CE2DDEC3BF055EC3CF0FDE162ECE7
:1033400047F0A3EC3CF0F3E3DB2AF1D722EC40F0AA
:10335000D8EC3BF015E2DDEC3BF055EC3CF0FDE148
:10336000030EE926090E3CEC45F055EC3CF0FDE17E
:10337000AE0EE9260D0EA3EC3CF0EAE3DB2AE8D71B
:103380008CEC3FF05FEC41F00CE2DDEC3BF055ECF7
:103390003CF0FDE113EC4AF0A3EC3CF0F3E3DB2A54
:1033A000F1D7BAEC42F0D8EC3BF00DE2DDEC3BF0AB
:1033B00055EC3CF0FDE15D0EE926090EA3EC3CF076
:1033C000F2E3DB2AF0D709016D6B6E6B6F6B6BEC70
:1033D0003EF0DDEC3FF0BEEC3EF02EEC40F0D6ECE3
:1033E00040F067EC42F00701C1EC42F0CF6BE36BB9
:1033F000E06BC2CDE6FFF5EC8AF0E55263EC41F0FC
:10340000020EE15C02E2E16AE552E16E1AEF3CF085
:10341000F1EC47F0010EE66E020E6FEC42F0010E89
:1034200046EC3CF0010EDB6A05EC40F0040EDB6A72
:10343000050EDB6A060EDB6ADF6A080EDF5C1BE244
:10344000010EE66EC80EFAEC3FF070EC1EF047C6B7
:1034500000F048C601F0026A32EC45F0C8EC42F0D8
:1034600049C600F04AC601F0026AEBEC44F0C8EC31
:1034700042F0DF2AE2D732EC45F0030EE76E75EC3E
:1034800042F0FDE1EBEC44F0030EE76E75EC42F028
:10349000FDE1030E0501005D09E0070E005D06E099
:1034A0000B0E005D03E00F0E005D0AE1CFEC42F071
:1034B00000C5E6FF3AEC33F0B7EC45F00501006FCC
:1034C000080EF5EC41F0010EE66E33EC34F0E552F7
:1034D00095C704F096C705F0066A076AF4EC3EF05B
:1034E000E0EC40F095C723F096C724F0D6EC42F00C
:1034F0001AC0C4F71BC0C5F71CC0C6F71DC0C7F76C
:10350000D880400E07011A54D70E1B54D20E1C54FB
:10351000470E1D5408E2400EC46FD70EC56FD20E81
:10352000C66F470EC76FCFEC42F0010EDBCFE6FF50
:10353000020EDBCFE6FF70EC25F0B7EC45F0E5526C
:103540002CEC46F00D01990507E1AAEC38F0F3CF19
:1035500097FDF4CF98FD03D0FA0E976F986B0D018D
:103560009A6B05010051040A01E114D30C0A01E130
:1035700011D3040A01E10ED31C0A01E10BD3130A93
:1035800001E122D2040A01E11FD20C0A01E11CD29E
:10359000040A01E119D20D0A01E1A7D1040A01E1EF
:1035A000A4D10C0A01E1A1D1040A01E19ED10B0AC8
:1035B00001E195D00C0A01E192D0040A01E18FD01B
:1035C0000C0A01E0E7D2FAEC41F095EC45F0C26F4D
:1035D000A2EC46F002E2FFEC41F04BEC3FF004E2DB
:1035E000E6EC46F0450E0AD004EC42F004E2E6ECCC
:1035F00046F0460E03D0A8EC3CF0470E83EC48F0B2
:10360000086A300E096E8E0E0A6E450E0B6E03C4EC
:1036100021F0CFEC49F02EEC3BF041EC4AF0DCEC31
:1036200042F033E29951B85D9A51B9592EE2010E38
:10363000B61907E1B75105E10D010A0E9FEC42F002
:1036400016E30701020EB61907E1B75105E10D01B6
:103650003C0E9FEC42F00BE30701030EB61915E197
:10366000B75113E10D016E0E9FEC42F00EE207011F
:10367000B851995D0401326F0701B9519A5904019B
:10368000336F0D01010E9A6F04D099C732F49AC7B7
:1036900033F4DF6AB2EC3FF00CE2A1EC3AF0010E39
:1036A00084EC43F042EC49F0EA220FEC40F0DF2AD0
:1036B000F1D700EC3CF057EC43F0016A33C4A9F6B3
:1036C000AAEC40F053EC49F003E232EC44F002D0B3
:1036D00017EC4AF00FEC49F001E303D100D10901E6
:1036E00091052DE10701A651A71124E1FAEC41F063
:1036F000140E256E266A93C720F094C721F029EC9A
:10370000C2F020C029F421C02AF40401140E205C68
:10371000000E215804E2140E296F2A6B2AD0F40EF1
:10372000D8802955010E2A5524E2F40E296F010E86
:103730002A6F1FD0A6C729F4A7C72AF41AD0FAEC1B
:1037400041F00D0E0501005D11E1020E0701915DD2
:103750000DE172EC3BF0210E37EC3AF0210EB8ECA3
:103760003AF0210E9CEC49F0210E02D095EC45F088
:10377000C26FA2EC46F002E2FFEC41F04BEC3FF0EE
:1037800004E2E6EC46F0450E11D004EC42F003E210
:1037900007EC3DF005D0A3EC42F005E114EC40F05D
:1037A000066E460E03D0A8EC3CF0470E83EC48F0C2
:1037B000A3EC42F005E1046A400E056E030E0ED044
:1037C000090E005D05E1086A400E096E1C0E0ED060
:1037D000090E0701915D06E1F0EC41F0066E470E1F
:1037E000076E0BD0086A300E096E8E0E0A6E450EFB
:1037F0000B6E91C721F0CFEC49F02EEC3BF0B9EC09
:1038000048F041EC4AF0090E0501005D03E00D0EA1
:10381000005D58E1090E005D06E1090191053EE1F8
:1038200018EC3EF044D0DCEC42F039E29951B85D3E
:103830009A51B95934E2010EB61907E1B75105E1C1
:103840000D010A0E9FEC42F016E30701020EB619B5
:1038500007E1B75105E10D013C0E9FEC42F00BE38F
:103860000701030EB6191AE1B75118E10D016E0EEA
:103870009FEC42F013E20701B851995D026E9A5134
:10388000B955036E66EC47F002C025F003C026F080
:1038900069EC46F00D01010E9A6F09D0070166EC44
:1038A00047F099C725F09AC726F069EC46F034C472
:1038B00020F0D5EC49F034C4A8F635C400F0016A14
:1038C00035C4A9F6F6EC47F053EC49F003E232ECCC
:1038D00044F002D017EC4AF00FEC49F002E2EBECB6
:1038E00041F00D6B0E6B010E53D1FAEC47F00E0E4A
:1038F000005D11E10701915101080DE272EC3BF00E
:10390000220E37EC3AF0220EB8EC3AF0220E9CEC84
:1039100049F0220E0CD072EC3BF0070E37EC3AF077
:10392000070EB8EC3AF0070E9CEC49F0070E9AEC43
:103930003FF002E266EC3EF07EEC3DF054EC48F0E5
:103940005CEC43F003E270EC46F002D0C4EC44F0CF
:10395000276EB9EC48F006EC4AF0E3EC43F005ECD6
:1039600049F094EC46F0020E0501005D10E19BC7A2
:1039700032F49CC733F4DF6AB2EC3FF005E2A1EC0D
:103980003AF02CEC3FF0F8D757EC43F008D0060E95
:10399000005D03E1EAEC46F005D0D8EC48F0016A9E
:1039A00000C0A9F650EC47F0016A26C4A7F604014E
:1039B000E80E0F6F030E106F8B9A919233EC46F066
:1039C00030EC3FF0020EE4D0FAEC47F00F0E005D51
:1039D0000DE172EC3BF0260E37EC3AF0260EB8EC17
:1039E0003AF0260E9CEC49F0260E0CD072EC3BF01F
:1039F000250E37EC3AF0250EB8EC3AF0250E9CEC8B
:103A000049F0250E9AEC3FF002E266EC3EF07EECC7
:103A10003DF054EC48F061EC43F004E2E6EC46F093
:103A2000C50E12D066EC43F003E207EC3DF006D081
:103A3000070E0501005D05E114EC40F0066EC60EB0
:103A400003D0A8EC3CF0C70EC8EC44F006EC4AF0FA
:103A50003DC64CF43EC64DF419EC49F07CEC49F0FF
:103A6000E80E0026030E0122000E022200C090FD87
:103A700001C091FD0D01010E926F030E0501005D65
:103A800010E19BC732F49CC733F4DF6AB2EC3FF01D
:103A900005E2A1EC3AF02CEC3FF0F8D757EC43F0FC
:103AA00008D0070E005D03E1EAEC46F005D0D8EC43
:103AB00048F0016A00C0A9F68BC720F08CC721F03E
:103AC000A2EC47F0E9EC48F020C0F1F621C0F2F694
:103AD000010E0601F127000EF22350EC47F0016AB7
:103AE00026C4A7F67CEC49F032EC45F08DEC40F0B2
:103AF00013E2040EDBCF04F0050EDBCF05F0060E5B
:103B000063EC49F0010EDBCF0BF0020EDBCF0CF0C3
:103B1000030E6FEC48F014D0CEEC41F0010EDBCF79
:103B20000CF0020EDBCF0DF0030E22EC45F0040E7C
:103B3000DBCF13F0050EDBCF14F0060E3EEC48F0A1
:103B40004FEC3FF056EC44F020C009F421C00AF4D9
:103B5000070EDB50006E016A04012050005C21500A
:103B6000015809E2070EDB50006E016AE850095F58
:103B700001500A5B02D0096B0A6B16EC3FF002E2BF
:103B8000EBEC41F033EC46F004010D6B0E6B030ED1
:103B9000066F0AD00601986B996B8B8A9182938885
:103BA0008B9630EC3FF0066B076B056B09015A51A1
:103BB00002E05A0501D0100E5B6F5C6B0401626B72
:103BC00009C49CF60AC400F0016A43EC43F00EC439
:103BD00000F0016A0EC49FF6080EE15C02E2E16AA1
:103BE000E552E16E1AEF3CF011EC3CF0C5EC3DF013
:103BF000FE0EDB500DE13F6BDF6A080EDF5C05E275
:103C000097EC3CF0EF6ADF2AF8D7D8EC3EF005D00D
:103C1000FE0EDB0402E1010E3F6F8B8A91829388D6
:103C20008B96FD0EDB5008E1050114510CE1780E76
:103C3000146F010E156F07D0FD0EDB0404E10501C2
:103C4000146B156B8D80FC0EDB5002E18B8804D069
:103C5000FC0EDB0401E18B9804EC48F00901B66B23
:103C6000B76BB86BBA6BBB6BBC6BBD6B74EC46F0DF
:103C700003E0BBEC45F0FDE17AEC46F003E0BBEC81
:103C800045F0FDE100C05FF609C49CF6016A43EC13
:103C900043F0016A0EC49FF6E5521AEF3CF011ECB6
:103CA0003CF0C5EC3DF03F6BDF6A080EDF5C05E2DF
:103CB00097EC3CF0EF6ADF2AF8D704EC48F074EC9C
:103CC00046F003E0BBEC45F0FDE17AEC46F003E0A2
:103CD000BBEC45F0FDE100C05FF6E5521AEF3CF0A9
:103CE00009EC48F030C520F031C521F034ECB9F0D2
:103CF0002EEC3AF05EC524F05FC525F060C526F0D5
:103D000061C527F0C7EC48F02EEC3BF07DECB9F034
:103D1000060E1FC0DBFF070E20C0DBFF080E21C010
:103D2000DBFF090E22C0DBFFAFEC3DF0246A256A01
:103D3000266A276AA9EC43F0FFECBBF0010A11E107
:103D4000060EDBCF1FF0070EDBCF20F0080EDBCF17
:103D500021F0090E0EEC48F020C0E6F521C0E7F591
:103D600003D00501E66BE76B32C520F033C521F0C7
:103D70005AEC45F020C0E8F521C0E9F534C520F043
:103D800035C521F097EC48F0300E246E9E0E256E5E
:103D9000710E82EC49F020C0EAF521C0EBF536C582
:103DA00020F037C521F05AEC45F020C0ECF521C0D9
:103DB000EDF50501E651EA5DE751EB5906E2EA51FE
:103DC000E65DEE6FEB51E75905D0E651EA5DEE6F27
:103DD000E751EB59EF6FE851EC5DE951ED5906E21F
:103DE000EC51E85DF06FED51E95905D0E851EC5D1B
:103DF000F06FE951ED59F16FE6C5F2F5E7C5F3F55E
:103E0000040E8CC9DBFF050E8DC9DBFF47C603F02E
:103E100048C604F0056A8CC906F08DC907F0086A27
:103E20000650035C006E07500458016E0850055898
:103E3000026E080E246E256A266A2AEC49F0D3EC3D
:103E4000BAF0A5EC47F0010E1FC0DBFF020E20C048
:103E5000DBFF030E21C0DBFF8CC903F08DC904F02A
:103E6000056A32EC45F00350EE24006E0450EE205B
:103E7000016E0550EE20026E00C08CF901C08DF974
:103E800054EC47F007E6D880B80E0054880E015471
:103E9000000E025406E2040EDBCF8CF9050EDBCFD8
:103EA0008DF909018C518E5D8D518F5904E28CC9B9
:103EB0008EF98DC98FF938C520F039C521F046EC4F
:103EC0004AF020C0F4F521C0F5F58CCD20F08DCD61
:103ED00021F046EC4AF020C03BF621C03CF631EC24
:103EE00049F020C047F621C048F6B2C908F0B3C96E
:103EF00009F0040ED89009320832E804FBE108C04A
:103F000020F009C021F00DEC44F020C0B4F921C02C
:103F1000B5F945C620F046C621F0A2EC47F0DDEC2D
:103F20003CF020C049F621C04AF693EC38F0F3CFBC
:103F300095FDF4CF96FD0D01580EF35C020EF4587A
:103F400005E20701600EE16FEA0E22D08A0E955D50
:103F5000020E965919E295CDE1F796CDE2F70701E9
:103F6000940ED880E157020EE257E80EE203F3CF39
:103F7000E2F7030EE103F350E227E80EE103F3CF8B
:103F8000E1F7F450E22705D00701100EE16F270E8C
:103F9000E26FEEC5AEF6EFC500F0016AEFC5AFF611
:103FA000F0C5B0F6F1C500F0016AF1C5B1F6B4C9CB
:103FB00059F6B5C900F0016AB5C95AF6F4C555F607
:103FC000F5C500F0016AF5C556F649C657F64AC66A
:103FD00000F0016A4AC658F695CDA0F696CD00F0DD
:103FE000016A96CDA1F60A0EE15C02E2E16AE552B1
:103FF000E16E1AEF3CF011EC3CF0100EE1260501E9
:10400000005103E104EC48F0C5D093A829D054EC4A
:104010003EF0AFEC3AF049EC3EF02EEC3AF0ACEC6E
:1040200047F07CEC3BF03AEC40F0800E211403E0CA
:104030009C6B9D6B9E6B09015C0510E13EEC46F0AC
:1040400049EC3EF02EEC3AF0B4EC46F07CEC3BF060
:1040500044EC40F0800E21143BE037D0040135D011
:1040600054EC3EF0AFEC3AF0F9EC44F0F5EC44F0EF
:10407000ACEC47F026EC3CF03AEC40F02134000E7A
:10408000211802E6B8EC3DF003E29C6B9D6B9E6B41
:1040900009015C0519E13EEC46F0F9EC44F0F5EC61
:1040A00044F0B4EC46F026EC3CF044EC40F0213413
:1040B000000E211807E6D880000E9955000E9A557B
:1040C000000E9B5505E201D00401996B9A6B9B6B26
:1040D000990EE96E040EEA6EEE509C5D006EEE5095
:1040E0009D59016EEE509E59026E070E00C0DBFF17
:1040F000080E01C0DBFF090E02C0DBFF9F5123E168
:1041000073EC40F0FF0E021807E6D880EC0E005466
:10411000FF0E0154FF0E025413E2D950070F93EC27
:104120003CF0020ED890EB50000A06E6140EEE5C4E
:10413000000EEE58000EEF5803E2010E9F6F24D0E0
:10414000E3EC42F027D0D950070F93EC3CF0020E7D
:10415000D880EB50FF0A06E6380EEE5CFF0EEE58F4
:10416000FF0EEF580DE373EC40F0000E021807E667
:10417000D880C80E0054000E0154000E025404E210
:10418000E3EC42F09F6B06D099C496F49AC497F47E
:104190009BC498F496519711981104E10501F66BB0
:1041A000F76B5FD09835FF0E981907E6D880380E68
:1041B0009655500E9755FF0E985553E2D89098514A
:1041C000000A06E6C80E965DAF0E9759000E985984
:1041D00048E2800E981510E0D6EC3CF02468256883
:1041E0002668AFEC47F01EECBBF00E0E1CC0DBFFE8
:1041F0000F0E1DC0DBFF06D00E0E96C4DBFF0F0EA8
:1042000097C4DBFFB4C904F0B5C905F0066A076AB4
:104210000E0EDBCF00F00F0EDBCF01F0026AE0ECF8
:1042200040F0B4C923F0B5C924F0D6EC42F01AC06E
:104230001EF01BC01FF01CC020F01DC021F0400E5E
:10424000236E420E246E0F0E256E266AE8ECC1F036
:104250001EC0F6F51FC0F7F5010E0501F627000E8A
:10426000F7230501000ED880F455000EF55565E2E0
:104270000701CD0517E1EAEC42F0AFEC3AF0F3ECC0
:104280003DF050EC44F0F5EC44F08EEC48F0C7EC17
:1042900048F0F4C520F0F5C521F095EC49F03DEC6F
:1042A0003DF016D0EAEC42F02EEC3AF0F4C520F0E6
:1042B000F5C521F034ECB9F0BEEC48F044EC44F024
:1042C000F3EC3DF0F2EC46F062EC4AF066ECBAF04A
:1042D0000A0E1FC0DBFF0B0E20C0DBFF0C0E21C03F
:1042E000DBFF0D0E22C0DBFFF0EC42F00C0EDBCF4B
:1042F00002F00D0EDBCF03F0246AE80E256E7D0E72
:10430000266E470E276EA9EC43F008ECBCF0010ABC
:1043100014E10A0EDBCF1FF00B0EDBCF20F00C0EEA
:10432000DBCF21F00D0EDBCF22F096ECBBF01FC0EF
:10433000ABFD20C0ACFD21C0ADFDFBEC46F0C8ECF0
:10434000BBF01EC0DEFF1FC0DEFF13EC3EF0DD52EF
:10435000DD5293A852D09CC4AAF6080E1F0B5FEC46
:104360003FF003E0BBEC45F0FDE100C0ABF6100E02
:104370001F0B5FEC3FF003E0BBEC45F0FDE100C03C
:10438000ACF674EC46F003E0BBEC45F0FDE17AECF2
:1043900046F003E0BBEC45F0FDE100C05FF6040130
:1043A0009835000E981907E6D880000E9655000E35
:1043B0009755000E985505E2B6EC47F0450EB9EC5E
:1043C00046F0000EDFCF64F62FEC3CF0080E04EC54
:1043D00046F0FDE100C065F62FEC3CF0100E04EC59
:1043E00046F0FDE100C066F62FEC3CF0180E04EC40
:1043F00046F0FDE100C067F680D098C402F0006A84
:10440000016A800E021600500AE1015008E1800E98
:10441000021805E1D6EC3CF0CAEC45F009D0040ED8
:1044200096C4DBFF050E97C4DBFF060E98C4DBFFC6
:10443000040EDBCF5DF6080E0AEC49F003E0BBEC9E
:1044400045F0FDE100C05EF6100E0AEC49F003E015
:10445000BBEC45F0FDE100C05FF69EC402F0006ACF
:10446000016A800E021600500AE1015008E1800E38
:10447000021805E15FEC3FF0CAEC45F005D0FEEC18
:1044800042F0060E9EC4DBFF040EDBCFAAF6080E38
:104490000AEC49F003E0BBEC45F0FDE100C0ABF6EF
:1044A000100E0AEC49F003E0BBEC45F0FDE100C062
:1044B000ACF60401800E981505E0B6EC47F0C50E89
:1044C000B9EC46F0000EDFCF68F62FEC3CF0080E9A
:1044D00004EC46F0FDE100C069F62FEC3CF0100E54
:1044E00004EC46F0FDE100C06AF62FEC3CF0180E3B
:1044F00004EC46F0FDE100C06BF6100EE15C02E258
:10450000E16AE552E16E1AEF3CF011EC3CF00E0E60
:10451000E1260601880ED76F130ED86FD96BDA6BC0
:10452000DB6BDC6BFE0EDB500D080CE0FE0EDB508F
:104530000E0808E0FE0EDB500F0804E0FE0EDB5014
:10454000100824E10701915100080CE29151006E1E
:10455000016AB4C920F0B5C921F091C725F07EECFD
:1045600041F004D0B4C9D5F6B5C9D6F6D5C6D7F64C
:10457000D6C6D8F6D5C6D9F6D6C6DAF6D5C6DBF68F
:10458000D6C6DCF60501F86BF96BFCD0DF6AB2EC3D
:104590003FF069E20601050E165D000E1759000E88
:1045A000185907E237EC3BF020C000F021C001F0C1
:1045B00011D0F0EC40F0EECF14F0EFCF15F037EC67
:1045C0003BF020501424006E21501520016ED8902D
:1045D0000132003285EC3BF00FEC40F085EC3BF013
:1045E00066EC3FF004E285EC3BF0EE6AED6A08EC25
:1045F00046F0F0EC40F00FEC40F085EC3BF00401AD
:10460000EE50325D006EEE503359016EFEEC3EF01E
:104610000FEC40F008EC46F00601D751005CD85191
:1046200001580CE285EC3BF0EECFD7F6EDCFD8F693
:1046300097EC3CF0EF5002E1DFCF00F908EC46F0D8
:104640000050D95D0150DA5906E285EC3BF0EECF1F
:10465000D9F6EDCFDAF685EC3BF0EE50DB27EE50E5
:10466000DC23DF2A94D70351006E016ADBC620F0F9
:10467000DCC621F003C425F07EEC41F00601D951DF
:10468000D75DDA51D8590AE2D751D95D0501F86FE3
:104690000601D851DA590501F96F03D00501F86B0D
:1046A000F96BFE0EDB040CE0FE0EDB50020808E0A6
:1046B000FE0EDB50030804E0FE0EDB5004082EE182
:1046C0000901B4510601DB5D0901B5510601DC5950
:1046D0000AE2DB510901B45D0601DD6FDC5109011D
:1046E000B559060109D00901B4510601DB5DDD6F42
:1046F0000901B5510601DC59DE6FF40ED880DD5595
:10470000010EDE550BE2040E0901025D02E2022BEE
:1047100007D00401200EC0EC3DF002D00901026B6D
:104720000D01880EBE6F130EBF6FC06BC16BDF6AC9
:10473000B2EC3FF027E208EC46F0CFEC3CF00FEC97
:1047400040F0CFEC3CF00CEC3DF00D01BE51005CB4
:10475000BF51015806E2CFEC3CF0EECFBEFDEDCFED
:10476000BFFDCFEC3CF00CEC3DF00050C05D0150C3
:10477000C15906E2CFEC3CF0EECFC0FDEDCFC1FD5C
:10478000DF2AD6D70601D551BF5DD651C05905E302
:104790000A0EDB6A0B0EDB6AA6D0D551D35DD6516B
:1047A000D4590BE2E80EF36E0A0EF3CFDBFF030ED3
:1047B000F36E0B0EF3CFDBFF96D0010EDF6E0A0E09
:1047C000DB6A0B0EDB6A010EDB6A010EDB5014E1C3
:1047D0000B0EDF5C11E205EC3FF00CEC3DF0D55127
:1047E000005CD651015804E204EC47F0DF2AEDD713
:1047F000DE52010EDD6EE9D70B0EDF5C74E2DF5096
:1048000072E004EC47F005EC3FF055EC45F0DF04B6
:104810008DEC3CF0BF0EE926060EEA22EE50025C5B
:10482000006EEE5003587DEC42F005EC3FF00CECCE
:104830003DF00A0EC8EC40F00002F3CF00F0F45057
:104840000126060EF3CFDBFF070E01C0DBFF0A0EC9
:10485000206E216AD5C625F0D6C626F000ECBBF046
:10486000080E1EC0DBFF090E1FC0DBFFAFEC3DF0E2
:1048700087EC3FF015E2D9500A0F93EC3CF00A0E9A
:10488000EE5E000EED5A020EDBCF00F0030E0EECD2
:1048900042F093EC3CF00050EE5E0150ED5AE6D74A
:1048A0000A0E006E016A020EDBCF20F0030E87ECC9
:1048B00041F06BEC49F0EE50ED1015E0AFEC3DF03F
:1048C00012EC48F010E20A0EDB2A0B0E01E3DB2AA1
:1048D000040EDBCF00F0050E0EEC42F093EC3CF042
:1048E0006BEC43F0EBD70401070557E10701AE0578
:1048F00054E10401030551E0FE0EDB040AE14051DE
:104900004AE18FEC41F01CE2040E0401425D12E327
:1049100013D0FE0EDB50020804E0FE0EDB5003084D
:104920003CE1405110E18FEC41F00AE2040E040139
:10493000425D02E2422B31D0426B010E406F2DD01E
:104940000401426B2AD0415128E10701AF51060111
:10495000D95D0701B0510601DA591AE2040E0401CB
:10496000425D02E2422B16D0426B010E416FDF6ABC
:10497000080EDF5C0FE297EC3CF0EF6A3E0EDF249E
:10498000EA6A520FE96E060EEA22EF6ADF2AF0D7D2
:104990000401426B0401010E3F6FAECD70F6016A57
:1049A000AFCD71F6B0CD72F6016AB1CD73F6B2CD6E
:1049B00074F6016AB3CD75F6B4CD76F6016AB5CD5D
:1049C00077F6B6CD78F6016AB7CD79F6B8CD7AF636
:1049D000016AB9CD7BF6BACD7CF6016ABBCD7DF616
:1049E000BCCD7EF6016ABDCD7FF60A0EDBCF6EF63A
:1049F0000B0EAEEC3CF000C06FF6F0EC42F017ECA2
:104A000048F00E0EE15C02E2E16AE552E16E1AEF57
:104A10003CF011EC3CF0110EE126DF6A080EDF5C81
:104A200015E24BEC4AF0010F83EC45F066EC40F0E8
:104A3000010F7CEC44F066EC3FF006E2D950010F28
:104A40007CEC44F0EE6AED6ADF2AE8D7010EDBCF9A
:104A500070F6020EAEEC3CF000C071F6030EDBCF38
:104A600072F6040EAEEC3CF000C073F6050EDBCF20
:104A700074F6060EAEEC3CF000C075F6070EDBCF08
:104A800076F6080EAEEC3CF000C077F6090EDBCFF0
:104A900078F60A0EAEEC3CF000C079F60B0EDBCFD8
:104AA0007AF60C0EAEEC3CF000C07BF60D0EDBCFC0
:104AB0007CF60E0EAEEC3CF000C07DF60F0EDBCFA8
:104AC0007EF6100EDBCF01F001C000F001C07FF6D2
:104AD000110EE15C02E2E16AE552E16E1AEF3CF090
:104AE000F1EC47F005010051030A01E180D1040A0D
:104AF00001E17DD10C0A01E17AD1040A01E177D10B
:104B00000D0A01E13ED1040A01E13BD10C0A01E1A9
:104B100038D1040A01E135D10F0A07E0040A05E0A3
:104B20000C0A03E0040A01E003D200056BE10A016C
:104B30007A5106E0020E7A5D03E0030E7A5D0CE125
:104B40000501960EF85D000EF95924E30601D80E12
:104B5000D95D0E0EDA591EE30A017A050CE1050152
:104B6000FA0EF85D000EF95915E30601E40ED95D61
:104B70000C0EDA590FE327EC42F022E10501960E04
:104B8000F85D000EF95906E30601A40ED95D060E84
:104B9000DA5916E20901BA5113E1AEEC43F003E130
:104BA000D4EC41F002D01CEC48F00DEC3EF005E2F4
:104BB0000901BB5102E1010EBB6F0901B96B32D093
:104BC000050E0901B95D13E2AEEC43F003E1D4EC4C
:104BD00041F002D01CEC48F00DEC3EF005E209017A
:104BE000BB5102E1010EBB6F0901B92B1BD00401BF
:104BF000E80E2B6F030E2C6F0901BA5113E1010E61
:104C0000BA6F10D0AEEC43F003E1D4EC41F002D027
:104C10001CEC48F00DEC3EF005E20901BB5102E14D
:104C2000010EBB6F0D0E0501005D30E127EC42F077
:104C30000BE10401700ED8802B55170E2C5504E2A1
:104C4000700E2B6F170E3ED00A017A5106E0020E4D
:104C50007A5D03E0030E7A5D0BE10401D00ED8808B
:104C60002B55070E2C5504E2D00E2B6F070E2AD0C1
:104C70000A017A0528E10401100ED8802B55270E71
:104C80002C5521E2100E2B6F270E1CD0050E005D57
:104C90000BE10401200ED8802B554E0E2C5504E25A
:104CA000200E2B6F4E0E0ED02BC400F02CC401F042
:104CB00054EC47F002E68DEC3EF005E20401400EB4
:104CC0002B6F9C0E2C6F4EEC40F017E25AEC3CF030
:104CD00002E68DEC3EF002E241EC3DF068EC48F07B
:104CE00004012B51005C2C51015809E2020EDBCF6C
:104CF0002BF4030EDBCF2CF402D041EC3DF00DEC95
:104D00003EF002E2FFEC41F013EC42F002E299ECDB
:104D100046F05EEC48F0E3EC48F00DEC47F02FEC89
:104D20004AF006E10401C80E276FAF0E286F02D0CB
:104D3000BCEC47F004012351275D245128590AE2B5
:104D4000010E316F80EC46F00901BC5106E1010E05
:104D5000BC6F03D0316B00EC3CF0A2EC45F04FECA3
:104D60004AF016EC3CF0246A400E256E1C0E266EAE
:104D7000470E276EA5EC48F001E0D4D0AAEC40F035
:104D8000D3D0FD0EDBCF00F0FE0EDBCF01F0100E16
:104D9000005C270E015806E20401400E2F6F1F0E23
:104DA000306F0ED013EC47F0006AB40E016EC40EE3
:104DB000026E040E02EC45F01EC02FF41FC030F44A
:104DC00083EC3DF02D51F35C2E5130590DE266EC31
:104DD0003EF0B4EC40F008E27EEC3DF02DC4E6FF7E
:104DE0002EC4E6FF1CEC47F0E3EC43F098D05EECF9
:104DF00048F0DBEC49F08DC720F08EC721F095EC30
:104E000049F0A9EC43F071EC3AF006E10401C80E58
:104E10002F6FAF0E306F06D0F4EC3BF020C02FF4B4
:104E200021C030F483EC3DF0F3CF00F030C401F04A
:104E300054EC47F002E68DEC3EF004E2400E2F6F9A
:104E40009C0E306F4EEC40F017E25AEC3CF002E65C
:104E50008DEC3EF002E241EC3DF068EC48F00401DC
:104E60002F51005C3051015809E2020EDBCF2FF4C4
:104E7000030EDBCF30F402D041EC3DF02D512F5D1D
:104E80002E51305902E266EC3EF0B4EC40F002E202
:104E90007EEC3DF05EEC48F0DBEC49F00DEC47F0C9
:104EA000A9EC43F071EC3AF006E10401C80E276F5B
:104EB000AF0E286F02D0BCEC47F004012551275DEE
:104EC000265128590AE2010E316F87EC46F009019C
:104ED000BC5106E1010EBC6F03D0316B0BEC3CF012
:104EE000A2EC45F0106A116AFA0E126E430E136EB0
:104EF0005EEC48F01FC014F020C015F021C016F081
:104F000022C017F068EC3AF010C01FF011C020F07A
:104F100012C021F013C022F0A5EC48F003E1AFEC81
:104F200040F002D075EC43F0016A00C0A7F605D04E
:104F300004010B6B0C6B0F6B106B080EE15C02E253
:104F4000E16AE552E16E1AEF3CF011EC3CF0060E1E
:104F5000E12605010051020A34E0040A32E00C0A9D
:104F600030E0040A2EE00D0A2CE0040A2AE00C0AC4
:104F700028E0040A26E00E0A06E0040A04E00C0A0F
:104F800002E0040A5CE16AEC45F02EEC3AF07CECBD
:104F90003BF02BEC4AF072EC45F074EC3CF003E192
:104FA00048EC46F022E0100E206E216A3AC525F04A
:104FB0003BC526F00CEC43F03AC515F43BC516F49E
:104FC0003ED06AEC45F0AFEC3AF037EC49F0F5EC46
:104FD00044F026EC3CF02BEC4AF0F9EC44F074EC95
:104FE0003CF020E148EC46F01DE168EC48F03BEC79
:104FF00049F09BEC40F0A9EC43F0DDEC3CF013EC05
:105000003EF0020EDBCF1FF0030EDBCF20F0040ECC
:10501000DBCF21F0050E0EEC48F020C015F421C0C6
:1050200016F40DD0100E206E216A3CC525F03DC54A
:1050300026F00CEC43F03CC515F43DC516F498EC95
:1050400041F0060EE15C02E2E16AE552E16E1AEF20
:105050003CF0FFEC45F005010051030A71E0040A41
:105060006FE00C0A6DE0040A6BE00D0A4DE0040AE3
:105070004BE00C0A49E0040A47E00F0A07E0040A83
:1050800005E00C0A03E0040A01E093D0FAEC41F0D9
:1050900093C798F694C700F0016A94C799F60DEC8F
:1050A0003EF002E2FFEC41F04BEC3FF004E2E6ECB4
:1050B00046F0450E11D004EC42F003E207EC3DF05F
:1050C00005D0A3EC42F005E114EC40F0066E460E6C
:1050D00003D0A8EC3CF0470E9FEC43F013EC3EF0FD
:1050E000E6EC44F004010050485D0150495904E2E7
:1050F000DECF48F4DDCF49F4315103E1F6EC47F05F
:1051000055D080EC46F050D0E9EC3EF002E266EC7F
:105110003EF07EEC3DF05CEC43F003E270EC46F0D8
:1051200002D0C4EC44F0276EB9EC48F0E1EC49F051
:1051300004E2DECF4AF4DDCF4BF4E3EC43F02FD0B2
:10514000E9EC3EF002E266EC3EF07EEC3DF061EC14
:1051500043F004E2E6EC46F0C50E12D066EC43F0F4
:1051600003E207EC3DF006D0070E0501005D05E106
:1051700014EC40F0066EC60E03D0A8EC3CF0C70E4F
:10518000C8EC44F0E1EC49F004E2DECF4AF4DDCFB4
:105190004BF40D01010E926F0401315103E150EC0B
:1051A00047F004D087EC46F075EC43F0016A00C08C
:1051B000A7F60401000504E1006B06011E6B1F6BDE
:1051C000020EE15C02E2E16AE552E16E1AEF3CF0A8
:1051D00011EC3CF0E652DF6AB2EC3FF033E2090139
:1051E0000051DF5C04E197EC3CF0EF6A29D0C2EC9F
:1051F00046F001500318E8AE02D0033402D012EC9E
:1052000048F00BE297EC3CF0EFCF00F0320E005C80
:1052100017E297EC3CF0EF2A13D0C2EC46F00350B3
:105220000118E8AE02D0013402D087EC3FF008E26A
:1052300097EC3CF0EF50000803E297EC3CF0EF06EF
:10524000DF2ACAD7D8EC3EF0E5521AEF3CF011EC59
:105250003CF0510EE126DF6AB2EC3FF001E30AD1E7
:1052600007EC44F0ECEC47F0EECF0DF0EFCF0EF092
:1052700009EC42F034ECB9F01FC009F020C00AF08C
:1052800021C00BF022C00CF049EC3EF01FC005F02D
:1052900020C006F021C007F022C008F07CEC3BF0F3
:1052A00020EC48F088EC45F0D950010F6FEC3CF051
:1052B000030D0050CCEC3AF01FC0EEFF03C0EEFF30
:1052C00004C0EEFF07EC44F0B30EE926040E9EEC9A
:1052D00048F03DEC47F0190F7CEC44F020C0EEFFA5
:1052E00003C0EDFF07EC44F0D30EE926040E9EEC5C
:1052F00048F0DF50D6EC3AF021C003F0D950290F26
:1053000083EC45F066EC40F0290F83EC45F066EC49
:105310003FF006E2D950290F83EC45F0EE6AED6AC2
:10532000D950190F026EDACF03F0DF50020DC3EC33
:1053300047F0290F066EDACF07F0DF50020D065056
:10534000CCEC3AF0EECF04F0EFCF05F00050045C67
:105350000150055801E38CD0D950190F076EDACFF0
:1053600008F0DF50020D0750CCEC3AF0EECF05F01C
:10537000EFCF06F0D950290F096EDACF0AF0DF50CF
:10538000020D0950CCEC3AF0EE50055C026EEE5086
:105390000658036E046A100E246E270E256E266AC8
:1053A00013EC43F01EECBBF01DC003F01EC004F074
:1053B000D950390F006EDF50030D0050CCEC3AF09D
:1053C0001CC0EEFF03C0EEFF04C0EEFFD950010F7A
:1053D000036EDACF04F0DF50030D0350CCEC3AF04B
:1053E00024EC48F0EFCF02F00234000E021807E67A
:1053F000D880000E0054000E0154000E025438E212
:10540000D950010F0A6EDACF0BF0DF50030D0A50AE
:10541000CCEC3AF0EECF07F0EECF08F0EFCF09F08A
:10542000D950390F056EDACF06F0DF50030D055065
:10543000CCEC3AF0EECF02F0EECF03F0EFCF04F079
:1054400013EC43F007C024F008C025F009C026F093
:105450000CECC2F01FC000F020C001F007EC44F0DB
:10546000000EE926060EEA221FC0EEFF01C0EDFF86
:10547000DF2AF2D600C680F601C681F602C682F6A1
:1054800003C683F604C684F605C685F606C686F608
:1054900007C687F608C688F609C689F60AC68AF6D8
:1054A0000BC68BF60CC68CF60DC68DF60EC68EF6A8
:1054B0000FC68FF6DF6A080EDF5C0EE207EC44F0E1
:1054C0007EEC40F007EC44F083EC40F007EC44F055
:1054D00088EC40F0DF2AEFD7510EE15C02E2E16A8E
:1054E000E552E16E1AEF3CF011EC3CF0270EE1269C
:1054F0000901715103E1030E7AEC43F00A017A517C
:10550000080A6BE00F0A67E0010A54E0030A4DE065
:10551000010A49E0070A38E0010A28E0030A12E01C
:10552000010A61E1800EB9EC40F0250EDB6AE66A03
:10553000C0EC82F0E552DF6A080EDF5C54E27BECDF
:1055400045F0FAD7C00EB9EC40F0250EDB6A010E2B
:10555000DAEC41F0080EDF5C46E2066A200E076EC8
:10556000800E086E450E1AEC3AF0F4D7240EDB6A72
:10557000010E18EC42F0020EDAEC41F0080EDF5C8E
:1055800032E27BEC45F0FAD7400EB9EC40F0010E68
:1055900018EC42F0030EDAEC41F0080EDF5C23E277
:1055A0007BEC45F0FAD7800E01D0C00EB9EC40F08C
:1055B000010E17D0240EDB6A020E18EC42F0DF6AEF
:1055C000080EDF5C10E2066A076AFA0E086E440EE7
:1055D0001AEC3AF0F5D7400E01D0800EB9EC40F04D
:1055E000020E18EC42F0020EDB6A010EF36E260E7C
:1055F000F3CFDBFF140EF36E020E1DEC42F00AE255
:10560000260EDB0407E1B3EC33F0E76E260E6EECFA
:1056100047F0F0D7260EDB5001E07BD28B98010ECD
:1056200046EC3CF00401446B4451FEE0230EDB6A7F
:10563000DF6A030EDF5C01E37DD20401446B445159
:10564000FEE031EC49F0E7EC49F060EC3DF00F0191
:10565000EFEC44F0EF6A010EDB6A080EF36E010E08
:105660001DEC42F001E387D0010EEA6ADB34FE0B49
:10567000EA36E96E28EC46F071EC44F0010EDB509E
:105680008CEC43F0F5EC44F0010EDB50D6EC3AF034
:1056900060EC40F0F3EC45F066EC40F0F3EC45F0E4
:1056A00066EC3FF005E2D950F3EC45F0EE6AED6AA6
:1056B00022EC47F05DE127EC42F012E1B2EC44F05D
:1056C0009BEC3EF055E240EC45F055EC45F0D00E39
:1056D000025C070E03584CE2F8EC45F041E044D080
:1056E0007A5106E0020E7A5D03E0030E7A5D1DE159
:1056F000B2EC44F072EC3FF03BE240EC45F0A1EC40
:1057000041F036E2D950050F016EDACF02F0DF50DA
:105710000F010124E96E000EDA20EA6EEFCF00F0EF
:10572000010EDB50005C20E11BD07A050EE1B2ECEB
:1057300044F09BEC3EF01CE240EC45F0A7EC41F05D
:1057400017E2F8EC45F010E10BD0B2EC44F0140E87
:10575000D880EE54050EED540BE2F8EC45F004E170
:105760008EEC46F0EF2A04D00AEC4AF0130EEF6EEE
:10577000010EDB2A72D705010051090A01E118D197
:10578000030A01E115D1060A01E112D1070A01E17C
:105790000FD1060A01E10CD1030A01E109D1010A86
:1057A00001E106D10A0A01E1C7D0030A01E1C4D030
:1057B0000E0A01E1C1D00F0A01E1BED0060A07E0DE
:1057C000030A05E0060A03E0070A01E0A0D122EC83
:1057D00047F001E09CD160EC3DF0E1EC3BF0EF5094
:1057E0005DE127EC42F01DE19EEC46F09BEC3EF0C3
:1057F00007E253EC3DF0D00E005C070E01581DE3AC
:10580000040E0501005D44E19EEC46F09BEC3EF089
:105810003FE253EC3DF0800E005C3E0E015838E252
:1058200026D09EEC46F072EC3FF00AE253EC3DF0DD
:10583000C60E005C110E015803E20701010E19D0DB
:10584000040E0501005D24E19EEC46F072EC3FF091
:105850001FE253EC3DF0026AD8900250000A06E6BF
:10586000B80E005C880E0158000E025811E20701C4
:10587000090E916FD950050F6FEC3CF00F01E1EC70
:105880003BF0010EEF6EF36E230EF3CFDBFF3FD143
:10589000D9501C0F6FEC3CF00F0135D1180EDB6AAC
:1058A000190EDB6A010EDB6A60EC3DF0E1EC3BF0C7
:1058B000EF50F36E010E1DEC42F00FE2D950080FCD
:1058C000026E1EEC40F0C3EC47F0180F93EC3CF076
:1058D0006BEC43F0010EDB2AE7D753EC3DF01AECFA
:1058E00043F087EC3FF00CE2030EDBCF02F0040E36
:1058F000DBCF03F0180EDB50025C006E190E07D0F0
:105900001AEC43F0030EDB50025C006E040EDB5019
:105910000358016E1A0E00C0DBFF1B0E01C0DBFF37
:10592000D9501A0F93EC3CF09BEC3EF001E3EFD022
:105930000AEC4AF0200EEAD0EEEC49F039EC3FF0E8
:10594000CAEC47F001E0D9D053EC3DF0640EE2EC34
:1059500046F001E2CED09EEC46F00C0ED880EE541C
:105960007B0EED5401E2C5D08EEC46F0010EEF6ED9
:10597000070191511AE1A3EC42F004E1780E006EA8
:10598000050E03D0E20E006E040E016E030EDBCF97
:1059900020F0040E87EC41F020C0C3F7070120502F
:1059A00001E0B5D0010EC36FB2D091C7C3F7AFD03D
:1059B0000D0E005D07E1230EE76E240E64EC44F04B
:1059C000230E0ED00E0E005D03E00F0E005D06E10B
:1059D000240EE76E64EC44F0240E02D0EEEC49F0A5
:1059E00039EC3FF00D0E0501005D06E00E0E005D86
:1059F00003E00F0E005D28E127EC42F005E152ECD8
:105A000046F076EC47F04AD07A5106E0020E7A5D15
:105A100003E0030E7A5D0EE119EC40F076EC47F0FE
:105A2000BCEC3CF0C60EC8EC40F0110EA7EC42F006
:105A3000C60E34D052EC46F0040EC8EC40F0100E06
:105A4000A7EC42F0040E2AD00C0E005D15E1DC0E2E
:105A5000F36E1F0EF3CFDBFF050EF36E200EF3CFB8
:105A6000DBFFD80EF36E210EF3CFDBFF720EF36E69
:105A7000220EF3CFDBFF1BD019EC40F0DC0EC8EC9C
:105A800040F0050EA7EC42F0DC0EBCEC3CF0C40E7E
:105A9000C8EC40F0090EA7EC42F0C40E0002F4502E
:105AA0000126210EF3CFDBFF220E01C0DBFFCAEC83
:105AB00047F023E153EC3DF01F0EDBCF02F0200E48
:105AC00029EC48F016E2030EDBCF04F0040EDBCF26
