:020000040000FA
:0600000041EFC2F0120006
:020006000000F8
:0600080025EF16F01200C6
:02000E001200DE
:06001800E3EF0BF0120003
:02001E00D9CF38
:10002000E6FFE1CFD9FF090EE12697EC16F0F0ECE0
:1000300016F0C00EF2120F013985BA94B984B0ECF3
:100040009EF0B6EC9EF0B0ECA5F0BEEC9EF04EEC4F
:100050009FF085C7E6FF320EE66EE66A5AECC0F006
:10006000E552E552E5520501030E146F0501010E3C
:10007000156F8D8053EC83F0000901E10DD0ADECDC
:1000800083F0000909E10401280E456F0601010E05
:10009000126F0601010E136F07019051010806E26D
:1000A000020E0701905D0901816F03D00901010E65
:1000B000816F09018151000817E20501035114E124
:1000C000060E0501025D10E109019A0505E13BEC10
:1000D00034F009019A6B07D009019B0504E138EC63
:1000E00037F009019B6BE5D70501010E036F050190
:1000F000060E026F85C7E6FF320EE66EE66A5AEC20
:10010000C0F0E552E552E552B0ECA5F0060113054A
:1001100047E10501006B8FC7E6FF43EC4AF0E5526B
:100120000701010E8F6F00C552F60601AD6905018A
:10013000020E036F020E0501035D0CE0030E0501C4
:10014000035D08E0040E0501035D04E0050E0501F2
:10015000035D25E145C4E6FF64ECA0F0E55207012C
:100160008551E66EE66A0C0EE66EE66AA6ECC0F015
:10017000E552E552E552E5520501036B05010351D5
:1001800001E1FCD785C7E6FF320EE66EE66A5AEC5F
:10019000C0F0E552E552E5520501010E036FB6D7F6
:1001A00004013B5101E0FBD10501006B8FC7E6FF65
:1001B00043EC4AF0E5520701010E8F6F00C552F67D
:1001C0000601AD690501005101E007D1050E0501E9
:1001D000035D3CE185C7E6FF640EE66EE66A5AEC15
:1001E000C0F0E552E552E552010EE66E640EE66E91
:1001F000E66AC5EC39F0E552E552E55285C7E6FFFF
:10020000320EE66EE66A5AECC0F0E552E552E5526F
:100210001F0E0801005D16E00801B36B0D01DE51F1
:10022000006E016AFF0E001801E1015006E1010EA7
:10023000E66E43EC4AF0E55205D0060EE66E43EC5E
:100240004AF0E5520501010E036F1ED0020E0501B2
:10025000035D08E0030E0501035D04E0040E0501E3
:10026000035D12E185C7E6FF320EE66EE66A5AECE0
:10027000C0F0E552E552E55203C5E6FFE8EC56F062
:10028000E5520501010E036F070E0501025D09E14C
:10029000070EE66EE8EC56F0E5520501060E026F19
:1002A0000CD0080E0501025D08E1080EE66EE8ECD0
:1002B00056F0E5520501060E026F06014D050AE1F2
:1002C00006014D6B010EE66E43EC4AF0E552050166
:1002D000010E036F0401360504E13FEC1EF004013A
:1002E000366B0601120541E10801B351EA6AA90F14
:1002F000E96E080EEA2200C8EFFF0801B351EA6A6E
:10030000AE0FE96E080EEA22A6C8EFFF45C4E6FF6D
:1003100064ECA0F0E55207018551E66EE66A0C0E2A
:10032000E66EE66AA6ECC0F0E552E552E552E5520B
:10033000030E0501035D01E0FBD785C7E6FF320E22
:10034000E66EE66A5AECC0F0E552E552E552060167
:10035000126B0401456B0501006B010EE66E43EC68
:100360004AF0E5520501010E036F09019A0505E106
:100370003BEC34F009019A6B07D009019B0504E1BD
:1003800038EC37F009019B6B110E0501005D10E19F
:100390000401645104E0D8EC24F00401646B07010B
:1003A000C95106E0C6EC94F00701C86F0701C96B9C
:1003B0000701CA5111E009019C0503E009019D05EF
:1003C0000BE1010EE66E640EE66EE66AC5EC39F0EE
:1003D000E552E552E552FF00F5D6110E0501005D2C
:1003E00001E079D0B0ECA5F009019A0504E13BECFD
:1003F00034F009019A6B0401620504E1CAEC1FF0B4
:100400000401626B060112052CE1140EE66EE66A29
:10041000020EE66EF00EE66E7F0EE66E010EE66EE2
:100420009FECA2F0006E060EE15E005045C4E6FFB0
:10043000CBEC79F0E552E76E020EE7CFDBFF020E60
:10044000E66E060EE66E020EE66E170EE66E050E00
:10045000E66E8FECA3F0006E050EE15E0050060123
:10046000126B0401640504E1D8EC24F00401646B10
:100470000701C90506E1C6EC94F00701C86F070142
:10048000C96B0701CA0511E109019C0503E00901D7
:100490009D050BE1010EE66E0A0EE66EE66AC5ECFE
:1004A00039F0E552E552E552FF000401360512E14C
:1004B0003FEC1EF0E0C7E6FF93EC9FF0E552080E1C
:1004C0000701E05D03E20701E02B02D00701E06BCA
:1004D0000401366B89D7FFEC18F043EC2AF00401D5
:1004E000036F010EE66E82EC92F0E55204010351B7
:1004F0001CE10401455106E1130EE66E64ECA0F028
:10050000E55205D045C4E6FF64ECA0F0E5520701D2
:100510008551E66EE66A0C0EE66EE66AA6ECC0F061
:10052000E552E552E552E5520FD0040EE66E64EC5A
:10053000A0F0E55285C7E6FF320EE66EE66A5AEC99
:10054000C0F0E552E552E55206010A0E4B6F060176
:100550004C6B0501035101E0FCD70401035107E195
:100560000501035101E1FCD706014C6B12D00501D6
:10057000035104E106014C5101E1F9D7030E0501D5
:10058000035D04E0050E0501035D03E10601010EB4
:10059000406F0601010E146F03C4A5F678D1DF6A1F
:1005A00007018651DF5C16E285C7E6FF320EE66E74
:1005B000E66A5AECC0F0E552E552E552E66AF40EFE
:1005C000E66E010EE66EC5EC39F0E552E552E552F5
:1005D000DF2AE6D70701AC51AD1101E1F2D0ACC77B
:1005E00016F6ADC717F60601186BE66AACC7E6FF4C
:1005F000ADC7E6FFA9EC7FF0E552E552E5520901EF
:10060000010E706F9A0EE66EE40EE66E010EE66E57
:1006100018EC96F0E552E552E552E76E020EE7CF90
:10062000DBFF020EDB50070805E2070EF36E020E39
:10063000F3CFDBFF070EE66E1E0EE66E010EE66ED2
:10064000B30EE66E7F0EE66E010EE66E9FECA2F034
:10065000006E060EE15E0050020EDBCFE6FF1E0EBE
:10066000E66E010EE66E9A0EE66EE40EE66E010E82
:10067000E66E9FECA2F0006E060EE15E00500901EE
:10068000010E846F090170056EE1050E0501035D21
:100690006AE0040163050BE101C5E6FF54EC22F0BA
:1006A000E552F3CFBDF6F4CFBEF60401636B04014F
:1006B00036051BE13FEC1EF0F4C5E6FFF5C5E6FF8D
:1006C000B4C9E6FFB5C9E6FF3FEC25F0E552E552B7
:1006D000E552E55210C6E6FF01C5E6FF5FECA8F063
:1006E000E552E5520401366B2ED0070E0501025D7E
:1006F00014E1060111510601105D03E20601102B01
:1007000002D00601106B0901010E826F0401010E77
:10071000366F0501060E026F16D0080E0501025D48
:1007200012E106011051000803E20601100702D091
:1007300011C610F60901010E826F0401010E366F19
:100740000501060E026F09019A0505E13BEC34F044
:1007500009019A6B07D009019B0504E138EC37F0D9
:1007600009019B6B8FD70901846B050E0501035DA1
:1007700016E104013B6B0401526B0901706B060129
:10078000030E406F85C7E6FF320EE66EE66A5AEC4E
:10079000C0F0E552E552E5520501010E036F070E68
:1007A000E66E1E0EE66E010EE66EB30EE66E7F0E70
:1007B000E66E010EE66E9FECA2F0006E060EE15EA4
:1007C0000050030E0601405D60E0050101510A0A78
:1007D0004CE0010A4AE0020A37E00F0A31E0010A60
:1007E0002FE0020A1CE0070A16E0010A14E0020AE0
:1007F00001E03FD00701805106E007018A5103E084
:100800000701CE5104E10501020E006F03D005017E
:10081000030E006F33D00501010E006F2FD00701CA
:10082000805106E007018A5103E00701CE5104E13F
:100830000501060E006F03D00501070E006F1ED0E4
:100840000501050E006F1AD00701805106E007016F
:100850008A5103E00701CE5104E105010A0E006F41
:1008600003D005010B0E006F09D00501090E006FC2
:1008700005D00501006B04013B6B00D0FFEC18F0C4
:10088000010EE66E82EC92F0E5520601146B030E47
:100890000601405D02E1EFEF09F00601400506E0C8
:1008A0000401035103E006014C0529E106014C0552
:1008B0000EE107018551E66EE66A0C0EE66EE66A09
:1008C000A6ECC0F0E552E552E552E5520AD085C7E4
:1008D000E6FF320EE66EE66A5AECC0F0E552E552EB
:1008E000E5520601010E406F0501006B04013B6BF0
:1008F00006014C6B0501010E036FEFEF09F085C790
:10090000E6FF320EE66EE66A5AECC0F0E552E552BA
:10091000E5520501010E036F2DEC82F0060114056E
:1009200002E1B0ECA5F000C5E6FF4FECA6F0E55201
:10093000010EE66E000EE66EE66AA9EC7FF0E55267
:10094000E552E552050100050CE0020E0501005DCF
:1009500008E0040E0501005D04E0030E0501005DE2
:100960000FE10401635101E1FCD700C5E6FF54EC3F
:1009700022F0E552F3CFBDF6F4CFBEF60401636B6F
:100980003FEC1EF010C6E6FF00C5E6FF5FECA8F0E6
:10099000E552E55200C5E6FFD7EC19F0E55200C577
:1009A000E6FF4FECA6F0E5523FEC1EF005010051CA
:1009B00018E0040E0501005D14E0080E0501005D5D
:1009C00010E00C0E0501005D0CE0100E0501005D4D
:1009D00008E00901910505E00501146B0501156B9F
:1009E0008D8000C552F60601536BD18010C6E6FF1C
:1009F00000C5E6FF5FECA8F0E552E55200C5E6FF52
:100A000090EC38F0E55204000901010E846F0501F5
:100A1000005102E1ECEF09F0040004013F0504E19C
:100A2000B7EC28F004013F6B0401470504E1FBEC3F
:100A30002EF00401476B0701CF0501E07DD000C512
:100A400001F50501006BE66A020EE66EE66AC3EC8C
:100A50001DF0E552E552E55201C5E6FF4FECA6F068
:100A6000E55210C6E6FF01C5E6FF5FECA8F0E552CF
:100A7000E5520F0EE66E64ECA0F0E55285C7E6FF86
:100A8000320EE66EE66A5AECC0F0E552E552E552E7
:100A9000030E0501015D04E10501020E006F1AD08D
:100AA000070E0501015D04E10501060E006F12D07D
:100AB0000B0E0501015D04E105010A0E006F0AD06D
:100AC0000F0E0501015D04E105010E0E006F02D05D
:100AD0000501006B00C552F6FFEC18F0010EE66E42
:100AE00082EC92F0E55297C795F798C796F7040005
:100AF000E66AB80EE66E0B0EE66EC5EC39F0E5520E
:100B0000E552E55204002DEC82F0B0ECA5F000C5F2
:100B1000E6FF4FECA6F0E55210C6E6FF00C5E6FF83
:100B20005FECA8F0E552E552040000C5E6FFD7EC03
:100B300019F0E5520701CF6B0401510541E100C5F1
:100B400001F50501006BE66A020EE66EE66AC3EC8B
:100B50001DF0E552E552E55201C5E6FF4FECA6F067
:100B6000E55210C6E6FF01C5E6FF5FECA8F0E552CE
:100B7000E552030E06013A5D19E206013A2B040024
:100B8000E66AB80EE66E0B0EE66EC5EC39F0E5527D
:100B9000E552E552040001C500F50501035105E1E8
:100BA00000C5E6FFD7EC19F0E55208D006013A6B14
:100BB0000401180E456F0601010E126F0401516BFE
:100BC0000601120539E100C501F50501006BE66A71
:100BD000E66AE66AC3EC1DF0E552E552E55201C54E
:100BE000E6FF4FECA6F0E55210C6E6FF01C5E6FFB2
:100BF0005FECA8F0E552E55285C7E6FF320EE66EDF
:100C0000E66A5AECC0F0E552E552E552010EE66E96
:100C1000640EE66EE66AC5EC39F0E552E552E5523F
:100C200085C7E6FF320EE66EE66A5AECC0F0E55282
:100C3000E552E55204013B6B040152051AE100C57F
:100C400001F50501006B020EE66EE66AE66AC3EC8A
:100C50001DF0E552E552E55201C5E6FF4FECA6F066
:100C6000E55210C6E6FF01C5E6FF5FECA8F0E552CD
:100C7000E5520901900501E0A8D0010EE66EE66A92
:100C8000E66AC3EC1DF0E552E552E55200C5E6FF09
:100C90004FECA6F0E55210C6E6FF00C5E6FF5FEC9C
:100CA000A8F0E552E5520701855105E0D19070ECBE
:100CB000C0F0D180040006011C6B1D6B0401006BA9
:100CC0003FEC1EF0F4C5E6FFF5C5E6FFB4C9E6FF4C
:100CD000B5C9E6FF3FEC25F0E552E552E552E55295
:100CE00000C5E6FF4FECA6F0E55210C6E6FF00C5D2
:100CF000E6FF5FECA8F0E552E5520901010E916FA5
:100D0000040000C5E6FFD7EC19F0E552B00EE66E20
:100D1000E40EE66E010EE66E18EC96F0E552E55232
:100D2000E552E76E020EE7CFDBFF020EDB5007084D
:100D300005E2070EF36E020EF3CFDBFF070EE66E41
:100D40001E0EE66E010EE66EB30EE66E7F0EE66ECA
:100D5000010EE66E9FECA2F0006E060EE15E005002
:100D6000020EDBCFE6FF1E0EE66E010EE66EB00E43
:100D7000E66EE40EE66E010EE66E9FECA2F0006EEB
:100D8000060EE15E0050010EE66EA6C7E6FFA7C79D
:100D9000E6FFB1EC7CF0E552E552E552E76E020E5B
:100DA000E7CFDBFF060EE66E360EE66EE66A170E3E
:100DB000E66E050EE66E8FECA3F0006E050EE15EAA
:100DC00000500901906B060154970401620504E18B
:100DD000CAEC1FF00401626B0401630518E100C551
:100DE000E6FF54EC22F0E552F3CFBDF6F4CFBEF6A9
:100DF00009017D510AE1BDC66CF6BEC600F0016A6C
:100E000000C06DF60901010E7D6F0401636B0401E2
:100E1000A20504E1F6EC28F00401A26B060124050A
:100E200004E16BEC80F00601246B090172050EE110
:100E30000701925106011A5D09E17ACAE6FFDAEC70
:100E400032F0E5520701C36F0901726B04013605E8
:100E500001E0A2D00901830504E1A4EC81F00901BD
:100E6000836B3FEC1EF0F4C5E6FFF5C5E6FFB4C9A1
:100E7000E6FFB5C9E6FF3FEC25F0E552E552E55245
:100E8000E552050113050BE1B0EC9EF0B6EC9EF0C7
:100E900000C5E6FF4FECA6F0E5520501136B090112
:100EA000B80509E00901BA0506E00901BB0503E040
:100EB0000901BC0539E10901B65135E10901B8055F
:100EC00004E109011A0EB76F1BD00901BA0504E14C
:100ED0000901230EB76F14D00901BB0504E1090114
:100EE000240EB76F0DD00901BC050AE10701CD51F1
:100EF00004E109012F0EB76F03D00901300EB76F5F
:100F00000901B75105E10901B66B0901BD6B0BD0B1
:100F10000901010EB66F09010A0EBD6FB7C9E6FFE0
:100F200064ECA0F0E55202D00901B66B0901B605E8
:100F300011E10901BD5100080CE285C7E6FF320E40
:100F4000E66EE66A5AECC0F0E552E552E552090158
:100F5000BD0708D010C6E6FF00C5E6FF5FECA8F0AD
:100F6000E552E5520D01EE0ED8809555020E9655CC
:100F70000EE2030E0D019D5D03E20D019D2B06D0D7
:100F80000401210E456F0601010E126F02D00D0102
:100F90009D6B0401366BA5D0070E0501025D50E183
:100FA0000901B6514DE10401460536E10701BC5186
:100FB0000701BA5D0701BD510701BB5905E20701F1
:100FC000BA2B000EBB2303D00701BA6BBB6BC0C7A3
:100FD000E6FFC1C7E6FFBAC7E6FFBBC7E6FFD1EC35
:100FE0008CF0E552E552E552E552050EF3CFDBFFFA
:100FF000060EF4CFDBFF010EE66E050EDBCFE6FF3B
:10100000060EDBCFE6FFD9EC61F0E552E552E55282
:101010000501060E026F13D0060111510601105D85
:1010200003E20601102B02D00601106B0901010E2C
:10103000826F0401010E366F0501060E026F51D05A
:10104000080E0501025D4DE10901B6514AE10401B6
:10105000460535E10701000ED880BA55000EBB5594
:1010600005E20701BA07000EBB5B04D0BCC7BAF7A4
:10107000BDC7BBF7C0C7E6FFC1C7E6FFBAC7E6FFFB
:10108000BBC7E6FFD1EC8CF0E552E552E552E552E4
:10109000050EF3CFDBFF060EF4CFDBFF010EE66E8D
:1010A000050EDBCFE6FF060EDBCFE6FFD9EC61F0E5
:1010B000E552E552E5520501060E026F12D0060117
:1010C0001051000803E20601100702D011C610F605
:1010D0000901010E826F0401010E366F0501060E33
:1010E000026F030E0501035D72E10401460523E171
:1010F0000401466BC0C7E6FFC1C7E6FFBEC7E6FFF7
:10110000BFC7E6FFD1EC8CF0E552E552E552E5525F
:10111000050EF3CFDBFF060EF4CFDBFFE66A050E0C
:10112000DBCFE6FF060EDBCFE6FFD9EC61F0E55240
:10113000E552E5523ED00901B7513BE000C5E6FF5C
:101140004FECA6F0E55210C6E6FF00C5E6FF5FECE7
:10115000A8F0E552E5520901B7512F0A21E01F0A14
:101160001FE0140A15E0070A0BE0390A01E020D05D
:101170000901020EB86F0901B76B0901B66B19D0EE
:101180000901020EBA6F0901B76B0901B66B11D0E4
:101190000901020EBB6F0901B76B0901B66B09D0DB
:1011A0000901020EBC6F0901B76B0901B66B01D0D2
:1011B00000D085C7E6FF320EE66EE66A5AECC0F054
:1011C000E552E552E5520501010E036FF4D0050E1C
:1011D0000501035D37E100C501F50501006B020E55
:1011E000E66EE66AE66AC3EC1DF0E552E552E552AA
:1011F00001C5E6FF4FECA6F0E55210C6E6FF01C5BB
:10120000E6FF5FECA8F0E552E55285C7E6FF320E37
:10121000E66EE66A5AECC0F0E552E552E552010E80
:10122000E66E640EE66EE66AC5EC39F0E552E5520C
:10123000E55204013B6B0501010E036F0601020E2E
:10124000406FB9D0020E0501035D05E0040E0501F3
:10125000035D01E0B0D085C7E6FF320EE66EE66AB8
:101260005AECC0F0E552E552E5520501005101E1AA
:101270009FD0040E0501005D01E19AD0080E050122
:10128000005D01E195D00C0E0501005D01E190D0FB
:10129000100E0501005D01E18BD0040146055DE102
:1012A000C0C7E6FFC1C7E6FFBEC7E6FFBFC7E6FF90
:1012B000D1EC8CF0E552E552E552E552070EF3CF42
:1012C000DBFF080EF4CFDBFFC0C7E6FFC1C7E6FFB8
:1012D000BAC7E6FFBBC7E6FFD1EC8CF0E552E5529A
:1012E000E552E552050EF3CFDBFF060EF4CFDBFF30
:1012F000E66A050EDBCFE6FF060EDBCFE6FFD9EC94
:1013000061F0E552E552E552BAC7E6FFC0C7E6FF15
:10131000C1C7E6FF30EC84F0E552E552E5520A0120
:101320007A512C0DF3CF00F0F4CF01F0000E00261F
:101330000C0E01220701C2510F010024E96E000EBC
:101340000120EA6EBAC7EFFFE66A82EC92F0E5523E
:10135000F8EC27F00401466B2BD00901915128E1EC
:101360000401010E466FBAC7BEF7BBC7BFF7C0C7BF
:10137000E6FFC1C7E6FFBAC7E6FFBBC7E6FFD1EC91
:101380008CF0E552E552E552E552050EF3CFDBFF56
:10139000060EF4CFDBFF010EE66E050EDBCFE6FF97
:1013A000060EDBCFE6FFD9EC61F0E552E552E552DF
:1013B0000501010E036F09019A0505E13BEC34F0CC
:1013C00009019A6B07D009019B0504E138EC37F05D
:1013D00009019B6B07EF05F00901846BD1900701B0
:1013E000AA5136E0030E0601405D32E004013B5194
:1013F00000082EE20701AB510EE10501010508E0EE
:10140000050E0501015D04E0090E0501015D03E122
:1014100004013B071DD00701AB051AE1020E0501CF
:10142000015D14E0060E0501015D10E00A0E0501E4
:10143000015D0CE0030E0501015D08E0070E0501EA
:10144000015D04E00B0E0501015D02E104013B07B3
:10145000020E0601405D08E00601125101E049D18B
:101460000601400501E145D104013B5101E040D1B5
:1014700001C5E6FF65EC32F0E55209016F6F050E1C
:10148000E66E600EE66EE66AA60EE66E7F0EE66E0D
:10149000010EE66E9FECA2F0006E060EE15E0050BB
:1014A0000401520538E16E0EE66EE40EE66E010EA2
:1014B000E66E18EC96F0E552E552E552E76E020E44
:1014C000E7CFDBFF020EDB50040805E2040EF36EEB
:1014D000020EF3CFDBFF020EDBCFE6FF7E0E006EC7
:1014E000020EDB50060DF350005CE66EE66A6E0EEF
:1014F000E66EE40EE66E010EE66E9FECA2F0016E63
:10150000060EE15E01500701855102E070ECC0F06B
:101510000401526B30D0840EE66EE40EE66E010ECE
:10152000E66E18EC96F0E552E552E552E76E020ED3
:10153000E7CFDBFF020EDB50040805E2040EF36E7A
:10154000020EF3CFDBFF020EDBCFE6FF7E0E006E56
:10155000020EDB50060DF350005CE66EE66A840E68
:10156000E66EE40EE66E010EE66E9FECA2F0016EF2
:10157000060EE15E01500901010E846F0501035161
:1015800001E0FCD70501035101E07CD009016F5156
:1015900001E078D00401620504E1CAEC1FF0040107
:1015A000626B040163050BE101C5E6FF54EC22F018
:1015B000E552F3CFBDF6F4CFBEF60401636B040130
:1015C000360522E101C5E6FF65EC32F0E55209017E
:1015D0006F6F3FEC1EF0F4C5E6FFF5C5E6FFB4C93A
:1015E000E6FFB5C9E6FF3FEC25F0E552E552E552CE
:1015F000E55210C6E6FF01C5E6FF5FECA8F0E55234
:10160000E5520401366B2ED0070E0501025D14E190
:10161000060111510601105D03E20601102B02D0F4
:101620000601106B0901010E826F0401010E366F75
:101630000501060E026F16D0080E0501025D12E1CB
:1016400006011051000803E20601100702D011C67E
:1016500010F60901010E826F0401010E366F0501BB
:10166000060E026F09019A0505E13BEC34F0090111
:101670009A6B07D009019B0504E138EC37F00901AA
:101680009B6B80D70901846BE66AE66AE66AC3EC65
:101690001DF0E552E552E5520501010E036F85C7C5
:1016A000E6FF320EE66EE66A5AECC0F0E552E5520D
:1016B000E55209016F511CE0050EE66E64ECA0F0E6
:1016C000E552E66AD00EE66E070EE66EC5EC39F01E
:1016D000E552E552E5520601120508E1200E04012B
:1016E000455D04E10401456B0601126B09016F6B56
:1016F00046D00601120543E1E66AE66AE66AC3ECF3
:101700001DF0E552E552E55204013B6B45C4E6FF8E
:1017100064ECA0F0E55207018551E66EE66A0C0E16
:10172000E66EE66AA6ECC0F0E552E552E552E552F7
:1017300045C453F6030E0501035D10E009019A0547
:1017400005E13BEC34F009019A6B07D009019B05D8
:1017500004E138EC37F009019B6BECD70501010E71
:10176000036F85C7E6FF640EE66EE66A5AECC0F0CA
:10177000E552E552E5520601126B0401456B040186
:101780003B5109E1E66AE66AE66AC3EC1DF0E55200
:10179000E552E5520AD0020EE66E020EE66EE66AE9
:1017A000C3EC1DF0E552E552E5520601406BD0EF67
:1017B00000F0090EE15C02E2E16AE552E16EE552F9
:1017C000E7CFD9FF1200D8CFE4FFE0CFE4FFE46E0B
:1017D000DACFE4FFE2CFDAFFE9CFE4FFEACFE4FFBC
:1017E000F6CFE4FFF7CFE4FFF8CFE4FFF5CFE4FF57
:1017F000F3CFE4FFF4CFE4FFFACFE4FFFBCFE4FF45
:1018000000EE18F0140EE80403E3EECFE4FFFBD77C
:1018100000EE00F0180EE80403E3EECFE4FFFBD780
:10182000E652E0EC3BF0030EE126B950040B02E176
:1018300072EF15F0BA50040B02E172EF15F0BA9492
:101840000401045101E0D5D01D0E1FEC45F0F3CF8B
:1018500041F6F4CF42F63D0E1FEC45F0F3CF43F6D0
:10186000F4CF44F6150E1FEC45F0F3CF45F6F4CF58
:1018700046F6250E1FEC45F0F3CFAEF9F4CFAFF9E5
:101880000401A15166E16FEC49F0F7EC45F091ECF1
:1018900041F00501000506E0020E005D03E0030EC5
:1018A000005D2AE104010351015D27E201515CEC76
:1018B0003CF0F7EC45F000EC47F001515CEC3CF0FB
:1018C000E30EE926040EDFEC45F02C502E5C2D5083
:1018D0002F5813E227EC3FF0EFCF2CF0140E2C5CC6
:1018E00004E227EC3FF0EF2A0BD027EC3FF0EF6A41
:1018F000260E8FEC3DF004D0040127EC3FF0EF6A98
:10190000070E0401015D2FE10501005117E00005FC
:1019100015E0020E005D12E0030E005D0FE0040E04
:10192000005D0CE00D0E005D09E00E0E005D06E0AE
:101930000F0E005D03E0100E005D03E10401010ED7
:10194000636F110E0501005D0EE10401010E646F6D
:101950000AD02D0E1FEC45F02BEC46F0D30EE926F5
:10196000040E91EC41F0050100513BE006013951B4
:101970000EE19350100B0BE127510901AE5D0601FA
:1019800028510901AF5903E20401170E22D00601C4
:1019900041513D5D42513E5908E2140E3F5D02E265
:1019A0003F2B1FD03F6B040113D0415104014C5D0C
:1019B0000601425104014D590FE2140E4E5D000E16
:1019C0004F5904E24E2B000E4F230BD04E6B4F6B42
:1019D0001B0E8FEC3DF005D006013F6B04014E6BF2
:1019E0004F6BAEC9A2F6AFC92CF02D6AAFC9A3F6F2
:1019F00068D0A1510AE12D0E11EC3CF005013E2703
:101A0000F4503F232E5040230AD0280E045D07E1F6
:101A10006FEC49F0B30EE926040E91EC41F01D0E77
:101A200011EC3CF005014127F45042232E50432392
:101A30003D0E11EC3CF005014427F45045232E5097
:101A40004623150E11EC3CF005014D27F4504E23B2
:101A50002E504F23250E11EC3CF005015027F45079
:101A600051232E505223290E11EC3CF0050147273B
:101A7000F45048232E504923390E11EC3CF0050157
:101A80004A27F4504B232E504C236BEC39F05CEC7E
:101A900047F005015327F45054232E5055230401D9
:101AA00004050FE10901BE050CE10501010E076FF8
:101AB0000F01320E376F060E366FBA98B9880901DA
:101AC000BE6B320E0401045D42E2042B0701AE0539
:101AD0003AE10401A15137E11B51D880045502E2DB
:101AE000919801D091881C51D880045502E2919AB6
:101AF00001D0918A1D51D880045502E2919C01D0F9
:101B0000918C1E51D880045502E2919E01D0918E95
:101B10001F51D880045502E28B9201D08B82205154
:101B2000D880045502E28E9201D08E822151D88055
:101B3000045502E2909801D090882251D880045533
:101B400004E3908A05D2FEEC41F0909A01D2046B36
:101B5000060506E0030E065D03E0020E065D0EE1DB
:101B600008050AE1280E055D02E2052B07D0320EBA
:101B7000056F010E076F02D0010E086F01C402F459
:101B80000151070A45E0010A3AE0030A2FE0010A81
:101B900025E0070A1BE0010A12E0030A09E0010A36
:101BA0003DE1010E016F8A928A948A868A901CD048
:101BB000020E016F8A928A848A968A901DD0030E43
:101BC000016F8A928A848A868A901FD0040E016FE0
:101BD0008A828A948A968A8091960FD0050E016F28
:101BE0008A828A948A868A80919610D0060E016F26
:101BF0008A828A848A968A80918691940FD0070E71
:101C0000016F8A828A848A868A809186918406D02E
:101C1000016B82EC42F0010E446F476F06013905FB
:101C20001CE104015E6B5F6B09015A6BDF6A210ED8
:101C3000DF5C08E2D6EC43F0E2EC49F09AEC49F0C4
:101C4000DF2AF5D70901B06BB16B166B176B136BFD
:101C5000146B156B100E5B6F5C6B0901B3EC45F0F8
:101C6000AE51EE26AF51ED22060141510901B027D8
:101C7000060142510901B12304010F0E5E5D000E01
:101C80005F5904E25E2B000E5F233CD05E6B5F6BFE
:101C90000901B3EC45F0EECF16F9EDCF17F95A5123
:101CA0005CEC3CF03BEC40F013272D5014232E50FD
:101CB00015230701010EE36F100E09015A5D02E2C0
:101CC0005A2B01D05A6B5A515CEC3CF03BEC40F083
:101CD000135F2D50145B2E50155BB3EC45F0EE6A8C
:101CE000ED6AB0C9B2F9B1C9B3F9B06BB16B5C516F
:101CF00005E15B515A5D02E1010E5C6F0401010ECA
:101D0000626F656FA10509E102515CEC3CF0BBEC30
:101D100047F0AEC9EEFFAFC9EDFF020E1F0B41C584
:101D20002CF042C52DF043C52EF003E029EC3DF028
:101D3000FDE12CC030F52DC031F5020E1F0B44C55E
:101D40002CF045C52DF046C52EF003E029EC3DF002
:101D5000FDE12CC032F52DC033F5020E1F0B47C537
:101D60002CF048C52DF049C52EF003E029EC3DF0DC
:101D7000FDE12CC034F52DC035F5020E1F0B4AC510
:101D80002CF04BC52DF04CC52EF003E029EC3DF0B6
:101D9000FDE12CC036F52DC037F5020E1F0B4DC5E9
:101DA0002CF04EC52DF04FC52EF003E029EC3DF090
:101DB000FDE12CC038F52DC039F5050153510D0159
:101DC0009E27050154510D019F23050155510D0119
:101DD000A023140E9B5D000E9C5904E29B2B000E69
:101DE0009C2321D0010E9B6F9C6B050E1F0B9ECD7B
:101DF000A1FD9FCDA2FDA0CDA3FD07E00D01D890D0
:101E0000A333A233A133E806FAE10D019E6B9F6B69
:101E1000A06B995108E1A1CDA4FDA2CDA5FDA3CD54
:101E2000A6FD010E996F050134EC3DF0000512E1AD
:101E3000040101510FE100510DE1A00503E1A16B87
:101E4000010EA26F320EA05D02E2A02B03D0010EA4
:101E5000A06FA16FFEEC41F0909A0D018C5105012D
:101E6000385D0D018D510501395904E238C58CFDED
:101E700039C58DFD005109E106EC42F004E2050E82
:101E80002D5D1CE31DD02D6B3CD0110E005D39E0A3
:101E90009350100B0CE00901AE510601255D0901BC
:101EA000AF510601265903E20401160E24D00501A4
:101EB00006EC42F009E2050E2D5D02E22D2B21D049
:101EC0002D6B0401190E17D00EEC42F017E200053D
:101ED00015E0050E005D12E0090E005D0FE00D0E2D
:101EE000005D0CE0040E06012F5D02E22F2B09D0ED
:101EF0002F6B04011A0E8FEC3DF003D006012D6B01
:101F00002F6B110E0501005D15E09350100B12E0D0
:101F1000040107050FE116EC42F00CE2280E060161
:101F2000305D02E2302B08D0306B0401140E8FECD0
:101F30003DF002D00601306B12050AE19D928D82C0
:101F40009190786A726A779A7798719A71988B886B
:101F50000401065101E1ECD0080501E0E9D004518B
:101F600004E00551D880045519E29D928B8A786A65
:101F7000726A6F6A0C0E776E716E6E6E060503E103
:101F800091908D820BD0030E065D03E18D929180BE
:101F900005D0020E065D02E191908D92045101E0A0
:101FA00092D006053FE1EBEC40F01CE2B5EC41F0CD
:101FB000050EDBEC3EF0FDE12CC073F9B5EC41F011
:101FC000030EDBEC3EF0FDE1F4EC40F005E2752998
:101FD000766F73C974F903D0766B7329746F09C473
:101FE0002CF069D0E0EC3CF02D6E050EDBEC3EF001
:101FF000FDE12CC077F90401E0EC3CF02D6E030EFE
:10200000DBEC3EF0FDE1FDEC40F005E279297A6F72
:1020100077C978F903D07A6B7729786F0401E0ECFF
:102020003CF022D0030E065D01E082D0EBEC40F0E4
:1020300023E2B5EC41F0050EDBEC3EF0FDE12CC0F7
:1020400077F9B5EC41F0030EDBEC3EF0FDE1FDEC81
:1020500040F005E279297A6F77C978F903D07A6B75
:102060007729786F09C42CF09BEC40F07369746990
:10207000030E756F766F5CD0E0EC3CF02D6E050EB4
:10208000DBEC3EF0FDE12CC073F90401E0EC3CF028
:102090002D6E030EDBEC3EF0FDE1F4EC40F005E2CA
:1020A0007529766F73C974F903D0766B7329746FD1
:1020B0000401E0EC3CF09BEC40F077697869030E9A
:1020C000796F7A6F35D0040533E1060503E0030E1E
:1020D000065D0CE18D829180020EE66E21ECC2F06D
:1020E000E552CC6A040ECA6E9D8222D08B9A0DC432
:1020F0002CF00EC42DF0D8902D322C32D8902D32E9
:102100002C322CC073F90DC42CF000012D6A030E83
:102110002C162CC075F973C96FFF090175A302D085
:102120006E8A01D06E9A75A102D06E8801D06E9829
:102130000401045101E084D0070501E085D30901C1
:10214000AE510401485D0901AF510401495903E34F
:1021500016EC42F003E20401010E516F040100513C
:1021600001E072D305010051070A5DE00C0A51E05D
:10217000040A4FE0050A46E0040A44E0070A3BE08F
:10218000040A39E00E0A25E0010A15E0030A51E1CC
:10219000DF6A81EC3FF04DE204EC3CF0020E2E26AB
:1021A000000E2F222C502E5C2D502F5802E2010ED3
:1021B000006FDF2AEED70701A2053BE1DF6A81EC61
:1021C0003FF037E263EC47F002E2010E006FDF2AD6
:1021D000F6D70701A2050BE1DF6A81EC3FF007E2C9
:1021E00063EC47F002E2010E006FDF2AF6D764ECE1
:1021F0003EF01FE21BD006014151EF5D4251F05904
:1022000018E214D029EC40F014E20701A20511E114
:102210000DD029EC40F003E20701A20507E064ECD1
:102220003EF007E203D064EC3EF003E20401010E4D
:10223000006F0401000501E007D30601548704D3B1
:10224000320E045D01E000D3070501E0F7D2110E64
:102250000501005D08E1A7CD09F4A8CD0AF4A9CDD8
:102260000DF4AACD0EF40401065101E11BD1650560
:1022700001E018D1005101E015D105010051030A18
:1022800001E1CED0040A01E1CBD00C0A01E1C8D0B3
:10229000040A01E1C5D00D0A70E0040A6EE00C0AE0
:1022A0006CE0040A6AE00F0A07E0040A05E00C0A81
:1022B00003E0040A01E0F3D00901910510E1B0EC5C
:1022C0003DF004E20401092B000E2CD01EEC42F07C
:1022D0004FE2D6EC3DF04CE20907000E48D0B0ECDE
:1022E0003DF022E216510401115D0901856F17517D
:1022F00004011259090131EC46F004E2100E856F19
:10230000866B0ED01F0EE0EC3EF007E2050E0F0BC1
:1023100007E0CFEC3FF0FDE103D0010E856F866B47
:1023200026EC42F00A2324D0040111510901165D64
:10233000856F040112510901175931EC46F004E28E
:10234000200E856F866B0ED00F0EE0EC3EF007E29C
:10235000040E0F0B07E0CFEC3FF0FDE103D0010EC0
:10236000856F866B06EC41F003E32EEC42F00A5BCE
:10237000E5EC3EF001E393D090D00601395101E045
:102380008ED0B9EC3DF01EE28DEC45F004E2080E73
:10239000856F866B0ED01F0EE0EC3EF007E2050E57
:1023A0000F0B07E0CFEC3FF0FDE103D0010E856F8E
:1023B000866B0901855104010D270901865104012D
:1023C0000E2326D070EC3EF004E2200E856F866B63
:1023D0000ED00F0EE0EC3EF007E2040E0F0B07E00C
:1023E000CFEC3FF0FDE103D0010E856F866B090154
:1023F000855104010D5D0901865104010E5908E360
:102400000901855104010D5F0901865104010E5B2C
:10241000FEEC42F044E20FC40DF410C40EF43FD0C1
:10242000060139513CE1B9EC3DF019E28DEC45F083
:1024300004E2100E856F866B0ED00F0EE0EC3EF0BE
:1024400007E2040E0F0B07E0CFEC3FF0FDE103D0F5
:10245000010E856F866B26EC42F00A231BD070ECD0
:102460003EF004E2200E856F866B0ED00F0EE0EC7E
:102470003EF007E2040E0F0B07E0CFEC3FF0FDE16A
:1024800003D0010E856F866B06EC41F003E32EEC62
:1024900042F00A5BE5EC3EF002E2BAEC41F00401E6
:1024A000656BCCD1065101E1C9D1000501E0C6D16F
:1024B00005010051070A01E1B1D10C0A01E19FD1E8
:1024C000040A01E19CD1050A01E16BD1040A01E192
:1024D00068D1070A01E111D1040A01E10ED10E0A07
:1024E00001E1BED0010A60E0030A01E0A3D1070EBA
:1024F0000401015D01E09ED1A4EC3DF00351DF5CDD
:1025000011E2B0EC3CF0C1EC3FF0E8AE02D02D346B
:1025100002D003EC43F004E2B0EC3CF097EC41F065
:10252000DF2AECD7ADEC46F01CE26FEC40F019E28C
:10253000ADEC46F007E208EC43F004E20A0E1CECB6
:102540003EF002D0D1EC49F06AEC47F001E372D1E1
:102550009E35000E9E1902E687EC3DF001E36AD13C
:10256000B2D01DEC3CF00001800E2D1401E162D1CF
:10257000B0EC3DF001E35ED1050E04013E5D01E2E9
:1025800030D119EC49F006E26FEC40F003E2020EA4
:102590001CEC3EF04CEC3EF0092721500A23E5EC00
:1025A0003EF001E347D1FAD0070E0401015D01E0DE
:1025B00041D1A4EC3DF00351DF5C11E276EC3BF03D
:1025C000C1EC3FF0E8AE02D02D3402D003EC43F072
:1025D00004E276EC3BF097EC41F0DF2AECD7ADEC6F
:1025E00046F01CE26FEC40F019E2ADEC46F007E279
:1025F00008EC43F004E20A0E1CEC3EF002D0D1ECF1
:1026000049F01DEC3CF00D512C5C0E512D5801E3AE
:1026100011D14CEC3EF00D5F2150CFD01DEC3CF0C1
:102620000001800E2D1401E105D1B9EC3DF001E36C
:1026300001D1050E3E5D01E2D4D019EC49F006E26D
:102640006FEC40F003E2020E1CEC3EF04CEC3EF06E
:102650000D2721500E23FEEC42F001E3EBD0CAD04F
:102660000401800E9E1501E1E5D0070E015D3CE1FD
:10267000A4EC3DF00351DF5C11E276EC3BF0C1ECE1
:102680003FF0E8AE02D02D3402D003EC43F004E278
:1026900076EC3BF097EC41F0DF2AECD7ADEC46F05E
:1026A0001AE26FEC40F017E2ADEC46F007E208ECFE
:1026B00043F004E20A0E1CEC3EF002D0D1EC49F0EB
:1026C0006AEC47F005E24CEC3EF0095F2150B1D0D6
:1026D000096B0A6BAFD064EC3EF001E3ABD00AECBF
:1026E00048F001E3A7D0A3D064EC3EF001E3A2D010
:1026F0000AEC48F001E39ED09AD00901910529E146
:10270000AE510401155D0901AF51040116590BE2E8
:10271000D6EC3DF008E29E35000E9E1902E687ECED
:102720003DF001E284D085EC3FF001E383D0040169
:1027300015510901AE5D040116510901AF5901E3BC
:1027400079D00401092B000E0A23E5EC3EF072E279
:1027500025D006014151EF5D4251F05904E30901D2
:102760001EEC42F00AE20AEC48F007E29E35000E49
:102770009E1902E687EC3DF05AE385EC3FF05AE201
:10278000B0EC3DF057E2050E04013E5D2AE33E6BDE
:10279000092B000E0A23E5EC3EF04CE2BAEC41F0C6
:1027A00049D029EC40F00BE20401000ED8800D5511
:1027B000000E0E5504E20D07000E0E5B3BD0010E1D
:1027C00006012D6AEF252C6EF0512D2241512C5C13
:1027D00042512D582FE2B9EC3DF02CE2050E3E5D42
:1027E00002E23E2B27D03E6B0D2B000E0E23FEEC9B
:1027F00042F020E20FC40DF410C40EF41BD029ECFB
:1028000040F005E34551F15D4651F25913E20AECFF
:1028100048F010E2800E9E150DE009D064EC3EF009
:1028200009E20AEC48F006E2800E9E1503E0090773
:10283000000E0A5B0401650501E1656B09C49CF6A5
:1028400012EC43F00EC49FF60501040E0E03F3CF05
:102850000EF580CF0FF5030E0F150E13B60E2C6E6E
:10286000810E2D6E010E2E6E0F0E0E152F6E306A1C
:10287000316A2C502F24F36E2D503020F46E2E50E0
:102880003120F86EF4CFF7FFF3CFF6FF0800F5CF55
:1028900011F5115111E0040E1003F3CF10F5115191
:1028A0001013AA0E105D02E1070E04D0550E105D44
:1028B00003E1080E026F106B0A0E04013A5D02E29A
:1028C0003A2B41D0010E3A6F0501035126E180B643
:1028D00009D0056B640E045D02E2042B2BD0046B5F
:1028E000050E16D080B409D0046B640E055D02E2BB
:1028F000052B20D0056B040E0BD00451050803E214
:10290000046B030E05D00551050804E2056B020EA9
:10291000036F10D0046B056B0DD08050080B0AE0DC
:102920008050040B07E0140E065D02E2062B02D075
:10293000066B036B0A0E0901AC5D01E2AC2B0A0EBB
:10294000AD5D01E2AD2B0401E80E385D030E39598F
:1029500004E2382B000E3923B2D0010E386F396BE8
:10296000366F0501150507E11451000802E214074E
:1029700002D08D90156B070189510EE00901840585
:102980000BE1070189510901825D02E2822B06D029
:10299000010E826F836F02D00901836B0701905192
:1029A000000805E209018151000801E281070501E3
:1029B000005137E00601162B000E172318233B0E9B
:1029C000195D02E2192B16D0196B3B0E1A5D02E25B
:1029D0001A2B02D01A6B1B2B0901910504E1060189
:1029E0001C2B000E1D230401000504E106011E2B13
:1029F000000E1F230601010E246F16C660F6080E96
:102A000054EC3EF003E029EC3DF0FDE12CC061F612
:102A1000100E54EC3EF003E029EC3DF0FDE12CC03B
:102A200062F606014B51000805E24B074B5102E1EB
:102A3000010E4C6F0901700536E10601D880000EC9
:102A40001655000E1755000E18552BE21607000EEE
:102A5000175B185B1951000802E219070DD03B0EF5
:102A6000196F1A51000802E21A0706D03B0E1A6FBE
:102A70001B51000801E21B0716C660F6080E54EC55
:102A80003EF003E029EC3DF0FDE12CC061F6100EB4
:102A900054EC3EF003E029EC3DF0FDE12CC062F681
:102AA00002D00901706B110E0501005D08E00701FD
:102AB000CC51000802E2CC0702D0010ECB6F090115
:102AC000000ED8807F55000E805504E27F07000E6F
:102AD000805B02D0010E7E6F05011251000803E2F7
:102AE000120701D0BA949D50200B22E09E50200B7B
:102AF0001FE00A0E0901AC5D03E1966B17EC43F091
:102B00009651E5EC45F0AECFEFFFABA202D0AB980B
:102B1000AB8896512C6E2D6AD8902D5004E6860E07
:102B20002C5C000E2D5801E2962BAC6B010E9A6FB7
:102B30009D50100B15E09E50100B12E009019851AA
:102B4000945D07E2945106EC47F0EF50AD6E942B84
:102B500007D0966B17EC43F0010E9C6F9D989D8AF1
:102B6000A350200B24E0A450200B21E00A0E090101
:102B7000AD5D03E1976B1CEC43F09751EBEC45F036
:102B80001DCFEFFF0F0122A302D022992289090154
:102B900097512C6E2D6AD8902D5004E6860E2C5C31
:102BA000000E2D5801E2972BAD6B010E9B6FA350C9
:102BB000100B15E0A450100B12E009019951955D1E
:102BC00007E29551F1EC45F0EFCF1CFF952B07D0B4
:102BD000976B1CEC43F0010E9D6FA398A38A030E24
:102BE000E15C02E2E16AE552E16EE552E7CFD9FF2E
:102BF000E55200EE17F0180EE80403E3E5CFEDFF11
:102C0000FBD700EE2BF0140EE80403E3E5CFEDFF55
:102C1000FBD7E5CFFBFFE5CFFAFFE5CFF4FFE5CF2C
:102C2000F3FFE5CFF5FFE5CFF8FFE5CFF7FFE5CF01
:102C3000F6FFE5CFEAFFE5CFE9FFE5CFDAFFE550A4
:102C4000E5CFE0FFE5CFD8FF1000DACFE4FFE65292
:102C50009D50020B26E09E50020B23E09E92070E31
:102C600009017C5D02E27C2B01D07C6B7B51D8801A
:102C70007C550AE274C978FF78C972FF7639F00B87
:102C80000C09776E7A3909D073C978FF77C972FF5A
:102C90007539F00B0C09776E7939F00B0C09716EF0
:102CA00001D09E92B950100B3DE0BA50100B3AE0A3
:102CB000BA980F0E05010B5D06E20B2B0A510B5D56
:102CC00008E38D9806D00B6B0B51D8800A5501E2B2
:102CD0008D88070507E10F0E0B5D25E108510008FF
:102CE0000AE31BD0020E075D1EE10F0E0B5D1BE118
:102CF0000851000802E2080716D0320E086F0F01D3
:102D0000375D03E14B0E376F0ED0320E376F050182
:102D10000951000802E2090706D0076B0F0136953A
:102D2000B99801D0BA98E552E5CFDAFF1100700EDC
:102D3000D36E9B8CD1909268896AF00E936E8A6AEA
:102D4000850E946E300E8B6E8B88956A8C6A800E21
:102D5000966E8D6AFC0E976E8E6A340E986E8F6A30
:102D6000C00E996E906A9A6A020E916E0F01A00EC3
:102D7000256FCF0E246F236B1D0EC26EC16ABE0E6F
:102D8000C06ED08EFA0E3A6F1E0E396FD294BA947E
:102D9000B994010EE66E02EC34F0E5520F01190E03
:102DA000376F020E366FD288BA98B998556B579F15
:102DB00056916596330EAF6E220EAC6E900EAB6ED2
:102DC0009F989D989F9A9D8A2097330E1E6F220E82
:102DD000216F900E226FA598A398A59AA38A12003E
:102DE000E0EC3BF0040EE1260801B36B0501006B3B
:102DF000016B060E026F036B046B056B066B076BB2
:102E0000086B096B0A6B0B6B0FEC41F0146B156BC5
:102E1000166BDE6ADD6A18EC41F005E276EC49F0EB
:102E2000FAE3DB2AF8D70501306B316B326B336B79
:102E3000346B356B366B376B386B396B34EC3DF07C
:102E4000C6EC94F00701C86FA3EC44F031EC45F0F8
:102E50000501E66BE76BE86BE96BEA6BEB6BEC6B20
:102E6000ED6BEE6BEF6BF06BF16BF26BF36BF46B86
:102E7000F56BF66BF76BF86BF96BB8EC3CF0A7EC05
:102E80003BF005E27DEC49F0FAE3DB2AF8D7E8EC09
:102E90003CF03B6B1CEC41F0446B9AEC48F0A7EC27
:102EA0003BF005E284EC49F0FAE3DB2AF8D792EC38
:102EB0003FF0DE6ADD6AA7EC3BF01CE2ACEC3BF0D5
:102EC00024EC3CF0FDE1F7EC45F00BEC45F024EC94
:102ED0003CF0FDE1760EE926040E0BEC45F024EC07
:102EE0003CF0FDE1860EE926040E72EC3CF0E3E3D3
:102EF000DB2AE1D704017CEC3EF0A7EC3BF03BE29F
:102F0000ACEC3BF024EC3CF0FDE14DEC40F0ACECE3
:102F10003BF024EC3CF0FDE152EC40F0ACEC3BF03B
:102F200024EC3CF0FDE1C30EE926040E0BEC45F069
:102F300024EC3CF0FDE157EC40F0ACEC3BF024EC31
:102F40003CF0FDE1E30EE926040E9AEC49F09EEC1C
:102F500044F0F30EE926040EEA22EF6AACEC3BF0F3
:102F600024EC3CF0FDE1000EE926060E72EC3CF08C
:102F7000C4E3DB2AC2D70601106B116B126B136B13
:102F8000010E146F156BE66E000EE66EE66AA9EC94
:102F90007FF086EC45F006010BEC4AF054EC44F06F
:102FA00020C03DF621C03EF606013F6B406B416BF1
:102FB000426B436B446B456B466B476B486B496B8D
:102FC0004A6B4B6B4C6B4D6BDE6ADD6AB5EC44F0C3
:102FD000690EB1EC46F00AE29EEC44F0520EE9268E
:102FE000060E30EC3EF0F2E3DB2AF0D70601BD6BB3
:102FF000BE6BDE6ADD6AB5EC44F00B0EB1EC46F058
:103000000DE2ACEC3BF024EC3CF0FDE1BF0EE92618
:10301000060E72EC3CF0EFE3DB2AEDD706019FECE5
:103020003FF0A7EC3BF00CE2ACEC3BF024EC3CF0C6
:10303000FDE131EC47F072EC3CF0F3E3DB2AF1D731
:10304000F1EC3FF0A7EC3BF015E2ACEC3BF024ECEC
:103050003CF0FDE1030EE926090E0BEC45F024ECF3
:103060003CF0FDE1AE0EE9260D0E72EC3CF0EAE319
:10307000DB2AE8D75BEC3FF02EEC41F00CE2ACEC45
:103080003BF024EC3CF0FDE1E2EC49F072EC3CF06A
:10309000F3E3DB2AF1D789EC42F0A7EC3BF00DE239
:1030A000ACEC3BF024EC3CF0FDE15D0EE926090EB2
:1030B00072EC3CF0F2E3DB2AF0D709016D6B6E6B2A
:1030C0006F6B706B716B726B3AEC3EF0836B846B61
:1030D000ACEC3FF0916B926B936B946B956B966B32
:1030E000976B986B996B9A6B9B6B9C6F9D6F9E6BAC
:1030F0009F6BA06BA16BA26BA36B17EC43F01CEC56
:1031000043F0AC6BAD6B8DEC3EF0BE6BFDEC3FF075
:10311000956B966B976B986B996B9A6BA5EC40F0DF
:10312000A46BA56BA66B36EC42F00701C36B90EC69
:1031300042F0CB6B0A0ECC6FCD6BCE6BCF6BE06BDE
:10314000E16BE26BE36BDE6ADD6AB5EC44F0000E26
:10315000005C010E015818E29EEC44F0000EE926D6
:10316000020EEA22EF6A9EEC44F0000EE926010E00
:10317000EA22EF6A9EEC44F0000EE926030E30ECE2
:103180003EF0E3E3DB2AE1D7DE6ADD6AB5EC44F02A
:10319000870EB1EC46F00AE29EEC44F0600EE926A0
:1031A000000E30EC3EF0F2E3DB2AF0D7E2EC87F0E1
:1031B0004AEC88F02AEC89F0A6EC87F0FBEC45F0AD
:1031C000800EE66E030EE66E09EC84F0E552E552E1
:1031D0000A01786F8D908B888B8A918291908D8275
:1031E00093888B9682EC42F032EC41F0AD69040E8C
:1031F000E15C02E2E16AE552E16EE9EF3BF0CEEC20
:1032000045F00501046B056B066B0FEC41F0166B86
:10321000DE6ADD6A18EC41F005E276EC49F0FAE38B
:10322000DB2AF8D7B8EC3CF0A7EC3BF005E27DECEC
:1032300049F0FAE3DB2AF8D7E8EC3CF01CEC41F06B
:103240009AEC48F0A7EC3BF005E284EC49F0FAE395
:10325000DB2AF8D792EC3FF07CEC3EF0A7EC3BF099
:103260002AE2ACEC3BF024EC3CF0FDE14DEC40F00C
:10327000ACEC3BF024EC3CF0FDE152EC40F0ACEC6B
:103280003BF024EC3CF0FDE1C30EE926040E0BEC10
:1032900045F024EC3CF0FDE157EC40F0ACEC3BF0A9
:1032A00024EC3CF0FDE1000EE926060E72EC3CF049
:1032B000D5E3DB2AD3D70601106B116B126B0BEC35
:1032C0004AF04B6B4C6B4D6B9FEC3FF0A7EC3BF027
:1032D0000CE2ACEC3BF024EC3CF0FDE131EC47F0CF
:1032E00072EC3CF0F3E3DB2AF1D7F1EC3FF0A7EC12
:1032F0003BF015E2ACEC3BF024EC3CF0FDE1030EBE
:10330000E926090E0BEC45F024EC3CF0FDE1AE0E95
:10331000E9260D0E72EC3CF0EAE3DB2AE8D75BEC21
:103320003FF02EEC41F00CE2ACEC3BF024EC3CF036
:10333000FDE1E2EC49F072EC3CF0F3E3DB2AF1D77B
:1033400089EC42F0A7EC3BF00DE2ACEC3BF024EC56
:103350003CF0FDE15D0EE926090E72EC3CF0F2E373
:10336000DB2AF0D709016D6B6E6B6F6B3AEC3EF0A8
:10337000ACEC3FF08DEC3EF0FDEC3FF0A5EC40F006
:1033800036EC42F0070190EC42F0CF6BE36BE06B60
:10339000C2CDE6FFC4EC8AF0E55232EC41F0020EF9
:1033A000E15C02E2E16AE552E16EE9EF3BF0C0EC7C
:1033B00047F0010EE66E020E3EEC42F0010E15ECF7
:1033C0003CF0010EDB6AD4EC3FF0040EDB6A050E24
:1033D000DB6A060EDB6ADF6A080EDF5C1BE2010EA9
:1033E000E66EC80EC9EC3FF03FEC1EF047C600F099
:1033F00048C601F0026A01EC45F097EC42F049C67C
:1034000000F04AC601F0026ABAEC44F097EC42F0D0
:10341000DF2AE2D701EC45F0030EE76E44EC42F000
:10342000FDE1BAEC44F0030EE76E44EC42F0FDE13E
:10343000030E0501005D09E0070E005D06E00B0EBE
:10344000005D03E00F0E005D0AE19EEC42F000C556
:10345000E6FF09EC33F086EC45F00501006F080E3D
:10346000C4EC41F0010EE66E02EC34F0E55295C773
:1034700004F096C705F0066A076AC3EC3EF0AFECAD
:1034800040F095C723F096C724F0A5EC42F01AC08F
:10349000C4F71BC0C5F71CC0C6F71DC0C7F7D8804E
:1034A000400E07011A54D70E1B54D20E1C54470E5F
:1034B0001D5408E2400EC46FD70EC56FD20EC66F02
:1034C000470EC76F9EEC42F0010EDBCFE6FF020E07
:1034D000DBCFE6FF3FEC25F086EC45F0E552FBEC58
:1034E00045F00D01990507E179EC38F0F3CF97FD30
:1034F000F4CF98FD03D0FA0E976F986B0D019A6B7D
:1035000005010051040A01E114D30C0A01E111D3B1
:10351000040A01E10ED31C0A01E10BD3130A01E1F5
:1035200022D2040A01E11FD20C0A01E11CD2040AD2
:1035300001E119D20D0A01E1A7D1040A01E1A4D1E8
:103540000C0A01E1A1D1040A01E19ED10B0A01E1BB
:1035500095D00C0A01E192D0040A01E18FD00C0A47
:1035600001E0E7D2C9EC41F064EC45F0C26F71ECC8
:1035700046F002E2CEEC41F01AEC3FF004E2B5EC8A
:1035800046F0450E0AD0D3EC41F004E2B5EC46F02B
:10359000460E03D077EC3CF0470E52EC48F0086A38
:1035A000300E096E8E0E0A6E450E0B6E03C421F0AE
:1035B0009EEC49F0FDEC3AF010EC4AF0ABEC42F036
:1035C00033E29951B85D9A51B9592EE2010EB619FC
:1035D00007E1B75105E10D010A0E6EEC42F016E36A
:1035E0000701020EB61907E1B75105E10D013C0EC6
:1035F0006EEC42F00BE30701030EB61915E1B7516B
:1036000013E10D016E0E6EEC42F00EE20701B851AF
:10361000995D0401326F0701B9519A590401336F62
:103620000D01010E9A6F04D099C732F49AC733F492
:10363000DF6A81EC3FF00CE270EC3AF0010E53ECE3
:1036400043F011EC49F0EA22DEEC3FF0DF2AF1D73B
:10365000CFEC3BF026EC43F0016A33C4A9F679ECD9
:1036600040F022EC49F003E201EC44F002D0E6EC39
:1036700049F0DEEC48F001E303D100D109019105E6
:103680002DE10701A651A71124E1C9EC41F0140E68
:10369000256E266A93C720F094C721F00BECC2F088
:1036A00020C029F421C02AF40401140E205C000E6D
:1036B000215804E2140E296F2A6B2AD0F40ED88008
:1036C0002955010E2A5524E2F40E296F010E2A6FA6
:1036D0001FD0A6C729F4A7C72AF41AD0C9EC41F015
:1036E0000D0E0501005D11E1020E0701915D0DE176
:1036F00041EC3BF0210E06EC3AF0210E87EC3AF05B
:10370000210E6BEC49F0210E02D064EC45F0C26F43
:1037100071EC46F002E2CEEC41F01AEC3FF004E22C
:10372000B5EC46F0450E11D0D3EC41F003E2D6ECF7
:103730003CF005D072EC42F005E1E3EC3FF0066EA0
:10374000460E03D077EC3CF0470E52EC48F072EC9A
:1037500042F005E1046A400E056E030E0ED0090E1C
:10376000005D05E1086A400E096E1C0E0ED0090EC0
:103770000701915D06E1BFEC41F0066E470E076E52
:103780000BD0086A300E096E8E0E0A6E450E0B6E57
:1037900091C721F09EEC49F0FDEC3AF088EC48F03E
:1037A00010EC4AF0090E0501005D03E00D0E005D0E
:1037B00058E1090E005D06E1090191053EE1E7ECE3
:1037C0003DF044D0ABEC42F039E29951B85D9A51EA
:1037D000B95934E2010EB61907E1B75105E10D01FF
:1037E0000A0E6EEC42F016E30701020EB61907E16D
:1037F000B75105E10D013C0E6EEC42F00BE3070101
:10380000030EB6191AE1B75118E10D016E0E6EECF8
:1038100042F013E20701B851995D026E9A51B95511
:10382000036E35EC47F002C025F003C026F038ECFB
:1038300046F00D01010E9A6F09D0070135EC47F0F3
:1038400099C725F09AC726F038EC46F034C420F02A
:10385000A4EC49F034C4A8F635C400F0016A35C4BC
:10386000A9F6C5EC47F022EC49F003E201EC44F084
:1038700002D0E6EC49F0DEEC48F002E2BAEC41F0AE
:103880000D6B0E6B010E53D1C9EC47F00E0E005DAF
:1038900011E10701915101080DE241EC3BF0220ECC
:1038A00006EC3AF0220E87EC3AF0220E6BEC49F06F
:1038B000220E0CD041EC3BF0070E06EC3AF0070E5E
:1038C00087EC3AF0070E6BEC49F0070E69EC3FF01D
:1038D00002E235EC3EF04DEC3DF023EC48F02BECF1
:1038E00043F003E23FEC46F002D093EC44F0276E45
:1038F00088EC48F0D5EC49F0B2EC43F0D4EC48F059
:1039000063EC46F0020E0501005D10E19BC732F446
:103910009CC733F4DF6A81EC3FF005E270EC3AF0CB
:10392000FBEC3EF0F8D726EC43F008D0060E005D25
:1039300003E1B9EC46F005D0A7EC48F0016A00C0FD
:10394000A9F61FEC47F0016A26C4A7F60401E80EA9
:103950000F6F030E106F8B9A919202EC46F0FFEC02
:103960003EF0020EE4D0C9EC47F00F0E005D0DE111
:1039700041EC3BF0260E06EC3AF0260E87EC3AF0CE
:10398000260E6BEC49F0260E0CD041EC3BF0250ED8
:1039900006EC3AF0250E87EC3AF0250E6BEC49F078
:1039A000250E69EC3FF002E235EC3EF04DEC3DF0C7
:1039B00023EC48F030EC43F004E2B5EC46F0C50EE1
:1039C00012D035EC43F003E2D6EC3CF006D0070E03
:1039D0000501005D05E1E3EC3FF0066EC60E03D085
:1039E00077EC3CF0C70E97EC44F0D5EC49F03DC6BF
:1039F0004CF43EC64DF4E8EC48F04BEC49F0E80ED0
:103A00000026030E0122000E022200C090FD01C01C
:103A100091FD0D01010E926F030E0501005D10E195
:103A20009BC732F49CC733F4DF6A81EC3FF005E2B8
:103A300070EC3AF0FBEC3EF0F8D726EC43F008D0FF
:103A4000070E005D03E1B9EC46F005D0A7EC48F0A5
:103A5000016A00C0A9F68BC720F08CC721F071EC79
:103A600047F0B8EC48F020C0F1F621C0F2F6010EA4
:103A70000601F127000EF2231FEC47F0016A26C46D
:103A8000A7F64BEC49F001EC45F05CEC40F013E29A
:103A9000040EDBCF04F0050EDBCF05F0060E32EC92
:103AA00049F0010EDBCF0BF0020EDBCF0CF0030E62
:103AB0003EEC48F014D09DEC41F0010EDBCF0CF051
:103AC000020EDBCF0DF0030EF1EC44F0040EDBCF61
:103AD00013F0050EDBCF14F0060E0DEC48F01EECD3
:103AE0003FF025EC44F020C009F421C00AF4070E91
:103AF000DB50006E016A04012050005C2150015827
:103B000009E2070EDB50006E016AE850095F0150C0
:103B10000A5B02D0096B0A6BE5EC3EF002E2BAECFC
:103B200041F002EC46F004010D6B0E6B030E066FC4
:103B30000AD00601986B996B8B8A918293888B9639
:103B4000FFEC3EF0066B076B056B09015A5102E072
:103B50005A0501D0100E5B6F5C6B0401626B09C4E7
:103B60009CF60AC400F0016A12EC43F00EC400F0A7
:103B7000016A0EC49FF6080EE15C02E2E16AE552BA
:103B8000E16EE9EF3BF0E0EC3BF094EC3DF0FE0E33
:103B9000DB500DE13F6BDF6A080EDF5C05E266EC8F
:103BA0003CF0EF6ADF2AF8D7A7EC3EF005D0FE0E16
:103BB000DB0402E1010E3F6F8B8A918293888B9622
:103BC000FD0EDB5008E1050114510CE1780E146F75
:103BD000010E156F07D0FD0EDB0404E10501146B27
:103BE000156B8D80FC0EDB5002E18B8804D0FC0E3F
:103BF000DB0401E18B98D3EC47F00901B66BB76B9E
:103C0000B86BBA6BBB6BBC6BBD6B43EC46F003E0AF
:103C10008AEC45F0FDE149EC46F003E08AEC45F022
:103C2000FDE100C05FF609C49CF6016A12EC43F0A6
:103C3000016A0EC49FF6E552E9EF3BF0E0EC3BF081
:103C400094EC3DF03F6BDF6A080EDF5C05E266EC4A
:103C50003CF0EF6ADF2AF8D7D3EC47F043EC46F0AC
:103C600003E08AEC45F0FDE149EC46F003E08AEC24
:103C700045F0FDE100C05FF6E552E9EF3BF0D8EC1E
:103C800047F030C520F031C521F016ECB9F0FDEC5D
:103C900039F05EC524F05FC525F060C526F061C52A
:103CA00027F096EC48F0FDEC3AF05FECB9F0060E28
:103CB0001FC0DBFF070E20C0DBFF080E21C0DBFFAB
:103CC000090E22C0DBFF7EEC3DF0246A256A266ADD
:103CD000276A78EC43F0E1ECBBF0010A11E1060E33
:103CE000DBCF1FF0070EDBCF20F0080EDBCF21F07B
:103CF000090EDDEC47F020C0E6F521C0E7F503D062
:103D00000501E66BE76B32C520F033C521F029ECE5
:103D100045F020C0E8F521C0E9F534C520F035C5EF
:103D200021F066EC48F0300E246E9E0E256E710E6A
:103D300051EC49F020C0EAF521C0EBF536C520F082
:103D400037C521F029EC45F020C0ECF521C0EDF598
:103D50000501E651EA5DE751EB5906E2EA51E65DFD
:103D6000EE6FEB51E75905D0E651EA5DEE6FE75192
:103D7000EB59EF6FE851EC5DE951ED5906E2EC517A
:103D8000E85DF06FED51E95905D0E851EC5DF06F59
:103D9000E951ED59F16FE6C5F2F5E7C5F3F5040E0B
:103DA0008CC9DBFF050E8DC9DBFF47C603F048C693
:103DB00004F0056A8CC906F08DC907F0086A065040
:103DC000035C006E07500458016E08500558026EDF
:103DD000080E246E256A266AF9EC48F0B5ECBAF0B4
:103DE00074EC47F0010E1FC0DBFF020E20C0DBFFAA
:103DF000030E21C0DBFF8CC903F08DC904F0056AF6
:103E000001EC45F00350EE24006E0450EE20016EEC
:103E10000550EE20026E00C08CF901C08DF923EC34
:103E200047F007E6D880B80E0054880E0154000E03
:103E3000025406E2040EDBCF8CF9050EDBCF8DF9C0
:103E400009018C518E5D8D518F5904E28CC98EF918
:103E50008DC98FF938C520F039C521F015EC4AF02D
:103E600020C0F4F521C0F5F58CCD20F08DCD21F0EA
:103E700015EC4AF020C03BF621C03CF600EC49F0BE
:103E800020C047F621C048F6B2C908F0B3C909F00E
:103E9000040ED89009320832E804FBE108C020F093
:103EA00009C021F0DCEC43F020C0B4F921C0B5F921
:103EB00045C620F046C621F071EC47F0ACEC3CF072
:103EC00020C049F621C04AF662EC38F0F3CF95FDE8
:103ED000F4CF96FD0D01580EF35C020EF45805E286
:103EE0000701600EE16FEA0E22D08A0E955D020E88
:103EF000965919E295CDE1F796CDE2F70701940EB8
:103F0000D880E157020EE257E80EE203F3CFE2F762
:103F1000030EE103F350E227E80EE103F3CFE1F7EC
:103F2000F450E22705D00701100EE16F270EE26F73
:103F3000EEC5AEF6EFC500F0016AEFC5AFF6F0C50D
:103F4000B0F6F1C500F0016AF1C5B1F6B4C959F691
:103F5000B5C900F0016AB5C95AF6F4C555F6F5C5FC
:103F600000F0016AF5C556F649C657F64AC600F094
:103F7000016A4AC658F695CDA0F696CD00F0016AC2
:103F800096CDA1F60A0EE15C02E2E16AE552E16E2D
:103F9000E9EF3BF0E0EC3BF0100EE12605010051AB
:103FA00003E1D3EC47F0C5D093A829D023EC3EF031
:103FB0007EEC3AF018EC3EF0FDEC39F07BEC47F08B
:103FC0004BEC3BF009EC40F0800E211403E09C6BBD
:103FD0009D6B9E6B09015C0510E10DEC46F018EC41
:103FE0003EF0FDEC39F083EC46F04BEC3BF013EC8B
:103FF00040F0800E21143BE037D0040135D023EC93
:104000003EF07EEC3AF0C8EC44F0C4EC44F07BECBB
:1040100047F0F5EC3BF009EC40F02134000E21189C
:1040200002E687EC3DF003E29C6B9D6B9E6B090101
:104030005C0519E10DEC46F0C8EC44F0C4EC44F02A
:1040400083EC46F0F5EC3BF013EC40F02134000E2D
:10405000211807E6D880000E9955000E9A55000EDB
:104060009B5505E201D00401996B9A6B9B6B990EED
:10407000E96E040EEA6EEE509C5D006EEE509D59A6
:10408000016EEE509E59026E070E00C0DBFF080E57
:1040900001C0DBFF090E02C0DBFF9F5123E142ECB0
:1040A00040F0FF0E021807E6D880EC0E0054FF0E19
:1040B0000154FF0E025413E2D950070F62EC3CF09A
:1040C000020ED890EB50000A06E6140EEE5C000ECD
:1040D000EE58000EEF5803E2010E9F6F24D0B2ECB1
:1040E00042F027D0D950070F62EC3CF0020ED88086
:1040F000EB50FF0A06E6380EEE5CFF0EEE58FF0EA0
:10410000EF580DE342EC40F0000E021807E6D880AD
:10411000C80E0054000E0154000E025404E2B2EC2A
:1041200042F09F6B06D099C496F49AC497F49BC44E
:1041300098F496519711981104E10501F66BF76B0D
:104140005FD09835FF0E981907E6D880380E96553F
:10415000500E9755FF0E985553E2D8909851000A8B
:1041600006E6C80E965DAF0E9759000E985948E2C4
:10417000800E981510E0A5EC3CF0246825682668B0
:104180007EEC47F000ECBBF00E0E1CC0DBFF0F0E08
:104190001DC0DBFF06D00E0E96C4DBFF0F0E97C4CA
:1041A000DBFFB4C904F0B5C905F0066A076A0E0E54
:1041B000DBCF00F00F0EDBCF01F0026AAFEC40F076
:1041C000B4C923F0B5C924F0A5EC42F01AC01EF022
:1041D0001BC01FF01CC020F01DC021F0400E236E3C
:1041E000420E246E0F0E256E266ACAECC1F01EC068
:1041F000F6F51FC0F7F5010E0501F627000EF723AF
:104200000501000ED880F455000EF55565E2070152
:10421000CD0517E1B9EC42F07EEC3AF0C2EC3DF08E
:104220001FEC44F0C4EC44F05DEC48F096EC48F030
:10423000F4C520F0F5C521F064EC49F00CEC3DF03C
:1042400016D0B9EC42F0FDEC39F0F4C520F0F5C51C
:1042500021F016ECB9F08DEC48F013EC44F0C2EC10
:104260003DF0C1EC46F031EC4AF048ECBAF00A0EF1
:104270001FC0DBFF0B0E20C0DBFF0C0E21C0DBFFDD
:104280000D0E22C0DBFFBFEC42F00C0EDBCF02F0C4
:104290000D0EDBCF03F0246AE80E256E7D0E266E30
:1042A000470E276E78EC43F0EAECBBF0010A14E10C
:1042B0000A0EDBCF1FF00B0EDBCF20F00C0EDBCF96
:1042C00021F00D0EDBCF22F078ECBBF01FC0ABFD70
:1042D00020C0ACFD21C0ADFDCAEC46F0AAECBBF09D
:1042E0001EC0DEFF1FC0DEFFE2EC3DF0DD52DD52FE
:1042F00093A852D09CC4AAF6080E1F0B2EEC3FF0D8
:1043000003E08AEC45F0FDE100C0ABF6100E1F0B98
:104310002EEC3FF003E08AEC45F0FDE100C0ACF686
:1043200043EC46F003E08AEC45F0FDE149EC46F051
:1043300003E08AEC45F0FDE100C05FF6040198352A
:10434000000E981907E6D880000E9655000E975576
:10435000000E985505E285EC47F0450E88EC46F0D6
:10436000000EDFCF64F6FEEC3BF0080ED3EC45F018
:10437000FDE100C065F6FEEC3BF0100ED3EC45F01D
:10438000FDE100C066F6FEEC3BF0180ED3EC45F004
:10439000FDE100C067F680D098C402F0006A016AAF
:1043A000800E021600500AE1015008E1800E02184A
:1043B00005E1A5EC3CF099EC45F009D0040E96C45B
:1043C000DBFF050E97C4DBFF060E98C4DBFF040E6F
:1043D000DBCF5DF6080ED9EC48F003E08AEC45F03F
:1043E000FDE100C05EF6100ED9EC48F003E08AEC67
:1043F00045F0FDE100C05FF69EC402F0006A016A6C
:10440000800E021600500AE1015008E1800E0218E9
:1044100005E12EEC3FF099EC45F005D0CDEC42F0F3
:10442000060E9EC4DBFF040EDBCFAAF6080ED9EC05
:1044300048F003E08AEC45F0FDE100C0ABF6100E59
:10444000D9EC48F003E08AEC45F0FDE100C0ACF6A1
:104450000401800E981505E085EC47F0C50E88EC48
:1044600046F0000EDFCF68F6FEEC3BF0080ED3EC12
:1044700045F0FDE100C069F6FEEC3BF0100ED3EC18
:1044800045F0FDE100C06AF6FEEC3BF0180ED3ECFF
:1044900045F0FDE100C06BF6100EE15C02E2E16A5E
:1044A000E552E16EE9EF3BF0E0EC3BF00E0EE12669
:1044B0000601880ED76F130ED86FD96BDA6BDB6BE2
:1044C000DC6BFE0EDB500D080CE0FE0EDB500E0820
:1044D00008E0FE0EDB500F0804E0FE0EDB50100873
:1044E00024E10701915100080CE29151006E016A2C
:1044F000B4C920F0B5C921F091C725F04DEC41F0C9
:1045000004D0B4C9D5F6B5C9D6F6D5C6D7F6D6C641
:10451000D8F6D5C6D9F6D6C6DAF6D5C6DBF6D6C6EF
:10452000DCF60501F86BF96BFCD0DF6A81EC3FF03B
:1045300069E20601050E165D000E1759000E1859A6
:1045400007E206EC3BF020C000F021C001F011D0E2
:10455000BFEC40F0EECF14F0EFCF15F006EC3BF0DF
:1045600020501424006E21501520016ED890013285
:10457000003254EC3BF0DEEC3FF054EC3BF035EC19
:104580003FF004E254EC3BF0EE6AED6AD7EC45F004
:10459000BFEC40F0DEEC3FF054EC3BF00401EE5099
:1045A000325D006EEE503359016ECDEC3EF0DEEC24
:1045B0003FF0D7EC45F00601D751005CD8510158C7
:1045C0000CE254EC3BF0EECFD7F6EDCFD8F666EC2C
:1045D0003CF0EF5002E1DFCF00F9D7EC45F000509E
:1045E000D95D0150DA5906E254EC3BF0EECFD9F632
:1045F000EDCFDAF654EC3BF0EE50DB27EE50DC2347
:10460000DF2A94D70351006E016ADBC620F0DCC6B6
:1046100021F003C425F04DEC41F00601D951D75DDE
:10462000DA51D8590AE2D751D95D0501F86F060170
:10463000D851DA590501F96F03D00501F86BF96B10
:10464000FE0EDB040CE0FE0EDB50020808E0FE0E5E
:10465000DB50030804E0FE0EDB5004082EE10901E4
:10466000B4510601DB5D0901B5510601DC590AE2CE
:10467000DB510901B45D0601DD6FDC510901B5595B
:10468000060109D00901B4510601DB5DDD6F0901A6
:10469000B5510601DC59DE6FF40ED880DD55010EF0
:1046A000DE550BE2040E0901025D02E2022B07D087
:1046B0000401200E8FEC3DF002D00901026B0D01C8
:1046C000880EBE6F130EBF6FC06BC16BDF6A81ECCB
:1046D0003FF027E2D7EC45F09EEC3CF0DEEC3FF0FB
:1046E0009EEC3CF0DBEC3CF00D01BE51005CBF5198
:1046F000015806E29EEC3CF0EECFBEFDEDCFBFFDD3
:104700009EEC3CF0DBEC3CF00050C05D0150C15928
:1047100006E29EEC3CF0EECFC0FDEDCFC1FDDF2AFE
:10472000D6D70601D551BF5DD651C05905E30A0E53
:10473000DB6A0B0EDB6AA6D0D551D35DD651D459B6
:104740000BE2E80EF36E0A0EF3CFDBFF030EF36EFF
:104750000B0EF3CFDBFF96D0010EDF6E0A0EDB6A85
:104760000B0EDB6A010EDB6A010EDB5014E10B0E4F
:10477000DF5C11E2D4EC3EF0DBEC3CF0D551005CA8
:10478000D651015804E2D3EC46F0DF2AEDD7DE52D1
:10479000010EDD6EE9D70B0EDF5C74E2DF5072E0D4
:1047A000D3EC46F0D4EC3EF024EC45F0DF045CECB6
:1047B0003CF0BF0EE926060EEA22EE50025C006EC7
:1047C000EE5003584CEC42F0D4EC3EF0DBEC3CF005
:1047D0000A0E97EC40F00002F3CF00F0F4500126EF
:1047E000060EF3CFDBFF070E01C0DBFF0A0E206EC3
:1047F000216AD5C625F0D6C626F0E2ECBAF0080E3E
:104800001EC0DBFF090E1FC0DBFF7EEC3DF056EC47
:104810003FF015E2D9500A0F62EC3CF00A0EEE5E52
:10482000000EED5A020EDBCF00F0030EDDEC41F07E
:1048300062EC3CF00050EE5E0150ED5AE6D70A0EF5
:10484000006E016A020EDBCF20F0030E56EC41F041
:104850003AEC49F0EE50ED1015E07EEC3DF0E1EC65
:1048600047F010E20A0EDB2A0B0E01E3DB2A040EEE
:10487000DBCF00F0050EDDEC41F062EC3CF03AECF1
:1048800043F0EBD70401070557E10701AE0554E1FA
:104890000401030551E0FE0EDB040AE140514AE148
:1048A0005EEC41F01CE2040E0401425D12E313D001
:1048B000FE0EDB50020804E0FE0EDB5003083CE174
:1048C000405110E15EEC41F00AE2040E0401425D49
:1048D00002E2422B31D0426B010E406F2DD0040119
:1048E000426B2AD0415128E10701AF510601D95D41
:1048F0000701B0510601DA591AE2040E0401425DC3
:1049000002E2422B16D0426B010E416FDF6A080EA5
:10491000DF5C0FE266EC3CF0EF6A3E0EDF24EA6AF1
:10492000520FE96E060EEA22EF6ADF2AF0D7040181
:10493000426B0401010E3F6FAECD70F6016AAFCD40
:1049400071F6B0CD72F6016AB1CD73F6B2CD74F6E0
:10495000016AB3CD75F6B4CD76F6016AB5CD77F6BA
:10496000B6CD78F6016AB7CD79F6B8CD7AF6016A98
:10497000B9CD7BF6BACD7CF6016ABBCD7DF6BCCD58
:104980007EF6016ABDCD7FF60A0EDBCF6EF60B0E0A
:104990007DEC3CF000C06FF6BFEC42F0E6EC47F077
:1049A0000E0EE15C02E2E16AE552E16EE9EF3BF0F6
:1049B000E0EC3BF0110EE126DF6A080EDF5C15E249
:1049C0001AEC4AF0010F52EC45F035EC40F0010FC3
:1049D0004BEC44F035EC3FF006E2D950010F4BECC4
:1049E00044F0EE6AED6ADF2AE8D7010EDBCF70F6FD
:1049F000020E7DEC3CF000C071F6030EDBCF72F6C8
:104A0000040E7DEC3CF000C073F6050EDBCF74F6AF
:104A1000060E7DEC3CF000C075F6070EDBCF76F697
:104A2000080E7DEC3CF000C077F6090EDBCF78F67F
:104A30000A0E7DEC3CF000C079F60B0EDBCF7AF667
:104A40000C0E7DEC3CF000C07BF60D0EDBCF7CF64F
:104A50000E0E7DEC3CF000C07DF60F0EDBCF7EF637
:104A6000100EDBCF01F001C000F001C07FF6110E87
:104A7000E15C02E2E16AE552E16EE9EF3BF0C0EC95
:104A800047F005010051030A01E180D1040A01E168
:104A90007DD10C0A01E17AD1040A01E177D10D0A36
:104AA00001E13ED1040A01E13BD10C0A01E138D118
:104AB000040A01E135D10F0A07E0040A05E00C0AF7
:104AC00003E0040A01E003D200056BE10A017A5118
:104AD00006E0020E7A5D03E0030E7A5D0CE105014B
:104AE000960EF85D000EF95924E30601D80ED95D43
:104AF0000E0EDA591EE30A017A050CE10501FA0EE1
:104B0000F85D000EF95915E30601E40ED95D0C0EAF
:104B1000DA590FE3F6EC41F022E10501960EF85D5B
:104B2000000EF95906E30601A40ED95D060EDA5906
:104B300016E20901BA5113E17DEC43F003E1A3EC65
:104B400041F002D0EBEC47F0DCEC3DF005E209016E
:104B5000BB5102E1010EBB6F0901B96B32D0050EEA
:104B60000901B95D13E27DEC43F003E1A3EC41F0F0
:104B700002D0EBEC47F0DCEC3DF005E20901BB5163
:104B800002E1010EBB6F0901B92B1BD00401E80E35
:104B90002B6F030E2C6F0901BA5113E1010EBA6F8E
:104BA00010D07DEC43F003E1A3EC41F002D0EBEC3C
:104BB00047F0DCEC3DF005E20901BB5102E1010EDA
:104BC000BB6F0D0E0501005D30E1F6EC41F00BE12D
:104BD0000401700ED8802B55170E2C5504E2700E70
:104BE0002B6F170E3ED00A017A5106E0020E7A5D55
:104BF00003E0030E7A5D0BE10401D00ED8802B5543
:104C0000070E2C5504E2D00E2B6F070E2AD00A0196
:104C10007A0528E10401100ED8802B55270E2C555B
:104C200021E2100E2B6F270E1CD0050E005D0BE14C
:104C30000401200ED8802B554E0E2C5504E2200E78
:104C40002B6F4E0E0ED02BC400F02CC401F023ECC1
:104C500047F002E65CEC3EF005E20401400E2B6FEB
:104C60009C0E2C6F1DEC40F017E229EC3CF002E6A4
:104C70005CEC3EF002E210EC3DF037EC48F0040151
:104C80002B51005C2C51015809E2020EDBCF2BF4B2
:104C9000030EDBCF2CF402D010EC3DF0DCEC3DF049
:104CA00002E2CEEC41F0E2EC41F002E268EC46F0C8
:104CB0002DEC48F0B2EC48F0DCEC46F0FEEC49F0AC
:104CC00006E10401C80E276FAF0E286F02D08BECEF
:104CD00047F004012351275D245128590AE2010EAF
:104CE000316F4FEC46F00901BC5106E1010EBC6F7B
:104CF00003D0316BCFEC3BF071EC45F01EEC4AF089
:104D0000E5EC3BF0246A400E256E1C0E266E470E25
:104D1000276E74EC48F001E0D4D079EC40F0D3D0A9
:104D2000FD0EDBCF00F0FE0EDBCF01F0100E005CBD
:104D3000270E015806E20401400E2F6F1F0E306F40
:104D40000ED0E2EC46F0006AB40E016EC40E026EA4
:104D5000040ED1EC44F01EC02FF41FC030F452EC0E
:104D60003DF02D51F35C2E5130590DE235EC3EF003
:104D700083EC40F008E24DEC3DF02DC4E6FF2EC47C
:104D8000E6FFEBEC46F0B2EC43F098D02DEC48F0A7
:104D9000AAEC49F08DC720F08EC721F064EC49F0F1
:104DA00078EC43F040EC3AF006E10401C80E2F6FB6
:104DB000AF0E306F06D0C3EC3BF020C02FF421C003
:104DC00030F452EC3DF0F3CF00F030C401F023ECAE
:104DD00047F002E65CEC3EF004E2400E2F6F9C0EC2
:104DE000306F1DEC40F017E229EC3CF002E65CEC81
:104DF0003EF002E210EC3DF037EC48F004012F5198
:104E0000005C3051015809E2020EDBCF2FF4030E93
:104E1000DBCF30F402D010EC3DF02D512F5D2E5140
:104E2000305902E235EC3EF083EC40F002E24DEC0A
:104E30003DF02DEC48F0AAEC49F0DCEC46F078ECC3
:104E400043F040EC3AF006E10401C80E276FAF0EC4
:104E5000286F02D08BEC47F004012551275D2651C5
:104E600028590AE2010E316F56EC46F00901BC5197
:104E700006E1010EBC6F03D0316BDAEC3BF071EC54
:104E800045F0106A116AFA0E126E430E136E2DEC85
:104E900048F01FC014F020C015F021C016F022C049
:104EA00017F037EC3AF010C01FF011C020F012C01C
:104EB00021F013C022F074EC48F003E17EEC40F0E6
:104EC00002D044EC43F0016A00C0A7F605D004010B
:104ED0000B6B0C6B0F6B106B080EE15C02E2E16A6E
:104EE000E552E16EE9EF3BF0E0EC3BF0060EE12627
:104EF00005010051020A34E0040A32E00C0A30E0F5
:104F0000040A2EE00D0A2CE0040A2AE00C0A28E02C
:104F1000040A26E00E0A06E0040A04E00C0A02E095
:104F2000040A5CE139EC45F0FDEC39F04BEC3BF068
:104F3000FAEC49F041EC45F043EC3CF003E117ECAE
:104F400046F022E0100E206E216A3AC525F03BC5DE
:104F500026F0DBEC42F03AC515F43BC516F43ED022
:104F600039EC45F07EEC3AF006EC49F0C4EC44F044
:104F7000F5EC3BF0FAEC49F0C8EC44F043EC3CF0C3
:104F800020E117EC46F01DE137EC48F00AEC49F05F
:104F90006AEC40F078EC43F0ACEC3CF0E2EC3DF035
:104FA000020EDBCF1FF0030EDBCF20F0040EDBCFB1
:104FB00021F0050EDDEC47F020C015F421C016F4F9
:104FC0000DD0100E206E216A3CC525F03DC526F09F
:104FD000DBEC42F03CC515F43DC516F467EC41F03E
:104FE000060EE15C02E2E16AE552E16EE9EF3BF0B8
:104FF000CEEC45F005010051030A71E0040A6FE0B0
:105000000C0A6DE0040A6BE00D0A4DE0040A4BE067
:105010000C0A49E0040A47E00F0A07E0040A05E029
:105020000C0A03E0040A01E093D0C9EC41F093C7F5
:1050300098F694C700F0016A94C799F6DCEC3DF04D
:1050400002E2CEEC41F01AEC3FF004E2B5EC46F09F
:10505000450E11D0D3EC41F003E2D6EC3CF005D084
:1050600072EC42F005E1E3EC3FF0066E460E03D031
:1050700077EC3CF0470E6EEC43F0E2EC3DF0B5EC23
:1050800044F004010050485D0150495904E2DECF6C
:1050900048F4DDCF49F4315103E1C5EC47F055D078
:1050A0004FEC46F050D0B8EC3EF002E235EC3EF06A
:1050B0004DEC3DF02BEC43F003E23FEC46F002D028
:1050C00093EC44F0276E88EC48F0B0EC49F004E231
:1050D000DECF4AF4DDCF4BF4B2EC43F02FD0B8EC86
:1050E0003EF002E235EC3EF04DEC3DF030EC43F0AA
:1050F00004E2B5EC46F0C50E12D035EC43F003E205
:10510000D6EC3CF006D0070E0501005D05E1E3ECAE
:105110003FF0066EC60E03D077EC3CF0C70E97EC5E
:1051200044F0B0EC49F004E2DECF4AF4DDCF4BF4BA
:105130000D01010E926F0401315103E11FEC47F0A4
:1051400004D056EC46F044EC43F0016A00C0A7F6E8
:105150000401000504E1006B06011E6B1F6B020ECB
:10516000E15C02E2E16AE552E16EE9EF3BF0E0EC7E
:105170003BF0E652DF6A81EC3FF033E20901005177
:10518000DF5C04E166EC3CF0EF6A29D091EC46F07C
:1051900001500318E8AE02D0033402D0E1EC47F02E
:1051A0000BE266EC3CF0EFCF00F0320E005C17E251
:1051B00066EC3CF0EF2A13D091EC46F00350011856
:1051C000E8AE02D0013402D056EC3FF008E266ECC3
:1051D0003CF0EF50000803E266EC3CF0EF06DF2AFB
:1051E000CAD7A7EC3EF0E552E9EF3BF0E0EC3BF02C
:1051F000510EE126DF6A81EC3FF001E30AD1D6ECE3
:1052000043F0BBEC47F0EECF0DF0EFCF0EF0D8EC53
:1052100041F016ECB9F01FC009F020C00AF021C01F
:105220000BF022C00CF018EC3EF01FC005F020C0BF
:1052300006F021C007F022C008F04BEC3BF0EFEC89
:1052400047F057EC45F0D950010F3EEC3CF0030D10
:1052500000509BEC3AF01FC0EEFF03C0EEFF04C00D
:10526000EEFFD6EC43F0B30EE926040E6DEC48F0E9
:105270000CEC47F0190F4BEC44F020C0EEFF03C0DC
:10528000EDFFD6EC43F0D30EE926040E6DEC48F0AA
:10529000DF50A5EC3AF021C003F0D950290F52ECB1
:1052A00045F035EC40F0290F52EC45F035EC3FF07D
:1052B00006E2D950290F52EC45F0EE6AED6AD9505A
:1052C000190F026EDACF03F0DF50020D92EC47F0B7
:1052D000290F066EDACF07F0DF50020D06509BEC67
:1052E0003AF0EECF04F0EFCF05F00050045C01502F
:1052F000055801E38CD0D950190F076EDACF08F0AA
:10530000DF50020D07509BEC3AF0EECF05F0EFCFE7
:1053100006F0D950290F096EDACF0AF0DF50020DDE
:1053200009509BEC3AF0EE50055C026EEE500658C8
:10533000036E046A100E246E270E256E266AE2ECB8
:1053400042F000ECBBF01DC003F01EC004F0D950C9
:10535000390F006EDF50030D00509BEC3AF01CC07B
:10536000EEFF03C0EEFF04C0EEFFD950010F036E45
:10537000DACF04F0DF50030D03509BEC3AF0F3EC6E
:1053800047F0EFCF02F00234000E021807E6D88093
:10539000000E0054000E0154000E025438E2D950A1
:1053A000010F0A6EDACF0BF0DF50030D0A509BECB1
:1053B0003AF0EECF07F0EECF08F0EFCF09F0D9507A
:1053C000390F056EDACF06F0DF50030D05509BEC68
:1053D0003AF0EECF02F0EECF03F0EFCF04F0E2ECC4
:1053E00042F007C024F008C025F009C026F0EEEC1A
:1053F000C1F01FC000F020C001F0D6EC43F0000E59
:10540000E926060EEA221FC0EEFF01C0EDFFDF2AEB
:10541000F2D600C680F601C681F602C682F603C641
:1054200083F604C684F605C685F606C686F607C664
:1054300087F608C688F609C689F60AC68AF60BC634
:105440008BF60CC68CF60DC68DF60EC68EF60FC604
:105450008FF6DF6A080EDF5C0EE2D6EC43F04DEC0F
:1054600040F0D6EC43F052EC40F0D6EC43F057EC71
:1054700040F0DF2AEFD7510EE15C02E2E16AE5522B
:10548000E16EE9EF3BF0E0EC3BF0270EE12609018D
:10549000715103E1030E49EC43F00A017A51080A05
:1054A0006BE00F0A67E0010A54E0030A4DE0010ACD
:1054B00049E0070A38E0010A28E0030A12E0010A7D
:1054C00061E1800E88EC40F0250EDB6AE66A8FEC25
:1054D00082F0E552DF6A080EDF5C54E24AEC45F0E8
:1054E000FAD7C00E88EC40F0250EDB6A010EA9EC5D
:1054F00041F0080EDF5C46E2066A200E076E800E61
:10550000086E450EE9EC39F0F4D7240EDB6A010E83
:10551000E7EC41F0020EA9EC41F0080EDF5C32E24C
:105520004AEC45F0FAD7400E88EC40F0010EE7EC6B
:1055300041F0030EA9EC41F0080EDF5C23E24AECD7
:1055400045F0FAD7800E01D0C00E88EC40F0010E75
:1055500017D0240EDB6A020EE7EC41F0DF6A080E7A
:10556000DF5C10E2066A076AFA0E086E440EE9EC88
:1055700039F0F5D7400E01D0800E88EC40F0020ED5
:10558000E7EC41F0020EDB6A010EF36E260EF3CF5C
:10559000DBFF140EF36E020EECEC41F00AE2260E75
:1055A000DB0407E182EC33F0E76E260E3DEC47F0BA
:1055B000F0D7260EDB5001E07BD28B98010E15EC64
:1055C0003CF00401446B4451FEE0230EDB6ADF6AC9
:1055D000030EDF5C01E37DD20401446B4451FEE025
:1055E00000EC49F0B6EC49F02FEC3DF00F01BEECB9
:1055F00044F0EF6A010EDB6A080EF36E010EECEC6C
:1056000041F001E387D0010EEA6ADB34FE0BEA3693
:10561000E96EF7EC45F040EC44F0010EDB505BEC3A
:1056200043F0C4EC44F0010EDB50A5EC3AF02FEC53
:1056300040F0C2EC45F035EC40F0C2EC45F035EC02
:105640003FF005E2D950C2EC45F0EE6AED6AF1ECAC
:1056500046F05DE1F6EC41F012E181EC44F06AECD9
:105660003EF055E20FEC45F024EC45F0D00E025C24
:10567000070E03584CE2C7EC45F041E044D07A51A4
:1056800006E0020E7A5D03E0030E7A5D1DE181EC17
:1056900044F041EC3FF03BE20FEC45F070EC41F0A0
:1056A00036E2D950050F016EDACF02F0DF500F015C
:1056B0000124E96E000EDA20EA6EEFCF00F0010E51
:1056C000DB50005C20E11BD07A050EE181EC44F058
:1056D0006AEC3EF01CE20FEC45F076EC41F017E28C
:1056E000C7EC45F010E10BD081EC44F0140ED880EB
:1056F000EE54050EED540BE2C7EC45F004E15DEC11
:1057000046F0EF2A04D0D9EC49F0130EEF6E010EEB
:10571000DB2A72D705010051090A01E118D1030AF9
:1057200001E115D1060A01E112D1070A01E10FD109
:10573000060A01E10CD1030A01E109D1010A01E1E4
:1057400006D10A0A01E1C7D0030A01E1C4D00E0A5A
:1057500001E1C1D00F0A01E1BED0060A07E0030A49
:1057600005E0060A03E0070A01E0A0D1F1EC46F0EB
:1057700001E09CD12FEC3DF0B0EC3BF0EF505DE14F
:10578000F6EC41F01DE16DEC46F06AEC3EF007E20C
:1057900022EC3DF0D00E005C070E01581DE3040E14
:1057A0000501005D44E16DEC46F06AEC3EF03FE23D
:1057B00022EC3DF0800E005C3E0E015838E226D00F
:1057C0006DEC46F041EC3FF00AE222EC3DF0C60EF3
:1057D000005C110E015803E20701010E19D0040EFE
:1057E0000501005D24E16DEC46F041EC3FF01FE265
:1057F00022EC3DF0026AD8900250000A06E6B80E8C
:10580000005C880E0158000E025811E20701090ED3
:10581000916FD950050F3EEC3CF00F01B0EC3BF01E
:10582000010EEF6EF36E230EF3CFDBFF3FD1D950A5
:105830001C0F3EEC3CF00F0135D1180EDB6A190E3F
:10584000DB6A010EDB6A2FEC3DF0B0EC3BF0EF5071
:10585000F36E010EECEC41F00FE2D950080F026E2E
:10586000EDEC3FF092EC47F0180F62EC3CF03AECB4
:1058700043F0010EDB2AE7D722EC3DF0E9EC42F0E1
:1058800056EC3FF00CE2030EDBCF02F0040EDBCF50
:1058900003F0180EDB50025C006E190E07D0E9EC25
:1058A00042F0030EDB50025C006E040EDB50035826
:1058B000016E1A0E00C0DBFF1B0E01C0DBFFD950CA
:1058C0001A0F62EC3CF06AEC3EF001E3EFD0D9EC49
:1058D00049F0200EEAD0BDEC49F008EC3FF099EC1D
:1058E00047F001E0D9D022EC3DF0640EB1EC46F077
:1058F00001E2CED06DEC46F00C0ED880EE547B0E5B
:10590000ED5401E2C5D05DEC46F0010EEF6E0701EB
:1059100091511AE172EC42F004E1780E006E050E2E
:1059200003D0E20E006E040E016E030EDBCF20F0FA
:10593000040E56EC41F020C0C3F70701205001E0EF
:10594000B5D0010EC36FB2D091C7C3F7AFD00D0E63
:10595000005D07E1230EE76E240E33EC44F0230EC6
:105960000ED00E0E005D03E00F0E005D06E1240E6A
:10597000E76E33EC44F0240E02D0BDEC49F008ECA5
:105980003FF00D0E0501005D06E00E0E005D03E028
:105990000F0E005D28E1F6EC41F005E121EC46F048
:1059A00045EC47F04AD07A5106E0020E7A5D03E0FA
:1059B000030E7A5D0EE1E8EC3FF045EC47F08BEC2E
:1059C0003CF0C60E97EC40F0110E76EC42F0C60E9D
:1059D00034D021EC46F0040E97EC40F0100E76EC3B
:1059E00042F0040E2AD00C0E005D15E1DC0EF36EC1
:1059F0001F0EF3CFDBFF050EF36E200EF3CFDBFFA0
:105A0000D80EF36E210EF3CFDBFF720EF36E220E73
:105A1000F3CFDBFF1BD0E8EC3FF0DC0E97EC40F05F
:105A2000050E76EC42F0DC0E8BEC3CF0C40E97ECED
:105A300040F0090E76EC42F0C40E0002F45001264C
:105A4000210EF3CFDBFF220E01C0DBFF99EC47F004
:105A500023E122EC3DF01F0EDBCF02F0200EF8EC2C
:105A600047F016E2030EDBCF04F0040EDBCF05F0A7
:105A7000210EDBCF06F0220EDBCF07F00650045CD0
:105A80000750055805E25DEC46F091C7EFFF0ED0D8
:105A9000D9EC49F0140E09D02FEC3DF056EC49F04A
:105AA0003EEC3CF0B0EC3BF0130EEF6EDF2A90D5ED
:105AB000DF6A030EDF5C0DE22FEC3DF00F0156ECC8
:105AC00049F0006EDF50B0EC3BF0150EEF6EDF2AB0
