:020000040000FA
:060000001FEFD0F012001A
:020006000000F8
:06000800E2EF17F0120008
:02000E001200DE
:060018009FEF0DF0120045
:02001E00D9CF38
:10002000E6FFE1CFD9FF090EE12654EC18F0ADEC64
:1000300018F0C00EF2120F013985BA94B984ABECF6
:10004000AAF0B1ECAAF0FCECB1F03D0EF66E9D0EFC
:10005000F76E010EF86E0900F5CF00F00800F5CF3D
:1000600001F0FC0E005C080E015803E2B9ECAAF0A6
:1000700002D0E0ECAAF0A5ECABF085C7E6FF320EAB
:10008000E66EE66AA0ECCEF0E552E552E5520401D8
:10009000030E146F0401010E156F8D80BDEC8EF000
:1000A00000090AE10501290E446F0601010E126FD5
:1000B0000601010E136F0DD017EC8FF0000909E156
:1000C0000501280E446F0601010E126F0601010E94
:1000D000136F07019051010806E2020E0701905DBF
:1000E0000901816F03D00901010E816F090181515E
:1000F000000817E20401035114E1060E0401025D39
:1001000010E109019A0505E191EC38F009019A6BBB
:1001100007D009019B0504E188EC3BF009019B6BCA
:10012000E5D70401010E036F0401060E026F85C7B7
:10013000E6FF320EE66EE66AA0ECCEF0E552E5523E
:10014000E552FCECB1F00601130547E10401006B38
:100150008FC7E6FF9CEC50F0E5520701010E8F6F50
:1001600000C452F60601AD690401020E036F020ECF
:100170000401035D0CE0030E0401035D08E0040EBE
:100180000401035D04E0050E0401035D25E144C59F
:10019000E6FFB7ECACF0E55207018551E66EE66A82
:1001A0000C0EE66EE66AECECCEF0E552E552E55256
:1001B000E5520401036B0401035101E1FCD785C73B
:1001C000E6FF320EE66EE66AA0ECCEF0E552E552AE
:1001D000E5520401010E036FB6D705013B5101E062
:1001E000FBD10401006B8FC7E6FF9CEC50F0E55299
:1001F0000701010E8F6F00C452F60601AD690401BC
:10020000005101E007D1050E0401035D3CE185C703
:10021000E6FF640EE66EE66AA0ECCEF0E552E5522B
:10022000E552010EE66E640EE66EE66A1DEC3EF0E7
:10023000E552E552E55285C7E6FF320EE66EE66A04
:10024000A0ECCEF0E552E552E5521F0E0801005D2C
:1002500016E00801B46B0D01E951006E016AFF0E52
:10026000001801E1015006E1010EE66E9CEC50F031
:10027000E55205D0060EE66E9CEC50F0E552040106
:10028000010E036F1ED0020E0401035D08E0030E91
:100290000401035D04E0040E0401035D12E185C75F
:1002A000E6FF320EE66EE66AA0ECCEF0E552E552CD
:1002B000E55203C4E6FF72EC5EF0E5520401010E64
:1002C000036F070E0401025D09E1070EE66E72EC92
:1002D0005EF0E5520401060E026F0CD0080E040118
:1002E000025D08E1080EE66E72EC5EF0E552040174
:1002F000060E026F06014D050AE106014D6B010E67
:10030000E66E9CEC50F0E5520401010E036F05010E
:10031000360504E1E5EC20F00501366B0601120517
:1003200041E10801B451EA6AAA0FE96E080EEA2217
:1003300000C8EFFF0801B451EA6AAF0FE96E080E7A
:10034000EA2294C8EFFF44C5E6FFB7ECACF0E552F3
:1003500007018551E66EE66A0C0EE66EE66AECEC85
:10036000CEF0E552E552E552E552030E0401035D7D
:1003700001E0FBD785C7E6FF320EE66EE66AA0EC29
:10038000CEF0E552E552E5520601126B0501446BD1
:100390000401006B010EE66E9CEC50F0E552040186
:1003A000010E036F09019A0505E191EC38F009018E
:1003B0009A6B07D009019B0504E188EC3BF0090129
:1003C0009B6B110E0401005D10E10501635104E017
:1003D00059EC27F00501636B0701CF5106E082EC71
:1003E000A0F00701CE6F0701CF6B0701D05111E0DC
:1003F00009019C0503E009019D050BE1010EE66E74
:10040000640EE66EE66A1DEC3EF0E552E552E552FA
:10041000FF00F5D6110E0401005D01E079D0FCEC7F
:10042000B1F009019A0504E191EC38F009019A6BE9
:100430000501610504E169EC22F00501616B06012B
:1004400012052CE1140EE66EE66A020EE66E6B0EE5
:10045000E66E9B0EE66E010EE66EF4ECAEF0006EFC
:10046000060EE15E005044C5E6FF35EC85F0E5522E
:10047000E76E020EE7CFDBFF020EE66E060EE66EBB
:10048000020EE66E180EE66E040EE66EE4ECAFF0B9
:10049000006E050EE15E00500601126B050163055A
:1004A00004E159EC27F00501636B0701CF0506E174
:1004B00082ECA0F00701CE6F0701CF6B0701D005DA
:1004C00011E109019C0503E009019D050BE1010E05
:1004D000E66E0A0EE66EE66A1DEC3EF0E552E55267
:1004E000E552FF000501360512E1E5EC20F0E6C714
:1004F000E6FFE6ECABF0E552080E0701E65D03E22D
:100500000701E62B02D00701E66B0501366B89D7A0
:10051000BEEC1AF0A0EC2DF00501036F010EE66EA3
:1005200013EC9EF0E552050103511CE10501445115
:1005300006E1130EE66EB7ECACF0E55205D044C50B
:10054000E6FFB7ECACF0E55207018551E66EE66ACE
:100550000C0EE66EE66AECECCEF0E552E552E552A2
:10056000E5520FD0040EE66EB7ECACF0E55285C74D
:10057000E6FF320EE66EE66AA0ECCEF0E552E552FA
:10058000E55206010A0E4B6F06014C6B0401035144
:1005900001E0FCD70501035107E10401035101E12A
:1005A000FCD706014C6B12D00401035104E1060193
:1005B0004C5101E1F9D7030E0401035D04E0050E7F
:1005C0000401035D03E10601010E406F0601010E07
:1005D000146F03C5A5F694D1DF6A07018651DF5C6D
:1005E00016E285C7E6FF320EE66EE66AA0ECCEF0B4
:1005F000E552E552E552E66AF40EE66E010EE66E4D
:100600001DEC3EF0E552E552E552DF2AE6D7070140
:10061000B051B11101E1F2D0B0C716F6B1C717F66B
:100620000601186BE66AB0C7E6FFB1C7E6FF13EC38
:100630008BF0E552E552E5520901010E706F9A0EFA
:10064000E66EE40EE66E010EE66ED5ECA1F0E55224
:10065000E552E552E76E020EE7CFDBFF020EDB50FC
:10066000070805E2070EF36E020EF3CFDBFF070E5D
:10067000E66E1E0EE66E010EE66E2E0EE66E9B0E0A
:10068000E66E010EE66EF4ECAEF0006E060EE15E74
:100690000050020EDBCFE6FF1E0EE66E010EE66E88
:1006A0009A0EE66EE40EE66E010EE66EF4ECAEF027
:1006B000006E060EE15E00500901010E846F090113
:1006C00070056EE1050E0401035D6AE00501620537
:1006D0000BE101C4E6FFF7EC24F0E552F3CFBDF6E1
:1006E000F4CFBEF60501626B050136051BE1E5ECB2
:1006F00020F0F5C4E6FFF6C4E6FFB4C9E6FFB5C9CD
:10070000E6FFC0EC27F0E552E552E552E55210C68F
:10071000E6FF01C4E6FFEDECB4F0E552E552050159
:10072000366B2ED0070E0401025D14E10601115153
:100730000601105D03E20601102B02D00601106BCA
:100740000901010E826F0501010E366F0401060ECC
:10075000026F16D0080E0401025D12E1060110516D
:10076000000803E20601100702D011C610F60901C5
:10077000010E826F0501010E366F0401060E026F35
:1007800009019A0505E191EC38F009019A6B07D04F
:1007900009019B0504E188EC3BF009019B6B8FD7B5
:1007A0000901846B050E0401035D16E105013B6B35
:1007B0000501516B0901706B0601030E406F85C77F
:1007C000E6FF320EE66EE66AA0ECCEF0E552E552A8
:1007D000E5520401010E036F070EE66E1E0EE66E73
:1007E000010EE66E2E0EE66E9B0EE66E010EE66EB6
:1007F000F4ECAEF0006E060EE15E0050030E060152
:10080000405D01E17BD0040101510E0A67E0010A5D
:1008100065E0020A52E0070A4CE0010A4AE0020AD7
:1008200037E00F0A31E0010A2FE0020A1CE0070A54
:1008300016E0010A14E0020A01E054D007018051D9
:1008400006E007018A5103E00701D45104E10401E5
:10085000020E006F03D00401030E006F48D00401A4
:10086000010E006F44D00701805106E007018A5154
:1008700003E00701D45104E10401060E006F03D028
:100880000401070E006F33D00401050E006F2FD056
:100890000701805106E007018A5103E00701D451A6
:1008A00004E104010A0E006F03D004010B0E006F77
:1008B0001ED00401090E006F1AD00701805106E016
:1008C00007018A5103E00701D45104E104010E0E2F
:1008D000006F03D004010F0E006F09D004010D0E4C
:1008E000006F05D00401006B05013B6B00D0BEEC2E
:1008F0001AF0010EE66E13EC9EF0E5520601146B41
:10090000030E0601405D02E17AEF0AF006014005A0
:1009100006E00501035103E006014C0529E106014B
:100920004C050EE107018551E66EE66A0C0EE66E97
:10093000E66AECECCEF0E552E552E552E5520AD01B
:1009400085C7E6FF320EE66EE66AA0ECCEF0E55211
:10095000E552E5520601010E406F0401006B0501EE
:100960003B6B06014C6B0401010E036F7AEF0AF03A
:1009700085C7E6FF320EE66EE66AA0ECCEF0E552E1
:10098000E552E5520401010E036F97EC8DF006016C
:10099000140502E1FCECB1F000C4E6FF9BECB2F000
:1009A000E552010EE66E000EE66EE66A13EC8BF081
:1009B000E552E552E552040100050CE0020E040187
:1009C000005D08E0040E0401005D04E0030E040174
:1009D000005D0FE10501625101E1FCD700C4E6FFB3
:1009E000F7EC24F0E552F3CFBDF6F4CFBEF60501E7
:1009F000626BE5EC20F010C6E6FF00C4E6FFEDEC0C
:100A0000B4F0E552E55200C4E6FF97EC1BF0E55266
:100A100000C4E6FF9BECB2F0E552E5EC20F00401E7
:100A200000511EE0040E0401005D1AE0080E0401EE
:100A3000005D16E00C0E0401005D12E0100E0401D2
:100A4000005D0EE0070192510D019E5D070193517B
:100A50000D019F5905E30401146B0401156B8D8092
:100A600000C452F60601536BD18010C6E6FF00C4E5
:100A7000E6FFEDECB4F0E552E55200C4E6FFE2EC2F
:100A80003CF0E55204000901010E846F040100519D
:100A900002E177EF0AF0040005013F0504E12FECC5
:100AA0002CF005013F6B0501460504E149EC32F0ED
:100AB0000501466B0701D50501E07DD000C401F4B6
:100AC0000401006BE66A020EE66EE66A69EC20F04D
:100AD000E552E552E55201C4E6FF9BECB2F0E55267
:100AE00010C6E6FF01C4E6FFEDECB4F0E552E552B6
:100AF0000F0EE66EB7ECACF0E55285C7E6FF320E9E
:100B0000E66EE66AA0ECCEF0E552E552E552030E41
:100B10000401015D04E10401020E006F1AD0070E0A
:100B20000401015D04E10401060E006F12D00B0EFA
:100B30000401015D04E104010A0E006F0AD00F0EEA
:100B40000401015D04E104010E0E006F02D00401F6
:100B5000006B00C452F6BEEC1AF0010EE66E13EC08
:100B60009EF0E5529BC799F79CC79AF70400E66A86
:100B7000B80EE66E0B0EE66E1DEC3EF0E552E55249
:100B8000E552040097EC8DF0FCECB1F000C4E6FFF8
:100B90009BECB2F0E55210C6E6FF00C4E6FFEDECB8
:100BA000B4F0E552E552040000C4E6FF97EC1BF0F8
:100BB000E5520701D56B0501500542E100C401F47F
:100BC0000401006B020EE66E020EE66EE66A69EC48
:100BD00020F0E552E552E55201C4E6FF9BECB2F08D
:100BE000E55210C6E6FF01C4E6FFEDECB4F0E552B5
:100BF000E552030E06013A5D19E206013A2B0400A4
:100C0000E66AB80EE66E0B0EE66E1DEC3EF0E5529F
:100C1000E552E552040001C400F40401035105E16A
:100C200000C4E6FF97EC1BF0E55208D006013A6BD2
:100C30000501180E446F0601010E126F0501506B7D
:100C4000060112054FE100C401F40401006B160E09
:100C50000501445D08E0170E0501445D04E01B0E2C
:100C60000501445D09E1E66AE66AE66A69EC20F09E
:100C7000E552E552E55209D0020EE66EE66AE66AF2
:100C800069EC20F0E552E552E55201C4E6FF9BEC29
:100C9000B2F0E55210C6E6FF01C4E6FFEDECB4F099
:100CA000E552E55285C7E6FF320EE66EE66AA0EC35
:100CB000CEF0E552E552E552010EE66E640EE66EA8
:100CC000E66A1DEC3EF0E552E552E55285C7E6FFC7
:100CD000320EE66EE66AA0ECCEF0E552E552E55241
:100CE00005013B6B050151051AE100C401F4040143
:100CF000006B020EE66EE66AE66A69EC20F0E552E9
:100D0000E552E55201C4E6FF9BECB2F0E55210C695
:100D1000E6FF01C4E6FFEDECB4F0E552E55209014F
:100D2000900501E0A8D0010EE66EE66AE66A69EC7D
:100D300020F0E552E552E55200C4E6FF9BECB2F02C
:100D4000E55210C6E6FF00C4E6FFEDECB4F0E55254
:100D5000E5520701855105E0D190B6ECCEF0D18087
:100D6000040006011C6B1D6B0501006BE5EC20F017
:100D7000F5C4E6FFF6C4E6FFB4C9E6FFB5C9E6FF71
:100D8000C0EC27F0E552E552E552E55200C4E6FF1B
:100D90009BECB2F0E55210C6E6FF00C4E6FFEDECB6
:100DA000B4F0E552E5520901010E916F040000C450
:100DB000E6FF97EC1BF0E552B00EE66EE40EE66E31
:100DC000010EE66ED5ECA1F0E552E552E552E76E74
:100DD000020EE7CFDBFF020EDB50070805E2070E2D
:100DE000F36E020EF3CFDBFF070EE66E1E0EE66E0D
:100DF000010EE66E2E0EE66E9B0EE66E010EE66EA0
:100E0000F4ECAEF0006E060EE15E0050020EDBCF99
:100E1000E6FF1E0EE66E010EE66EB00EE66EE40E06
:100E2000E66E010EE66EF4ECAEF0006E060EE15ECC
:100E30000050010EE66EAAC7E6FFABC7E6FF1BEC4B
:100E400088F0E552E552E552E76E020EE7CFDBFF90
:100E5000060EE66E360EE66EE66A180EE66E040EB6
:100E6000E66EE4ECAFF0006E050EE15E00500901A5
:100E7000906B060154970501610504E169EC22F0CD
:100E80000501616B0501620518E100C4E6FFF7EC9E
:100E900024F0E552F3CFBDF6F4CFBEF609017D5143
:100EA0000AE1BDC66CF6BEC600F0016A00C06DF670
:100EB0000901010E7D6F0501626B0501A10504E1C9
:100EC0006EEC2CF00501A16B0601240504E1D5ECC4
:100ED0008BF00601246B090172050EE107019651A2
:100EE00006011A5D09E17ACAE6FF33EC37F0E552F4
:100EF0000701C96F0901726B0501360501E0D7D002
:100F00000901830504E10EEC8DF00901836BE5EC2A
:100F100020F0F5C4E6FFF6C4E6FFB4C9E6FFB5C9A4
:100F2000E6FFC0EC27F0E552E552E552E552040138
:100F300013050BE1ABECAAF0B1ECAAF000C4E6FF9C
:100F40009BECB2F0E5520401136B0901B80509E00E
:100F50000901BA0506E00901BB0503E00901BC056A
:100F600039E10901B65135E10901B80504E109018A
:100F70001A0EB76F1BD00901BA0504E10901230E4F
:100F8000B76F14D00901BB0504E10901240EB76F46
:100F90000DD00901BC050AE10701D35104E10901A3
:100FA0002F0EB76F03D00901300EB76F0901B7518B
:100FB00005E10901B66B0901BD6B0BD00901010EFA
:100FC000B66F09010A0EBD6FB7C9E6FFB7ECACF00A
:100FD000E55202D00901B66B0901B60511E109011C
:100FE000BD5100080CE285C7E6FF320EE66EE66AE8
:100FF000A0ECCEF0E552E552E5520901BD0708D05C
:1010000010C6E6FF00C4E6FFEDECB4F0E552E55291
:101010000D01EE0ED8809E55020E9F550EE2030E76
:101020000D01A65D03E20D01A62B06D00501210EE0
:10103000446F0601010E126F37D0070192510D0166
:101040009E5D070193510D019F5906E20401B40E04
:10105000F75D000EF85907E30D01A66B04013C0E85
:10106000166F8D8021D00701640ED8809255000E36
:10107000935518E20401155115E10D01A66B92C7B5
:1010800000F093C701F0140E005E000E015A0D012E
:1010900000509E5D01509F5904E20401165101E188
:1010A0008D9002D00D01A66B0501366BA5D0070E01
:1010B0000401025D50E10901B6514DE1050145050C
:1010C00036E10701C2510701C05D0701C3510701A5
:1010D000C15905E20701C02B000EC12303D007014F
:1010E000C06BC16BC6C7E6FFC7C7E6FFC0C7E6FF58
:1010F000C1C7E6FF56EC98F0E552E552E552E552DD
:10110000050EF3CFDBFF060EF4CFDBFF010EE66E1C
:10111000050EDBCFE6FF060EDBCFE6FFCBEC6AF079
:10112000E552E552E5520401060E026F13D00601A6
:1011300011510601105D03E20601102B02D00601D9
:10114000106B0901010E826F0501010E366F04015B
:10115000060E026F51D0080E0401025D4DE1090137
:10116000B6514AE10501450535E10701000ED88079
:10117000C055000EC15505E20701C007000EC15B56
:1011800004D0C2C7C0F7C3C7C1F7C6C7E6FFC7C709
:10119000E6FFC0C7E6FFC1C7E6FF56EC98F0E55290
:1011A000E552E552E552050EF3CFDBFF060EF4CF14
:1011B000DBFF010EE66E050EDBCFE6FF060EDBCF92
:1011C000E6FFCBEC6AF0E552E552E5520401060E6B
:1011D000026F12D006011051000803E20601100749
:1011E00002D011C610F60901010E826F0501010E31
:1011F000366F0401060E026F030E0401035D72E1F7
:101200000501450523E10501456BC6C7E6FFC7C7D4
:10121000E6FFC4C7E6FFC5C7E6FF56EC98F0E55207
:10122000E552E552E552050EF3CFDBFF060EF4CF93
:10123000DBFFE66A050EDBCFE6FF060EDBCFE6FF3F
:10124000CBEC6AF0E552E552E5523ED00901B751C8
:101250003BE000C4E6FF9BECB2F0E55210C6E6FFAF
:1012600000C4E6FFEDECB4F0E552E5520901B751D8
:101270002F0A21E01F0A1FE0140A15E0070A0BE0FD
:10128000390A01E020D00901020EB86F0901B76BDD
:101290000901B66B19D00901020EBA6F0901B76BCB
:1012A0000901B66B11D00901020EBB6F0901B76BC2
:1012B0000901B66B09D00901020EBC6F0901B76BB9
:1012C0000901B66B01D000D085C7E6FF320EE66E8D
:1012D000E66AA0ECCEF0E552E552E5520401010EBB
:1012E000036FF4D0050E0401035D37E100C401F47F
:1012F0000401006B020EE66EE66AE66A69EC20F015
:10130000E552E552E55201C4E6FF9BECB2F0E5522E
:1013100010C6E6FF01C4E6FFEDECB4F0E552E5527D
:1013200085C7E6FF320EE66EE66AA0ECCEF0E55227
:10133000E552E552010EE66E640EE66EE66A1DECBD
:101340003EF0E552E552E55205013B6B0401010E0A
:10135000036F0601020E406FB9D0020E0401035D57
:1013600005E0040E0401035D01E0B0D085C7E6FF8F
:10137000320EE66EE66AA0ECCEF0E552E552E5529A
:101380000401005101E19FD0040E0401005D01E160
:101390009AD0080E0401005D01E195D00C0E040105
:1013A000005D01E190D0100E0401005D01E18BD0E1
:1013B000050145055DE1C6C7E6FFC7C7E6FFC4C72F
:1013C000E6FFC5C7E6FF56EC98F0E552E552E55258
:1013D000E552070EF3CFDBFF080EF4CFDBFFC6C7E5
:1013E000E6FFC7C7E6FFC0C7E6FFC1C7E6FF56EC8A
:1013F00098F0E552E552E552E552050EF3CFDBFFDA
:10140000060EF4CFDBFFE66A050EDBCFE6FF060E25
:10141000DBCFE6FFCBEC6AF0E552E552E552C0C700
:10142000E6FFC6C7E6FFC7C7E6FF9AEC8FF0E552B6
:10143000E552E5520A017A512D0DF3CF00F0F4CFB9
:1014400001F0000E00260C0E01220701C8510F0109
:101450000024E96E000E0120EA6EC0C7EFFFE66AC5
:1014600013EC9EF0E55270EC2AF00501456B2BD091
:101470000901915128E10501010E456FC0C7C4F76C
:10148000C1C7C5F7C6C7E6FFC7C7E6FFC0C7E6FFC7
:10149000C1C7E6FF56EC98F0E552E552E552E55239
:1014A000050EF3CFDBFF060EF4CFDBFF010EE66E79
:1014B000050EDBCFE6FF060EDBCFE6FFCBEC6AF0D6
:1014C000E552E552E5520401010E036F09019A0548
:1014D00005E191EC38F009019A6B07D009019B05F1
:1014E00004E188EC3BF009019B6B46EF05F0090134
:1014F000846BD1900701AE5142E0030E0601405DBE
:101500003EE005013B5100083AE20701AF5112E10C
:10151000040101050CE0050E0401015D08E0090E5F
:101520000401015D04E00D0E0401015D03E105010C
:101530003B0725D00701AF0522E1020E0401015D42
:101540001CE0060E0401015D18E00A0E0401015DB5
:1015500014E00E0E0401015D10E0030E0401015DB4
:101560000CE0070E0401015D08E00B0E0401015DB3
:1015700004E00F0E0401015D02E105013B07020ECC
:101580000601405D08E00601125101E049D1060163
:10159000400501E145D105013B5101E040D101C4C5
:1015A000E6FFBEEC36F0E55209016F6F050EE66E00
:1015B000600EE66EE66A210EE66E9B0EE66E010E8A
:1015C000E66EF4ECAEF0006E060EE15E0050050132
:1015D000510538E16E0EE66EE40EE66E010EE66E23
:1015E000D5ECA1F0E552E552E552E76E020EE7CFE9
:1015F000DBFF020EDB50040805E2040EF36E020E60
:10160000F3CFDBFF020EDBCFE6FF7E0E006E020E95
:10161000DB50060DF350005CE66EE66A6E0EE66E79
:10162000E40EE66E010EE66EF4ECAEF0016E060E10
:10163000E15E01500701855102E0B6ECCEF00501F4
:10164000516B30D0840EE66EE40EE66E010EE66E4F
:10165000D5ECA1F0E552E552E552E76E020EE7CF78
:10166000DBFF020EDB50040805E2040EF36E020EEF
:10167000F3CFDBFF020EDBCFE6FF7E0E006E020E25
:10168000DB50060DF350005CE66EE66A840EE66EF3
:10169000E40EE66E010EE66EF4ECAEF0016E060EA0
:1016A000E15E01500901010E846F0401035101E064
:1016B000FCD70401035101E07CD009016F5101E026
:1016C00078D00501610504E169EC22F00501616B48
:1016D000050162050BE101C4E6FFF7EC24F0E552D9
:1016E000F3CFBDF6F4CFBEF60501626B05013605FA
:1016F00022E101C4E6FFBEEC36F0E55209016F6F4E
:10170000E5EC20F0F5C4E6FFF6C4E6FFB4C9E6FF59
:10171000B5C9E6FFC0EC27F0E552E552E552E552C7
:1017200010C6E6FF01C4E6FFEDECB4F0E552E55269
:101730000501366B2ED0070E0401025D14E106018F
:1017400011510601105D03E20601102B02D00601C3
:10175000106B0901010E826F0501010E366F040145
:10176000060E026F16D0080E0401025D12E106019A
:101770001051000803E20601100702D011C610F64E
:101780000901010E826F0501010E366F0401060E7C
:10179000026F09019A0505E191EC38F009019A6B95
:1017A00007D009019B0504E188EC3BF009019B6B24
:1017B00080D70901846BE66AE66AE66A69EC20F084
:1017C000E552E552E5520401010E036F85C7E6FFBD
:1017D000320EE66EE66AA0ECCEF0E552E552E55236
:1017E00009016F511CE0050EE66EB7ECACF0E55256
:1017F000E66AD00EE66E070EE66E1DEC3EF0E55290
:10180000E552E5520601120508E1200E0501445D8E
:1018100004E10501446B0601126B09016F6B6BD18A
:101820000601120501E067D1160E0501445D08E0CE
:10183000170E0501445D04E01B0E0501445D09E13E
:10184000E66AE66AE66A69EC20F0E552E552E5529E
:1018500009D0020EE66EE66AE66A69EC20F0E5520F
:10186000E552E55201C4E6FFBEEC36F0E55209014F
:101870006F6F05013B6B44C5E6FFB7ECACF0E5527A
:1018800007018551E66EE66A0C0EE66EE66AECEC40
:10189000CEF0E552E552E552E55244C553F6030E4B
:1018A0000401035D10E009019A0505E191EC38F0AF
:1018B00009019A6B07D009019B0504E188EC3BF014
:1018C00009019B6BECD70401010E036F85C7E6FF8E
:1018D000640EE66EE66AA0ECCEF0E552E552E55203
:1018E000160E0501445D01E102D1170E0501445DAC
:1018F00001E1FDD01B0E0501445D01E1F8D001C4FA
:10190000E6FF9BECB2F0E552050EE66E600EE66E69
:10191000E66A210EE66E9B0EE66E010EE66EF4ECB4
:10192000AEF0006E060EE15E0050840EE66EE40E30
:10193000E66E010EE66ED5ECA1F0E552E552E552F9
:10194000E76E020EE7CFDBFF020EDB50040805E274
:10195000040EF36E020EF3CFDBFF020EDBCFE6FFC9
:101960007E0E006E020EDB50060DF350005CE66E3C
:10197000E66A840EE66EE40EE66E010EE66EF4ECA8
:10198000AEF0016E060EE15E01500901010E846F9A
:101990000401035101E0FCD70401035101E07CD0B4
:1019A00009016F5101E078D00501610504E169EC9E
:1019B00022F00501616B050162050BE101C4E6FF40
:1019C000F7EC24F0E552F3CFBDF6F4CFBEF60501F7
:1019D000626B0501360522E101C4E6FFBEEC36F07C
:1019E000E55209016F6FE5EC20F0F5C4E6FFF6C49F
:1019F000E6FFB4C9E6FFB5C9E6FFC0EC27F0E55243
:101A0000E552E552E55210C6E6FF01C4E6FFEDECF3
:101A1000B4F0E552E5520501366B2ED0070E0401F5
:101A2000025D14E1060111510601105D03E2060199
:101A3000102B02D00601106B0901010E826F050107
:101A4000010E366F0401060E026F16D0080E040157
:101A5000025D12E106011051000803E206011007C1
:101A600002D011C610F60901010E826F0501010EA8
:101A7000366F0401060E026F09019A0505E191EC2B
:101A800038F009019A6B07D009019B0504E188EC45
:101A90003BF009019B6B80D70901846BE66AE66A1B
:101AA000E66A69EC20F0E552E552E5520401010EC8
:101AB000036F85C7E6FF320EE66EE66AA0ECCEF055
:101AC000E552E552E55209016F5111E0050EE66E4F
:101AD000B7ECACF0E552E66AD00EE66E070EE66EA5
:101AE0001DEC3EF0E552E552E55209016F6B06012F
:101AF000126B0501446B05013B5109E1E66AE66A98
:101B0000E66A69EC20F0E552E552E5520AD0020E91
:101B1000E66E020EE66EE66A69EC20F0E552E552EA
:101B2000E5520601406BEDEF00F0090EE15C02E2C8
:101B3000E16AE552E16EE552E7CFD9FF1200D8CF56
:101B4000E4FFE0CFE4FFE46EDACFE4FFE2CFDAFFB8
:101B5000E9CFE4FFEACFE4FFF6CFE4FFF7CFE4FFFD
:101B6000F8CFE4FFF5CFE4FFF3CFE4FFF4CFE4FFD9
:101B7000FACFE4FFFBCFE4FF00EE18F0140EE80408
:101B800003E3EECFE4FFFBD700EE00F0180EE8040D
:101B900003E3EECFE4FFFBD7E6525CEC40F0030E2C
:101BA000E126B950040B02E12FEF17F0BA50040BF5
:101BB00002E12FEF17F0BA940501045101E0D5D0EE
:101BC0001D0E28EC4BF0F3CF41F6F4CF42F63D0E5C
:101BD00028EC4BF0F3CF43F6F4CF44F6150E28EC87
:101BE0004BF0F3CF45F6F4CF46F6250E28EC4BF03C
:101BF000F3CFAEF9F4CFAFF90501A05166E1D5EC12
:101C00004FF02DEC4CF0A9EC46F00401000506E085
:101C1000020E005D03E0030E005D2AE105010351A1
:101C2000015D27E20151D7EC40F02DEC4CF032EC95
:101C30004DF00151D7EC40F0E20EE926050E15EC0F
:101C40004CF02C502E5C2D502F5813E21EEC44F01B
:101C5000EFCF2CF0140E2C5C04E21EEC44F0EF2AC3
:101C60000BD01EEC44F0EF6A260E68EC42F004D074
:101C700005011EEC44F0EF6A070E0501015D2FE13E
:101C80000401005117E0000515E0020E005D12E0AE
:101C9000030E005D0FE0040E005D0CE00D0E005D14
:101CA00009E00E0E005D06E00F0E005D03E0100E71
:101CB000005D03E10501010E626F110E0401005D7C
:101CC0000EE10501010E636F0AD02D0E28EC4BF0DA
:101CD00070EC4CF0D20EE926050EA9EC46F004019A
:101CE00000513BE0060139510EE19350100B0BE11E
:101CF00027510901AE5D060128510901AF5903E2E0
:101D00000501170E22D0060141513D5D42513E5959
:101D100008E2140E3F5D02E23F2B1FD03F6B05012E
:101D200013D0415105014B5D0601425105014C594B
:101D30000FE2140E4D5D000E4E5904E24D2B000EC5
:101D40004E230BD04D6B4E6B1B0E68EC42F005D052
:101D500006013F6B05014D6B4E6BAEC9A2F6AFC9D4
:101D60002CF02D6AAFC9A3F668D0A0510AE12D0E60
:101D70008EEC40F004013F27F45040232E504123C5
:101D80000AD0280E045D07E1D5EC4FF0B20EE9262B
:101D9000050EA9EC46F01D0E8EEC40F00401422722
:101DA000F45043232E5044233D0E8EEC40F00401AA
:101DB0004527F45046232E504723150E8EEC40F055
:101DC00004014E27F4504F232E505023250E8EEC45
:101DD00040F004015127F45052232E505323290E72
:101DE0008EEC40F004014827F45049232E504A233A
:101DF000390E8EEC40F004014B27F4504C232E504A
:101E00004D23C2EC3DF09BEC4DF004015427F450FF
:101E100055232E505623050104050FE10901BE0587
:101E20000CE10401010E076F0F01320E376F060E31
:101E3000366FBA98B9880901BE6B320E0501045D90
:101E400042E2042B0701B2053AE10501A05137E156
:101E50001B51D880045502E2919801D091881C5101
:101E6000D880045502E2919A01D0918A1D51D88000
:101E7000045502E2919C01D0918C1E51D8800455EA
:101E800002E2919E01D0918E1F51D880045502E24A
:101E90008B9201D08B822051D880045502E28E9221
:101EA00001D08E822151D880045502E2909801D051
:101EB00090882251D880045504E3908A05D215EC0D
:101EC00047F0909A01D2046B060506E0030E065D0A
:101ED00003E0020E065D0EE108050AE1280E055D2D
:101EE00002E2052B07D0320E056F010E076F02D0FC
:101EF000010E086F01C502F50151070A45E0010A0C
:101F00003AE0030A2FE0010A25E0070A1BE0010A74
:101F100012E0030A09E0010A3DE1010E016F8A9215
:101F20008A948A868A901CD0020E016F8A928A84D3
:101F30008A968A901DD0030E016F8A928A848A86BF
:101F40008A901FD0040E016F8A828A948A968A80B2
:101F500091960FD0050E016F8A828A948A868A80B4
:101F6000919610D0060E016F8A828A848A968A80A2
:101F7000918691940FD0070E016F8A828A848A8697
:101F80008A809186918406D0016BA2EC47F0010E05
:101F9000436F466F060139051CE105015D6B5E6B01
:101FA00009015A6BDF6A210EDF5C08E243EC49F05D
:101FB0004CEC50F0F9EC4FF0DF2AF5D70901B06B8B
:101FC000B16B166B176B136B146B156B100E5B6F8D
:101FD0005C6B0901EEEC4BF0AE51EE26AF51ED22F9
:101FE000060141510901B027060142510901B123FF
:101FF00005010F0E5D5D000E5E5904E25D2B000EC3
:102000005E233CD05D6B5E6B0901EEEC4BF0EECFD6
:1020100016F9EDCF17F95A51D7EC40F03CEC45F0EA
:1020200013272D5014232E5015230701010EE96F9D
:10203000100E09015A5D02E25A2B01D05A6B5A5117
:10204000D7EC40F03CEC45F0135F2D50145B2E5064
:10205000155BEEEC4BF0EE6AED6AB0C9B2F9B1C9AE
:10206000B3F9B06BB16B5C5105E15B515A5D02E1B4
:10207000010E5C6F0501010E616F646FA00509E13F
:102080000251D7EC40F00AEC4EF0AEC9EEFFAFC9FA
:10209000EDFF020E1F0B42C42CF043C42DF044C4CC
:1020A0002EF003E0F3EC41F0FDE12CC031F42DC043
:1020B00032F4020E1F0B45C42CF046C42DF047C469
:1020C0002EF003E0F3EC41F0FDE12CC033F42DC021
:1020D00034F4020E1F0B48C42CF049C42DF04AC43E
:1020E0002EF003E0F3EC41F0FDE12CC035F42DC0FF
:1020F00036F4020E1F0B4BC42CF04CC42DF04DC413
:102100002EF003E0F3EC41F0FDE12CC037F42DC0DC
:1021100038F4020E1F0B4EC42CF04FC42DF050C4E7
:102120002EF003E0F3EC41F0FDE12CC039F42DC0BA
:102130003AF4040154510D01A727040155510D0132
:10214000A823040156510D01A923140EA45D000E0D
:10215000A55904E2A42B000EA52321D0010EA46FE3
:10216000A56B050E1F0BA7CDAAFDA8CDABFDA9CD74
:10217000ACFD07E00D01D890AC33AB33AA33E806D1
:10218000FAE10D01A76BA86BA96BA25108E1AACDDA
:10219000ADFDABCDAEFDACCDAFFD010EA26F040128
:1021A00008EC42F0000512E1050101510FE1005178
:1021B0000DE19F0503E1A06B010EA16F320E9F5D43
:1021C00002E29F2B03D0010E9F6FA06F15EC47F02A
:1021D000909A0D0195510401395D0D01965104014C
:1021E0003A5904E239C495FD3AC496FD005109E11B
:1021F0001DEC47F004E2050E2D5D1CE31DD02D6B98
:102200003CD0110E005D39E09350100B0CE0090139
:10221000AE510601255D0901AF510601265903E2C1
:102220000501160E24D004011DEC47F009E2050E4D
:102230002D5D02E22D2B21D02D6B0501190E17D03B
:1022400025EC47F017E2000515E0050E005D12E0F1
:10225000090E005D0FE00D0E005D0CE0040E06019E
:102260002F5D02E22F2B09D02F6B05011A0E68ECAF
:1022700042F003D006012D6B2F6B110E0401005D9F
:1022800015E09350100B12E0050107050FE12DEC4E
:1022900047F00CE2280E0601305D02E2302B08D038
:1022A000306B0501140E68EC42F002D00601306B71
:1022B00012050AE19D928D829190786A726A779AEE
:1022C0007798719A71988B880501065101E1ECD0DD
:1022D000080501E0E9D0045104E00551D880045517
:1022E00019E29D928B8A786A726A6F6A0C0E776E19
:1022F000716E6E6E060503E191908D820BD0030E18
:10230000065D03E18D92918005D0020E065D02E12B
:1023100091908D92045101E092D006053FE112ECBC
:1023200046F01CE2CDEC46F0050ED3EC43F0FDE1A7
:102330002CC073F9CDEC46F0030ED3EC43F0FDE175
:102340001BEC46F005E27529766F73C974F903D06A
:10235000766B7329746F09C52CF069D0A8EC41F035
:102360002D6E050ED3EC43F0FDE12CC077F905018D
:10237000A8EC41F02D6E030ED3EC43F0FDE124EC0C
:1023800046F005E279297A6F77C978F903D07A6B3C
:102390007729786F0501A8EC41F022D0030E065D85
:1023A00001E082D012EC46F023E2CDEC46F0050EBF
:1023B000D3EC43F0FDE12CC077F9CDEC46F0030EF1
:1023C000D3EC43F0FDE124EC46F005E279297A6F85
:1023D00077C978F903D07A6B7729786F09C52CF023
:1023E000A6EC45F073697469030E756F766F5CD067
:1023F000A8EC41F02D6E050ED3EC43F0FDE12CC0AE
:1024000073F90501A8EC41F02D6E030ED3EC43F0F7
:10241000FDE11BEC46F005E27529766F73C974F98E
:1024200003D0766B7329746F0501A8EC41F0A6EC1C
:1024300045F077697869030E796F7A6F35D00405B6
:1024400033E1060503E0030E065D0CE18D82918009
:10245000020EE66EFFECCFF0E552CC6A040ECA6EB7
:102460009D8222D08B9A0DC52CF00EC52DF0D890F0
:102470002D322C32D8902D322C322CC073F90DC550
:102480002CF000012D6A030E2C162CC075F973C9AF
:102490006FFF090175A302D06E8A01D06E9A75A1F3
:1024A00002D06E8801D06E980501045101E084D0FD
:1024B000070501E085D30901AE510501475D09011A
:1024C000AF510501485903E32DEC47F003E2050144
:1024D000010E506F0501005101E072D3040100515B
:1024E000070A5DE00C0A51E0040A4FE0050A46E0E5
:1024F000040A44E0070A3BE0040A39E00E0A25E03A
:10250000010A15E0030A51E1DF6A68EC44F04DE28C
:1025100086EC40F0020E2E26000E2F222C502E5C50
:102520002D502F5802E2010E006FDF2AEED707016F
:10253000A6053BE1DF6A68EC44F037E2A2EC4DF01F
:1025400002E2010E006FDF2AF6D70701A6050BE1B4
:10255000DF6A68EC44F007E2A2EC4DF002E2010E03
:10256000006FDF2AF6D776EC43F01FE21BD006019E
:102570004151EF5D4251F05918E214D024EC45F07E
:1025800014E20701A60511E10DD024EC45F003E2A9
:102590000701A60507E076EC43F007E203D076ECEE
:1025A00043F003E20501010E006F0501000501E0A3
:1025B00007D30601548704D3320E045D01E000D333
:1025C000070501E0F7D2110E0401005D08E1B0CD6E
:1025D00009F5B1CD0AF5B2CD0DF5B3CD0EF5050176
:1025E000065101E11BD1640501E018D1005101E061
:1025F00015D104010051030A01E1CED0040A01E122
:10260000CBD00C0A01E1C8D0040A01E1C5D00D0A03
:1026100070E0040A6EE00C0A6CE0040A6AE00F0A3B
:1026200007E0040A05E00C0A03E0040A01E0F3D025
:102630000901910510E1B3EC42F004E20501092B18
:10264000000E2CD035EC47F04FE2E0EC42F04CE2CB
:102650000907000E48D0B3EC42F022E21651050102
:10266000115D0901856F175105011259090176ECB9
:102670004CF004E2100E856F866B0ED01F0ED8EC66
:1026800043F007E2050E0F0B07E0C0EC44F0FDE15C
:1026900003D0010E856F866B3DEC47F00A2324D0F2
:1026A000050111510901165D856F050112510901DE
:1026B000175976EC4CF004E2200E856F866B0ED035
:1026C0000F0ED8EC43F007E2040E0F0B07E0C0EC4E
:1026D00044F0FDE103D0010E856F866B2DEC46F0D2
:1026E00003E345EC47F00A5BDDEC43F001E393D0F4
:1026F00090D00601395101E08ED0BCEC42F01EE2D0
:10270000C5EC4BF004E2080E856F866B0ED01F0EF1
:10271000D8EC43F007E2050E0F0B07E0C0EC44F0E5
:10272000FDE103D0010E856F866B0901855105011E
:102730000D270901865105010E2326D082EC43F0B6
:1027400004E2200E856F866B0ED00F0ED8EC43F09E
:1027500007E2040E0F0B07E0C0EC44F0FDE103D0EC
:10276000010E856F866B0901855105010D5D09011B
:10277000865105010E5908E30901855105010D5FD8
:102780000901865105010E5B5AEC48F044E20FC581
:102790000DF510C50EF53FD0060139513CE1BCECFA
:1027A00042F019E2C5EC4BF004E2100E856F866B27
:1027B0000ED00F0ED8EC43F007E2040E0F0B07E02B
:1027C000C0EC44F0FDE103D0010E856F866B3DEC5B
:1027D00047F00A231BD082EC43F004E2200E856F01
:1027E000866B0ED00F0ED8EC43F007E2040E0F0BF1
:1027F00007E0C0EC44F0FDE103D0010E856F866B6D
:102800002DEC46F003E345EC47F00A5BDDEC43F0CA
:1028100002E2D2EC46F00501646BCCD1065101E135
:10282000C9D1000501E0C6D104010051070A01E148
:10283000B1D10C0A01E19FD1040A01E19CD1050A42
:1028400001E16BD1040A01E168D1070A01E111D16C
:10285000040A01E10ED10E0A01E1BED0010A60E0D6
:10286000030A01E0A3D1070E0501015D01E09ED13D
:10287000A7EC42F00351DF5C11E267EC41F0ACECF5
:1028800044F0E8AE02D02D3402D05FEC48F004E210
:1028900067EC41F0AFEC46F0DF2AECD7CDEC4FF01F
:1028A0001CE27FEC45F019E2CDEC4FF007E264EC5E
:1028B00048F004E20A0E24EC43F002D00FEC4EF094
:1028C000A9EC4DF001E372D19D35000E9D1902E691
:1028D00060EC42F001E36AD1B2D092EC40F000012A
:1028E000800E2D1401E162D1B3EC42F001E35ED120
:1028F000050E05013E5D01E230D131EC4CF006E2FF
:102900007FEC45F003E2020E24EC43F066EC43F06A
:10291000092721500A23DDEC43F001E347D1FAD027
:10292000070E0501015D01E041D1A7EC42F0035122
:10293000DF5C11E2C2EC3FF0ACEC44F0E8AE02D058
:102940002D3402D05FEC48F004E2C2EC3FF0AFEC73
:1029500046F0DF2AECD7CDEC4FF01CE27FEC45F0DF
:1029600019E2CDEC4FF007E264EC48F004E20A0E05
:1029700024EC43F002D00FEC4EF092EC40F00D51FD
:102980002C5C0E512D5801E311D166EC43F00D5F24
:102990002150CFD092EC40F00001800E2D1401E1C7
:1029A00005D1BCEC42F001E301D1050E3E5D01E230
:1029B000D4D031EC4CF006E27FEC45F003E2020E9D
:1029C00024EC43F066EC43F00D2721500E235AEC23
:1029D00048F001E3EBD0CAD00501800E9D1501E15E
:1029E000E5D0070E015D3CE1A7EC42F00351DF5C4E
:1029F00011E2C2EC3FF0ACEC44F0E8AE02D02D3472
:102A000002D05FEC48F004E2C2EC3FF0AFEC46F0DD
:102A1000DF2AECD7CDEC4FF01AE27FEC45F017E25D
:102A2000CDEC4FF007E264EC48F004E20A0E24EC2F
:102A300043F002D00FEC4EF0A9EC4DF005E266EC4D
:102A400043F0095F2150B1D0096B0A6BAFD076EC2F
:102A500043F001E3ABD04FEC4EF001E3A7D0A3D09D
:102A600076EC43F001E3A2D04FEC4EF001E39ED0B0
:102A70009AD00901910529E1AE510501155D0901C1
:102A8000AF51050116590BE2E0EC42F008E29D352A
:102A9000000E9D1902E660EC42F001E284D070EC79
:102AA00044F001E383D0050115510901AE5D050134
:102AB00016510901AF5901E379D00501092B000E28
:102AC0000A23DDEC43F072E225D006014151EF5DAF
:102AD0004251F05904E3090135EC47F00AE24FECAA
:102AE0004EF007E29D35000E9D1902E660EC42F0C3
:102AF0005AE370EC44F05AE2B3EC42F057E2050EB0
:102B000005013E5D2AE33E6B092B000E0A23DDEC36
:102B100043F04CE2D2EC46F049D024EC45F00BE215
:102B20000501000ED8800D55000E0E5504E20D076C
:102B3000000E0E5B3BD0010E06012D6AEF252C6EB8
:102B4000F0512D2241512C5C42512D582FE2BCEC0A
:102B500042F02CE2050E3E5D02E23E2B27D03E6B9A
:102B60000D2B000E0E235AEC48F020E20FC50DF598
:102B700010C50EF51BD024EC45F005E34551F15D81
:102B80004651F25913E24FEC4EF010E2800E9D15C3
:102B90000DE009D076EC43F009E24FEC4EF006E28E
:102BA000800E9D1503E00907000E0A5B0501640510
:102BB00001E1646B09C59CF66EEC48F00EC59FF60A
:102BC0000401040E0E03F3CF0EF480CF0FF4030EB6
:102BD0000F150E13320E2C6E9C0E2D6E010E2E6EE6
:102BE0000F0E0E152F6E306A316A2C502F24F36EA3
:102BF0002D503020F46E2E50312026EC4FF008007E
:102C0000F5CF11F4115111E0040E1003F3CF10F4BD
:102C100011511013AA0E105D02E1070E04D0550EDB
:102C2000105D03E1080E026F106B0A0E05013A5D9C
:102C300002E23A2B41D0010E3A6F0401035126E122
:102C400080B609D0056B640E045D02E2042B2BD024
:102C5000046B050E16D080B409D0046B640E055DBC
:102C600002E2052B20D0056B040E0BD004510508A1
:102C700003E2046B030E05D00551050804E2056B61
:102C8000020E036F10D0046B056B0DD08050080B43
:102C90000AE08050040B07E0140E065D02E2062BEA
:102CA00002D0066B036B0A0E0901AC5D01E2AC2B8E
:102CB0000A0EAD5D01E2AD2B0501E80E385D030E95
:102CC000395904E2382B000E3923B6D0010E386F83
:102CD000396B366F0401150507E11451000802E253
:102CE000140702D08D90156B1651000801E21607EB
:102CF000070189510EE0090184050BE107018951A3
:102D00000901825D02E2822B06D0010E826F836F81
:102D100002D00901836B07019051000805E2090107
:102D20008151000801E281070401005137E00601EA
:102D3000162B000E172318233B0E195D02E2192BE8
:102D400016D0196B3B0E1A5D02E21A2B02D01A6BD9
:102D50001B2B0901910504E106011C2B000E1D230C
:102D60000501000504E106011E2B000E1F230601CC
:102D7000010E246F16C660F6080E6EEC43F003E0F9
:102D8000F3EC41F0FDE12CC061F6100E6EEC43F067
:102D900003E0F3EC41F0FDE12CC062F606014B517B
:102DA000000805E24B074B5102E1010E4C6F09018F
:102DB000700536E10601D880000E1655000E175535
:102DC000000E18552BE21607000E175B185B195101
:102DD000000802E219070DD03B0E196F1A510008C6
:102DE00002E21A0706D03B0E1A6F1B51000801E2DF
:102DF0001B0716C660F6080E6EEC43F003E0F3EC1A
:102E000041F0FDE12CC061F6100E6EEC43F003E0E2
:102E1000F3EC41F0FDE12CC062F602D00901706BC9
:102E2000110E0401005D08E00701D251000802E222
:102E3000D20702D0010ED16F0901000ED8807F5554
:102E4000000E805504E27F07000E805B02D0010E69
:102E50007E6F04011251000803E2120701D0BA94F8
:102E60009D50200B22E09E50200B1FE00A0E09010E
:102E7000AC5D03E1966B73EC48F096511BEC4CF0A3
:102E8000AECFEFFFABA202D0AB98AB8896512C6EC1
:102E90002D6AD8902D5004E6860E2C5C000E2D581D
:102EA00001E2962BAC6B010E9A6F9D50100B15E052
:102EB0009E50100B12E009019851945D07E2945165
:102EC00038EC4DF0EF50AD6E942B07D0966B73EC51
:102ED00048F0010E9C6F9D989D8AA350200B24E022
:102EE000A450200B21E00A0E0901AD5D03E1976BB0
:102EF00078EC48F0975121EC4CF01DCFEFFF0F011B
:102F000022A302D022992289090197512C6E2D6AA1
:102F1000D8902D5004E6860E2C5C000E2D5801E250
:102F2000972BAD6B010E9B6FA350100B15E0A450B7
:102F3000100B12E009019951955D07E2955127ECBC
:102F40004CF0EFCF1CFF952B07D0976B78EC48F037
:102F5000010E9D6FA398A38A030EE15C02E2E16A71
:102F6000E552E16EE552E7CFD9FFE55200EE17F0EA
:102F7000180EE80403E3E5CFEDFFFBD700EE2BF0DE
:102F8000140EE80403E3E5CFEDFFFBD7E5CFFBFF2D
:102F9000E5CFFAFFE5CFF4FFE5CFF3FFE5CFF5FF8F
:102FA000E5CFF8FFE5CFF7FFE5CFF6FFE5CFEAFF86
:102FB000E5CFE9FFE5CFDAFFE550E5CFE0FFE5CF6C
:102FC000D8FF1000DACFE4FFE6529D50020B26E056
:102FD0009E50020B23E09E92070E09017C5D02E2E7
:102FE0007C2B01D07C6B7B51D8807C550AE274C964
:102FF00078FF78C972FF7639F00B0C09776E7A3951
:1030000009D073C978FF77C972FF7539F00B0C09C5
:10301000776E7939F00B0C09716E01D09E92B95020
:10302000100B3DE0BA50100B3AE0BA980F0E0401B5
:103030000B5D06E20B2B0A510B5D08E38D9806D061
:103040000B6B0B51D8800A5501E28D88070507E10B
:103050000F0E0B5D25E1085100080AE31BD0020E9C
:10306000075D1EE10F0E0B5D1BE10851000802E237
:10307000080716D0320E086F0F01375D03E14B0EC3
:10308000376F0ED0320E376F04010951000802E28B
:10309000090706D0076B0F013695B99801D0BA9889
:1030A000E552E5CFDAFF1100700ED36E9B8CD19004
:1030B0009268896AF00E936E8A6A850E946E300E5D
:1030C0008B6E8B88956A8C6A800E966E8D6AFC0E6C
:1030D000976E8E6A340E986E8F6AC00E996E906AE3
:1030E0009A6A020E916E0F01A00E256FCF0E246F0B
:1030F000236B1D0EC26EC16ABE0EC06ED08EFA0E5C
:103100003A6F1E0E396FD294BA94B994010EE66EDE
:1031100058EC38F0E5520F01190E376F020E366F7A
:10312000D288BA98B998556B579F56916596330EC9
:10313000AF6E220EAC6E900EAB6E9F989D989F9ACC
:103140009D8A2097330E1E6F220E216F900E226FE4
:10315000A598A398A59AA38A12005CEC40F0040EEF
:10316000E1260801B46B0401006B016B060E026FCF
:10317000036B046B056B066B076B086B096B0A6BC3
:103180000B6B36EC46F0146B156B166B176BDE6A27
:10319000DD6A3FEC46F005E2DCEC4FF0FAE3DB2AB7
:1031A000F8D70401316B326B336B346B356B366B94
:1031B000376B386B396B3A6B08EC42F082ECA0F05D
:1031C0000701CE6F6CEC4AF04EEC4BF00401E76B5C
:1031D000E86BE96BEA6BEB6BEC6BED6BEE6BEF6B3B
:1031E000F06BF16BF26BF36BF46BF56BF66BF76BEB
:1031F000F86BF96BFA6B6FEC41F006EC40F005E20E
:10320000E3EC4FF0FAE3DB2AF8D7B0EC41F03B6B8C
:103210004DEC47F0436BE9EC4EF006EC40F005E274
:10322000EAEC4FF0FAE3DB2AF8D77DEC44F0DE6AF3
:10323000DD6A06EC40F01CE20BEC40F099EC40F04B
:10324000FDE12DEC4CF012EC4BF099EC40F0FDE17F
:10325000750EE926050E12EC4BF099EC40F0FDE1FD
:10326000850EE926050E1EEC41F0E3E3DB2AE1D7EB
:1032700005018EEC43F006EC40F03BE20BEC40F035
:1032800099EC40F0FDE164EC45F00BEC40F099EC7A
:1032900040F0FDE169EC45F00BEC40F099EC40F0BA
:1032A000FDE1C20EE926050E12EC4BF099EC40F060
:1032B000FDE16EEC45F00BEC40F099EC40F0FDE1E7
:1032C000E20EE926050EF9EC4FF063EC4AF0F20E3F
:1032D000E926050EEA22EF6A0BEC40F099EC40F08B
:1032E000FDE1000EE926060E1EEC41F0C4E3DB2AE8
:1032F000C2D70601106B116B126B136B010E146FAA
:10330000156BE66E000EE66EE66A13EC8BF08EEC43
:103310004BF0060169EC50F0FAEC49F020C03DF6A4
:1033200021C03EF606013F6B406B416B426B436B25
:10333000446B456B466B476B486B496B4A6B4B6BF9
:103340004C6B4D6BDE6ADD6A8DEC4AF0690EF5EC74
:103350004CF00AE263EC4AF0520EE926060E45EC08
:1033600043F0F2E3DB2AF0D70601BD6BBE6BDE6AE9
:10337000DD6A8DEC4AF00B0EF5EC4CF00DE20BEC37
:1033800040F099EC40F0FDE1BF0EE926060E1EEC80
:1033900041F0EFE3DB2AEDD706018AEC44F006ECBE
:1033A00040F00CE20BEC40F099EC40F0FDE163ECF6
:1033B0004DF01EEC41F0F3E3DB2AF1D7ECEC44F0E6
:1033C00006EC40F015E20BEC40F099EC40F0FDE12A
:1033D000030EE926090E12EC4BF099EC40F0FDE1EA
:1033E000B70EE9260D0E1EEC41F0EAE3DB2AE8D722
:1033F0004CEC44F04DEC46F00CE20BEC40F099EC58
:1034000040F0FDE14CEC50F01EEC41F0F3E3DB2A20
:10341000F1D7A9EC47F006EC40F00DE20BEC40F0E0
:1034200099EC40F0FDE15D0EE926090E1EEC41F03D
:10343000F2E3DB2AF0D709016D6B6E6B6F6B706B7B
:10344000716B726B54EC43F0836B846B97EC44F0BC
:10345000916B926B936B946B956B966B976B986B70
:10346000996B9A6B9B6B9C6F9D6F9E6B9F6BA06B18
:10347000A16BA26BA36B73EC48F078EC48F0AC6BDB
:10348000AD6B9FEC43F0BE6BF8EC44F09E6B9F6B12
:10349000A06BA16BA26BA36BB0EC45F0AD6BAE6BF8
:1034A000AF6B55EC47F00701C96BB0EC47F0D16B3F
:1034B0000A0ED26FD36BD46BD56BE66BE76BE86B00
:1034C000BAEC45F0DE6ADD6A8DEC4AF0000E005C75
:1034D000010E015818E263EC4AF0000EE926020ED4
:1034E000EA22EF6A63EC4AF0000EE926010EEA22B6
:1034F000EF6A63EC4AF0000EE926030E45EC43F058
:10350000E3E3DB2AE1D7DE6ADD6A8DEC4AF0870E61
:10351000F5EC4CF00AE263EC4AF0600EE926000E8E
:1035200045EC43F0F2E3DB2AF0D764EC93F0CCEC0B
:1035300093F0ACEC94F013EC93F03AEC4CF0800E7A
:10354000E66E030EE66E73EC8FF0E552E5520A016B
:10355000786F8D908B888B8A918291908D829388E1
:103560008B96A2EC47F052EC46F0AD69040EE15C9C
:1035700002E2E16AE552E16E6BEF40F0B6EC4CF02E
:103580000401046B056B066B36EC46F0176BDE6AC4
:10359000DD6A3FEC46F005E2DCEC4FF0FAE3DB2AB3
:1035A000F8D76FEC41F006EC40F005E2E3EC4FF0A9
:1035B000FAE3DB2AF8D7B0EC41F04DEC47F0E9EC48
:1035C0004EF006EC40F005E2EAEC4FF0FAE3DB2ABD
:1035D000F8D77DEC44F08EEC43F006EC40F02AE2A4
:1035E0000BEC40F099EC40F0FDE164EC45F00BECA5
:1035F00040F099EC40F0FDE169EC45F00BEC40F057
:1036000099EC40F0FDE1C20EE926050E12EC4BF0FC
:1036100099EC40F0FDE16EEC45F00BEC40F099ECDC
:1036200040F0FDE1000EE926060E1EEC41F0D5E368
:10363000DB2AD3D70601106B116B126B69EC50F0CB
:103640004B6B4C6B4D6B8AEC44F006EC40F00CE29B
:103650000BEC40F099EC40F0FDE163EC4DF01EEC1A
:1036600041F0F3E3DB2AF1D7ECEC44F006EC40F058
:1036700015E20BEC40F099EC40F0FDE1030EE92679
:10368000090E12EC4BF099EC40F0FDE1B70EE92683
:103690000D0E1EEC41F0EAE3DB2AE8D74CEC44F0D7
:1036A0004DEC46F00CE20BEC40F099EC40F0FDE103
:1036B0004CEC50F01EEC41F0F3E3DB2AF1D7A9EC1F
:1036C00047F006EC40F00DE20BEC40F099EC40F0D6
:1036D000FDE15D0EE926090E1EEC41F0F2E3DB2A66
:1036E000F0D709016D6B6E6B6F6B54EC43F097EC88
:1036F00044F09FEC43F0F8EC44F0B0EC45F055ECAE
:1037000047F00701B0EC47F0D56BBAEC45F0E66B3B
:10371000CBCDE6FF46EC96F0E55252EC46F0020EB9
:10372000E15C02E2E16AE552E16E6BEF40F05CECD5
:1037300040F00B0EE126010EE66E020E5DEC47F046
:10374000DF6A050EDF5C25E20501360505E1C5EC03
:1037500042F00501366B19D0070E0401025D08E145
:1037600006011151105D02E2102B0DD0106B0BD031
:10377000080E025D0AE106011051000802E210077E
:1037800002D011C610F6FDEC4CF010EC43F0DF2A2D
:10379000D8D7010EDB6AC5EC44F0040EDB6A050ED7
:1037A000DB6A060EDB6ADF6A080EDF5C39E20501C0
:1037B000360505E1C5EC42F00501366B19D0070E60
:1037C0000401025D08E106011151105D02E2102BB7
:1037D0000DD0106B0BD0080E025D0AE106011051EE
:1037E000000802E2100702D011C610F6FDEC4CF002
:1037F00010EC43F0E5EC20F047C600F048C601F0BD
:10380000026AF9EC41F0B7EC47F049C600F04AC64D
:1038100001F0026A60EC4FF0B7EC47F0DF2AC4D742
:10382000F9EC41F0030EE76E63EC47F0FDE160EC6C
:103830004FF0030EE76E63EC47F0FDE1030E040169
:10384000005D09E0070E005D06E00B0E005D03E081
:103850000F0E005D0AE1BEEC47F000C4E6FF62EC2B
:1038600037F08EEC4BF00401006F080ECAEC44F008
:10387000010EE66E58EC38F0E55299C704F09AC78D
:1038800005F0066A076AC0EC4CF0C4EC45F099C735
:1038900023F09AC724F0C5EC47F01AC0CAF71BC042
:1038A000CBF71CC0CCF71DC0CDF7D880400E070168
:1038B0001A54D70E1B54D20E1C54470E1D5408E246
:1038C000400ECA6FD70ECB6FD20ECC6F470ECD6FA6
:1038D000BEEC47F0010EDBCFE6FF020EDBCFE6FFCA
:1038E000C0EC27F08EEC4BF0E5523AEC4CF00D01B9
:1038F000A20507E1CBEC3CF0F3CFA0FDF4CFA1FD96
:1039000003D0FA0EA06FA16B0D01A36B040100514F
:10391000040A01E1AED30C0A01E1ABD3040A01E1D0
:10392000A8D31C0A01E1A5D3130A01E18BD2040A32
:1039300001E188D20C0A01E185D2040A01E182D2B8
:103940000D0A01E1E8D1040A01E1E5D10C0A01E127
:10395000E2D1040A01E1DFD10B0A01E1B3D00C0A84
:1039600001E1B0D0040A01E1ADD00C0A01E081D33D
:10397000070194050CE1C4EC4AF003E28DEC41F040
:1039800002D0CBEC47F00701010EEA6F03D0DCEC6C
:1039900046F0EA6BDFEC41F002E67EEC40F002E23A
:1039A0008DEC41F092EC4BF0C86F16EC4BF002E25C
:1039B000CFEC44F013EC4EF004E2F9EC4CF0450E81
:1039C0000AD0E1EC46F004E2F9EC4CF0460E03D0EC
:1039D00023EC41F0470E87EC4EF0086A300E096E7A
:1039E0008E0E0A6E450E0B6E03C521F0FDEC4FF0F6
:1039F00068EC3FF06EEC50F0D2EC47F033E29D51B2
:103A0000BC5D9E51BD592EE2010EBA1907E1BB51B2
:103A100005E10D010A0E8EEC47F016E30701020ED8
:103A2000BA1907E1BB5105E10D013C0E8EEC47F0E0
:103A30000BE30701030EBA1915E1BB5113E10D01A8
:103A40006E0E8EEC47F00EE20701BC519D5D050144
:103A5000326F0701BD519E590501336F0D01010EF3
:103A6000A36F04D09DC732F59EC733F5DF6A68ECBB
:103A700044F00CE2CFEC3EF0010EAFEC48F064EC09
:103A80004FF0EA2242EC44F0DF2AF1D707019151CE
:103A900003E1926B936B02D015EC43F042EC40F0E3
:103AA00082EC48F0016A33C5A9F69DEC41F003E2CF
:103AB00082EC49F002D09BEC4EF031EC4FF001E388
:103AC00026D123D1090191052DE10701AA51AB119E
:103AD00022E1DCEC46F0140E256E266A97C720F032
:103AE00098C721F0E9ECCFF087EC48F00501140EFF
:103AF000205C000E215804E2140E296F2A6B0FD0AF
:103B0000F40ED8802955010E2A5509E2F40E296FCA
:103B1000010E2A6F04D0AAC729F5ABC72AF5070101
:103B2000EA6B35D0B3EC48F00FE1070194050CE1E6
:103B3000C4EC4AF003E28DEC41F002D0CBEC47F04C
:103B40000701010EEA6F04D0DCEC46F00701EA6BD6
:103B5000DFEC41F002E67EEC40F002E28DEC41F059
:103B6000B3EC48F011E1020E0701955D0DE1A8EC00
:103B70003FF0210E83EC3EF0210EECEC3EF0210EE6
:103B8000D1EC4FF0210E02D092EC4BF0C86F16EC46
:103B90004BF002E2CFEC44F013EC4EF004E2F9EC0F
:103BA0004CF0450E11D0E1EC46F003E293EC41F00D
:103BB00005D092EC47F005E1D9EC44F0066E460ED4
:103BC00003D023EC41F0470E87EC4EF092EC47F027
:103BD00005E1046A400E056E030E0ED0090E005D6D
:103BE00005E1086A400E096E1C0E0ED0090E070191
:103BF000955D06E1D7EC46F0066E470E076E0BD0DA
:103C0000086A300E096E8E0E0A6E450E0B6E95C751
:103C100021F0FDEC4FF068EC3FF0C3EC4EF06EECA1
:103C200050F0090E0401005D03E00D0E005D58E147
:103C3000090E005D06E1090191053EE1ECEC42F060
:103C400044D0D2EC47F039E29D51BC5D9E51BD5944
:103C500034E2010EBA1907E1BB5105E10D010A0E6C
:103C60008EEC47F016E30701020EBA1907E1BB51CB
:103C700005E10D013C0E8EEC47F00BE30701030E4E
:103C8000BA191AE1BB5118E10D016E0E8EEC47F026
:103C900013E20701BC519D5D026E9E51BD55036E3E
:103CA00067EC4DF002C025F003C026F07DEC4CF02F
:103CB0000D01010EA36F09D0070167EC4DF09DC700
:103CC00025F09EC726F07DEC4CF034C520F003ECC7
:103CD00050F034C5A8F635C500F0016A35C5A9F61F
:103CE0000701915103E1926B936B02D015EC43F005
:103CF00042EC40F09DEC41F003E282EC49F002D04E
:103D00009BEC4EF031EC4FF002E2D2EC46F00D6B42
:103D10000E6B010EACD1020E005D03E00E0E005DD5
:103D200016E10701940513E17FEC4AF0F3EC3FF054
:103D30001F0EEE54000EEF5404E20501E6EC46F0CF
:103D400002D0D9EC47F00701010EEA6F04D0EBEC8A
:103D500046F00701EA6BE0EC47F002E2E6EC46F0E1
:103D60000E0E0401005D11E10701955101080DE2FD
:103D7000A8EC3FF0220E83EC3EF0220EECEC3EF07D
:103D8000220ED1EC4FF0220E0CD0A8EC3FF0070E23
:103D900083EC3EF0070EECEC3EF0070ED1EC4FF05A
:103DA000070EC86F52EC42F002E24FEC43F021ECF8
:103DB00042F052EC4EF08CEC48F003E284EC4CF014
:103DC00002D051EC4AF0276EC3EC4EF032EC50F0CA
:103DD0001BEC49F02CEC4FF0BBEC4CF0020E040154
:103DE000005D10E19FC732F5A0C733F5DF6A68ECCC
:103DF00044F005E2CFEC3EF0F2EC43F0F8D782EC71
:103E000048F008D0060E005D03E106EC4DF005D049
:103E100000EC4FF0016A00C0A9F60701926B936BAA
:103E200051EC4DF0016A26C5A7F60501E80E0F6FAB
:103E3000030E106F8B9A919241EC4CF0F6EC43F02C
:103E4000020E15D1030E005D03E00F0E005D13E1BD
:103E50000701940510E17FEC4AF0F3EC3FF0C5EC6C
:103E60004FF003E22AEC45F002D0D9EC47F007010D
:103E7000010EEA6F04D0EBEC46F00701EA6B64EC4C
:103E800046F002E67EEC40F002E22AEC45F00F0E2E
:103E90000401005D11E10701955101080DE2A8EC54
:103EA0003FF0260E83EC3EF0260EECEC3EF0260EA4
:103EB000D1EC4FF0260E0CD0A8EC3FF0250E83EC91
:103EC0003EF0250EECEC3EF0250ED1EC4FF0250E29
:103ED000C86F52EC42F002E24FEC43F021EC42F0AA
:103EE00052EC4EF091EC48F004E2F9EC4CF0C50EC7
:103EF00012D096EC48F003E293EC41F006D0070EA6
:103F00000401005D05E1D9EC44F0066EC60E03D055
:103F100023EC41F0C70E55EC4AF032EC50F03DC6B0
:103F20004BF53EC64CF53BEC4FF082EC50F0E80E02
:103F30000026030E0122000E022200C099FD01C0DE
:103F40009AFD0D01010E9B6F030E0401005D10E14F
:103F50009FC732F5A0C733F5DF6A68EC44F005E28D
:103F6000CFEC3EF0F2EC43F0F8D782EC48F008D00A
:103F7000070E005D03E106EC4DF005D000EC4FF0BC
:103F8000016A00C0A9F68BC720F08CC721F0B0EC05
:103F90004DF00BEC4FF020C0F1F621C0F2F6010E0F
:103FA0000601F127000EF2230701915103E1926B04
:103FB000936B02D015EC43F051EC4DF0016A26C52D
:103FC000A7F682EC50F0F9EC41F0B3EC4DF013E2BF
:103FD000040EDBCF04F0050EDBCF05F0060E7CEC03
:103FE0004FF0010EDBCF0BF0020EDBCF0CF0030E17
:103FF00072EC4EF014D0B5EC46F0010EDBCF0CF0B5
:10400000020EDBCF0DF0030E56EC4BF0040EDBCFAF
:1040100013F0050EDBCF14F0060E49EC49F011EC5D
:1040200044F0B5EC49F020C009F521C00AF5070EAF
:10403000DB50006E016A05012050005C21500158E0
:1040400009E2070EDB50006E016AE850095F01507B
:104050000A5B02D0096B0A6BDDEC43F002E2D2ECA2
:1040600046F041EC4CF005010D6B0E6B030E066F34
:1040700010D00601986B996B0701E80E926F030E42
:10408000936FEA6B8B8A918293888B96F6EC43F060
:10409000066B076B056B09015A5102E05A0501D006
:1040A000100E5B6F5C6B0501616B09C59CF60AC560
:1040B00000F0016A6EEC48F00EC500F0016A0EC512
:1040C0009FF60B0EE15C02E2E16AE552E16E6BEFF6
:1040D00040F05CEC40F072EC42F0FE0EDB500DE183
:1040E0003F6BDF6A080EDF5C05E22FEC41F0EF6A00
:1040F000DF2AF8D7B4EC43F005D0FE0EDB0402E172
:10410000010E3F6F8B8A918293888B96FD0EDB5058
:1041100008E1040114510CE1780E146F010E156FC3
:1041200007D0FD0EDB0404E10401146B156B8D80D8
:10413000FC0EDB5002E18B8804D0FC0EDB0401E1B5
:104140008B981CEC4EF00901B66BB76BB86BBA6B71
:10415000BB6BBC6BBD6B88EC4CF003E0C2EC4BF06E
:10416000FDE18EEC4CF003E0C2EC4BF0FDE100C051
:104170005FF609C59CF6016A6EEC48F0016A0EC54F
:104180009FF6E5526BEF40F05CEC40F072EC42F0D1
:104190003F6BDF6A080EDF5C05E22FEC41F0EF6A4F
:1041A000DF2AF8D71CEC4EF088EC4CF003E0C2ECB0
:1041B0004BF0FDE18EEC4CF003E0C2EC4BF0FDE186
:1041C00000C05FF6E5526BEF40F021EC4EF031C4D9
:1041D00020F032C421F036EC50F05FC424F060C40B
:1041E00025F061C426F062C427F068EC4FF068EC5B
:1041F0003FF0E2ECC6F0060E1FC0DBFF070E20C04A
:10420000DBFF080E21C0DBFF090E22C0DBFF57ECED
:1042100042F0246A256A09EC50F011E1060EDBCF6A
:104220001FF0070EDBCF20F0080EDBCF21F0090EC8
:1042300026EC4EF020C0E7F421C0E8F403D00401DE
:10424000E76BE86B33C420F034C421F032EC4BF060
:1042500020C0E9F421C0EAF435C420F036C421F0CE
:10426000AEEC4EF0300E246E9E0E256E710EA6EC56
:104270004FF020C0EBF421C0ECF437C420F038C478
:1042800021F032EC4BF020C0EDF421C0EEF404013B
:10429000E751EB5DE851EC5906E2EB51E75DEF6F5A
:1042A000EC51E85905D0E751EB5DEF6FE851EC595F
:1042B000F06FE951ED5DEA51EE5906E2ED51E95D2D
:1042C000F16FEE51EA5905D0E951ED5DF16FEA5118
:1042D000EE59F26FE7C4F3F4E8C4F4F4040E8CC9A9
:1042E000DBFF050E8DC9DBFF47C603F048C604F0AF
:1042F000056A8CC906F08DC907F0086A0650035C90
:10430000006E07500458016E08500558026E080EE2
:10431000246E256A266A77EC4BF05EECC8F0BAECA6
:104320004DF0010E1FC0DBFF020E20C0DBFF030EAD
:1043300021C0DBFF8CC903F08DC904F0056AF9ECDC
:1043400041F00350EE24006E0450EE20016E055043
:10435000EE20026E00C08CF901C08DF901EC4CF02A
:1043600007E6D880B80E0054880E0154000E02549F
:1043700006E2040EDBCF8CF9050EDBCF8DF90901C7
:104380008C518E5D8D518F5904E28CC98EF98DC987
:104390008FF939C420F03AC421F073EC50F020C0FA
:1043A000F5F421C0F6F495CD20F096CD21F073EC14
:1043B00050F020C03BF621C03CF657EC4FF020C037
:1043C00047F621C048F6B2C908F0B3C909F0040E97
:1043D000D89009320832E804FBE108C020F009C097
:1043E00021F063EC49F020C0B4F921C0B5F945C60D
:1043F00020F046C621F0B0EC4DF036EC41F020C084
:1044000049F621C04AF6B4EC3CF0F3CF9EFDF4CF60
:104410009FFD0D01580EF35C020EF45805E20701F2
:10442000600EE76FEA0E22D08A0E9E5D020E9F5943
:1044300019E29ECDE7F79FCDE8F70701940ED880EB
:10444000E757020EE857E80EE803F3CFE8F7030E4C
:10445000E703F350E827E80EE703F3CFE7F7F4505C
:10446000E82705D00701100EE76F270EE86FEFC4AD
:10447000AEF6F0C400F0016AF0C4AFF6F1C4B0F6D5
:10448000F2C400F0016AF2C4B1F6B4C959F6B5C974
:1044900000F0016AB5C95AF6F5C455F6F6C400F045
:1044A000016AF6C456F649C657F64AC600F0016AD4
:1044B0004AC658F69ECDA0F69FCD00F0016A9FCD6A
:1044C000A1F60A0EE15C02E2E16AE552E16E6BEFF1
:1044D00040F05CEC40F0100EE1260401005103E1D5
:1044E0001CEC4EF0BFD093A829D032EC43F0D9ECAD
:1044F0003EF020EC43F07AEC3EF0C1EC4DF0B2EC33
:104500003FF004EC45F0800E211403E09B6B9C6BA4
:104510009D6B09015C0510E14CEC4CF020EC43F084
:104520007AEC3EF0D3EC4CF0B2EC3FF00EEC45F000
:10453000800E21143BE037D0050135D032EC43F03A
:10454000D9EC3EF0BBEC4AF0ADEC4AF0C1EC4DF0DA
:104550006FEC40F004EC45F02134000E211802E627
:1045600060EC42F003E29B6B9C6B9D6B09015C0568
:1045700019E14CEC4CF0BBEC4AF0ADEC4AF0D3EC5A
:104580004CF06FEC40F00EEC45F02134000E211899
:1045900007E6D880000E9855000E9955000E9A55E2
:1045A00005E201D00501986B996B9A6B980EE96E44
:1045B000050EEA6EEE509B5D006EEE509C59016E4A
:1045C000EE509D59026E070E00C0DBFF080E01C0C1
:1045D000DBFF090E02C0DBFF9E5120E143EC45F0FA
:1045E000FF0E021807E6D880EC0E0054FF0E0154AF
:1045F000FF0E025410E2E7EC47F0D890EB50000AAF
:1046000006E6140EEE5C000EEE58000EEF5803E2C4
:10461000010E9E6F21D0ECEC47F024D0E7EC47F080
:10462000D880EB50FF0A06E6380EEE5CFF0EEE581F
:10463000FF0EEF580DE343EC45F0000E021807E6BD
:10464000D880C80E0054000E0154000E025404E23B
:10465000ECEC47F09E6B06D098C595F599C596F59C
:104660009AC597F595519611971104E10401F76BDE
:10467000F86B5FD09735FF0E971907E6D880380E94
:104680009555500E9655FF0E975553E2D890975179
:10469000000A06E6C80E955DAF0E9659000E9759B2
:1046A00048E2800E971510E060EC41F02468256820
:1046B0002668C4EC4DF0A9ECC8F00E0E1CC0DBFF60
:1046C0000F0E1DC0DBFF06D00E0E95C5DBFF0F0ED3
:1046D00096C5DBFFB4C904F0B5C905F0066A076AE0
:1046E0000E0EDBCF00F00F0EDBCF01F0026AC4EC40
:1046F00045F0B4C923F0B5C924F0C5EC47F01AC0A1
:104700001EF01BC01FF01CC020F01DC021F0400E89
:10471000236E420E246E0F0E256E266AA8ECCFF093
:104720001EC0F7F41FC0F8F4010E0401F727000EB5
:10473000F8230401000ED880F555000EF6555DE211
:104740000701D30515E1F3EC47F0D9EC3EF04FEC4F
:1047500041F09FEC49F0ADEC4AF061EC40F03CECEC
:104760003EF0F9EC47F05DEC4FF078ECC7F010D07C
:10477000F3EC47F07AEC3EF0F9EC47F0D2EC4EF077
:1047800035EC4AF04FEC41F05DEC4FF0CBECC7F06C
:104790000A0E1FC0DBFF0B0E20C0DBFF0C0E21C07A
:1047A000DBFF0D0E22C0DBFFFFEC47F00C0EDBCF72
:1047B00002F00D0EDBCF03F0246AE80E256E7D0EAD
:1047C000266E470E276EA4EC3EF09AECC9F0010A63
:1047D00014E10A0EDBCF1FF00B0EDBCF20F00C0E26
:1047E000DBCF21F00D0EDBCF22F021ECC9F01FC092
:1047F000B4FD20C0B5FD21C0B6FD93A861D09BC516
:10480000AAF6080E1F0B25EC44F003E0C2EC4BF0B7
:10481000FDE100C0ABF6100E1F0B25EC44F003E0E9
:10482000C2EC4BF0FDE100C0ACF688EC4CF003E0CC
:10483000C2EC4BF0FDE18EEC4CF003E0C2EC4BF02F
:10484000FDE100C05FF605019735000E971907E6F8
:10485000D880000E9555000E9655000E975513E220
:104860000701EA0508E155EC4DF006EC48F0450E6D
:1048700003EC4BF006D055EC4DF00DEC48F0450E36
:10488000276E3AEC4BF09FEC4BF0DFCF64F678EC00
:1048900040F0080E06EC4CF0FDE100C065F678EC47
:1048A00040F0100E06EC4CF0FDE100C066F678EC2E
:1048B00040F0180E06EC4CF0FDE100C067F68FD01A
:1048C00097C502F0006A016A800E021600500AE1E4
:1048D000015008E1800E021805E160EC41F0D1ECD6
:1048E0004BF009D0040E95C5DBFF050E96C5DBFF26
:1048F000060E97C5DBFF040EDBCF5DF6080E07EC56
:1049000041F003E0C2EC4BF0FDE100C05EF6100E9A
:1049100007EC41F003E0C2EC4BF0FDE100C05FF6B4
:104920009DC502F0006A016A800E021600500AE17D
:10493000015008E1800E021805E125EC44F0D1ECAD
:104940004BF005D014EC48F0060E9DC5DBFF040EBD
:10495000DBCFAAF6080E07EC41F003E0C2EC4BF007
:10496000FDE100C0ABF6100E07EC41F003E0C2EC35
:104970004BF0FDE100C0ACF60501800E971513E089
:104980000701EA0508E155EC4DF006EC48F0C50ECC
:1049900003EC4BF006D055EC4DF00DEC48F0C50E95
:1049A000276E3AEC4BF09FEC4BF0DFCF68F678ECDB
:1049B00040F0080E06EC4CF0FDE100C069F678EC22
:1049C00040F0100E06EC4CF0FDE100C06AF678EC09
:1049D00040F0180E06EC4CF0FDE100C06BF6100E36
:1049E000E15C02E2E16AE552E16E6BEF40F05CEC03
:1049F00040F00E0EE1260601880ED76F130ED86F19
:104A0000D96BDA6BDB6BDC6BFE0EDB500D080CE058
:104A1000FE0EDB500E0808E0FE0EDB500F0804E02F
:104A2000FE0EDB50100824E10701955100080CE24E
:104A30009551006E016AB4C920F0B5C921F095C73F
:104A400025F073EC46F004D0B4C9D5F6B5C9D6F656
:104A5000D5C6D7F6D6C6D8F6D5C6D9F6D6C6DAF6AE
:104A6000D5C6DBF6D6C6DCF60401F96BFA6BFCD0D2
:104A7000DF6A68EC44F069E20601050E165D000E7F
:104A80001759000E185907E271EC3FF020C000F0F2
:104A900021C001F011D0D4EC45F0EECF14F0EFCFEF
:104AA00015F071EC3FF020501424006E21501520B9
:104AB000016ED89001320032BBEC3FF042EC44F082
:104AC000BBEC3FF02CEC44F004E2BBEC3FF0EE6AB0
:104AD000ED6A0AEC4CF0D4EC45F042EC44F0BBEC4F
:104AE0003FF00501EE50325D006EEE503359016E1D
:104AF000C5EC43F042EC44F00AEC4CF00601D7510F
:104B0000005CD85101580CE2BBEC3FF0EECFD7F679
:104B1000EDCFD8F62FEC41F0EF5002E1DFCF00F9F6
:104B20000AEC4CF00050D95D0150DA5906E2BBECBA
:104B30003FF0EECFD9F6EDCFDAF6BBEC3FF0EE501A
:104B4000DB27EE50DC23DF2A94D70351006E016A85
:104B5000DBC620F0DCC621F003C525F073EC46F07F
:104B60000601D951D75DDA51D8590AE2D751D95D3A
:104B70000401F96F0601D851DA590401FA6F03D024
:104B80000401F96BFA6BFE0EDB040CE0FE0EDB5049
:104B9000020808E0FE0EDB50030804E0FE0EDB50C6
:104BA00004082EE10901B4510601DB5D0901B5518C
:104BB0000601DC590AE2DB510901B45D0601DD6F33
:104BC000DC510901B559060109D00901B4510601AA
:104BD000DB5DDD6F0901B5510601DC59DE6FF40EB6
:104BE000D880DD55010EDE550BE2040E0901025D91
:104BF00002E2022B07D00501200E68EC42F002D041
:104C00000901026B0D01880EC76F130EC86FC96BC7
:104C1000CA6BDF6A68EC44F027E20AEC4CF059EC0E
:104C200041F042EC44F059EC41F098EC41F00D01B8
:104C3000C751005CC851015806E259EC41F0EECF73
:104C4000C7FDEDCFC8FD59EC41F098EC41F00050A4
:104C5000C95D0150CA5906E259EC41F0EECFC9FDD9
:104C6000EDCFCAFDDF2AD6D70601D551BF5DD6519B
:104C7000C05905E30A0EDB6A0B0EDB6AA0D0D551E2
:104C8000D35DD651D4590BE2E80EF36E0A0EF3CF82
:104C9000DBFF030EF36E0B0EF3CFDBFF90D0010EA4
:104CA000DF6E0A0EDB6A0B0EDB6A010EDB6A010E99
:104CB000DB5014E10B0EDF5C11E2CCEC43F098EC1E
:104CC00041F0D551005CD651015804E2DAEC45F0D0
:104CD000DF2AEDD7DE52010EDD6EE9D70B0EDF5C69
:104CE0006EE2DF506CE0DAEC45F0CCEC43F02DECFA
:104CF0004BF0DF04D7EC40F0BF0EE926060EEA22A7
:104D0000EE50025C006EEE5003586BEC47F0CCECBA
:104D100043F098EC41F00A0EA2EC45F00002F3CF0C
:104D200000F0F4500126060EF3CFDBFF070E01C0A2
:104D3000DBFF0A0E206E216AD5C625F0D6C626F006
:104D40008BECC8F0080E1EC0DBFF090E1FC0DBFF96
:104D500057EC42F047EC44F013E2D9500A0F68ECEC
:104D60004AF00A0EEE5E000EED5A5CEC4AF0D950A5
:104D7000060F68EC4AF00050EE5E0150ED5AE8D79D
:104D80000A0E006E016A020EDBCF20F0030E7CECEF
:104D900046F0CBEC4DF0B4EC44F011E057EC42F0AF
:104DA0002AEC4EF00CE20A0EDB2A0B0E01E3DB2AA2
:104DB0002FEC40F0D950060FB9EC44F0EFD70501C5
:104DC00007053BE10701B20538E10501030535E0C0
:104DD000FE0EDB0410E140512EE10601D95107011E
:104DE000B35D0601DA510701B45922E2040E050150
:104DF000415D18E319D0FE0EDB50020804E0FE0E00
:104E0000DB5003081AE1405116E10701B3510601D6
:104E1000D75D0701B4510601D8590AE2040E050115
:104E2000415D02E2412B09D0416B010E406F05D07C
:104E30000501416B02D0010E3F6FB7CD70F6016ADC
:104E4000B8CD71F6B9CD72F6016ABACD73F6BBCDA5
:104E500074F6016ABCCD75F6BDCD76F6016ABECD9D
:104E600077F6BFCD78F6016AC0CD79F6C1CD7AF676
:104E7000016AC2CD7BF6C3CD7CF6016AC4CD7DF656
:104E8000C5CD7EF6016AC6CD7FF60A0EDBCF6EF683
:104E90000B0E29EC41F000C06FF6FFEC47F02FEC51
:104EA0004EF00E0EE15C02E2E16AE552E16E6BEF5C
:104EB00040F05CEC40F0110EE126DF6A080EDF5C8A
:104EC00015E278EC50F0010F7EEC4BF036EC45F03B
:104ED000010FDCEC49F02CEC44F006E2D950010F54
:104EE000DCEC49F0EE6AED6ADF2AE8D7010EDBCF91
:104EF00070F6020E29EC41F000C071F6030EDBCF14
:104F000072F6040E29EC41F000C073F6050EDBCFFB
:104F100074F6060E29EC41F000C075F6070EDBCFE3
:104F200076F6080E29EC41F000C077F6090EDBCFCB
:104F300078F60A0E29EC41F000C079F60B0EDBCFB3
:104F40007AF60C0E29EC41F000C07BF60D0EDBCF9B
:104F50007CF60E0E29EC41F000C07DF60F0EDBCF83
:104F60007EF6100EDBCF01F001C000F001C07FF62D
:104F7000110EE15C02E2E16AE552E16E6BEF40F096
:104F80005CEC40F0080EE12604010051030A01E147
:104F90007FD1040A01E17CD10C0A01E179D1040A34
:104FA00001E176D10D0A01E13DD1040A01E13AD1D6
:104FB0000C0A01E137D1040A01E134D10F0A07E0FC
:104FC000040A05E00C0A03E0040A01E0F8D1000538
:104FD0006BE10A017A5106E0020E7A5D03E0030EEE
:104FE0007A5D0CE10401960EF95D000EFA5924E396
:104FF0000601D80ED95D0E0EDA591EE30A017A05B4
:105000000CE10401FA0EF95D000EFA5915E30601F0
:10501000E40ED95D0C0EDA590FE30DEC47F022E1F6
:105020000401960EF95D000EFA5906E30601A40E7E
:10503000D95D060EDA5916E20901BA5113E1DBEC2B
:105040004EF003E1BBEC46F002D034EC4EF0FDEC48
:1050500041F005E20901BB5102E1010EBB6F0901FC
:10506000B96B32D0050E0901B95D13E2DBEC4EF0ED
:1050700003E1BBEC46F002D034EC4EF0FDEC41F025
:1050800005E20901BB5102E1010EBB6F0901B92B19
:105090001BD00501E80E2B6F030E2C6F0901BA51CE
:1050A00013E1010EBA6F10D0DBEC4EF003E1BBEC64
:1050B00046F002D034EC4EF0FDEC41F005E209017F
:1050C000BB5102E1010EBB6FB3EC48F030E10DECD7
:1050D00047F00BE10501700ED8802B55170E2C55AB
:1050E00004E2700E2B6F170E3ED00A017A5106E0D3
:1050F000020E7A5D03E0030E7A5D0BE10501D00E2E
:10510000D8802B55070E2C5504E2D00E2B6F070EBE
:105110002AD00A017A0528E10501100ED8802B5506
:10512000270E2C5521E2100E2B6F270E1CD0050EDA
:10513000005D0BE10501200ED8802B554E0E2C553D
:1051400004E2200E2B6F4E0E0ED02BC500F02CC5A6
:1051500001F001EC4CF002E67EEC40F005E20501C6
:10516000400E2B6F9C0E2C6F18EC45F017E29EEC56
:1051700040F002E67EEC40F002E2D4EC41F05CEC60
:105180004AF005012B51005C2C51015809E2020E36
:10519000DBCF2BF5030EDBCF2CF502D0D4EC41F0A6
:1051A000FDEC41F002E2CFEC44F0F4EC46F002E218
:1051B0004AEC43F0C3EC49F0E7C720F0E8C721F020
:1051C000CEEC48F006E10501C80E276FAF0E286F40
:1051D00002D0D2EC4DF005012351275D245128590E
:1051E0000AE2010E316F94EC4CF00901BC5106E16A
:1051F000010EBC6F03D0316B42EC40F0ADEC4BF0D4
:10520000B8EC40F053EC40F0246A400E256E1C0EC2
:10521000266E470E276E0CEC50F001E0CAD059EC18
:105220004DF0C9D0FD0EDBCF00F0FE0EDBCF01F05C
:10523000100E005C270E015806E20501400E2F6F8C
:105240001F0E306F0ED00EEC4DF0006AB40E016EE2
:10525000C40E026E040ED5EC4AF01EC02FF51FC01E
:1052600030F526EC42F02D51F35C2E5130590DE211
:105270004FEC43F093EC45F008E221EC42F02DC5F1
:10528000E6FF2EC5E6FF17EC4DF01BEC49F08ED083
:1052900084EC4FF08DC720F08EC721F0E1EC49F08F
:1052A00006E10501C80E2F6FAF0E306F06D036EC49
:1052B00040F020C02FF521C030F526EC42F0F3CFAE
:1052C00000F030C501F001EC4CF002E67EEC40F05D
:1052D00004E2400E2F6F9C0E306F18EC45F017E281
:1052E0009EEC40F002E67EEC40F002E2D4EC41F0AD
:1052F0005CEC4AF005012F51005C3051015809E285
:10530000020EDBCF2FF5030EDBCF30F502D0D4EC4D
:1053100041F038EC4EF002E24FEC43F093EC45F0F4
:1053200002E221EC42F084EC4FF0E7C720F0E8C73E
:1053300021F0E1EC49F006E10501C80E276FAF0E40
:10534000286F02D0D2EC4DF005012551275D265182
:1053500028590AE2010E316F9BEC4CF00901BC5157
:1053600006E1010EBC6F03D0316B4DEC40F0ADECAB
:105370004BF0106A116AFA0E126E430E136EB8ECFF
:1053800040F01FC014F020C015F021C016F022C05C
:1053900017F09BEC3EF010C01FF011C020F012C0BF
:1053A00021F013C022F00CEC50F003E18EEC45F03C
:1053B00002D0A0EC48F0016A00C0A7F605D00501B4
:1053C0000B6B0C6B0F6B106B080EE15C02E2E16A79
:1053D000E552E16E6BEF40F05CEC40F0060EE1262A
:1053E00004010051020A34E0040A32E00C0A30E001
:1053F000040A2EE00D0A2CE0040A2AE00C0A28E038
:10540000040A26E00E0A06E0040A04E00C0A02E0A0
:10541000040A5CE15EEC4BF07AEC3EF0B2EC3FF05B
:105420005FEC50F066EC4BF056EC4CF003E1E5EC31
:105430004BF022E0100E206E216A3BC425F03CC4E4
:1054400026F022EC48F03BC415F53CC416F53ED0DE
:105450005EEC4BF0D9EC3EF086EC50F0ADEC4AF04F
:105460006FEC40F05FEC50F0BBEC4AF056EC4CF0C7
:1054700020E1E5EC4BF01DE15CEC4AF0A2EC4CF0D5
:105480007AEC45F0A4EC3EF036EC41F06DEC42F0E5
:10549000020EDBCF1FF0030EDBCF20F0040EDBCFBC
:1054A00021F0050E26EC4EF020C015F521C016F5B2
:1054B0000DD0100E206E216A3DC425F03EC426F0AA
:1054C00022EC48F03DC415F53EC416F584EC46F0D8
:1054D000060EE15C02E2E16AE552E16E6BEF40F03C
:1054E0005CEC40F0090EE12604010051030A01E1E1
:1054F00050D1040A01E14DD10C0A01E14AD1040A5C
:1055000001E147D10D0A01E108D1040A01E105D109
:105510000C0A01E102D1040A01E1FFD00F0A07E001
:10552000040A05E00C0A03E0040A01E089D1000541
:1055300004E00D0E005D01E0AFD00701BE0544E1BF
:10554000A10E036E9C0E046E010E056E7ACA06F063
:10555000076A086A140EABEC4FF007C020F008C0D1
:1055600021F0A9ECC8F01CC006F01DC007F01EC059
:1055700008F003501C24006E04501D20016E0550DD
:105580001E20026EEBC709F00A6A0B6A020ED89061
:1055900009360A360B36E806FAE100500924F36EA4
:1055A00001500A20F46E02500B2026EC4FF0050E3D
:1055B0006CEC44F0060E6CEC44F0070E6CEC44F01E
:1055C000080E6CEC44F00AD0050EDB6A060EDB6AAE
:1055D000800ECAEC44F03F0EF9EC46F0050EDBCF2E
:1055E00000F0060EDBCF01F0070EDBCF02F0080E55
:1055F000F6EC4EF00EE19A0EF36E050EF3CFDBFFE4
:10560000990EE3EC44F0990ECAEC44F03F0EF9EC2D
:1056100046F03FEC43F0050EDBCF24F0060EDBCF67
:1056200025F0070EDBCF26F0080EDBCF27F0CBEC02
:10563000C7F021ECC9F0020E1FC0DBFFA9EC4CF053
:105640000701EA051AE1BFC700F0016A026A18EC17
:105650004FF0BFC724F001C025F002C026F0EECF06
:105660001FF0EECF20F0EFCF21F0A9ECC8F01EC064
:10567000EDFF1DC0EDFF1CC0EFFF18EC4FF06FEC0D
:105680004DF003E28DEC41F009D0020EDBCF29F59D
:10569000030EDBCF2AF502D0DCEC46F0DFEC41F064
:1056A00002E67EEC40F002E28DEC41F016EC4BF0AD
:1056B00002E2CFEC44F013EC4EF004E2F9EC4CF0D3
:1056C000450E11D0E1EC46F003E293EC41F005D039
:1056D00092EC47F005E1D9EC44F0066E460E03D09B
:1056E00023EC41F0470E11EC49F06DEC42F08DECEB
:1056F0004AF005010050475D0150485904E2DECFF1
:1057000047F5DDCF48F5315105E142EC40F059EC69
:105710004DF093D094EC4CF08ED0020E005D03E07F
:105720000E0E005D11E10701EA050EE1DDEC40F02F
:105730001F0EEE54000EEF5404E20501E6EC46F0B5
:1057400005D029EC48F002D0EBEC46F0E0EC47F055
:1057500002E2E6EC46F074EC4DF038EC4EF002E27A
:105760004FEC43F021EC42F08CEC48F003E284EC87
:105770004CF002D051EC4AF0276EC3EC4EF012EC24
:1057800050F004E2DECF49F5DDCF4AF51BEC49F0DD
:105790004DD0030E005D03E00F0E005D0EE107012A
:1057A000EA050BE1DDEC40F0C5EC4FF003E22AEC3A
:1057B00045F005D029EC48F002D0EBEC46F064EC63
:1057C00046F002E67EEC40F002E22AEC45F052ECB4
:1057D00042F002E24FEC43F021EC42F091EC48F051
:1057E00004E2F9EC4CF0C50E12D096EC48F003E25E
:1057F00093EC41F006D0070E0401005D05E1D9EC01
:1058000044F0066EC60E03D023EC41F0C70E55ECF3
:105810004AF012EC50F004E2DECF49F5DDCF4AF554
:105820000D01010E9B6F0501315103E151EC4DF06B
:1058300004D09BEC4CF0A0EC48F0016A00C0A7F645
:105840000501000504E1006B06011E6B1F6B090ECC
:10585000E15C02E2E16AE552E16E6BEF40F05CEC84
:1058600040F0E652DF6A68EC44F033E2090100518F
:10587000DF5C04E12FEC41F0EF6A29D0D9EC4CF069
:1058800001500318E8AE02D0033402D02AEC4EF0E7
:105890000BE22FEC41F0EFCF00F0320E005C17E28C
:1058A0002FEC41F0EF2A13D0D9EC4CF00350011843
:1058B000E8AE02D0013402D047EC44F008E22FEC0D
:1058C00041F0EF50000803E22FEC41F0EF06DF2A31
:1058D000CAD7B4EC43F0E5526BEF40F05CEC40F01B
:1058E000510EE126DF6A68EC44F001E3EFD043ECAF
:1058F00049F00AEC4EF0EECF0DF0EFCF0EF00DC0F8
:1059000020F00EC021F099ECC6F01FC009F020C0B5
:105910000AF021C00BF022C00CF020EC43F01FC0B5
:1059200005F020C006F021C007F022C008F0B2EC5C
:105930003FF03DEC4EF083EC4BF0D950010FB3EC4F
:1059400040F0030D0050E6EC3EF01FC0EEFF03C038
:10595000EEFF04C0EEFF43EC49F0B20EE926050E5F
:10596000B5EC4EF03EEC4DF0190FDCEC49F020C0E8
:10597000EEFF03C0EDFF43EC49F0D20EE926050E21
:10598000B5EC4EF0DF5002EC3FF021C003F0D950EF
:10599000290F7EEC4BF036EC45F0290F7EEC4BF0F6
:1059A0002CEC44F006E2D950290F7EEC4BF0EE6A65
:1059B000ED6AD950190F026EDACF03F0DF50020DF5
:1059C000D9EC4DF0290F066EDACF07F0DF50020D4B
:1059D0000650E6EC3EF0EECF04F0EFCF05F00050BD
:1059E000045C0150055870E2D950190F076EDACFE8
:1059F00008F0DF50020D0750E6EC3EF0EECF05F068
:105A0000EFCF06F0D950290F096EDACF0AF0DF5038
:105A1000020D0950E6EC3EF0EE50055C026EEE50D1
:105A20000658036E046A100E246E270E256E266A31
:105A3000E0EC4DF0A9ECC8F01DC003F01EC004F06E
:105A4000D950390F006EDF50030D0050E6EC3EF0E8
:105A50001CC0EEFF03C0EEFF04C0EEFFD950010FE3
:105A6000036EDACF04F0DF50030D0350E6EC3EF096
:105A700041EC4EF0EFCF02F00234000E021807E6C0
:105A8000D880000E0054000E0154000E02541CE297
:105A90000701EA050BE1BFC70CF00D6A0E6A05ECC1
:105AA0004AF0E7EC4DF030EC48F006D005EC4AF057
:105AB0001FC000F020C001F043EC49F0000EE926C1
:105AC000060EEA2242EC44F0DF2A0DD700C680F62B
